:1000000018F09FE518F09FE518F09FE518F09FE5C0
:1000100018F09FE518F09FE518F09FE518F09FE5B0
:100020004000000095201000C4130000992010002B
:100030009D201000A120100090150000A5201000A8
:10004000310F19EEFC1F01E3001040E3010000E056
:10005000031000E3101040E3010080E14FF07FF552
:10006000310F09EE6FF07FF5983104E3103040E373
:100070000300A0E10110A0E30010C0E5ED0704EAD1
:100100002DE9F041D0E902850446A8EB05074068D7
:1001100097422844154408D80E463A46A5EB0805F0
:100120000AF088FD2A466068F1190AF083FDBFF3E2
:100130005F8FE560BDE8F0812DE9F8434FF00008DE
:10014000064689461746D0E902243369151B9C42AE
:1001500003F1FF3125BF03F1FF339B180B1B1B1B62
:10016000BD4228BF3D469D4228BF1D467068494696
:100170002A4620440AF05EFDB2682C44A24208BF21
:100180000024A844A9447F1BBFF35F8FF460002FB5
:10019000DBD14046BDE8F883F8B540F20004C1F277
:1001A0001804A822002120460AF036FD4BF6400232
:1001B00040F2B80040F2A801002303254FF4006785
:1001C0001026C0F20002C1F21800C1F21801256128
:1001D0006561A261E0612762A3626362E3622266F5
:1001E0006166A6662367E3666367BFF35F8F074BAD
:1001F0009C46A3F11000ACEB030213F9011D8342EE
:10020000A154F8D1BFF35F8FF8BD00BFE0C200007A
:1002100038B540F2000400EB4003C1F2180401308D
:1002200004EBC30300EB400004EBC000DC6A8C4627
:10023000012C154612D0022C0CD0FCB99A6A596ACE
:100240008A429CBF1B6AD218013A511A8D4218D9B2
:10025000204638BDBDE83840FFF76EBF9A6A5C6A39
:10026000A2429CBF1B6AD218013A141BAC4228BFA1
:100270002C462246FFF744FF204638BD0024204686
:1002800038BD2A466146FFF73BFF2C46E0E700BF3A
:1002900040F2000370B5C1F218031B780446532BDB
:1002A0000D46164601D0FFF777FF32462946204615
:1002B000BDE87040FFF7ACBFD0E9013210B504468D
:1002C000501C984207D8236899540246E168636835
:1002D0000131A060E1609A4200D010BD2168206920
:1002E000FFF7D6FFA368984215BF4FF0FF330023F6
:1002F000E360A36010BD00BF2DE9F84F9142DDE936
:100300000A940F46154683461E4669D30B464FF0A6
:100310000108B3FBF5F39D4208F10108F9D9B04596
:1003200038BFB04614F0010A02D1B9F1000F41D133
:10033000DBF80C30002B2EDB012401E005FB04F47C
:10034000012E06F1FF36F9D8B7FBF4F39D4205D82C
:1003500005FB04F4B7FBF4F39D42F9D94CF2E8260F
:10036000C0F2000606E0AC42B4FBF5F30CD31C4629
:10037000B7FBF3F3F156584604FB1377FFF79CFFE6
:10038000DBF80C30002BEEDAB9F1000F0CBF0023C4
:100390000AF001034BB9BDE8F88F20215846FFF75A
:1003A0008BFFDBF80C30002BF5DBC14509F1FF3981
:1003B000F3D8F0E7B6FA86F35B0913EA540314BFE7
:1003C0003024202409E021465846FFF775FFDBF86A
:1003D0000C3009F1FF39002BDDDBC145F3D8A7E76D
:1003E0004FF001089BE700BFDFED8F0B00232DE9E5
:1003F000F04F9BB00DF1280905AC44F98F078046FA
:100400000D461746CDE90730CDF8109006E004A858
:10041000FFF752FF079B002BC0F2818015F9011BEB
:10042000002900F08E802529F1D100262B4613F9F2
:10043000011BA1F123020D2A08D8DFE802F05F07B3
:100440000707070707075B0763070757A1F1300294
:10045000D2B2092A4FF000040FD804EB840401EB58
:10046000440493F900101D46A1F13002D2B2092ACA
:10047000A4F1300403F10103EFD92E2953D04FF03A
:10048000000B95F90010584601E015F9011F21F005
:100490000403682BF9D0252938D05839CBB2202B4A
:1004A00037D8202935D8DFE811F071003400340046
:1004B000340034003400340034003400340034009C
:1004C000FD00C30034003400340034003400340034
:1004D00034003400340034003400AD003400340003
:1004E0008800340082003400340071001D4646F05C
:1004F00002069BE71D4646F0040697E71D4646F0B8
:10050000080693E71D4646F001068FE704A8FFF7AB
:10051000D3FE079B002B05F10105BFF67FAF184600
:100520001BB0BDE8F08F95F901102A2915D13B6861
:1005300002351A1D3A600120D3F800B095F9001079
:10054000A5E7079B002BEADD069C002C40F0B48059
:10055000234418461BB0BDE8F08FA1F13003DBB295
:10056000092B4FF0000B05F1010500F2E6800BEBC3
:100570008B0201EB420215F9011FA2F1300BA1F130
:100580003003DBB2092BF2D9012080E710225B4651
:10059000D7F800C00DEB0200DCF80010CDE90046F2
:1005A0000CF104043C60FFF7A7FE079BB2E75B4633
:1005B0000A22D7F800C004A8EEE74BF64C033968CE
:1005C000C0F200030C1D3C600C680BF10102002C12
:1005D00004BF00201C4600F0010604EB020A0CE0F8
:1005E000544514BF002306F00103002B91D104A849
:1005F000FFF762FE079B002B8CDB14F9011B00291F
:10060000EED186E70823102200263C680DEB02009D
:10061000216804343C60CDE90036FFF76DFE079B8E
:1006200078E700BFAFF3008040000000000000004A
:100630003B681A6804333B6082EAE273A3EBE2731F
:10064000092B03927BDD4CF6CD404FF0010ACCF62E
:10065000CC401946A0FB03C363290AF1010A4FEA03
:10066000D303F6DCDA4538BFDA4674BB07990024B9
:100670000B460029FFF653AF039B002B4CDB73079F
:1006800056D406F00303022B08BFBBF1000F5FD066
:100690005B460A22CDE90046039904A8FFF72CFE29
:1006A000079B37E73B6804A81A1D93F900103A60CE
:1006B000FFF702FE079B2DE722464946404603937B
:1006C000FFF7E6FD039B234443E7039A06F002038A
:1006D000002A17DB720715D4002B33D0BBF1000FB3
:1006E0000DD0F00709D50AE0202104A8FFF7E4FDAA
:1006F000079B013C002BFFF612AFA245F4D30799EC
:100700000B46B6E7013C13B1BBF1000FF7D0F2077F
:10071000F5D4002CF1D1A9E75B422D2104A8039365
:10072000FFF7CAFD079900290B46FFF6F8AEA8E7C8
:100730002B2104A8FFF7C0FDF4E75846A7E64FF0C9
:10074000010A8FE7F107D8D5079B002BA0DAE6E670
:10075000002C9DD009E0302104A8FFF7ADFD0799DA
:10076000013C00290B46FFF6DAAEA245F3D30B1E7F
:10077000FFF6D5AE8CE700BF0EB400B582B003AB78
:1007800053F8041B01AA0193FFF72EFE02B05DF897
:1007900004EB03B0704700BF2DE9F04F002489B08F
:1007A00007A8079402F12EFB4BF654024BF65C01AE
:1007B0009DF81D009DF81E30C0F20002CDE900300A
:1007C000C0F200019DF81F302046FFF7D5FF4BF621
:1007D00084214BF28479C0F200012046FFF7CCFF60
:1007E0004BF6E0414BF28075C0F2000999F80330F6
:1007F00099F80020019399F80230C0F200010093AB
:10080000204699F80130FFF7B7FF4BF60451C0F2CC
:100810000005EB784BF27C760193AB78C0F20001D7
:1008200000936B782A782046FFF7A6FF4BF62851F5
:10083000C0F20006F378C0F200010193B3782046BD
:10084000009373783278FFF797FF4BF64C512046B0
:10085000C0F20001FFF790FF4BF288714BF2787302
:10086000C0F2000108683246406829460069C0F2BB
:1008700000030090484604F0E9F8002840F0848026
:100880004BF66C510546C0F20001FFF775FF284694
:1008900009F0D8F94EF218024BF614614BF6FC5CE5
:1008A0004EF21D074EF21C084EF6E83BC0F2000265
:1008B000C0F20001CDE90321C0F2000CC0F2000734
:1008C000C0F20008C0F2000BCDF814C000220125D0
:1008D000144697F800A03A7058460DF11B02E1B299
:1008E00001F0ACFC50BB9DF81B2005FA04F3013469
:1008F00012B13A7813433B70032CEDD10646012424
:1009000039788AEA010388F8003004FA06F2D0B296
:100910001A4223EA00030BD03A7888F800301040DE
:1009200018BF0020324614BF05990499FFF724FF31
:100930000136032E0BD098F80030E6E74BF6C8518D
:10094000034622460020C0F20001FFF715FF039E78
:100950003468ACB904F088FB90B14BF62C610125EA
:1009600099F8032099F802302046CDE90032C0F210
:10097000000199F8013099F800203560FFF7FCFE7E
:10098000642009F007FBA1E74BF68C512046C0F22A
:100990000001FFF7F1FE7DE702464BF6606110B5FE
:1009A000C2F3074382B0140ECDE90034C0F2000157
:1009B000C2F307230020D2B2FFF7DEFE02B010BD63
:1009C00018232DE9F04F97B0089302E0642009F056
:1009D000E1FA04F049FB0028F8D04BF66C610020E6
:1009E000C0F20001FFF7C8FE06220121022005F037
:1009F000B3FA431C054600F0048141F227030224A8
:100A00001822284610A98DF84140ADF8423005F073
:100A1000B3FB021EC0F2E78000224FF0FF31042436
:100A200009AB099128461146009405F0B7FD0A214B
:100A3000284606F0D5F84BF6287A4BF6EC614BF6D3
:100A4000487B4EF220080020C0F20001C0F2000AEC
:100A5000FFF792FECDE9055AC0F2000B6E4EC0F2D0
:100A60000008CDF81CB01823059C08AA20460AA946
:100A7000089305F0DFFEB0F1FF3F81460DD14BF644
:100A800014710020C0F20001FFF776FE204605F049
:100A900007FD002009F0D6F8E5E706990020FFF7EA
:100AA0006BFE0C98FFF778FFBDF82A20079952BA21
:100AB00092B20020FFF760FE042000224FF0FF31C9
:100AC00009AB009009914846114605F067FD4BF6C9
:100AD00050714BF66073C0F20001C0F20003CDE923
:100AE0000313002340F2DC524146484605F026FF3E
:100AF000041E11DC5ED14BF6DC71C0F20001FFF781
:100B00003BFE484605F0CCFC4CF224010020C0F22C
:100B10000001FFF731FEA6E703990020FFF72CFE46
:100B20000C98FFF739FFBDF82A2042F2107352BA31
:100B3000049992B200200094FFF71EFE4BF67C71E0
:100B4000402C25464FF00000A8BF40254EF2200B58
:100B50004BF68877C0F20001FFF70EFEC0F2000BE3
:100B6000C0F2000708EB050A1BF8012B3946B35603
:100B7000002013F0970F08BF2E22FFF7FDFDDA4586
:100B8000F2D1AC421FDC4BF690710020C0F20001A4
:100B9000FFF7F2FD224600234146484605F066FF76
:100BA000021E18DB4BF6B4710020C0F20001FFF703
:100BB000E3FD96E74CF204012246C0F2000100205A
:100BC000FFF7DAFD9DE74BF68C710020C0F20001C3
:100BD000FFF7D2FDD7E74BF694710020C0F2000179
:100BE000FFF7CAFD8DE74BF6BC610020C0F20001A3
:100BF000FFF7C2FD284605F053FC002009F022F85B
:100C00000AE74BF69C610020C0F20001FFF7B4FD3B
:100C1000002009F017F8F0E614DF000002464BF65A
:100C2000606110B5C2F3074382B0140ECDE9003401
:100C3000C0F20001C2F307230020D2B2FFF79CFDEF
:100C400002B010BD18232DE9F04F93B0049302E0D9
:100C5000642009F09FF904F007FA0028F8D04CF25C
:100C60003C010020C0F20001FFF786FD02211122A5
:100C7000084605F071F9B0F1FF3F814600F0D380DE
:100C800041F227030224182248460CA98DF831406E
:100C9000ADF8323005F070FA021EC0F2B6800022C4
:100CA0004FF0FF31042405AB0591484611460094EE
:100CB00005F074FC4CF2C4010020C0F20001FFF703
:100CC0005BFD4CF264134CF248124EF20067C0F226
:100CD0000003C0F20002594EC0F2000702930392D3
:100CE000182404AD01950DEB04050095002340F296
:100CF000DC5239464846049405F0C6F9051E58DD15
:100D00004CF2EC010020C0F20001FFF735FD08981D
:100D1000FFF784FF4BF66071BDF81A2042F21073A2
:100D200052BAC0F2000192B200200095FFF724FDF4
:100D30004BF67C71402DAA464FF00000A8BF4FF043
:100D4000400A4EF200644BF6887BC0F20001FFF7C8
:100D500013FDC0F2000407EB0A08C0F2000B14F800
:100D6000012B5946B356002013F0970F08BF2E22CF
:100D7000FFF702FDA045F2D155453EDC4BF69071E0
:100D80000020C0F20001FFF7F7FC049C2A46019402
:100D900006AC002339464846009405F047FA021E87
:100DA0000CDA4CF2FC010020C0F20001FFF7E4FC79
:100DB00096E719D10399FFF7DFFC91E74CF21C117C
:100DC0000020C0F20001FFF7D7FC0898FFF726FFCC
:100DD0004BF64871BDF81A20C0F2000152BA92B227
:100DE0000020FFF7C9FC7BE72A4602990020FFF7A5
:100DF000C3FC0A2009F0CEF872E74BF68C71002094
:100E0000C0F20001FFF7B8FCB8E74CF294010020F3
:100E1000C0F20001FFF7B0FC484605F041FB00209E
:100E200008F010FF3BE74CF26C010020C0F200011B
:100E3000FFF7A2FC002008F005FF21E714DF000007
:100E4000704700BFFFF7FCBF704700BF38B54FF2D7
:100E50009054C0F200044FF0FF31206808F01CFBF2
:100E6000012803D000212068FFF7EEFF4FF29453D2
:100E7000C0F200031A7802B138BD01224FF2985532
:100E80001A70FFF7DFFFC0F200052B68013B2B60F3
:100E9000002BF1D0002320681A46194608F0D0F93B
:100EA0000128F2D000212068FFF7CEFF2B68013B1C
:100EB0002B60002BEED138BD4FF2985C4FF294536B
:100EC0004FF2485210B50024C0F20003C0F2000CEB
:100ED00001214FF48070C0F200021C70CCF8004079
:100EE00008F084F94FF29053C0F20003186048B143
:100EF00000F036F800F074F800F0B2F808F022FFC5
:100F0000002010BD0146FFF79FFFF1E730B44FF21C
:100F1000E8034FF2E8444FF48075C0F20004C0F2D9
:100F2000000304600B60156030BC704730B44EF6AF
:100F300088434FF288044FF48075C0F20004C0F279
:100F4000000304600B60156030BC704710B50446A8
:100F5000FFF77CFF2046BDE81040FFF71DBC00BF37
:100F600070B54FF2A05545F6284401264FF2985C23
:100F70004CF298434CF2841140F64D7084B0C0F2AC
:100F80000204C0F20005C0F2000C02950096019424
:100F9000DCF80040C0F2000334444FF48062CCF827
:100FA0000040C0F20001C0F2000008F0D1FD4FF295
:100FB0009C53C0F20003186008B104B070BD014634
:100FC00004B0BDE87040FFF73FBF00BF10B5044656
:100FD000FFF73CFF2046BDE81040FFF7F1BC00BF23
:100FE00070B54FF2046546F6284401264FF2985C2E
:100FF0004CF248734CF2901140F6CD7084B0C0F2C0
:101000000204C0F20005C0F2000C029500960194A3
:10101000DCF80040C0F2000334444FF48062CCF8A6
:101020000040C0F20001C0F2000008F091FD4FF254
:101030000063C0F20003186008B104B070BD01463F
:1010400004B0BDE87040FFF7FFBE00BF10B5044616
:10105000FFF7FCFE2046BDE81040FFF7F3BD00BFE0
:1010600070B54FF2686547F6284401264FF2985C48
:101070004CF24C734CF2A01141F24D0084B0C0F21E
:101080000204C0F20005C0F2000C02950096019423
:10109000DCF80040C0F2000334444FF48062CCF826
:1010A0000040C0F20001C0F2000008F051FD4FF214
:1010B0006463C0F20003186008B104B070BD01465B
:1010C00004B0BDE87040FFF7BFBE00BF00B583B0FD
:1010D00007F058FE0190019B03B05DF804FB00BFD0
:1010E0002DE9F04F4FF0000A41F2D5240346C0EF3E
:1010F000100040F808A9C0F2000440F98F0711F071
:10110000010F43E905414FF006304FF0053143F838
:10111000482C0CBF1F223F2243E90D104FF0123B19
:101120004FF011394FF010384FF0093E4FF0083CA6
:101130004FF007374FF002364FF001354FF00331D3
:101140004FF00434A3F1500043F80C2C43E9079B03
:1011500043E909E843E90B7C43E90F1443E91156DD
:1011600040F98F07BDE8F08F72B6BFF34F8FBFF322
:101170006F8F14EE163F082B06D0082304EE163F9F
:10118000BFF34F8FBFF36F8F62B6BFF34F8FBFF3C5
:101190006F8F4BF2E873C0F200031A6801321A60D5
:1011A0001B68012B00D070474FF2C863C0F20003E8
:1011B0001B68002BF7D000BE704700BF4BF2E873EE
:1011C000C0F200031A68AAB11A68013A1A601B68D3
:1011D00083B972B6BFF34F8FBFF36F8FFF2304EE57
:1011E000163FBFF34F8FBFF36F8F62B6BFF34F8FC2
:1011F000BFF36F8F704700BF08B572B6BFF34F8F54
:10120000BFF36F8F082304EE163FBFF34F8FBFF37A
:101210006F8F62B6BFF34F8FBFF36F8F08F0D8FEAA
:1012200028B14FF2CC630122C0F200031A6072B6FB
:10123000BFF34F8FBFF36F8FFF2304EE163FBFF353
:101240004F8FBFF36F8F62B6BFF34F8FBFF36F8FB8
:1012500008BD00BF10B451EC2E0F4FF2D464C0F2A1
:1012600000042468221841F1000343EC2E2F5DF89E
:10127000044BFFF7C1BF000080B972B6BFF34F8FB8
:10128000BFF36F8FFF2304EE163FBFF34F8FBFF303
:101290006F8F62B6BFF34F8FBFF36F8F704700BF82
:1012A00072B6BFF34F8FBFF36F8F14EE163F082B4C
:1012B00008BF012007D0082304EE163FBFF34F8F6D
:1012C000BFF36F8F002062B6BFF34F8FBFF36F8FF6
:1012D000704700BF08B54FF2C863C0F200031B6837
:1012E000013300D000BEFFF7DBFFFEE71CEE7B3FC3
:1012F000072B00D800BE1CEE7C3F5B0700D500BE6C
:10130000704700BF70B553EC0E2F0A2416461D46D9
:1013100053EC0E2F9D4208BF964206D1012108468C
:1013200001F17EFD013CF3D100BE002344F6D3540D
:1013300043F2C07141F255204FF2D462C8F6204307
:101340001B6AC1F26204A4FB0343C0F21001C0F2A5
:101350000000C0F200029B098867136051EC0E0F79
:1013600014680025221841F1000343EC2E2F0123BD
:101370000EEE323F2B464FF0804043F68802C9F212
:101380001143D3F88010C0F210020143C3F880105B
:10139000D3F81C1421F47F01C3F81C14D3F81C14D7
:1013A00041F47001C3F81C149567C3F88002D3F8A8
:1013B00000210243C3F8002162B6BFF36F8F70BDF6
:1013C00001F132BA1F056DF91F0002F1FF5F2DE92F
:1013D0008C209FE5001092E504102DE584209FE508
:1013E000003092E5000053E3101AF11E200B2D1D72
:1013F000200B6D1D04102D1504302DE568009FE5B0
:10140000001090E500D081E560009FE530FF2FE1FE
:1014100054009FE5001090E500D091E544009FE561
:1014200004109DE4001080E5000051E304009D14C9
:10143000200BFD1C200BBD1C100AE11E20009FE5A7
:1014400004109DE4001080E5000051E3FF40A0037C
:101450001C409F1500409415164F04EEFF5FBDE839
:10146000000ABDF8E8B70000D0F6000010DB01006C
:10147000F59F000010D400001F0002F14FF07FF52F
:101480006FF07FF54C009FE5001090E500D091E5EE
:1014900044009FE504109DE4001080E5000051E346
:1014A00004009D14200BFD1C200BBD1C100AE11E26
:1014B00028009FE504109DE4001080E5000051E342
:1014C000FF40A00318409F1500409415164F04EEEE
:1014D000FF5FBDE8000ABDF810DB0100D0F6000098
:1014E000E8B7000010D400004FF48063FF2008220A
:1014F00000B5C9F2004393F8201083B0C9B28DF84B
:10150000061083F8200093F82030DBB28DF8073006
:101510009DF80730D90707D49DF80730013A4FEA04
:1015200053038DF80730F3D19DF807301F2B00D0FF
:1015300000BE4FF480629DF80630C9F20042DBB273
:1015400082F82030EFF3008303F01F03102B19D033
:101550001CEE7C3F5A0700D500BE1CEE7C3F5B07AB
:1015600003D5002003B05DF804FB72B6BFF34F8FC4
:10157000BFF36F8FFFF7C6FEFFF77EEF002003B0CB
:101580005DF804FB00BE002003B05DF804FB00BF63
:1015900004E04EE204E02DE500E04FE104E02DE53B
:1015A000130002F11F102DE9100AF1EE200B2DEDB2
:1015B000200B6DED04002DE54C319FE5001093E507
:1015C000014081E2004083E51C0F1CEE0D20A0E1EC
:1015D000042002E202D04DE01F402DE92C119FE5CE
:1015E00031FF2FE11F40BDE802D08DE080000CF1FB
:1015F0004FF07FF56FF07FF53C0F0CEE001083E5A8
:10160000000051E30300001A04119FE5000091E57A
:10161000000050E30900001A04009DE4200BFDECDB
:10162000200BBDEC100AE1EE1F10BDE8120002F124
:1016300004E09DE40EF06FE104E09DE40EF0B0E103
:101640000000A0E3000081E504009DE4200BFDEC18
:10165000200BBDEC100AE1EE1F10BDE8120002F1F4
:1016600004E09DE40EF06FE104E09DE41F056DF9D8
:101670001F0002F1FF5F2DE998209FE5001092E521
:1016800004102DE590209FE5003092E5000053E323
:10169000101AF11E200B2D1D200B6D1D04102D1591
:1016A00004302DE574009FE5001090E500D081E541
:1016B0006C009FE530FF2FE160009FE5001090E592
:1016C00000D091E550009FE504109DE4001080E5F6
:1016D000000051E304009D14200BFD1C200BBD1CD9
:1016E000100AE11E2C009FE504109DE4001080E527
:1016F000000051E3FF40A00328409F1500409415CF
:10170000164F04EEFF5FBDE8000ABDF8C8F6000002
:10171000C1130000CCF60000E8B70000D0F60000CE
:1017200010DB0100F59F000010D4000008B54BF25B
:101730008873C0F200031B689A6818689369984719
:10174000B0FA80F0400908BD70B516468A6A0D46A9
:101750003B2A9EBF3C238B621A464BF28873C0F231
:1017600000031B68496A9C68186863699847B0FA67
:1017700080F4012E4FEA541401D0204670BD284653
:1017800002F026FC204670BDF0B54BF28874C0F222
:10179000000423680546596883B04A78012A02D1BB
:1017A00000BE236859684FF2EC629E68C0F20002E6
:1017B0001868336815609847002818BF0E282368FA
:1017C0009A68186817D14FF2F46493699847C0F289
:1017D00000042368064623B34FF2F065C0F200050B
:1017E0002B6863B14EB923683BB12868003818BF35
:1017F000012003B0F0BD536898470020F9E70427A3
:101800004CF2C01141F645004FF4807201950097EB
:10181000C0F20001C0F2000008F0E4F9002EECD1A3
:10182000E1E704254CF2B01141F6AD004FF48072AF
:1018300001940095C0F20001C0F2000008F0D2F956
:10184000CAE700BF2DE9F04340F6A1754FF2EC67FF
:1018500000234BF2887641F28839A846C0F200078F
:101860003A6883B001928DF80030C0F200064FF460
:101870007A7008F08FFB33689A6818689369984704
:101880008542044604D028B93B68186A03F056F82C
:101890002546ECE7484518BF4045E8D10021684699
:1018A00003F026F90128E2D12546E0E72DE9F041D1
:1018B0004BF288784FF2EC67002684B0C0F2000843
:1018C000C0F2000717E0019B3868616AC4E90A307A
:1018D00004F044FAB5F57A6F18BF002D0CBF01254E
:1018E000002500280CBF002505F00105206315BB6D
:1018F000204602F06DFB00214FF0FF32084608F051
:1019000085FD002140F2EA50019602F089FB044671
:101910000028F0D0D8F8003001AAD3E90115C96930
:101920001868AB680191616A984705460028CAD0DB
:1019300000230196C8E7606A03F008F9012803460E
:10194000D6D1002102A88DF80830039403F0D0F816
:101950000128CDD1D5E700BF002100B5037983B0C0
:10196000032B019102D003B05DF804FB836813F0F0
:10197000C00FF8D04FF2F463C0F2000318680028DB
:10198000F1D001AA08F08EFD019B002BEBD04FF2A5
:10199000CC630122C0F200031A60E4E770B54FF295
:1019A000D86605464CF2D412C0F200060C462B460F
:1019B00011213046C0F2000209F0CEF841F28970E0
:1019C00041F2497141F22D730022C0F20001C0F2D0
:1019D0000003C0F20000C4E90150266020466261A5
:1019E000A261E26122626262E160236104F0C2F8F6
:1019F000204670BD38B5054609F070F8044609F078
:101A00006DF80346A4B244EA034401202C6038BDBB
:101A1000002300B583B0019301A8FFF7EBFF019805
:101A20000028F9D003B05DF804FB00BF10B578B111
:101A300071B1844644F64500DCF80040C4F25450CD
:101A4000844209D10020CCE90B32CCF8281010BD1B
:101A500001F1D6F9012010BD01F1D2F9072010BD26
:101A600070B580B344F645030268C4F254539A42F9
:101A7000044624D10D46416800F12403496B00F16E
:101A80002002C96851F82500816800688E6904F158
:101A90001801B04738B9A269531E052B03D86368F3
:101AA000197819B170BD40F6A17070BD5B6B294605
:101AB000BDE870401B69D2B2186801F02FBA01F17D
:101AC0009FF9072070BD01F19BF9012070BD00BF97
:101AD0002DE9F047002866D044F645030446006827
:101AE000C4F2545398425AD18E46002968D0606897
:101AF0001546C3699A425AD8637F002B5BD0276989
:101B0000D7F8C0309B0741D4D0F83480E368D8F8C8
:101B100004C04FEA031A0CEB0316D6F80C90B9F187
:101B2000000F2BDB90F80190B9F1000F2BD18069E9
:101B300050F823304CF80A305CF80A0009F07AF8C3
:101B4000E36860684FF03042C5F30D0545F000458D
:101B5000B560F260027D0133934228BF0023E36049
:101B6000D8F8043003EB0213BFF35F8F002407F5AE
:101B700080572046C7F82031BDE8F08740F6A374AF
:101B80002046BDE8F0874CF80A10DBE701F138F990
:101B900040F6A27401F134F92046BDE8F08701F166
:101BA0002FF90724F6E701F12BF90124F2E701F1FF
:101BB00027F90324EEE701F123F940F6A174E9E7E0
:101BC00001F11EF90224E5E72DE9F041002862D079
:101BD00044F645030268C4F254539A42044655D170
:101BE0004368B3F92030002B46DB01215A099200EB
:101BF00003F01F0302F1144201FA03F3C2F8843127
:101C0000BFF34F8FBFF36F8F43F6880300206168E7
:101C1000C0F21003B1F92020203243F82200D1F89D
:101C200034802769D8F80C60351F0C3655F8043F0E
:101C30001BB19A68186853689847B542F6D1636833
:101C40001B782BB9D8F810309A68186853689847F1
:101C50000023184607F58052C2F834313A6863F31E
:101C600000023A603A6863F341023A60C4E9003323
:101C7000A382A383BDE8F08101220021203302FA70
:101C800003F3C9F21141C1F88031B9E701F1B8F8A5
:101C90000720BDE8F08101F1B3F80120EAE700BFB9
:101CA0002DE9F04100283FD044F645030268C4F214
:101CB00054539A4233D1437D002B39D00369D3F872
:101CC000C020920725D4D0E90142616B94F815C079
:101CD0000968160101EB021EDEF80C50002D0FDB27
:101CE000257DD4F81880AC18013262454FF0414789
:101CF00028BF002258F824408C51CEF80C70826026
:101D0000002001EB0C1103F58053C3F82811BDE846
:101D1000F08101F175F840F6A270BDE8F08101F1A3
:101D20006FF80720BDE8F08101F16AF80120EEE7C5
:101D300001F166F840F6A170E9E700BF2DE9F04136
:101D40000446002853D044F6450316460268C4F200
:101D500054539A423ED10D4600294CD0002E4AD011
:101D6000437F002B4BD00369D3F8C0309B072BD4A3
:101D700043685F6BA1683B6803EB0113DA68002AD4
:101D800042DBD86800F0405CBCF1405F16D1D868F7
:101D900010F4804012D1DB686268C3F30E08137D33
:101DA000B8F13B0F0B44916951F8231006D95378D1
:101DB000ABB12960C6F80080BDE8F0812046FFF78E
:101DC0006FFF0028D6D0F7E701F11AF840F6A270AD
:101DD000BDE8F08101F114F80720BDE8F081284644
:101DE000424608F027FF2046FFF75AFFE2E701F1DD
:101DF00007F86368FFDE01F103F80220DCE700F179
:101E0000FFFF40F6A170D7E74FF47A60D4E700BF38
:101E100070B5002837D044F6450203460068C4F286
:101E20005452904227D191B35C686278012A26D13E
:101E3000606B9A6800684FEA021E00EB021CDCF837
:101E40000C50002DB8BF40F6A67013DB4FF0414692
:101E50001D6940F80E10CCF80C60617D01328A4299
:101E600028BF002200EB0111002005F5805C9A607C
:101E7000CCF8281170BD00F1C3FF072070BD00F140
:101E8000BFFF052070BD00F1BBFF012070BD00F158
:101E9000B7FF022070BD00BF10B550B344F6450334
:101EA0000268C4F254539A421FD131B3036903F557
:101EB0008053D3F84431B3B14068426B52689B1AE7
:101EC0000F2B94BF037D1B09013B02EB0312D46867
:101ED000002C08DBD268920005D58269002052F8F8
:101EE00023300B6010BD222010BD00F189FF0720B8
:101EF00010BD00F185FF012010BD00F181FF02201F
:101F000010BD00BF4DF214424CF2E41008B54CF283
:101F1000DC134FF40471C0F20003C0F20002C0F2FF
:101F2000000000F16BFF00BF2DE9F043C46A87B0E9
:101F30000646894690461F4601AD14B3A646AC46F8
:101F4000BEE80F00ACE80F00DEF80030CCF800303F
:101F5000736820461B7884F804902360336BC4F8C0
:101F60000880C4E90373B36A9847F46A34B1AC4695
:101F7000BCE80F000FC4DCF80030236007B0BDE8F8
:101F8000F0832C46E4E700BF2DE9F84F05460369CE
:101F900092461A6822F001021A601A6822F00202C0
:101FA0001A60D3F8002322F47F02C3F80023888844
:101FB000D3F8002360F30F02C3F800236F680A68A8
:101FC0007E6BC3F804237269DAB1D3F8081341F0C9
:101FD0000041C3F80813D3F8081321F47F01C3F8B4
:101FE0000813D3F8081321F07C51C3F80813908824
:101FF000D3F8081360F30F01C3F808131268C3F88D
:102000000C23B269DAB1D3F8101341F00041C3F8E0
:102010001013D3F8101321F47F01C3F81013D3F871
:10202000101321F07C51C3F810139088D3F81013CB
:1020300060F30F01C3F810131268C3F814233A7D3C
:1020400000217068120108F0E7FD7C7DB4B13368AF
:1020500000214FF04146387DBA6903EB041402EBCE
:102060008002103352F8040BA34243F8100C43F8DB
:102070000C1C43F8081C43F8046CF2D1C0EF1000AC
:10208000696805F108042B694F6B44F98F074FF01D
:10209000010B4FF0020C4FF6FE7E9868CC7803F5EA
:1020A000805264F300009860087DD7F80480441ED5
:1020B000C4F3090408EB0010C2F82C41C2F81481E3
:1020C000C2F82001D2F804010F2540EA0B00C2F843
:1020D0000401D3F8000DC0F2010E40EA0C00C3F871
:1020E000000DD3F8000D6FF070466CF38300C3F859
:1020F000000D487D3C68C969471E0EEA4101C7F3DF
:10210000090704EB0010C2F83071C2F81C41C2F894
:102110002801C2F80811D2F808114FF0000941EA6D
:102120000B01C2F80811D3F8A010DA456CF30101D5
:10213000C3F8A010D3F8A41021F4E021C3F8A41030
:10214000D3F8A41041F48011C3F8A410D3F83C1DB7
:1021500041F00801C3F83C1DD3F83C1D6BF30201AC
:10216000C3F83C1DD3F8301D65F31851C3F8301D7A
:10217000D3F8301D41F01001C3F8301DD3F8301DE5
:1021800041F00801C3F8301DD3F8301D41F02001A3
:10219000C3F8301DD3F8301C21F00701C3F8301C00
:1021A000D3F8301C41F01001C3F8301C6FF0C0218F
:1021B000C3F8349CC3F80C67C3F81067C3F8001861
:1021C0004FF00301C3F8A418C3F8C4580BD04FF65E
:1021D000C560D3F8B41069F30411C3F8B410C2F8A1
:1021E0003401BDE8F88FD3F8B42042F01002C3F8F0
:1021F000B420BDE8F88F00BF10B5D8B144F6450350
:102200000268C4F254539A4204460FD10122436833
:1022100002771969FFF7B8FE032223690020C3F88B
:10222000C0201A6842F001021A6010BD00F1E8FDFA
:10223000072010BD00F1E4FD012010BD10B580B3F2
:1022400044F645030468C4F254539C4221D162B35E
:10225000032922D843685B6BDB6803EB0113E3B10E
:102260004DF22843C0F200035B5C90F815C003EA0E
:102270000C0133EA0C031CBF0023137001D00020B3
:1022800010BD437F002099430CBF0223012313702C
:10229000F6E700F1B5FD072010BD00F1B1FD032008
:1022A00010BD00F1ADFD012010BD00F1A9FD02201F
:1022B00010BD00BF38B543685B6B1C69254654B13F
:1022C000D4E9011320681B689847054618B1A36834
:1022D00020685B689847284638BD00BF43682DE9F1
:1022E000F0415B6BDF68A7F1040846460C3756F8EF
:1022F000044F54B1D4E9011320681B689847054680
:1023000048B9A36820685B699847BE42EFD10025B1
:102310002846BDE8F08158F8043F1BB19A68186858
:1023200053689847B845F6D12846BDE8F08100BF0C
:102330004DF27443F0B505468BB0C0F2000303F1D3
:102340000C0E03F118040E4693E8070001AF0DF1DF
:10235000100C0AAB87E807009EE807008CE807002E
:1023600094E8070003E90700002D00F04081002EEB
:1023700000F026813369002B00F022813378022B94
:1023800000F23981B6F92020002AC0F23881776B3B
:10239000002F00F01581B269002A00F01181386821
:1023A000002800F00D817A68002A00F0098144F6C7
:1023B00045022968C4F25452914200F0248100245D
:1023C0000AAA02EB830353F8243C6E602B61AC82B3
:1023D000AC83AC60727D2146120108F01DFC6B6875
:1023E000EC601A7D21461201786808F015FC6B68D4
:1023F0005A7D197DCA420DD09869DA69002150F8DA
:10240000240008F009FC6B6801341A7D597D0A44E8
:10241000A242F1D80024B26A336B0120AA622B6376
:10242000EC6200F1B7FD14EE167F04EE164F234662
:102430003178C8F22803D3F81023E1B1012001F16B
:102440000F04A04022EA0002C3F810230129D3F8A8
:10245000103308BF4FF0124305D0022940F001812C
:102460000023C9F201231A681A681A681A681A68E0
:102470001A681B680FE022F00102C3F81023002243
:10248000C8F21002D3F81033136813681368136886
:1024900013681368136804EE167F33780AAA02EBF8
:1024A000830353F8180C00F1CFFD33780AAA02EB2E
:1024B000830353F80C0C00F1C7FD012000F1F2FC7E
:1024C0003378002B00F084802846FFF707FF41F2A5
:1024D00088339842044600F0858000286DD12B692E
:1024E00003F580531A6842F001021A601A68D20795
:1024F000FCD403215A6842F001025A605A6842F43F
:1025000080525A605A6842F002025A605A6842F099
:1025100004025A605A6842F008025A605A6861F32D
:1025200013425A605A6861F31B62FF215A601A68AD
:1025300022F440321A606A68B2F92030566A03F019
:102540000302D200D71C002B01FA02F26FEA02024A
:1025500003F1200006FA07F659DB012743F6880C41
:102560005909890001F1144103F01F0E07FA0EF713
:10257000D1F884E023F003034EEA070EC1F884E0AB
:1025800003F11443D3F820E4C0F2100C02EA0E0267
:10259000C3F82024D3F820243243C3F820244CF875
:1025A0002050C1F88472D1F804313B43C1F80431A2
:1025B00044F64503C4F254532B6020460BB0F0BDE3
:1025C00000F11EFC022400F11BFC20460BB0F0BD04
:1025D0002846FFF76FFE044600283FF475AF2046FB
:1025E0000BB0F0BD40F6A57420460BB0F0BD00F175
:1025F00007FC0124E7E700F103FC0424E3E700F112
:10260000FFFB0324DFE700F1FBFB0E24DBE70021E7
:10261000012743F6880CC9F21141D1F880E08740C8
:1026200020F003034EEA070E03F11443C1F880E0E3
:1026300003F58813D3F800E4C0F2100C02EA0E028E
:10264000C3F80024D3F800243243C3F800244CF824
:102650002050C1F88072D1F800313B43C1F80031FD
:10266000A6E7FFF74FFC00BF2DE9F0472DED028BE9
:1026700082B0002800F0358144F645030268C4F2B8
:1026800054539A42044640F0A980037FD0F8049046
:10269000022B00F0AB804DF228480025D9F83430E9
:1026A00094F81DA0DE68C0F20008043E56F8043F0E
:1026B000C3B1636818F805705B6B1A7A012A21D1DF
:1026C000217D637D0F4207EA030241D052BB3B43A9
:1026D000637529462046FFF7C3F9637F60B323EA99
:1026E000070363770135042DE0D1BAF1000F42D121
:1026F000637F002B40F09880002002B0BDEC028B7D
:10270000BDE8F087DB6853F82530002B62D09A686B
:102710001868D369984741F2883398425AD0637D4C
:102720001F42D4D0637F1F42DCD129462046FFF7E9
:1027300097F90028D6D1637F3B436377A36A002BC8
:10274000D0D002463B4601212046FFF7EDFBC9E70A
:10275000002AC7D0FA4313406375637FD2B21A4090
:10276000A36A6277002BBDD03B460022022120469F
:10277000FFF7DAFBB6E7637D002BBDD1236903F5D4
:1027800080531A6842F001021A601A68D207FCD41A
:1027900003215A6842F001025A605A6842F480529A
:1027A0005A605A6842F002025A605A6842F00402C3
:1027B0005A605A6842F008025A605A6861F313423C
:1027C0005A605A6861F31B625A601A6822F44032F8
:1027D0001A6091E7637D1F4284D0BBE700F110FBD4
:1027E000072002B0BDEC028BBDE8F0870023856AAC
:1027F000037725B11A461946FFF796FBA56A04F13F
:102800002C06204626F98F87677DFFF7DDF9002823
:102810006BD149462046FFF78BFD002865D16775CF
:10282000A56206F98F8736E752462046D9F8101080
:10283000FFF7AAFB656823692A78002A5AD11A682B
:102840006AF3CF321A601A6842F480421A601A683A
:1028500042F400521A602A79012A00F08780002190
:10286000D3F8302D22F47032C3F8302DD3F8302D48
:1028700022F47062C3F8302DD3F8302D22F080029C
:10288000C3F8302D1A6F22F002021A67C3F89010B5
:102890001A6842F400121A601A6842F480121A6030
:1028A0001A6842F002021A601A6842F001021A60C5
:1028B000227F012A7FF420AF44F645032168C4F249
:1028C0005453994240F09E8020462969FFF75CFBF3
:1028D00003222369C3F8C0201A6842F001021A607B
:1028E0000AE700F18DFA012007E7019000F188FA6C
:1028F000019802E7A269013A052A00F28680DFE822
:1029000002F01C14072D29031A6822F4004299E7EB
:102910001A6842F400421A601A6842F480421A604F
:102920001A6822F400521A6099E71A6842F40042C9
:102930001A601A6822F4804288E71A6842F400425A
:102940001A601A6822F480421A601A6822F400524F
:102950001A6084E71A6822F40042DCE71A6842F43D
:1029600000421A601A6842F480426FE74DF22C4729
:10297000D4E90821960001F0030106F00C06C0F22C
:10298000000700220E4307F1010C02E0082A3FF481
:102990007FAF17F822101CF822003140814207EB6C
:1029A000820E02F10102F1D19EF802009EF803604E
:1029B00001281DD10221D3F8302D61F39132C3F8E3
:1029C000302DD3F8302D60F30B22C3F8302DD3F81F
:1029D000302D42F08002C3F8302D1A6FCFF6FF720F
:1029E0001A671A6F61F306121A671A6F0A431A6799
:1029F000012E7FF44DAFD3F8902042F00102C3F8CE
:102A0000902045E700F1FCF976E61A6822F40042CE
:102A10001A601A6842F480421A601A6842F400523E
:102A20001A601CE7C3680BB182681A75704700BF53
:102A300043F6440143F6480243F6880370B5C0F2FA
:102A400010010978C0F21002013932F91120C0F2E8
:102A50001003203253F8225082B02B6903F58053C3
:102A60009C68E0070FD4E10309D52B69D3F82C2D1E
:102A7000C3F82C2DD3F82C3D0093009B0093A203A8
:102A800013D402B070BDD3F86021C3F86021D3F82D
:102A9000603101930199AB6A0191002BE3D00023CF
:102AA00003212846FFF740FADDE72C69D4F8B0305F
:102AB000DB06E6D5AB6AD4F8C0602BB10023324602
:102AC00004212846FFF730FA06F02106012E15BF33
:102AD000022303232B77C4F8C03002B070BD00BFBF
:102AE000F8B5002800F075810E46002900F06981D4
:102AF0000B78002B40F06981B1F90230002BC0F255
:102B00006C8144F654130268C5F257339A42054665
:102B100000F067810B691B79012B07D18B68002BB3
:102B200000F04F81CB68002B00F04B8100244FF464
:102B300080622346C8F21102C8F21103C8F21204DF
:102B40000120C5E903326E60AC6000F123FA14EE97
:102B5000161F002704EE167F3B46C8F22803D3F861
:102B6000102322F00202C3F81023D3F81033236895
:102B700023682368236823682368236804EE161FEC
:102B80000220C0F2040000F15FFA012000F18AF98E
:102B900042F208414FF4805340F60B02D4F8140877
:102BA000C8F2120361F30D00C4F81408D4F8140C31
:102BB000C0F2001261F30D00C4F8140C586961F3FF
:102BC0000D005861D3F8140461F30D00C3F8140428
:102BD000C4F80828C4F8082C9A60C3F80824A3682D
:102BE00043F47023A360A36843F00F03A360C4F809
:102BF0000074D4F8003443F00803C4F80034D4F867
:102C0000003443F00403C4F80034D4F8003443F033
:102C10000203C4F80034D4F8003443F00103C4F8CC
:102C20000034E36843F00F03E360636943F00F038C
:102C30006361A36943F00F03A361D4F8403243F00A
:102C40000103C4F84032D4F8443243F00103C4F81D
:102C50004432D4F8483243F00103C4F84832D4F87F
:102C60004C3243F00103C4F84C3233691A78012A1C
:102C70005DD0D4F8803467F30003C4F88034FF21BA
:102C80006A68B2F90230107903F00302D200D71C4F
:102C9000002B01FA02F26FEA020203F1200400FAAB
:102CA00007F064DB012143F6880C5F09BF0007F1E0
:102CB000144703F01F0E01FA0EF1D7F884E023F059
:102CC00003034EEA010EC7F884E003F11443D3F87E
:102CD00020E4C0F2100C02EA0E02C3F82024D3F85C
:102CE00020240243C3F820244CF82450C7F884124F
:102CF000D7F804310B43C7F8043133691B79012B32
:102D00000ED10023C8F21203D3F8002642F4E06289
:102D1000C3F80026D3F8002642F00102C3F80026CB
:102D200044F65413C5F2573300202B60F8BD5A887F
:102D3000D4F8803462F31F43C4F88034D4F880346C
:102D400067F34513C4F88034D4F8803467F3041370
:102D5000C4F88034D4F8803443F00203C4F88034DB
:102D6000D4F8803443F00103C4F8803487E70021AD
:102D7000012743F6880CC9F21141D1F880E0A74041
:102D800024F003034EEA070E03F11443C1F880E078
:102D900003F58813D3F800E4C0F2100C02EA0E0227
:102DA000C3F80024D3F800241043C3F800044CF8FF
:102DB0002450C1F88072D1F800313B43C1F8003192
:102DC0009BE700F11DF80220F8BD00F119F804207E
:102DD000F8BD00F115F80120F8BD00F111F803204D
:102DE000F8BD00F10DF80E20F8BD00BF10B50028A9
:102DF00000F0908044F654130168C5F257339942AD
:102E0000024640F0838042F208409368D3F80046BF
:102E100003F5805124F4E064C3F80046D3F800467B
:102E200024F00104C3F80046D3F8404224F0010422
:102E3000C3F84042D3F8444224F00104C3F84442AA
:102E4000D3F8484224F00104C3F84842D3F84C4276
:102E500024F00104C3F84C42D3F8144860F30D0485
:102E6000C3F81448D3F8144C60F30D04C3F8144CA1
:102E70004C6960F30D044C61D1F8144460F30D0407
:102E80004FF40060C1F814449C68C0F2001024F4B0
:102E900070249C609C6824F00F049C605468B4F912
:102EA00002C0C3F80808BCF1000FC3F8080C886022
:102EB000C1F808041FDB01214FEA5C139B000CF0F2
:102EC0001F0C03F1144301FA0CF1C3F88411BFF392
:102ED0004F8FBFF36F8F43F6880100235068C0F215
:102EE0001001B0F902C018460CF1200C41F82C304A
:102EF000C2E9003310BD012300210CF1200C03FABC
:102F00000CF3C9F21141C1F88031E0E7FFF078FF1E
:102F1000072010BDFFF074FF012010BD10B5002880
:102F200040D044F654130468C5F257339C4232D162
:102F30000129836833D0022913D0032081B903F615
:102F400008010B68013A23F0007323F48163052A1A
:102F50002CD8DFE802F0120E0A031C1800200B60C8
:102F600010BD03F580510831EBE7002043F4806386
:102F7000F5E7002043F00073F1E743F00073002011
:102F800043F48063EBE7002043F00803E7E7002009
:102F900043F48163E3E7FFF033FF072010BD03F63E
:102FA0000841CEE7FFF02CFF012010BD0320D6E73B
:102FB00043F6440143F6480243F688032DE9F04FF7
:102FC000C0F210010978C0F21002013932F9112063
:102FD000C0F21003203253F822808FB0D8F80830A6
:102FE0000026D3F804B6C3F804B6D3F804261BF4BD
:102FF000E06F0592059A059206D0D8F80420116971
:103000000979012900F091811BF0200F40F0E38045
:103010001BF0006F40F09280BBF1000FC0F2BF8048
:103020001BF0804F63D11BF0005F02D10FB0BDE8F1
:10303000F08FD8F80850D5F8083513F4702FC5F87C
:103040000835C3F30342F1D04FF2F8634CF6FF1892
:103050004FF0000B4FF44A4AC3F69A38C0F200030F
:1030600058460193CB46C3F69A3AC146B04600E0B3
:103070000130012383401A42FAD04FF4585CCCF25D
:10308000654C674622EA030200F0030602920090B4
:10309000019B00211B680EE0D5F8C845C2F38018DB
:1030A000002CC2F3062BB8BF544402DB4C45C8BF0A
:1030B000E41901218BB9C5F8C465D5F8C425D0063B
:1030C000EAD4029A009819B1CDE90C4B8DF828800A
:1030D000002ACDD10FB0BDE8F08F1020CDE90C4B08
:1030E0009DF800108DF828800AAA9847D0E74FF283
:1030F000FC65D8F80830C0F2000503F54053D3F85A
:10310000C07E2A68C3F8C07E002A8CD0F90709D592
:10311000D3F89C3E4FF48070C3F30B43ADF82830D6
:103120000AA99047BF047FF57EAF002240F201104C
:103130002B680AA9ADF82820984774E74FF204736A
:10314000C0F200031D68002D3FF466AF0020D8F8E0
:10315000083003F5095304331A4652F8E81B03F10B
:10316000B007C9B2A3F15C0C002940F0088153F804
:103170005C1C03F58063C9B2002940F0F680396811
:10318000C9B2002940F0F7801168CF0640F0E8800E
:1031900001300328E0D1BBF1000FBFF641AFD8F8F2
:1031A000083003F54053D3F8842FC3F8842F4FF22F
:1031B0000073C0F200031B68002B3FF431AFC2F371
:1031C0000B01C2F30342ADF828100020ADF82A200D
:1031D0000AA9984724E7D8F8083003F5405ADAF8E6
:1031E000103C002B3FF414AF44F6541200234FF26E
:1031F0000877C5F25732CDE900B40296CDF80C90AD
:103200001E46D1469346C0F20007D9F8105C002450
:103210004FF0010AC9F8105C0EE0202B42D038D8DC
:10322000012B54D0102B04D13B6813B10021042092
:1032300098470134102C23D00AFA04F32B40F8D01D
:10324000802B4BD0E9D9B3F5804F39D0B3F5004F7F
:103250002FD0B3F5807FECD1D8F800305B454ED14C
:10326000D8F80830D3F8403C5B074CD43B6813B126
:103270000121002098470134102C4FF00006DBD1CB
:10328000D9F8103C002BC0D1DDE900B4DDE90269BA
:10329000BEE6402BCDD13B68002BCAD000210520D3
:1032A0009847C6E73B68002BC3D00121042098470C
:1032B000BFE73B68002BBCD0012108469847B8E720
:1032C0003B68002BB5D0002101209847B1E73B684F
:1032D000002BAED0032106209847AAE7D8F800308B
:1032E0005B4517D1D8F80830D3F840385A0715D4C1
:1032F0003B68002BBFD0002108469847BBE7FFF092
:103300007FFD002EB2D03B6813B101210220984707
:1033100001268EE7FFF074FD002EE9D03B68002BFC
:10332000F6D0002102209847F2E7117803F5805586
:103330000691D3F84018D3F8400C2B6CC0F38000F2
:1033400003F00403C1F3800143EA40030B430893F5
:10335000D2E902318DF81C60099106A8984753E61E
:10336000032113681360A84756E6DCF800300121FA
:10337000CCF80030F7E73B6802213B60F3E71A68BE
:1033800000211A60EFE700BF08B580B144F6530290
:103390000168C4F254529142034602BF0022104613
:1033A0001A6000D108BDFFF02BFD072008BDFFF01B
:1033B00027FD012008BD00BF2DE9F041002800F0E5
:1033C000D180002900F0CE8041600D780446032DA5
:1033D00000F2CD80CB78022B00F0848044F65303BA
:1033E0002268C4F254539A4200F0C5804FF20C7325
:1033F0000026C0F200031F78C8F21106A660002F55
:1034000078D000230120A5274FF6FE764FF4807276
:10341000C8F211031F6018601E6018609868C8F237
:10342000110220F007009860D3F8080302EB850230
:1034300020F00700C3F80803D3F8040320F00700C6
:10344000C3F804031368887823F48F7323F001030F
:1034500000283BD1087944F65306012808BF43F4FD
:1034600080731360002391F801C001226FEA0C0100
:103470001F46C8F211035869AA4000F0070001F086
:10348000010120EA0200A940014338460CFA05FC7C
:103490005D69C4F2545661F302055D615969C1F377
:1034A000021121EA02014CEA010C59696CF3061180
:1034B0005961D3F814110A43D3F8141162F30301CC
:1034C000C3F814111F602660BDE8F08101283FD0C9
:1034D000032818BF1368BDD1C878002852D143F023
:1034E0000803B7E78B78032B3FF478AFFFF088FC35
:1034F0000320E9E74FF00108404683F80080FFF021
:1035000049FD14EE161F04EE167F0023C8F22803AF
:10351000D3F8102322F00802C3F81023D3F8103395
:10352000336833683368336833683368336804EE6C
:10353000161F0520C0F20400FFF086FD0620C0F231
:103540000400FFF081FD4046FFF0ACFC616858E7E5
:10355000C878A0B143F005034879012808BF43F0BB
:10356000100377E7FFF04CFC0120BDE8F081FFF08D
:1035700047FC0420A8E7FFF043FC0E20A4E743F03B
:103580000403E9E701280CBF43F0090343F00A03F1
:1035900060E700BF38B500284ED044F653030468F6
:1035A000C4F254539C4243D14368022993F802C0A9
:1035B0002AD0A5251C78836801201D604FF6FE7572
:1035C0008442186008BF03F582741D60186007D03C
:1035D000032C08BF03F5867402D0E4B103F58474AC
:1035E000002918BFBCF1000F206820F4817020F082
:1035F000010013D1012A4FF0000208BF40F480708F
:10360000206010461A6038BDBCF1030FD1D0FFF026
:10361000F7FB032038BD03F58074E1E7012908BFFB
:1036200040F00100E6D0022908BF40F00200E1E7C7
:10363000FFF0E6FB072038BDFFF0E2FB012038BDBC
:103640000620704738B5E0B144F659030268C5F268
:1036500050239A42044610D1054655F8043F5B6951
:10366000DB689A68186853689847C0EF1000002319
:1036700045F98F071846236038BDFFF0C1FB0720CE
:1036800038BDFFF0BDFB012038BD00BF10B50028DC
:1036900000F0B0801F290CD8B2F5803F09D24468F1
:1036A00063695B78042B30D8DFE803F007315107FA
:1036B0000700FFF0A5FB032010BD637880685B0561
:1036C00003F07873D0F8044243EA014392B243F422
:1036D000806343F0050362F30F04C0F80442C0F8AE
:1036E0000032D0F80032D9070FD54FF44A42C3F662
:1036F0009A32D0F80032013A03F0010383F001035B
:1037000008BF43F00103002BF3D0002010BD637805
:1037100080685B0103F478730B43C0F80437C0F88A
:103720000827D0F80037DA07EFD54FF44A42C3F63E
:103730009A32D0F80037013A6FEA030303F001032D
:1037400008BF43F00103002BF3D00020DEE78068C0
:10375000B0F810351B0444BF4FF44A43C3F69A3304
:1037600002D406E0013BD0D0B0F810C51CF4004FE5
:10377000F8D190F8173543F0010380F8173590F829
:103780001635DB0744BF4FF44A43C3F69A3302D4DD
:1037900006E0013BB9D090F816C51CF0010FF8D136
:1037A00040F201236478C9B292B280F8124580F8E1
:1037B0001315A0F81425A0F81035B0F81035190429
:1037C00044BF4FF44A43C3F69A3302D405E0013BA9
:1037D0009BD0B0F810251204F9D4B0F810355B0472
:1037E00058BFB0F8103590F8173523F0010380F872
:1037F00017358AE7FFF004FB012010BD10B5002843
:1038000000F0B180002A00F0B2801F2900F2A780EA
:10381000446863695B78042B04D8DFE803F0082A66
:103820004B0808004FF6FF731360002010BD63784B
:1038300080685B0503F0787343EA014343F48163D6
:1038400043F00503C0F80032D0F80032DC0744BF73
:103850004FF44A43C3F69A3302D405E0013BE1D06A
:10386000D0F80012C907F9D4D0F804329BB2136023
:10387000DBE7637880685B0103F478730B4343F400
:103880000043C0F80437D0F80017CC0744BF4FF40A
:103890004A43C3F69A3302D405E0013BC2D0D0F8C4
:1038A0000017CC07F9D48B07BCD4D0F808379BB2EB
:1038B0001360BAE78068B0F810351B0444BF4FF4BA
:1038C0004A43C3F69A3302D406E0013BAAD0B0F8CB
:1038D00010C51CF4004FF8D190F8173543F00103E0
:1038E00080F8173590F81635DB0744BF4FF44A438C
:1038F000C3F69A3302D406E0013B93D090F816C584
:103900001CF0010FF8D140F201136478C9B280F8BD
:10391000124580F81315A0F81035B0F810351C04C6
:1039200044BF4FF44A43C3F69A3303D406E0013B45
:103930003FF478AFB0F810150904F8D4B0F810359A
:103940005B0458BFB0F81035B0F8141590F817356F
:1039500089B223F00103116080F8173565E7FFF0A5
:103960004FFA032010BDFFF04BFA012010BDFFF00D
:1039700047FA022010BD00BF10B582B018B344F65C
:1039800059030268C5F250239A42044616D1012118
:1039900001AAFFF733FF012101AA2046FFF72EFFFE
:1039A0004FF6FF72019B41F2883099B2914203D0E9
:1039B00013F0040F18BF002002B010BDFFF020FA72
:1039C000072002B010BDFFF01BFA0120F4E700BF92
:1039D00010B582B020B344F659030268C5F25023F3
:1039E0009A42044617D143685B691B79012B0DD1BC
:1039F0004FF490520021FFF749FE042120460DEBC1
:103A00000102FFF7FBFE002002B010BDFFF0F8F945
:103A1000052002B010BDFFF0F3F9072002B010BD81
:103A2000FFF0EEF90120EFE72DE9F04383B0002825
:103A300000F082800D46002900F082804F69002F3F
:103A40007ED044F659030268C5F250239A420446D8
:103A500000F0F5800B78032B76D87B78042B0DD8FB
:103A6000BA78042A0AD8FA78012A07D8013B032B2E
:103A700000F27381DFE803F0585C0B54FFF0C0F9EB
:103A80000326FFF0BDF9304603B0BDE8F0834FF0E8
:103A900012430022D7F80C80C4E90153D8E9000191
:103AA000D8F808301B68E260984706460028EAD13B
:103AB000D8F80830D8F800009E68BB78042B9EBF69
:103AC0004DF2B842C0F20002D15CFA7888BFFF2103
:103AD00012B1012A18BFFF22B04706460028D2D1F2
:103AE0003B78002B3BD061680B7B012B00F00B81F6
:103AF00038794A69012893782AD0023BDBB2022B3D
:103B00000CD84DF2AC41D078C0F2000151F823201E
:103B1000002800F08880012800F083800326B2E7A7
:103B20000023C9F20123B4E70023C8F21203B0E76F
:103B30000023C8F21303ACE7FFF062F90126A0E707
:103B4000FFF05EF902269CE7FFF05AF9042698E799
:103B5000042BE3D8DFE803F077A69F978E004FF29F
:103B60001071C0F200010B46D5F8148001F1080C69
:103B7000B8F8060033F8022B824200F09F806345BC
:103B8000F8D12B7821F813000220FFF003FAB8F8DF
:103B90000630B3F5506F4FEA132180F0D380002236
:103BA00001209446C8F22C12551895F8005CDBB23F
:103BB000984045FA03F313F0010FC8F22B0C18BF1D
:103BC0006246535C23EA000353540121D8F80800ED
:103BD000FFF026F9B8F806300022B3F5506F4FEA2F
:103BE0001321DBB280F0A58001209446C8F22C128C
:103BF000551895F8005C984045FA03F313F0010F4F
:103C0000C8F22B0C18BF6246535C0343DBB253541B
:103C1000D8F808000121FFF003F90220FFF042F973
:103C200061E742F4807200212046FFF72FFD002358
:103C3000E36044F65903C5F25023236023E7FFF005
:103C4000DFF80E261DE7D3780025012B40F2E112A4
:103C500018BFA1224B7B2046012B08BF42F44062D3
:103C6000E2600421FFF712FD2A4609212046FFF7F2
:103C70000DFDDEE7D3780122934214BF4FF4807527
:103C80004FF44075E6E7D3780025012B40F281120E
:103C900018BF8122DEE7D3780025012B14BF212233
:103CA0006122D7E740F2E113D278012A15BF4FF421
:103CB00080754FF44075A1221A46CBE72B7821F886
:103CC000130098F80430012B7FF40DAF4FF400423D
:103CD00000212046FFF7DAFC4FF000084FF6FF798D
:103CE00001AA00212046FFF789FD019B9AB24A45AF
:103CF00002D01B047FF5F7AE6B68434508F101085D
:103D0000EED21426BFE600221D2120460192FFF7C5
:103D1000BDFC1E2101AA2046FFF770FD019A1E215D
:103D200022F00102204642F00202FFF7AFFC616878
:103D3000DEE60120C8F22C029840535C0343DBB25C
:103D4000535465E700220120DBB2C8F22C029840F0
:103D5000535C23EA0003535437E70023C8F21003EF
:103D600097E600BF2DE9F04F85B0002800F0A28053
:103D700044F6590C1F460368C5F2502C63450446AF
:103D800040F087800D46002900F089801646002A01
:103D900000F08580002F00F082804368D3F81490F3
:103DA00099F80480B8F1010F16D003AA0021FFF79B
:103DB00025FD039B5A0666D403F480729B0474D5D8
:103DC000002A14BF04220322002318462A6033600D
:103DD0003B6005B0BDE8F08F00236A464146CDE95F
:103DE00001330393FFF70AFD6A4641462046FFF779
:103DF00005FDDDF800A01AF0040F78D01AF0200FAE
:103E000000F09580D4F80CB001AA05212046FFF7F8
:103E1000F5FCCBF380235B001BF4006F18BF43F06D
:103E200001033360019BC3F3802252001E0548BF8B
:103E300042F0010298063A6004D51BF0200F1CBF27
:103E400001222A60590604D51BF0400F1CBF022234
:103E50002A601A0604D51BF0800F1CBF03222A60BB
:103E6000DF0504D51BF4807F1CBF04232B601AF4EC
:103E7000807F41D12B68013B042B56D8DFE803F04B
:103E8000291E33312D0013F4807F14BF0622052232
:103E90009AE7FEF0B5FF072005B0BDE8F08FFEF011
:103EA000AFFF022005B0BDE8F08F002A14BF022248
:103EB000012289E7FEF0A4FF01208AE700214246A3
:103EC000D9F80C309C681868A36805B0BDE8F04FBD
:103ED00018474FF000084146F1E74FF00008022173
:103EE000EDE70121EBE701214FF00008E7E7FEF0E5
:103EF00087FF41F288306CE7092102AA2046FFF7CC
:103F00007DFC0A21204603AAFFF778FC039B5E058F
:103F100004D5029AD40544BF05222A601805A9D504
:103F2000029B9905A6D506232B600221C7E7FEF068
:103F300067FF41F289304CE7704700BF2DE9F0413F
:103F40004FF69015C0F20005286820B1003818BF60
:103F50000120BDE8F0810A214FF648120846C0F260
:103F6000000205F043F9286060B34CF2A021C0F2D2
:103F7000000105F049FB4FF698104FF218744FF608
:103F80009816C0F2000004F0F7FF4FF00008C0F2EE
:103F9000000404F50C77C0F200062046C4F8248023
:103FA00004F0FCFF2146E4603046383405F008F8A0
:103FB000BC42F2D14FF694130A22C0F200032868E3
:103FC0001A60C3E700BE28680028BFD0CDE700BF55
:103FD00070B50446406A10B10A3804F041FE00256D
:103FE000C4E90955FDF7C0F84FF698102369C0F2EF
:103FF0000000834210D0214604F0D4FFFDF7DEF824
:104000004FF69010C0F200002B462A462946BDE824
:104010007040006805F014B9BDE87040FDF7CEB8F7
:104020004128F8B511D90446C31C84BF012004F00F
:10403000030342D95A1FA24204D30434E41A14F1F0
:104040000B0F46D900252846F8BD44244E274FF6CD
:104050009013C0F2000318680028F3D005F01CFA92
:104060000128EFD14FF69816C0F20006FDF77CF854
:10407000F368DD68284604F0BDFFFDF79FF84FF6B2
:104080009413C0F2000319683268914288BF1A6025
:104090006B6A03B100BE002CD5D0384604F004FD95
:1040A000686210B3C0EF100040F80A5B05F12C0302
:1040B000C5E9090443F98F07C5E7023414F0030387
:1040C00008BF1846BBD05A1FA2424FF00000B4D21E
:1040D000B8E704F10A0780F00100002FB4BF002008
:1040E00000F001000028B2D1ACE72846FFF770FFCE
:1040F000A8E700BF2DE9F04F4FF0000A4FF0FF3B5B
:1041000083B04FF0FF09064688465446514D019250
:10411000CDF800B011E006223146284606F052FDE7
:1041200020B3B84550D0AB79994584BFA246994693
:104130000134062C05F1100520D055F8047C002E22
:10414000E9D1B845EFD1BBF1000F7BDB4FF6BC13D3
:10415000C0F2000322014FEA0B1C03EB04149E5033
:10416000C4E90166E66043F80C803AE0B8452DD01A
:10417000A3460134062C05F11005DED1BBF1000F7A
:104180004FF6BC12009B42DB002B2DDA4FEA0B1AD4
:10419000C0F2000242F80A80002E42D04FEA0B1A09
:1041A0004FF4CB7130680AF10403D050B088134447
:1041B00098800AF108039244274AD152019BCAF819
:1041C0000C3003B0BDE8F08F0094B1E74FF4CB7131
:1041D000214B240104F1080299521C44019BC4F8AC
:1041E0000A3003B0BDE8F08F0023009CC0F200024B
:1041F00002EB041A20014FEA0B111350CAE90133F4
:10420000CAF80C3042F80180002EC7D1E9E7002B34
:104210000EDA4FEA0A1AC0F2000242F80A80002EB3
:10422000BED105220C4B0AF1080A23F80A20D8E770
:10423000009BC0F200024FEA031A42F80A80002EE7
:10424000AED1CEE74FF6BC132401C0F2000343F811
:104250000480C6E7C0F90000BEF90000F0B1F8B56F
:1042600007460E4600250E4C04E00135062D04F1EC
:10427000100412D054F8043CB342F6D10622394659
:10428000204606F09FFC0028EFD14FF6BC13962283
:10429000C0F2000303EB05139A72F8BD704700BF2C
:1042A000C0F9000070B5054608460C46164601F0F8
:1042B000DDFC30B1324621462846BDE87040FFF7AC
:1042C00019BF70BD2DE9F84305460E461446D9B115
:1042D000ADB1BCB10023D5F800902360484601F091
:1042E00095FC0746484601F0D5FA8046A0B17FB15B
:1042F000BB6B3360BB8FB3802760012309E000BE36
:10430000002CE7D100BEE5E700BE002DE1D1F6E7C5
:1043100002231846BDE8F883484601F09DFA074697
:1043200068BB09F07F43B3F17F4F19D0286801F0D3
:104330009DFC002839D0296820600029E8D04FF67C
:10434000BC12C0F200023B01D05802EB071C8142B4
:1043500007F1010731D0062FF5D100232960D8E7F6
:104360004DF62C63C0F200031A689B884846326001
:10437000B38001F07BFC0028BFD02060BDE7314650
:10438000484601F05DFB404601F012FC014630B9A1
:10439000BEE7002001F01CFC01460028B8D091F8CF
:1043A00040305B07F5D42160A7E7402001F016FDFF
:1043B00020600028ACD08168BFE79CF80B0050B1AA
:1043C0001F1DD0593A44306092880123B280DCF836
:1043D0000C202260C2E70223C0E700BF8446F0B58C
:1043E000002840D0DCF82830292B00D800BEDCF8AB
:1043F0003030D3B34DF6DC54DCF82450C0F2000466
:10440000AE4604F1200726460EF1100E0FCEBE4236
:1044100004F110044EF8100C4EF80C1C4EF8082C49
:104420004EF8043CEFD1A3882068AEF80430CEF8F3
:104430000000DCF830309A6BC5F806202A229B8FEA
:104440006B81DCF83030996BC5F816109B8F6B834D
:10445000DCF830301B68EB61DCF81430C5F826302E
:10446000CCF82820F0BD00BEBCE700BEC2E700BF0C
:1044700070B505460E4682B02A200021FFF7D0FD18
:1044800048B30446EB6E4661C0E90B35FFF7A6FF63
:10449000A36A3B2B06D80021626AD15401333C2B1E
:1044A000FAD1A36200F0CEFF40B1E86E98B10122CC
:1044B0002146C36802B0BDE87040184702234FF0A0
:1044C000FF31684601948DF8003000F011FB10B9FF
:1044D0002046FFF77DFD02B070BD00BF90F8402080
:1044E000520701D4036803B97047FFF7C1BF00BF8B
:1044F0002DE9F041446A056BE38986B0B3F5807F0E
:1045000003D0002006B0BDE8F081238A082BF8D143
:10451000A37C062BF5D1E37C042BF2D14FF6B41625
:10452000E769C0F2000633680097D4F82680002BB4
:1045300055D1A37D13F00103E3D13ABA02F1014250
:10454000B2F1807F34BF00220122002D08BF00227B
:10455000002AD6D02A68974250D095F84010090713
:10456000CFD5A18AB1F5807F68D0B1F5007FC8D1E1
:10457000D4F826108A4200F0CD804FF6BC12C0F26B
:1045800000021801105802EB0311874203F10103E6
:1045900000F0BC80062BF4D141F21014C0F20104EB
:1045A00020680028ADD000F071FD1428A9D123683F
:1045B0005A6AD2F81A209742A3D10122002104A8F6
:1045C00005938DF8102000F093FA012802D020689E
:1045D000FFF7FEFC0020206000F0F6FE91E74BF2B2
:1045E000EC714FF6AC10C0F20001C0F2000005F013
:1045F000A5FE012804BF002333609AE73368002B2F
:104600007FF47FAF0123394628463360FFF766FF0A
:1046100005F0D8FC4FF6B81302464FF6AC10C0F2C6
:104620000003C0F200001A6005F062FE4BF2EC736A
:1046300042F21072C0F200031A6062E742453CD0B9
:1046400047457FF45EAF6B687A401A427FF459AFFA
:10465000374B04F1200693E80300ADF80C104DF63B
:104660002C61029006223046C0F2000106F0AAFA40
:1046700038B10622304602A906F0A4FA00287FF4D9
:1046800040AF16340622214605F1380006F09AFAAA
:1046900000283FF436AF684601AA04A9FFF712FECE
:1046A00001287FF42EAF019BAB427FF42AAF2A464C
:1046B00020460099FFF7F6FD23E705F1380804F1DD
:1046C000160606223146404606F07CFA00283FF4E2
:1046D00018AF384601F0CAFA20B12A4639463046AA
:1046E000FFF708FD002302202375D4F8163060750B
:1046F0002362B388C4F82670A384AB6BC4F8163069
:10470000B8F80430B3802B68E361FBE6CB7A002B6A
:104710003FF442AF384601F0A9FA00283FF43CAF1D
:104720002A46394604F11600FFF7E4FC34E700BFDF
:1047300004DE000010B5044601F098FA28B190F8A4
:104740004020520701D4036803B910BD2146BDE8DB
:104750001040FFF78DBE00BF70B54FF6BC14C0F21D
:10476000000404F1600504E0032B0BD91034AC42C3
:1047700018D0A37A002BF9D0013BE27ADBB2A37206
:10478000002AF1D12668304601F070FA18B190F88D
:10479000402051072BD5A37A002BE7D1236010349A
:1047A000AC42E6D14FF6B81505F00CFCC0F200059E
:1047B0002B68064623B144F62062C31A934211D9EE
:1047C00041F26C13C0F201031C6854B194F84030FC
:1047D0001A0703D5216809B15B0704D5246F002CA3
:1047E000F4D12E6070BD2046FFF742FEF6E7036865
:1047F000002BD0D03146FFF73BFECCE7436A026B7B
:104800009989082918BFB1F5C16F00D000BED3F84F
:104810001A10D2E900324B40134015D14FF6BC12AA
:1048200010B5C0F200021C01145902EB031CA14296
:1048300003F101030AD0062BF5D1006B90F840304C
:104840005B0709D5012010BD002070479CF80B3094
:10485000002BF2D0002010BD0368002BF2D0FFF730
:1048600007FEEFE70146A0B14FF6BC1310B40024D9
:10487000C0F2000303F16000DA688A4204BFC3E9B2
:104880000044C3E9024410338342F5D15DF8044B80
:1048900070474FF6BC106022C0F2000006F0BCB9B1
:1048A0004FF620204FF48E7208B50021C0F20000B0
:1048B00006F0B2F94FF61C230022C0F200031A6082
:1048C00008BD00BF836A70B5292B044606D9656A06
:1048D00095F82230082B07D0002070BD00BE836AF7
:1048E000292BF4D80020F8E7D5F81E300026D5F89B
:1048F0001A20C5F81A304023C5F81E20AB75204693
:1049000085F822602E756E752E766E7600F0BEFBF1
:1049100005F10E010246304600F00EFE43BADB43BD
:10492000A16A012228462B8300F09CFE022070BD64
:1049300041F20013C0F201031868704790F840304C
:1049400043F0080380F840305B0700D5704742F21F
:10495000107000F0EDBC00BF30B50025037F83B0C0
:1049600023F00103037704468DF80050019000F016
:1049700069FD41F20C11C0F2010108682B462A467C
:10498000694604F05DFC012806D0012241F20413BF
:104990001546C0F201031A60237F65F341032377B4
:1049A00003B030BDF0B585B001F0F8F830B300F0D9
:1049B000B1FD002540F6A07340F6E87208210F20F3
:1049C00041F20C140095C0F20103C0F2010204F0A0
:1049D000D7FBC0F20104206068B14CF2AC21C0F2F8
:1049E000000104F011FEFFF7A9FA012808D02068A1
:1049F00004F0E0FD2560002005B0F0BD00BED6E764
:104A00004FF63C364FF6A03401F096FA03274CF2ED
:104A1000B42144F6D940C0F20006C0F200042B468F
:104A20004FF4A062CDE901460097C0F20001C0F248
:104A3000000005F08DF841F200120346401B18BF3C
:104A40000120C0F20102136005B0F0BD2DE9F04372
:104A500041F2D404C0F2010485B007468846002024
:104A6000214615461E46DDF83090FCF797FF41F2CF
:104A7000600143463A462046CDF8089001960095DD
:104A8000C0F2010101F026F805B0BDE8F043FFF7E0
:104A900089BF00BF41F2FC020346002110B5C0F2FD
:104AA0000102106882B001918DF8003070B95BB9D5
:104AB00041F20C14C0F2010400F0C4FC002369466A
:104AC0001A46206804F0BCFB02B010BD072BEFD1E2
:104AD00041F20C140120C0F2010400F059FC2068DE
:104AE00004F056FD0028E7D0012002B010BD00BF41
:104AF00041F2FC0370B50446C0F2010318680D468C
:104B000094F9003090B903BB41F20C16C0F20106D3
:104B100000F098FC00230128214618BF2A4630687F
:104B2000BDE8704008BF1A4604F08ABB072BEBD1E2
:104B300041F20C160120C0F2010600F029FC306899
:104B400004F026FD0028E3D0012070BDA8B110B507
:104B5000838904465ABA92B2B2F5C06F9BB201D8AB
:104B6000002010BDB3F5C16F18BF082BF8D100218C
:104B700001F05CF818B1012010BD002070474DF61F
:104B80002C6006222146C0F2000006F01BF8002827
:104B9000F1D04DF6246006222146C0F2000006F056
:104BA00011F80028DCD04DF61C6006222146C0F228
:104BB000000006F007F80028D2D04DF61460062257
:104BC0002146C0F2000005F0FDFF0028C8D04DF6D8
:104BD0000C6006222146C0F2000005F0F3FF002819
:104BE000BED02378012BBBD16378002BB8D1A3783A
:104BF0005E2BB5D1E078C043C0F3C01010BD00BF3C
:104C0000F0B5836A04463B2B0E4687B006D80025D4
:104C1000606AC55401333C2BFAD1A3620023656A54
:104C2000206B0193AB89E8B1082BC76E33D0AA1D66
:104C30001346196829609B88AB80236B996BC5F874
:104C400006109B8F938000F0FDFB012803D0A6B9CE
:104C500000BE07B0F0BD324621463846FB68984793
:104C600007B0F0BD082BF4D1D5F81E0000F0FEFF10
:104C700020630028EDD0AB89D6E741F2FC03022285
:104C8000C0F201031B6805948DF810208BB92046F3
:104C9000FFF79EF9DDE7D5F81E3002A904F13002D6
:104CA00001A80193FFF70EFB0128C0D102ABAA1D9A
:104CB000BFE700F0C7FB41F20C15421EC0F2010530
:104CC00018BF4FF0FF320023286804A904F0B8FA97
:104CD0000028DCD007B0F0BD2DE9804840F6B830A0
:104CE0008BB000F03DFB41F26813C0F201031E6877
:104CF00041F20C1541F20414002E00F03A81002715
:104D00004FF001090DF11008C0F20105C0F20104D5
:104D1000337F23F00103337705968DF8107000F090
:104D200091FB002341461A46286804F089FA0128BD
:104D300014BF01220022337F18BFC4F8009062F331
:104D400041033377766A002EE2D14FF47A7000F097
:104D5000D7FA002000F038FBFFF7A2FD41F2FC0378
:104D6000012241F2101A4FF018090026C0F2010387
:104D70001A60C0F2010A00F0F1F900F0C5F902A9C9
:104D80000246286804F0F8FAD0B9FF238DF80830FD
:104D90002368002BEFD0266000F000FF20B9EAE77F
:104DA00000F002FF0028E6D0037F9B07F8D50090B3
:104DB00000F054FB0098037F23F002030377EFE732
:104DC0009DF908300B2BE3D801A252F823F000BF65
:104DD000C94E0000914E0000814E00007B4E000045
:104DE000914D0000734E0000914D00006B4E00008D
:104DF0004F4E0000914D0000094E0000014E000092
:104E0000039801F065FBC3E7039F8DF810903B7A90
:104E100013F0010306D102228DF81120BA6A12BAEA
:104E20000692BB62B7F838C000239CFA9CFCADF830
:104E300012C01822414638463E8701F0A1FA3B686D
:104E4000384643F010033B6001F0E2FCA0E7039F0B
:104E5000384602F0A3FB00289AD03B68384643F05E
:104E600004033B6001F0D4FC92E7012000F090FACB
:104E70008EE7039803F020FD8AE7FFF76DFC87E7D4
:104E80000399C86A002883D00122C36898477FE746
:104E9000039F002F3FF47CAFFB6A8BB13B6B7BB170
:104EA000BA6A0D2A0CD9D7F824B0BBF80C10B1F5AA
:104EB000C16F4CD04DF68650814201D0082907D0F1
:104EC0003846FFF785F863E7039800F0C7FA5FE715
:104ED000212AF5D99BF80E100E3A890001F03C0307
:104EE0009342EDD8132BEBD91A4601939BF8173058
:104EF00039465846009300F0D7FC0246796A9BF881
:104F00000E00012A01F8060C27D1BBF80C10082965
:104F100002D1019B142B33D8009B112B3BD0384678
:104F2000019200F069FF01286ED0BBF80C10019AC5
:104F300008297FD0042A67D0009B062B00F08280CE
:104F4000012BBDD13846FFF7BDFC024605E0292AFA
:104F5000B6D93846FFF7CCFA0246032A3FF418AF19
:104F6000042A51D0022AABD138460121FFF748FE6E
:104F70000EE70DF11008C0F20105C0F20104E4E6ED
:104F8000384600F01DFD0246002899D0009B112BE9
:104F9000C5D1042838D000224DF6865C796A049287
:104FA000CA8C888952BA604592B241D0082805D18E
:104FB000088A40BA80B21438824281D82A20D7F8B1
:104FC00028C060453FF67CAF072A7FF679AFACEB8F
:104FD000000C083A944584BF8018B86291F82220EA
:104FE00091F8230042EA0022BA86D1F81A0042461C
:104FF0007861898C384603F067FC01283FF4C8AE1D
:10500000049A012A7FF45CAFBBF80C30082B03D064
:10501000B3F5C16F7FF454AFDAF80030002B7FF4A2
:105020004FAF4FF4FA60CAF8007000F051F9AFE6E4
:105030003E20C4E7DBF81A100BF10600FFF70EF96B
:10504000019A77E73846009202F09CF90128009A0D
:105050003FF49EAE032A85D19AE600BF41F2FC03DD
:10506000C0F201031868704741F26C13C0F20103EB
:105070001B6813B907E01B6F2BB193F8400010F0C9
:105080000800F8D170470120704700BF4DF68653E5
:10509000426A9089984214BF14202820704700BFAC
:1050A00030B1037A13F0010F14BF28201420704789
:1050B0001420704738B50378D90722D59A070446DB
:1050C00000F1040510D52846256905F011F9B5FA57
:1050D00085F3012022785B09834022F00302034319
:1050E0001343E560237038BD00F10C01284605F03C
:1050F00025F918B1237843F00203237023789B0726
:10510000E1D4002038BD00BF41F23C13C0F20103DE
:105110001A7842F21070D20703D5DB68984228BF94
:10512000184641F26C13C0F201031B6853B193F8A7
:105130004820D10703D55A6D904228BF10461B6FF7
:10514000002BF4D141F22813C0F201031A78D207E0
:1051500003D5DB68984228BF1846704741F23C10DF
:1051600070B5C0F20100FFF7A5FF002840F0A9804C
:1051700041F25014C0F201042046FFF79BFF68B1D2
:1051800041F21015C0F20105286838B1237823F0E8
:1051900001032370FEF71CFF00232B6041F26C1308
:1051A000C0F201031C68A4B931E02846A56D05F0E2
:1051B0009FF8B5FA85F394F848205B095B0022F06C
:1051C000030243F001031343656584F84830246FFC
:1051D000ECB194F84830DA07F9D513F0020F04F176
:1051E0004C05E2D104F14C05284604F1540105F0C8
:1051F000A5F828B194F8483043F0020384F8483009
:1052000094F848309B07D0D4246F002CE1D141F2B0
:105210000C13C0F20103186804F0BAF940BB41F264
:105220002810C0F20100FFF745FF012001F01CFD2E
:105230000546264C204605F05BF8B5FA85F314F8D0
:10524000042C5B095B0022F0030243F001031343CB
:10525000A56004F8043C41F26416002001F0FAFE57
:10526000C0F20106002001F005FF336853B170BDA4
:1052700041F22810C0F20100FFF71CFF0028EAD01D
:105280000020D3E741F21410C0F20100FFF712FF33
:105290000028ECD041F26813C0F201031C6801221F
:1052A00014B90CE0646A54B1237F13F00105F9D1FD
:1052B0002046FFF751FB646A2A46002CF4D1326085
:1052C00070BD0320FFF7E6FB52E700BF2C11010081
:1052D00038B50546094C204605F00AF8B5FA85F3BD
:1052E00014F8042C5B095B0022F0030243F0010375
:1052F0001343A56004F8043C38BD00BF54110100FD
:1053000038B541F228140546C0F20104201D25617C
:1053100004F0EEFFB5FA85F322785B095B0022F01A
:10532000030243F001031343E560237038BD00BF5F
:1053300038B541F23C140546C0F20104201D256138
:1053400004F0D6FFB5FA85F322785B095B0022F002
:10535000030243F001031343E560237038BD00BF2F
:1053600038B541F214140546C0F20104201D256130
:1053700004F0BEFFB5FA85F322785B095B0022F0EA
:10538000030243F001031343E560237038BD00BFFF
:1053900041F22812031E18BF0123C0F20102117846
:1053A0005B0021F0030143F001030B4313707047CE
:1053B00041F23C13003818BF0120C0F201031A78F3
:1053C00060F300021A70704741F25013003818BFA2
:1053D0000120C0F201031A7860F300021A707047CE
:1053E00041F26413C0F2010318607047837B112BF4
:1053F00010D0062B0BD05A1E012A0ED90268003A93
:1054000018BF01223A2B18BF002232B970474369F6
:10541000198270474369D980704743695980704742
:1054200068B110F8303C03F0D003402B04D183075F
:1054300005D150F8340C704700BE8307F9D0002026
:10544000704700BF10B504F0BBFF0446FFF770FAC9
:10545000201AB0FA80F0400910BD00BF38B50546EB
:10546000002855D0AB68002B50D00020FFF7A0FFDC
:10547000284600F09DFB044678B194F84030204661
:1054800023F0080384F84030FFF7ECF92146284662
:1054900000F09EFB04460028EFD12846AB689847F1
:1054A000012804D0BDE838400020FFF799BF2B7FCA
:1054B000284643F001032B7700F07AFB044640B9FD
:1054C00023E0FFF73BFA2146284600F081FB044623
:1054D000D8B194F8403020465B07F2D4E269636AA1
:1054E0002260226AA16A6260E26AA3602261636B41
:1054F000226BE1606261A361FFF720FA2146284632
:1055000000F066FB04460028E3D138BD00BEACE7DE
:1055100000BEA7E708B5FFF7A1FD00B100BE41F24C
:105520000C13C0F201031B6803B100BEFFF700FAC1
:1055300000B100BE08BD00BF2DE9F04390FA90FC19
:1055400011F001074FF0000E1FFA8CFC01F003036D
:105550000BD04FEA0C2080B240EA1C2C002A60D00D
:1055600011F8010B013A60F30F2E013B012B6BD9AF
:1055700022F003030C2B38BF0C23B3F10C046FD0C3
:105580004FF6F075E0460026CFF6FF7501F11003E7
:105590006D1A53F8100C194610EB080C53F80C0C4C
:1055A00028BF013610EB0C0C53F8080C28BF01364D
:1055B00010EB0C0053F804CC03F1100328BF0136A4
:1055C00005EB03091CEB000C28BF0136A145E046A2
:1055D000DFD34FEA1C4010FA8CF002F00E04304486
:1055E00002F001026CB1013C24F001058B1E66083B
:1055F0000D4433F8024F9D422044FAD1741C01EB54
:10560000440112B10B7863F3070E7044030C13FAD4
:1056100080F0030C13FA80F06FB940BA80B2BDE895
:10562000F0831FFA8CF000EB1C40030C13FA80F09F
:10563000030C13FA80F003029BB2C0F30720184357
:1056400040BA80B2BDE8F083012A9CBF1FFA8CF0FB
:1056500000EB1C40D5D931F8023B023A9C4487E765
:105660002646B6E700234DF6865C2DE9F04788B064
:10567000CDE90133CDE90333CDE9053307938589BE
:105680000446082D18BF65450F46164601D000BEDA
:105690008589082D059404D041F2342008B0BDE876
:1056A000F0873946204601AA00F0D8F920B1BDF8AC
:1056B000100008B0BDE8F0879DF81280B8F1110F16
:1056C00048D0B8F1060F67D008F1FF33012B40F244
:1056D0008180019B44F22130003B18BF0123B8F1C7
:1056E0003A0F18BF0023002BD8D0BDF81E90DDF86C
:1056F00008A0BDF80C50002E67D14D45CCD8CAF596
:10570000BB6304334B45C7D308F1FF33012B76D974
:10571000019B6BB9059908EB090080B209F10802F9
:105720001A31ADF81000FFF707FFC343ADF8103092
:105730005EB3049B23F07F43B3F5881F08BF4FF689
:10574000FF7103D0BDF8101049BA89B201A8FFF764
:105750004DFE1EE0BDF81E90B9F1070F9CD9DDF893
:1057600008A00AF116039F4296D30395002E53D149
:10577000069BDB88002B4DD0CAF5BB6A0AF1040AF0
:10578000D14589D8019B002BC4D0BDF81030002B27
:1057900040D14FF6FF7081E7BDF81E90B9F1130FAD
:1057A0007FF67AAFDDF808A00AF122039F42FFF4EA
:1057B00073AF069B1B7B4F2B4FEA13157FF66CAF25
:1057C000AD000395ADB2002E97D0002101A8FFF7E0
:1057D0000DFE92E7BDF81E90B9F1070F7FF65CAFA2
:1057E000DDF808A00AF116039F42FFF455AF0395B8
:1057F00096B9CAF5BB63043399453FF64DAF0AF13C
:105800000E014A4600202144FFF796FEC343ADF83F
:1058100010308DE7002041E7014601A8FFF7E6FDC3
:105820006DE700BF8842A8BF08467047884228BF7E
:1058300008467047884228BF0846704731B14B1E62
:105840000344B3FBF1F301FB03F0704700BE704764
:10585000008840BA80B2704700BA00F10050B0F141
:10586000805F2CBF00200120704700BF0369C26821
:1058700018BA00F10140B0F1807F2CBF0020012058
:1058800013BA03F10143B3F1807F38BF80F0010008
:10589000704700BF00BA00F10140B0F1807F2CBF1B
:1058A00000200120704700BF2DE9F843838AD0F81B
:1058B0001E6023F0C003D0F81A7023B9837B04461E
:1058C000453B0A2B02D90020BDE8F88396FA86F8FA
:1058D00008F10143B3F1807F0D463DD204F10E0083
:1058E000FFF7C4FF0128EED0D5E90913212BEAD92F
:1058F0008A7BA2F145000A28E5D8920002F03C021A
:1059000002F10E008342DED3088A40BA80B200F171
:105910000E05AB42D7D3CD7D112D07D0062D08BF84
:1059200002F1220504D0013D012DCCD802F116056B
:10593000AB42C8D3801A0728C5D9C2F5BB6204326E
:105940009042C0D8E37D112B18BF0120BCD1088D37
:10595000003818BF0120B7E797FA87F909F101432A
:10596000B3F1807FBAD3304600F050F9F0B13F0E6A
:10597000FF2FA8D04DF62C6006222146C0F2000071
:1059800005F020F910B9360EFF2E9CD106224DF6F7
:105990002C60A118C0F2000005F014F9002892D084
:1059A00009F10059B9F1805F8DD39DE7330EFF2BCC
:1059B000DDD008F10058B8F1805F84D2D7E700BF8E
:1059C000F8B50646446A826AA57B223AA90001F02E
:1059D0003C01A1F114070E31D21B214404F1220035
:1059E00005F000F9B36A25F00F05DB1BB362238ACB
:1059F00045F005055BBA9BB2DB1B1A0A42EA03239A
:105A0000A57301202382F8BD002818BF002908D003
:105A100000224FF0080C8968436A416183F80CC08A
:105A20005A730020704700BF002818BF002905D016
:105A300002234B704269838E8A604B802A20704714
:105A400001224FF05E0C03BA0A80C0F306201A0A46
:105A500081F802C0C8700A714B71704770B500249C
:105A600015691460B5F810C0AB7B9CFA9CFC03F080
:105A70000F039B001FFA8CFE7345536024D8212925
:105A80001DD903F10E068E4282BF41F23423052058
:105A9000938113D8A2F818C00EF10E0C61453EBFD9
:105AA00041F234230620938108D306442046AEEB0E
:105AB000030EEB7D56619373A2F81AE070BD41F2BC
:105AC00034230420938170BD41F234230320938159
:105AD00070BD00BF002918BF00282DE9F0410C4619
:105AE0000CBF0121002101D1BDE8F0811E46154601
:105AF0000746D4F870807422204605F08DF8C4F86B
:105B00007080336806992A686360096862EA030353
:105B1000A1600799096863616368E1602362A36813
:105B2000E26163626369E1682363A3692269636375
:105B3000089BA162E2621B68A363089B9B88E766DF
:105B4000A3873B6A9BB141F26C12C0F20102136859
:105B50000BB909E013469C42C6D01A6F002AF9D14E
