:1000000018F09FE518F09FE518F09FE518F09FE5C0
:1000100018F09FE518F09FE518F09FE518F09FE5B0
:100020009851000095201000992010009D2010008C
:10003000A1201000A520100028211000A9201000E8
:1000400000000000000000000000000000000000B0
:1000500000000000000000000000000000000000A0
:100060000000000000000000000000000000000090
:100070000000000000000000000000000000000080
:100100002DE9F041D0E902850446A8EB05074068D7
:1001100097422844154408D80E463A46A5EB0805F0
:1001200005F02CF82A466068F11905F027F8BFF3AE
:100130005F8FE560BDE8F0812DE9F8434FF00008DE
:10014000064689461746D0E902243369151B9C42AE
:1001500003F1FF3125BF03F1FF339B180B1B1B1B62
:10016000BD4228BF3D469D4228BF1D467068494696
:100170002A46204405F002F8B2682C44A24208BF87
:100180000024A844A9447F1BBFF35F8FF460002FB5
:10019000DBD14046BDE8F883F8B540F20004C3F275
:1001A0001804A8220021204604F0E0FF45F228426E
:1001B00040F2B80040F2A801002303254FF4006785
:1001C0001026C0F20002C3F21800C3F21801256124
:1001D0006561A261E0612762A3626362E3622266F5
:1001E0006166A6662367E3666367BFF35F8F074BAD
:1001F0009C46A3F11000ACEB030213F9011D8342EE
:10020000A154F8D1BFF35F8FF8BD00BFE8580000DC
:1002100038B540F2000400EB4003C3F2180401308B
:1002200004EBC30300EB400004EBC000DC6A8C4627
:10023000012C154612D0022C0CD0FCB99A6A596ACE
:100240008A429CBF1B6AD218013A511A8D4218D9B2
:10025000204638BDBDE83840FFF76EBF9A6A5C6A39
:10026000A2429CBF1B6AD218013A141BAC4228BFA1
:100270002C462246FFF744FF204638BD0024204686
:1002800038BD2A466146FFF73BFF2C46E0E700BF3A
:1002900040F2000370B5C3F218031B780446532BD9
:1002A0000D46164601D0FFF777FF32462946204615
:1002B000BDE87040FFF7ACBFD0E9013210B504468D
:1002C000501C984207D8236899540246E168636835
:1002D0000131A060E1609A4200D010BD2168206920
:1002E000FFF7D6FFA368984215BF4FF0FF330023F6
:1002F000E360A36010BD00BF2DE9F84F9142DDE936
:100300000A940F46154683461E4669D30B464FF0A6
:100310000108B3FBF5F39D4208F10108F9D9B04596
:1003200038BFB04614F0010A02D1B9F1000F41D133
:10033000DBF80C30002B2EDB012401E005FB04F47C
:10034000012E06F1FF36F9D8B7FBF4F39D4205D82C
:1003500005FB04F4B7FBF4F39D42F9D945F6F0062A
:10036000C0F2000606E0AC42B4FBF5F30CD31C4629
:10037000B7FBF3F3F156584604FB1377FFF79CFFE6
:10038000DBF80C30002BEEDAB9F1000F0CBF0023C4
:100390000AF001034BB9BDE8F88F20215846FFF75A
:1003A0008BFFDBF80C30002BF5DBC14509F1FF3981
:1003B000F3D8F0E7B6FA86F35B0913EA540314BFE7
:1003C0003024202409E021465846FFF775FFDBF86A
:1003D0000C3009F1FF39002BDDDBC145F3D8A7E76D
:1003E0004FF001089BE700BFDFED8F0B00232DE9E5
:1003F000F04F9BB00DF1280905AC44F98F078046FA
:100400000D461746CDE90730CDF8109006E004A858
:10041000FFF752FF079B002BC0F2818015F9011BEB
:10042000002900F08E802529F1D100262B4613F9F2
:10043000011BA1F123020D2A08D8DFE802F05F07B3
:100440000707070707075B0763070757A1F1300294
:10045000D2B2092A4FF000040FD804EB840401EB58
:10046000440493F900101D46A1F13002D2B2092ACA
:10047000A4F1300403F10103EFD92E2953D04FF03A
:10048000000B95F90010584601E015F9011F21F005
:100490000403682BF9D0252938D05839CBB2202B4A
:1004A00037D8202935D8DFE811F071003400340046
:1004B000340034003400340034003400340034009C
:1004C000FD00C30034003400340034003400340034
:1004D00034003400340034003400AD003400340003
:1004E0008800340082003400340071001D4646F05C
:1004F00002069BE71D4646F0040697E71D4646F0B8
:10050000080693E71D4646F001068FE704A8FFF7AB
:10051000D3FE079B002B05F10105BFF67FAF184600
:100520001BB0BDE8F08F95F901102A2915D13B6861
:1005300002351A1D3A600120D3F800B095F9001079
:10054000A5E7079B002BEADD069C002C40F0B48059
:10055000234418461BB0BDE8F08FA1F13003DBB295
:10056000092B4FF0000B05F1010500F2E6800BEBC3
:100570008B0201EB420215F9011FA2F1300BA1F130
:100580003003DBB2092BF2D9012080E710225B4651
:10059000D7F800C00DEB0200DCF80010CDE90046F2
:1005A0000CF104043C60FFF7A7FE079BB2E75B4633
:1005B0000A22D7F800C004A8EEE745F234433968B0
:1005C000C0F200030C1D3C600C680BF10102002C12
:1005D00004BF00201C4600F0010604EB020A0CE0F8
:1005E000544514BF002306F00103002B91D104A849
:1005F000FFF762FE079B002B8CDB14F9011B00291F
:10060000EED186E70823102200263C680DEB02009D
:10061000216804343C60CDE90036FFF76DFE079B8E
:1006200078E700BFAFF3008040000000000000004A
:100630003B681A6804333B6082EAE273A3EBE2731F
:10064000092B03927BDD4CF6CD404FF0010ACCF62E
:10065000CC401946A0FB03C363290AF1010A4FEA03
:10066000D303F6DCDA4538BFDA4674BB07990024B9
:100670000B460029FFF653AF039B002B4CDB73079F
:1006800056D406F00303022B08BFBBF1000F5FD066
:100690005B460A22CDE90046039904A8FFF72CFE29
:1006A000079B37E73B6804A81A1D93F900103A60CE
:1006B000FFF702FE079B2DE722464946404603937B
:1006C000FFF7E6FD039B234443E7039A06F002038A
:1006D000002A17DB720715D4002B33D0BBF1000FB3
:1006E0000DD0F00709D50AE0202104A8FFF7E4FDAA
:1006F000079B013C002BFFF612AFA245F4D30799EC
:100700000B46B6E7013C13B1BBF1000FF7D0F2077F
:10071000F5D4002CF1D1A9E75B422D2104A8039365
:10072000FFF7CAFD079900290B46FFF6F8AEA8E7C8
:100730002B2104A8FFF7C0FDF4E75846A7E64FF0C9
:10074000010A8FE7F107D8D5079B002BA0DAE6E670
:10075000002C9DD009E0302104A8FFF7ADFD0799DA
:10076000013C00290B46FFF6DAAEA245F3D30B1E7F
:10077000FFF6D5AE8CE700BF0EB400B582B003AB78
:1007800053F8041B01AA0193FFF72EFE02B05DF897
:1007900004EB03B0704700BF38B5044646F29060E2
:1007A000C0F200000D4604F093FBB8B945F6001204
:1007B00045F260412B460020C0F20002C0F2000169
:1007C000FFF7DAFF04B938BD45F27C412246C0F29A
:1007D00000010020FFF7D0FF00BE38BD45F23C43CA
:1007E00045F6001245F26041C0F20003C0F200027B
:1007F000C0F200010020FFF7BFFFD7E72DE9F0436B
:100800000024ADF50F7D4FF4007200210EA804F016
:10081000ADFC04A8049402F157F945F29C4245F25C
:10082000A4419DF81130C0F2000201939DF81230EE
:10083000C0F20001009320469DF81330FFF79CFFA3
:1008400045F29C612046C0F2000146F20425FFF704
:1008500093FF45F6441146F29060C0F200052B6804
:10086000C0F20001C0F200009847002840F0DF808D
:1008700045F2EC7945F61016AC6BC0F20009C0F2F7
:1008800000060DF10F0105A8A0478046002833D1CE
:100890009DF80F30033B072BF3D801A252F823F049
:1008A000C1080000830800008308000083080000DE
:1008B0006B090000830800001F090000C108000048
:1008C00046F2804146F2906080234FF40072AF6898
:1008D000C0F20001C0F20000B8470028D1D045F6B0
:1008E0001401C0F20001FFF757FF0DF10F0105A839
:1008F000A04780460028CBD045F260414B463246A7
:10090000C0F200010020FFF737FF45F27C4142466C
:10091000C0F200010020FFF72FFF00BEB8E746F24B
:10092000804146F29060EA6880231746C0F20001D9
:10093000079AC0F20000B847002859D146F280411A
:10094000079A0EA8C0F2000104F018FC45F64C010D
:100950000EAAC0F200010020FFF70EFF4FF4007254
:1009600000210EA804F002FC8BE7BDF8203003F450
:100970007F43B3F5005F23D0B3F5045F3FD046F269
:10098000906000212B6DC0F200009847804600283F
:100990003FF477AF45F6A80345F2604132460020A8
:1009A000C0F20003C0F20001FFF7E6FE45F27C4111
:1009B0004246C0F200010020FFF7DEFE00BE60E705
:1009C00046F2784146F290600722AB6CC0F200011B
:1009D000C0F200009847804600283FF452AF45F629
:1009E000500345F2604132460020C0F20003D9E7CF
:1009F00045F63001C0F20001FFF7CEFE9EE746F259
:100A0000784146F290600722EB6CC0F20001C0F220
:100A100000009847804600283FF433AF45F67C033A
:100A2000324645F260410020C0F20003BAE745F2C9
:100A3000C47345F6101245F260410646C0F2000349
:100A40002046C0F20002C0F20001FFF795FE45F219
:100A50007C4132462046C0F20001FFF78DFE00BE09
:100A600006E700BF08B5FFF7C9FE002008BD00BFBC
:100A700046F29C73C0F200031B88012B00D0704724
:100A800010B5817F8AB002298DF8061014BF82212B
:100A90008021C368828C0469042AA3EB04030393B6
:100AA0008DF8071008BF40F2DE5309D0052A08BFB1
:100AB00040F2DF5304D0032A40F2DC5308BF002386
:100AC00090F8202001A90920ADF808308DF8042005
:100AD00001F062FD0AB010BD46F29C73C0F2000343
:100AE0001B88012B00D0704700B5837F8BB0012B92
:100AF000828C8DF8063017D08121012A8DF80710DD
:100B00000ED0B3B982238DF8073090F8203001A9B8
:100B10000A208DF8043001F03FFD0BB05DF804FBB6
:100B20000023ADF80830F0E78023012A8DF8073064
:100B3000F6D040F2DC53ADF80830E6E710B50446D5
:100B400039B900F09DFCC30548BF4FF4807015D53E
:100B500010BD00F0F5FC204600F008FD10F4807F89
:100B6000204606D000F044FD800A0130800180B2AA
:100B700010BD00F053FDC0F30A0010BD204600F088
:100B8000ABFC00F07F0010BD2DE9F84346F628339A
:100B900090F82070C0F2000333F8173004469BB27F
:100BA000022B0D4658D046F2D46800F061FB29466E
:100BB000204600F08DFB2946204600F0C3FB294665
:100BC000204601F0CDFC2946204600F0B9FC07EB99
:100BD000870303EB83039B0005EB8502C0F200084B
:100BE00003EB4203434459884FEA8509BE003E4463
:100BF00006EB8606A944B60006EB490646442046A5
:100C000000F0CAFC2046B18800F0DCFC2046F188E8
:100C100000F01AFD2046318900F02CFD204600210D
:100C200000F08EFC2946204600F0B0FD2946204603
:100C300001F082FC2946204600F060FD294620464E
:100C400000F0A0FB2946204600F0B4FB29462046D0
:100C5000BDE8F84300F0C6BB40F6C0030022C3F273
:100C6000180343F8212002F0CDFA06462946204613
:100C700094F8207000F0FCFA2946204600F028FB8A
:100C80002946204600F05EFB013E2946204601F041
:100C900067FCB6B22946204600F052FC012E15D85A
:100CA00046F2D46807EB870303EB830305EB850269
:100CB0009B00C0F2000803EB4203434459884FEA0B
:100CC000850941F48061BE00598090E764230A22BF
:100CD00046F2D46807FB03F302FB0533C0F20008B9
:100CE000434459884FEA8509BE0080E746F6283319
:100CF00070B590F82020C0F2000333F8123005469A
:100D00009BB2022B04BF40F6C00300220E4604BF74
:100D1000C3F2180343F8212001F022FC3146284693
:100D200000F0A6FA3146284600F0D2FA31462846AD
:100D300000F008FB48F22F034FF400420021284640
:100D400000F0E2F90021284600F0C2F910F02F046B
:100D5000F8D13146284600F0F3FB2146284600F042
:100D60001BFC2146284600F02DFC2146284600F0B9
:100D70006BFC2146284600F07DFC2146284600F009
:100D8000DFFB3146284600F001FD3146284601F0E0
:100D9000D3FB3146284600F0B1FC3146284600F02E
:100DA00075FD3146284600F08BFD3146284600F09F
:100DB000E9FA3146284600F0FDFA31462846BDE8FA
:100DC000704000F00FBB00BF70B5012206460D4613
:100DD0004FF6FF7400F024FD2946304600F060FC19
:100DE000013C10F0200FA4B200D170BD002CF3D153
:100DF00070BD00BF70B50546164692B14FF47A64D7
:100E000008E02846013C00F055F8A4B2284600F05E
:100E1000A3F8C4B13146284600F0BEF98304F0D5EA
:100E200070BD41EA0304114648F22F0344F4004226
:100E300000F06AF90021284600F04AF900F02F007E
:100E40008442F7D1DAE7FF2070BD00BF02B17047DE
:100E500038B543EA0104114648F22F0344F4004236
:100E6000054600F051F90021284600F031F900F064
:100E70002F008442F7D138BD70B504460D461646A2
:100E800000F01EFD29462046324600F031FD29467D
:100E90002046BDE8704000F0E1BC00BF38B5044614
:100EA0000D4600F0F3FC29462046BDE8384000F02E
:100EB00007BD00BF46F6283390F82020C0F200039B
:100EC00033F812309BB2022B01BF4FF48053C8F2AB
:100ED0002003188880B218BF0020704740B94FF433
:100EE0008052C8F2200213889BB243F480731380AF
:100EF000704700BF46F6283390F82020C0F2000368
:100F000033F812309BB2002A08BF022B00D0704782
:100F10004FF48052C8F22002138823F480731B041C
:100F20001B0C1380704700BF46F6283390F8202032
:100F3000C0F2000333F812309BB2002A08BF022B24
:100F400000D070474FF48052C8F2200213889BB241
:100F500043F080031380704746F6283390F8200052
:100F6000C0F2000333F810309BB2002808BF022BF8
:100F700001BF4FF480530120C8F22003988814BFAA
:100F8000002080B2704700BF46F6283390F820005A
:100F9000C0F2000333F810309BB2002808BF022BC8
:100FA00001BF4FF480530120C8F22003188914BFF9
:100FB000002080B2704700BF46F6283390F820200A
:100FC000C0F2000333F812309BB2002A08BF022B94
:100FD00002BF4FF48053C8F220039981704700BFCD
:100FE00046F6283390F82020C0F2000333F8123080
:100FF0009BB2002908BF022B0CBF0120002000D0AB
:1010000070474FF48053012AC8F220035869F7D182
:10101000704700BF46F6283390F82000C0F2000366
:1010200033F810309BB2002908BF022B00D0704764
:101030004FF480530128C8F220035A61F7D170475A
:1010400046F6283390F82000C0F2000333F8103041
:101050009BB2012808BF022B0FD001290ED0022914
:1010600006D051B94FF48053C8F220039A827047DA
:101070004FF48053C8F220039A8370474FF4805393
:10108000C8F220031A83704746F6283390F82000F0
:10109000C0F2000333F810309BB2012808BF022BC6
:1010A0000FD001290ED0022906D051B94FF4805338
:1010B000C8F220031A7570474FF48053C8F220031A
:1010C0001A7770474FF48053C8F220031A7670479E
:1010D00046F6283390F82020C0F2000333F81200BF
:1010E00080B2022998BF02280CBF0120002000D046
:1010F000704746F2E413C0F2000353F821000028C1
:10110000F6D0008880B2704746F6283C90F8200060
:10111000C0F2000C3CF8100080B2022998BF0228EF
:1011200000D0704746F2E410C0F2000050F82100F1
:101130000028F6D001881A4089B221EA030313433C
:101140000380704746F6283C90F82000C0F2000C5F
:101150003CF810309BB2022998BF022B01BF01233B
:1011600046F2E413C0F2000353F821303CF81010AB
:1011700018BF002389B2022900D07047198821F4D2
:1011800040610904090C1980002AF6D0198889B237
:101190000A431A80704700BF46F6283390F8202093
:1011A000C0F2000333F8120080B2022998BF02286F
:1011B0000CBF0120002000D0704746F2D813C0F2C7
:1011C000000353F821000028F6D0008880B2704751
:1011D00046F6283390F82020C0F2000333F812308E
:1011E0009BB2022998BF022B00D0704746F2D81359
:1011F000C0F2000353F82120002AF6D013886FEACA
:1012000043436FEA53439BB21380704746F628333B
:1012100090F82020C0F2000333F812309BB202296C
:1012200098BF022B00D0704746F2D813C0F20003DB
:1012300053F82130002BF6D04FF480421A807047CB
:1012400046F6283390F82020C0F2000333F812301D
:101250009BB2022B0AD101238B404FF48051C8F27C
:101260002001CA8E9BB292B21343CB86704700BF57
:1012700046F6283390F82020C0F2000333F81230ED
:101280009BB2022B0AD101234FF480528B40DB43E7
:10129000C8F22002D18E9BB20B40D386704700BFAC
:1012A00046F6283390F82020C0F2000333F81230BD
:1012B0009BB2022B0AD101238B404FF48051C8F21C
:1012C00020010A8F9BB292B213430B87704700BF75
:1012D00046F6283390F82020C0F2000333F812308D
:1012E0009BB2022B0AD101234FF480528B40DB4387
:1012F000C8F22002118F9BB20B401387704700BFCA
:1013000046F6283390F82020C0F2000333F812305C
:101310009BB2002A08BF022B00D0704746F2C06083
:101320004FF0000C4FF480520123C0F2000020F86F
:1013300011C0C8F22002508F8B4003439BB25387E9
:10134000704700BF46F6283390F82020C0F2000313
:1013500033F812309BB2022B0AD101234FF4805292
:101360008B40DB43C8F22002518F9BB20B40538766
:10137000704700BF4FF48053C8F22003B3F8400019
:1013800080B2704746F6283390F82020C0F2000360
:1013900033F812309BB2022B0AD101238B40DB437E
:1013A0004FF48052C3F30903C8F22002A2F846307A
:1013B000704700BF46F6283390F82020C0F20003A3
:1013C00033F812309BB2022B0AD101238B40DB434E
:1013D0004FF48052C3F30903C8F22002A2F8483048
:1013E000704700BF46F6283390F82020C0F2000373
:1013F00033F812309BB2022B0AD101238B40DB431E
:101400004FF48052C3F30903C8F22002A2F84A3015
:10141000704700BF46F6283390F82020C0F2000342
:1014200033F812309BB2022B01BF4FF48053C8F245
:101430002003B3F84C0080B218BF0020704700BFF3
:101440004FF48053C8F22003B3F8540080B27047C1
:101450004FF48053C8F22003B3F8560080B27047AF
:101460004FF48053C8F22003B3F8580080B270479D
:101470004FF48053C8F22003B3F85A0080B270478B
:1014800046F6283390F82020C0F2000333F81230DB
:101490009BB2022B01BF4FF48053C8F22003B3F874
:1014A0005C0080B218BF0020704700BF46F62833AA
:1014B00090F82020C0F2000333F812309BB2022BC8
:1014C00000D070474FF48053C8F22003A3F85C109B
:1014D000002AF6D1704700BF46F6283390F8202046
:1014E000C0F2000333F812309BB2022B01BF4FF45D
:1014F0008053C8F22003B3F85E0080B218BF00200A
:10150000704700BF46F6283390F82020C0F2000351
:1015100033F812309BB2022B00D070474FF4805347
:10152000C8F22003A3F85E10002AF6D1704700BF6E
:101530004FF48053C8F22003B3F8600080B27047C4
:1015400046F6283390F82020C0F2000333F812301A
:101550009BB2022B00D070474FF48053C8F2200397
:10156000A3F86410002AF6D1704700BF46F628336E
:1015700090F82020C0F2000333F812309BB2022B07
:1015800001BF4FF48053C8F22003B3F8680080B263
:1015900018BF0020704700BF46F6283390F820207F
:1015A000C0F2000333F812309BB2022B00D0704718
:1015B0004FF48053C8F22003A3F86810002AF6D134
:1015C000704700BF46F6283390F82020C0F2000391
:1015D00033F812309BB2022B00D070474FF4805387
:1015E000012AC8F22003A3F86A10F6D1704700BFA1
:1015F00046F6283390F82020C0F2000333F812306A
:101600009BB2022B01BF4FF48053C8F22003B3F802
:101610006A0080B218BF0020704700BF46F628332A
:1016200090F82020C0F2000333F812309BB2022B56
:1016300001BF4FF48053C8F22003B3F86C0080B2AE
:1016400018BF0020704700BF46F6283390F82020CE
:10165000C0F2000333F812309BB2022B00D0704767
:101660004FF48053C8F22003A3F86C10002AF6D17F
:10167000704700BF46F6283390F82020C0F20003E0
:1016800033F812309BB2022B00D070474FF48053D6
:10169000C8F22003A3F86E10002AF6D1704700BFED
:1016A0004FF0000C46F6283390F8202082B0ADF8B9
:1016B00006C0C0F2000333F812309BB2022B04D0F4
:1016C000BDF8060080B202B070474FF48353C8F2F1
:1016D000200341B91B889BB2ADF80630BDF8060067
:1016E00080B202B0704741F26E03C8F2200303EBF0
:1016F00041031B889BB2ADF80630EFE746F628336E
:1017000090F82020C0F2000333F812309BB2022B75
:101710000AD141F26E02C8F2200232F811309BB2B7
:1017200043F4005322F81130704700BF46F62833C7
:1017300090F82020C0F2000333F812309BB2022B45
:101740000AD141F26E03C8F2200333F8112092B29D
:1017500042F4007223F81120704700BF46F6283388
:1017600090F82020C0F2000333F812309BB2022B15
:101770000BD141F26E02C8F2200232F8113023F48C
:1017800000731B041B0C22F81130704746F62833F7
:1017900090F82020C0F2000333F812309BB2022BE5
:1017A00000D0704759B94FF48052C8F22002B2F805
:1017B00060309BB243F48073A2F86030704741F20E
:1017C0006E02C8F2200232F811309BB243F48073EB
:1017D00022F81130704700BF46F6283390F82000F9
:1017E000C0F2000333F810309BB2022B00D07047D8
:1017F00081B141F26E03C8F2200303EB41010B8873
:1018000023F003031B041B0C0B800B889BB21343B8
:101810000B8070474FF48351C8F22001EFE700BFFF
:1018200046F6283390F82000C0F2000333F8103059
:101830009BB2022B00D0704759B141F26E03C8F23F
:10184000200303EB41010B889BB223EA02030B80C8
:1018500070474FF48351C8F22001F4E746F628336D
:1018600090F82020C0F2000333F812309BB2022B14
:101870000BD141F290020139C8F2200232F8213036
:101880009BB243F4007322F82130704746F62833A8
:1018900090F82020C0F2000333F812309BB2022BE4
:1018A0000CD141F290020139C8F2200232F8213005
:1018B00023F400731B041B0C22F82130704700BF77
:1018C00046F6283390F82020C0F2000333F8123097
:1018D0009BB2022B0BD141F290020139C8F22002D7
:1018E00032F821309BB243F4807322F821307047E4
:1018F00046F6283390F82000C0F2000333F8103089
:101900009BB2022B01BF41F2920301F1FF31C8F2F9
:10191000200323F8212070474FF48052C8F22002A0
:10192000B2F802319BB243F48043A2F8023170470F
:10193000704700BF704700BF70B5012001F180F90A
:1019400014EE162F002604EE166F35463446C8F204
:101950002805D5F81033C8F2200423F48073C5F8A5
:101960001033D5F81033236823682368236823686D
:101970002368236804EE162F0121084601F1B0F810
:101980000120D5F81033D5F81033D5F8103301F114
:10199000E9F8D4F80038012143F00043C4F80038D6
:1019A000D4F80C32642023F00203C4F80C324FF454
:1019B000805401F195F801214FF48042C8F22004CF
:1019C0002388642066F34513238023880B432380F8
:1019D000A4F8022101F184F84FF41D433046238618
:1019E00070BD00BF38B50023C8F22803D3F8103308
:1019F000D905C3F3002200F1A4804FF480530028DE
:101A000063D08021C8F220031A81A3F86010A3F8E4
:101A10007020A3F87220A3F87420A3F87620A3F80E
:101A20007820A3F87A20A3F87C20A3F87E20A3F8DE
:101A30008020DA861A875A871A865A86198821F0F2
:101A400010010904090C1980198821F020010904EA
:101A5000090C1980198821F001010904090C198069
:101A6000198821F040010904090C1980A3F84620C7
:101A7000A3F84820A3F84A200024C8F22804D4F888
:101A80001033DA05C3F3002560D4D4F81033DB0536
:101A900048BF40F2E25017D4012001F1D1F8D4F848
:101AA00010334FF47A7143F480730120C4F810337B
:101AB00001F116F80120D4F81033D4F81033D4F81B
:101AC000103301F14FF8284638BD8022C8F22003B8
:101AD0001881A3F86020A3F87000A3F87200A3F89F
:101AE0007400A3F87600A3F87800A3F87A00A3F8AE
:101AF0007C00A3F87E00A3F88000D886188758875A
:101B0000188658861A8822F010021204120C1A80C5
:101B10001A8822F020021204120C1A801A8822F06D
:101B200001021204120C1A801A8822F040021204D8
:101B3000120C1A80A3F84600A3F84800A3F84A0044
:101B40009AE700F1BFFF40F2DC5038BD00F1BAFF68
:101B50004FF4BC6038BD00BFB1F90C30F0B5002BBC
:101B600012DB02241A09920002F1144203F00F0C56
:101B7000D2F8085C4FEA4C0C04FA0CF42C43C2F87F
:101B8000084C00284FD0F0BD13F1110F0CDB0024DE
:101B9000022203F00F056D00C9F21144AA40D4F8E7
:101BA000045C2A43C4F8042C0028ECD100204FF038
:101BB000010C46F2B462FF2543F2F01603F1200750
:101BC00003F00303C9F21140DB00C0F2000203F18D
:101BD000030E9D400CFA07F3D0F880C0116027F087
:101BE00003024CEA030C02F114428C7E02F58812C7
:101BF000C0F880C0C0F2100646F82710D2F80014D2
:101C000004FA0EF421EA0501C2F80014D2F8001417
:101C10002143C2F80014C0F88032D0F800211343E9
:101C2000C0F80031F0BD46F2B4600125FF2743F251
:101C3000F01E5A09920002F11442D2F8844003F0D7
:101C40001F06B540C0F200002C43016023F00300E2
:101C500091F81AC000F11440C2F8844003F0030464
:101C6000D0F82064E400A74026EA0706C0F8206404
:101C7000D0F8206403340CFA04F42033C0F2100EC0
:101C80003443C0F820444EF82310C2F88452D2F8EE
:101C900004312B43C2F80431F0BD00BF012100F133
:101CA0001FBF00BF4FF47A7100F11ABF46F6283308
:101CB000C0F200031B889BB2012B00D1704701F0DA
:101CC0000FBA00BF4FF48053C8F220032DE9F04350
:101CD000B3F840E00446B3F84650B3F84860B3F8B0
:101CE0004A70B3F830C0D88EB3F838805B8F1FFAD3
:101CF00088F91FFA83F800231FFA8EFEBEF1FF0F4A
:101D000083B0ADB22380B6B2BFB21FFA8CFC80B2F2
:101D10000B800ED90EEA0C0313F4804F0CD04FF455
:101D200080534BF6FF72C8F22003A3F84020122321
:101D3000238003B0BDE8F08313F4004F0DD113F4FA
:101D4000005F17D04FF480534DF6FF72C8F22003A6
:101D5000A3F8402013232380EBE74FF4805347F68A
:101D6000FF72C8F22003A3F840201123238003B0A0
:101D7000BDE8F08313F4805F12D1284013F480751E
:101D80001BD010F0010F18D04FF4805340F2FE32F8
:101D9000C8F22003A3F84620012323800B80C8E764
:101DA0004FF480534EF6FF72C8F22003A3F8402090
:101DB00014232380A1F800E0BBE707EA080813F426
:101DC00080670FD018F0010F0CD04FF4805340F211
:101DD000FE32C8F22003A3F84A2002220123228007
:101DE0000B80A6E713F4007F11D006EA090616F06F
:101DF000010F4ED04FF4805340F2FE32C8F2200360
:101E0000A3F848200322012322800B8091E71E05BE
:101E10001ED485B9002F8CD06FEA08034FF480528E
:101E2000C3F30903C8F22002A2F84A300223238038
:101E3000A1F800807DE7C3434FF48052C3F3090348
:101E4000C8F22002A2F8463001232380088070E700
:101E5000104601910092FFF78DFA01994FF48053DB
:101E600008804FF2FF70C8F22003009AA3F84000E8
:101E7000152323800B8803F00703062B7FF459AF4B
:101E80001046009100F0CAF90023009923800B80CE
:101E90004FE71B05DCD4002DCDD1002FBCD1F3437F
:101EA0004FF48052C3F30903C8F22002A2F848306D
:101EB000032323800E803CE710B5044600F0AEF902
:101EC0002046FFF7BDFA46F2A8730246C0F20003AF
:101ED00020461A80FFF7BCFA46F2A6730246C0F20B
:101EE000000320461A80FFF7BBFA46F2A4730246AD
:101EF000C0F2000320461A80FFF7BAFA46F2A27336
:101F0000C0F20003188010BD08B590F82000FFF75C
:101F100031FA00F07000A0F13000B0FA80F0400912
:101F200008BD00BF46F2F67370B546F2F474FF22A6
:101F3000C0F200031B88C0F20004012B228000D0F5
:101F400070BD054600F054F92846FFF713FA10F467
:101F5000804606D14306F3D5284600F035F92680A1
:101F600070BDD52328462380BDE8704000F04CB9F1
:101F700038B546F2F274C0F200042388054603F433
:101F80007F43B3F5407F09D005D8A3F5807313F4E0
:101F90007E4F03D038BDB3F5806FFBD128460021BA
:101FA000FFF70AF821882846BDE83840090AFFF7FC
:101FB00003B800BF10B5044690F8200000F024F9E3
:101FC00094F82000BDE8104000F012B90B46022240
:101FD00001461846FFF700BC02220021FFF7FCBBB8
:101FE0002DE9F0411D4693F8203014461746CBB931
:101FF000870880460E4618D002EB870754F8042B5A
:1020000031462846FFF706F8BC42F7D118F0020F18
:1020100019D118F0010F0AD14FF400623146284659
:10202000FFF790F83846BDE8F0811746EEE73146F5
:1020300028460022FFF786F83146284617F8012B7C
:10204000FFF722F8E8E7314628464FF48062FFF7B1
:1020500079F83146284637F8022BFEF7F1FFD8E72A
:102060002DE9F041850880460F4614461E461FD0D4
:1020700002EB850539463046FEF7B2FF44F8040B03
:10208000AC42F7D108F00308B8F1000F02D128469E
:10209000BDE8F08139463046FEF7A2FFA84405F8B6
:1020A000010B45454FEA1020F9D12846BDE8F081E3
:1020B0001546E9E72DE9F0411546044688460146F4
:1020C0001046FEF781FE21462846FFF7D1F821464B
:1020D0002846FFF7FDF821462846FFF733F9214649
:1020E0002846FEF7DBFE00212846FEF7F1FF00F050
:1020F0000F00844229D040F6C0062146284600F051
:102100001BFAC3F2180621462846FFF7F7FA56F8DD
:102110002470C7B146F23873C0F2000353F824307C
:1021200021463B612846A7F82480FFF7B9FA56F804
:102130002410F8844B681BB10022084611469847CA
:10214000002346F82430BDE8F081002328461A46D3
:102150001946FEF77BFECEE746F2B863C0F20003F5
:102160001A880AB100221A80704700BF10B546F2E3
:10217000B864C0F20004238803B910BDFFF7CCFB9C
:102180006420FFF78BFD0023238010BD46F2B86367
:102190000122C0F200031A80704700BF4FF4805242
:1021A000C8F2200213889BB243F0100313807047DB
:1021B0004FF48052C8F22002138823F010031B044E
:1021C0001B0C1380704700BF4FF48052C8F22002EE
:1021D00013899BB243F48073138170474FF480528C
:1021E000C8F22002138E9BB243F4804313867047DB
:1021F0004FF48052C8F22002138E23F480431B0454
:102200001B0C1386704700BF4FF480534BF6FF72D0
:10221000C8F22003A3F84020704700BF4FF480535A
:102220004FF6F772C8F22003A3F84020704700BFB2
:102230004FF48052C8F22002B2F860309BB243F0F3
:102240000403A2F8603070474FF480534FF40062EB
:102250000721C8F2200359801A841A859A8570478D
:102260004FF48052C8F220021388012915BF23F0D1
:1022700010039BB21B0443F0100318BF1B0C138008
:10228000704700BF4FF48052C8F22002B2F86030AD
:1022900023F003031B041B0CA2F86030B2F860307B
:1022A0009BB221B943F00103A2F86030704743F0BC
:1022B0000203A2F86030704746F6283390F800C059
:1022C000C0F2000333F81C309BB2022B01D0002077
:1022D000704746F2A073C0F200031B88012B13D095
:1022E00046F29E7300B54FF0010E8DB01046C0F25D
:1022F00000036A468DF820C0A3F800E000F00CFA55
:1023000000200DB05DF804FBD520704746F6283359
:1023100010B504460078C0F2000333F8103096B0D0
:102320009BB2022B8DF8480002D0002016B010BDE1
:102330008C465CEA020C1AD1A1880AA859BB00F0AD
:1023400009F900234FF0930C217804AA0C348DF87E
:10235000041094E8030082E80300082001A9039315
:10236000ADF808308DF807C000F016F9DDE746F249
:10237000A073C0F200031B88012B08BFD520D5D065
:1023800046F29E730124C0F2000310460AAA1C8084
:1023900000F07AF9C9E7FFF71FFED2E7C378092BEF
:1023A0002AD810B580EE902B46F2F01245F2983CF8
:1023B00090F800E040F610105B00DCB2C0F20002C2
:1023C000125DC0F2000C5CF82340C3F2180002EB6F
:1023D000420300EB031CCCF808100CF10C018CF844
:1023E00020E0ACF81E20604641F98F07CCF804408D
:1023F000BDE8104000F0B0BC00207047C378092B46
:102400002CD870B546F2F01440F6101C5B008646DE
:10241000581CC0B2C0F20004245CC3F2180C04EBD8
:102420004400062C0CEB00101AD00261816062009F
:1024300022440CEB021C45F298320133C0F2000238
:102440009EF8001052F82330ACF81E40BDE87040F2
:102450008CF82010CCF8043000F07EBC00207047CF
:1024600045F28C330A250E78C0F200031E724978BB
:10247000CCF830515972CCF828319EF803300C2238
:102480005B00D5E7C378092B13D846F2F01201EBB5
:102490004301C9B2C0F20002515C51B100B58DB028
:1024A000037868468DF8203000F078FC0DB05DF8B8
:1024B00004FBFF20704700BF092900D97047FEF7D1
:1024C000EFBE00BF092901D90020704708B5FFF70A
:1024D000E7F800F0030008BD09290FD810B541B195
:1024E0000446FFF72DF82046FFF798F8C0F30A00DE
:1024F00010BDFEF7F1FFC0F30A0010BD00207047C9
:10250000092901D90020704710B50446FFF718F8D3
:102510002046FFF72BF800F0100010BD092901D963
:102520000020704710B50446FFF70AF82046FFF771
:102530001DF800F4404010BD092900D9704738B596
:102540000C460546FFF7F2F821462846BDE838401C
:10255000FFF704B9092900D970470122FFF73CB9F8
:10256000092900D9704738B50C460546FEF72CFC02
:1025700021462846BDE838400222FFF751B900BF86
:1025800008B5FEF701FD00F00700431E022B8CBFCB
:102590000020800108BD00BF2DE9F04146F6383427
:1025A0008E46C0F2000423780E465D1CEDB2202D4D
:1025B00028BF002546F6303703EBC30C04EB8C0C28
:1025C00023448AB00CF1240C98708046BEE80F00BA
:1025D000ACE80F00BEE80F00ACE80F00DEF80030FA
:1025E0002570CCF800303378C0F2000757F823206C
:1025F0002AB346F62C3286F80680C0F2000252F862
:102600002380B8F1000F1DD0454601AC0FCD0FC49B
:102610000FCD0FC42B682360C446B646BEE80F003A
:10262000ACE80F00BEE80F00ACE80F00DEF80030A9
:102630004046CCF80030337857F8233098470AB03A
:10264000BDE8F0810DF10408E6E700BF00F018B91D
:1026500046F2F672C0F2000208B51388012B18BFCB
:10266000FF2000D008BD42F2E1720346002140F293
:102670005510C0F2000200F0A7FB46F2F473C0F25E
:102680000003188808BD00BF70B546F2387C40F6DC
:10269000E805144646F2A07E00220126C0F2000C96
:1026A000C3F21805C0F2000ECCF800002023296008
:1026B00020461146AEF80060FEF7C8FB0021204618
:1026C000FEF7A4FD00212046FEF78CFE00212246E5
:1026D000084600F0CFFDB042054613D020F00206B8
:1026E000B6B20EB1284670BD31462046FEF708FE50
:1026F00031462046FFF7E0FE20463146FFF72AFF2D
:10270000284670BD20460021FFF7D6FE2046002156
:10271000FFF720FF284670BD70B540F6E80C46F282
:10272000387E1446002346F2A0750126C0F2000E42
:10273000C3F2180CCEF80000CCF800101A46194667
:102740002046C0F200052E80FEF780FB20460021C7
:10275000FEF75CFD20460021FEF772FD20460021B9
:10276000FFF7AAFE2046BDE870400021FFF7F2BE49
:1027700070B546F2A07200250C4646F29E730646DE
:10278000C0F20003C0F20002294620461D801580D9
:10279000FEF7D8FD29462046FEF76AFD2946204669
:1027A000FEF796FD4FF4006229462046FEF7CAFC6C
:1027B00026F00203052B0DD0082E05D094F820003A
:1027C000BDE87040FFF734BD29462046BDE87040A3
:1027D000FEF7FABA2046BDE87040FFF7FDBB00BF28
:1027E000704700BF704700BF024646F29C734FF02F
:1027F000010C00B58BB092F82020C0F2000303203A
:1028000001A9A3F800C08DF80420FFF7C5FE0BB0A6
:102810005DF804FB034600B58BB093F8203004202C
:1028200001A98DF80430FFF7B7FE0BB05DF804FB8B
:10283000034600B58BB093F82030052001A98DF830
:102840000430FFF7A9FE0BB05DF804FB704700BF32
:1028500046F29C73C0F200031A88012A00D0704728
:10286000002200B58BB090F820C001A906208DF899
:1028700004C01A80FFF790FE0BB05DF804FB00BFA8
:1028800070B546F61024C0F2000494F8013194F8B3
:1028900000218EB09A4201D10EB070BD04EBC3008E
:1028A0004188406834F833208078013A8DF8280058
:1028B000142A11D8DFE802F00B4D5310101010103D
:1028C00010101010101010103F2D1020170002A82B
:1028D00000F0ACFB94F80131013303F01F0384F8DE
:1028E00001310EB070BD01F00705052D3FD8DFE8BE
:1028F00005F0603C3E3C3E3C01F07002402A4DD069
:1029000046D8102AE8D102A800F0E6FF94F8013179
:10291000E2E746F26873C0F200035B6A02AE23B1DD
:10292000002202AE3046114698473046FFF742FB80
:1029300094F80131D0E7FEF7D1FA9DF8280001F0B4
:1029400075F8402802A82FD000F0F0FF94F801316C
:10295000C2E702A800F0A0FB94F80131BCE702A88E
:1029600000F094FB94F80131B6E7FFF7A5FA46F2C0
:10297000A873C0F200031B8813F0600F65D1691EB5
:10298000042900F28D80DFE801F04E48423C360019
:10299000602A03D001F0500150299DD102A801F016
:1029A0000DF894F8013197E700F0B4FF94F8013185
:1029B00092E746F2F073C0F200031B88012B38D077
:1029C00046F2A873C0F200031B8813F0600F08BF23
:1029D00002AE3AD146F2A07246F29E730021C0F2D6
:1029E0000003C0F2000230461980118001F0D6F8D1
:1029F00094F8013170E702A801F0C2FA94F80131AD
:102A00006AE702A801F00AFD94F8013164E702A820
:102A100001F0B4FA94F801315EE702A801F098FCE5
:102A200094F8013158E702A801F002F994F8013155
:102A300052E702AE3046FFF79BFA46F2A873C0F2A7
:102A400000031B8813F0600FC4D046F2A67646F24E
:102A5000A47146F2A272ADF80030C0F200063688CA
:102A6000C0F20001ADF802600988C0F20002ADF8C2
:102A7000041046F26873128846F26070ADF80620C2
:102A8000DDED000BC0F20003DB6AC0F20000C0ED18
:102A9000000B13B1294602AA984794F801311BE7AD
:102AA000072002A9FFF764FE94F8013114E700BF84
:102AB00038B540F6C003C58BC3F21803044643F88B
:102AC0002500FFF721FA012806D0284622460721D3
:102AD000FFF7F0FA002038BD29462046FFF710FD29
:102AE00020B9284600F04CFC002038BD284600F0F4
:102AF00091FB002038BD00BF46F60E2C46F2F6735F
:102B000046F610000021C0F2000CC0F200034FF4A2
:102B1000FF72C0F20000ACF80010198002F026BB72
:102B2000844646F60E2346F61000C0F200034FF42A
:102B3000FF720021C0F20000A3F800C002F016BB33
:102B400046F2B073C7FF5F08C0F2000343F9DF0A23
:102B5000C3ED080BC3ED0A1BC3ED040BC3ED061B4D
:102B6000C3ED0C0BC3ED0E1B704700BF46F268733C
:102B7000C0F200039B681879704700BF46F2687383
:102B800030B5C0F200039B6893F802E0D9781A7858
:102B90004EEA012E7245134412D2054600201978E0
:102BA00093F801C00A44BCF1040F1C4692B20B44D6
:102BB00003D1A178A94208BFE0789645EFD830BD8F
:102BC000002030BD46F268732DE9F043C0F20003E7
:102BD0009B68DC7893F802E01A780EEB042E1FFA5B
:102BE0008EFE7245134438D2002546F2B0762F4649
:102BF0002C46C0F200061BE0BCF1050F11D1AC421F
:102C00000FD293F802C007EB04084FEADC190CF06E
:102C10000F0C5FFA88F801340CEB091CA4B226F8FB
:102C20001C8093F800C0624492B27245634414D28F
:102C300093F801C0BCF1040FDED193F8028093F841
:102C400004C080450BD0BC441FFA8CF793F800C039
:102C50006244D2B272456344EAD3BDE8F08393F88C
:102C60000380884508BF6546EDD1EFE746F60E23A1
:102C7000C0F20003188838B146F26873C0F200034E
:102C80009B68D879C0F34010704700BF46F2687364
:102C9000C0F200039B68D879C0F38010704700BF72
:102CA000092800D9704738B50446154600F0B0FB36
:102CB000032819D8DFE800F0110A020338BD2A46BC
:102CC0002046BDE838400521FFF7F4B92A462046E2
:102CD000BDE83840042100F019BC2A462046BDE872
:102CE0003840032100F012BC2A462046BDE8384097
:102CF0000721FFF7DFB900BF092800D9704770B579
:102D000004460E46154601461046FEF7B1FA2A461D
:102D10003146204600F0AEFA012809D8214628465F
:102D2000FEF7EEFA21462846BDE87040FFF7C4BB27
:102D3000022806D02A462046BDE870400721FFF74A
:102D4000B9B921462846FEF77BFA21462846BDE858
:102D50007040FFF7B1BB00BFC18BE1B140F6C003CB
:102D6000C3F2180353F8213010B5044623B1FFF71E
:102D7000D5FBB0F5404F0CD12046FFF7C5F8012830
:102D800018BFFF2000D010BD2046BDE81040FFF75F
:102D90008FBED52010BDFF20704700BF092911D874
:102DA00008B50B4640F6C001C3F2180151F82310D4
:102DB00031B1024608211846FFF77CF9002008BD12
:102DC000FF2008BDFF20704770B56FF4AA7400EBB8
:102DD000040C1C46BCF10F0F1BD8DFE80CF0271ABF
:102DE000211B1A1A1A1A1A1A1A1A1A1A1A080D462E
:102DF000214628461646FFF7E9F846F2F87246F6ED
:102E00000C030121C0F20002C0F2000322F81510E9
:102E10001E6070BD94F82000BDE87040FFF7C8B98F
:102E200094F82000BDE87040FFF7B8B994F820008E
:102E3000FFF79CF994F82000BDE87040FFF772B8E6
:102E400042F2E17246F26873C0F2000242F2E571AA
:102E500010B4A2EE902B002480EE902BC0EF5040D7
:102E6000C0F2000303F1140003F12402C0F20001D8
:102E70001C6143F9DF4A40F98F2A42F98F075DF858
:102E8000044BD962704700BF2DE9F04142F6897CBE
:102E900042F2E97742F6510642F6150546F26873AA
:102EA000496842F6310461F98F4ADFED1B6BDFEDB3
:102EB0001C7B0A6984B0C0F20003C0F2000CC0F2AF
:102EC0000007C0F20006C0F2000591F814E01A6194
:102ED000CDE900C7CDE90265C0F200045C6242F6AC
:102EE0004D0044F279586DF9DF2AF4FFA609F4FF8A
:102EF000A719C0F20000C0F2000803F1140141F963
:102F00008F2A43F9DF0AC3E90A0883F830E004B0E6
:102F1000BDE8F081AFF30080000102030C0D0E0F3D
:102F20000405060708090A0B2DE9F04704789442C6
:102F300024D20646174698464FF0000A4FF0FF0984
:102F4000351995F801C0BCF1040F08BF95F805A02C
:102F50000BD0BCF1050F08D152464146284600F07F
:102F6000ABFB002818BF4FF0000995F800C064447F
:102F7000A4B2A742E4D84846BDE8F0874FF0FF0965
:102F80004846BDE8F08700BF46F29C73F0B5C0F23A
:102F900000031A880446012A0D468BB031D046F250
:102FA0006873C02DC0F200039A6808D0A2B3022152
:102FB0005170DB680BB107215970174608E0DF68D4
:102FC0008AB307215170DB680BB102225A70B7B186
:102FD000FB78BE7894F8200006EB0326B6B200F02A
:102FE000E9FB2346294632463846FFF79DFF94F811
:102FF0002030012001A98DF80430FFF7CDFA0BB085
:10300000F0BD002290F8201006208DF8041001A9D0
:103010001A80FFF7C1FAC2E7DB68002BEFD0072266
:103020005A700BB0F0BD3B46CEE700BFCB0711D5C1
:103030000021024610B50446084600F0E9F90328CD
:1030400010D019D8022807D12046BDE81040002131
:10305000FFF780BA00F060BA2046BDE810400021BA
:10306000FEF706B920460021FEF7D0F82146BDE85C
:1030700010400520FFF77CBBFF2805D12146BDE8A5
:1030800010400720FFF774BB10BD00BFCB0700D571
:10309000704700F073BA00BFCB0711D5002102467C
:1030A00010B50446084600F0E5F8022810D009D90A
:1030B000FF2813D12146BDE810400720FFF758BB79
:1030C00000F088BA2046BDE810400021FEF73AB96A
:1030D0002046BDE810400021FFF73CBA10BD00BFFC
:1030E00043F2AC1143F2B01238B543F2F01346F696
:1030F0001024C0F210010978C0F21002013932F92F
:103100001120C0F21003203253F82250C0F2000404
:10311000A878FFF721F894F80031D80004EBC30336
:103120005D60811CAA7818462144FEF7CBFD94F817
:103130000031013303F01F0384F8003138BD00BFB4
:103140002DE9F0411546044640F6C0068846014682
:103150001046FDF739FE21462846FEF789F821463C
:103160002846FEF7B5F821462846FEF7EBF8C3F2ED
:10317000180621462846FDF791FE56F82470C7B17F
:1031800046F23873C0F2000353F8243021463B6105
:103190002846A7F82480FEF783FA002256F8243048
:1031A0001146F8841846DC835B689847002346F88C
:1031B0002430BDE8F08100BF46F2D46391F82010BE
:1031C000C0F2000301EB810101EB810103EB8103FC
:1031D000C10800F00F0C01F01000012240EA0C00C1
:1031E00004E001320A2A03F10A0309D059890129AE
:1031F000F7D1998901F01F018842F2D190B270474E
:10320000FF2070470020704708B5FDF753FEC0F35C
:10321000C01008BD092800D9704740F6C003C3F2AA
:10322000180370B553F820500446014628462E690D
:10323000FDF7CAFD46F2387240F6E803C0F200021C
:1032400042F82460AA68C3F218032146284643F8CE
:103250002420FEF7C7F821462846FEF793F82046BB
:103260002A460021FFF748FD21462846BDE8704068
:10327000FFF770B92DE9F04F092883B071D80E46D9
:10328000154650EA010213BF0146202311460023D0
:1032900018BF324604462846FDF7ACFDFF2860D033
:1032A00021462846FDF74AFC46F238780746214673
:1032B0002846C0F20008FFF70FF958F82430BB4643
:1032C000BB4288BF4FF0020A0FD89FB2002F45D0F3
:1032D000B7FBF0F300FB13739BB2002B3ED1B4FAA3
:1032E00084FA4FEA5A1A4FEA4A0A21462846FFF75B
:1032F000E9F840F6E80921460190C3F2180928468A
:10330000FDF762FD2B463146384659F82420FEF77A
:1033100067FE58F8243049F824009B459CBFDB1B0E
:1033200048F824300CD821462846FEF75BF8019B6C
:1033300003F00303012B1AD0504603B0BDE8F08F11
:1033400000233146284648F82430FDF725FF0304C2
:10335000E9D431462846FDF73BFFE4E74FF0010A88
:10336000C3E74FF0FF0A504603B0BDE8F08F284690
:103370002146FFF7EFF8504603B0BDE8F08F00BFDD
:10338000092800D9704740F6C003C3F2180370B58E
:1033900053F820500446014628462E69FDF714FDD7
:1033A00046F2387140F6E8020023C0F2000141F80D
:1033B0002460A968C3F2180242F824102846214666
:1033C0001A46FDF743FD21462846FFF785F84EB122
:1033D000B6FBF0F200FB126092B288B92146284693
:1033E000FDF74AFD21462846FFF7B4F82146284656
:1033F000FDF726FF21462846BDE87040FFF75CB880
:1034000001322146284692B2FDF736FDEAE700BFB9
:1034100009282DE9F0473FD8164604460A46884653
:10342000002301463046FDF7E5FCFF2834D046F284
:103430003877C0F30B0521463046C0F20007FFF78E
:103440004BF857F82430AA46AB4237D343D045B3A4
:10345000B5FBF0F300FB13539BB24FF002092BB105
:1034600021463046FDF7B0FC4FF00109284640F6F2
:10347000E805C3F218053346414655F82420FEF707
:10348000EFFD45F8240057F824304846A3EB0A0323
:1034900047F82430BDE8F0874FF0FF094846BDE803
:1034A000F08721463046FDF78FFC4FF00109414679
:1034B0003046FDF7ABFE4FF0000AE4E72146304608
:1034C000FDF782FC57F8243047F824509DB24FF0A6
:1034D0000309AA46CAE784B9B5FBF0F300FB13530E
:1034E0009BB223B94FF00209002DE0D0BEE7214680
:1034F0003046FDF769FCA146B8E721463046FDF7A6
:1035000063FC4FF00009002DD1D0AFE7092800D9A6
:103510007047FFF715BE00BF2DE9F843012440F6C0
:10352000C00907460D462646C3F2180902E00134D9
:103530000A2C1BD006FA04F31D42F8D01FFA84F8B7
:1035400038464146FDF74EFF59F82430002BEED0A7
:1035500041463846FEF7D4FF102809D03A460021EC
:1035600040460134FFF79CFB0A2CE3D1BDE8F88309
:1035700040463A460021FFF7BFFBD8E72DE9F84364
:10358000012440F6C00781460D462646C3F21807BF
:1035900006FA04F31D420BD057F824301FFA84F8C2
:1035A00033B141464846FEF7B9FFB0F5404F04D06D
:1035B00001340A2CECD1BDE8F8834846FDF72AFF18
:1035C00010F4004F4A46404614BF05210721FEF77C
:1035D00071FDEDE72DE9F047012440F6C00846F201
:1035E000C06906460D462746C3F21808C0F2000916
:1035F00007FA04F31D4227D058F8243023B396F875
:1036000020301FFA84FA03EB830304EB430339F8F9
:103610001330012B18D051463046FEF753FF820776
:1036200038D451463046FEF73BF843043BD496F875
:103630002030504603EB830304EB43033246012161
:1036400029F81370FFF77CFD0134062CD0D140F629
:10365000C0080127C3F2180807FA04F31D4210D06E
:1036600058F824301FFA84F95BB149463046FEF71A
:1036700029FF10F0020F3246484607D00621FEF718
:1036800019FD01340A2CE7D1BDE8F0870121FFF7CD
:1036900057FDF6E75046324606210134FEF70AFD93
:1036A000062CA5D1D3E7514630460134FDF728FE5C
:1036B000062C9DD1CBE700BF4378052B0AD170B50E
:1036C000C378844603F00300022826D0032803D0E1
:1036D000002070BD002070479CF802E04FEADE1326
:1036E000022A14BF002303F00103002BF0D046F29E
:1036F000D46391F82010C0F2000301EB810000EBCD
:10370000800003EB8000808F8A000028E0D106242F
:10371000042548F2100620461BE09CF802E01EF04B
:10372000800F2DD10A2AD3D146F2D46391F820100C
:10373000C0F2000301EB810202EB820403EB84047C
:10374000A48A8A00002CC3D1044647F648454FF4AA
:1037500085460A4402EB820204EB8404920002EBE9
:1037600044020124BCF804109C52134400220EF0C1
:103770000F0E46EA0E065E80D9809D801A8170BDCC
:103780000A2AA5D146F2D46391F82010C0F20003B2
:1037900001EB810000EB800003EB800040898A0090
:1037A000002895D1012447F6084544F2102620460A
:1037B000CFE700BF46F2D463C0EF10004FF0000C1B
:1037C000C0F2000300EB800202EB820203F15A0018
:1037D00000EB820003EB8203598903F10A020129FD
:1037E00003D142F94F07A3F812C082421346F3D126
:1037F000704700BFF8B546F2D46601240546C0F212
:10380000000602E001340A2C2DD095F8203004EB9C
:10381000840203EB830303EB83039B0003EB42036C
:10382000F35A012BEED100212846FDF751FCA7B237
:1038300000F00F00B84217D001212846FDF748FCE0
:1038400000F00F00B8421DD002212846FDF740FCD1
:1038500000F00F00B8420ED0394628460134FDF77B
:1038600093F90A2CD1D1F8BD002328461A461946EF
:10387000FDF7ECFAE0E70023022228461946FDF79F
:10388000E5FAE9E70023012228461946FDF7DEFAAA
:10389000DAE700BF70B546F2D46501240646C0F2EF
:1038A000000502E001340A2C14D096F8203004EB15
:1038B000840203EB830303EB83039B0003EB4203CC
:1038C000EB5A012BEED1A1B230460134FDF70EFACE
:1038D0000A2CEAD170BD00BF38B5044646F26875BF
:1038E00000F0C4F8C0F20005FFF706F92046FEF725
:1038F00047FE6B691BB101460022204698472046CF
:103900000021FDF7D3FD2B682046D979BDE838406A
:10391000FDF7F8BD10B504460A20FEF7C3F994F888
:103920002000BDE81040FEF739BC00BFF8B50546E1
:10393000FDF7E0FA95F82000FEF73AFC46F60E2275
:1039400046F2F673002146F2D466C0F20002C0F2DD
:103950000003012411801980C0F2000602E0013446
:103960000A2C1AD095F8203004EB840103EB830372
:1039700003EB83039B0003EB4103F35A012BEED1CE
:10398000A7B22A4608213846FEF794FB013439468F
:103990002846FDF7ABF90A2CE4D146F26873C0F271
:1039A0000003DB691BB1002228461146984795F8B1
:1039B0002000BDE8F840FEF7E9BB00BF70B5044643
:1039C00090F82000FEF70AFC94F82000FDF7D2FCE6
:1039D00005462046FDF7C0FA6B0603D500F003004C
:1039E000012809D094F82000FEF70EFC94F820007E
:1039F000BDE87040FEF7FCBB94F82000FEF7C6FB64
:103A000000F036F846F26873C0F200031D6A55B143
:103A100046F2F673C0F200032046198800222B46B6
:103A2000BDE87040184770BDFEF7D6BA70B50646BF
:103A30003046FDF79FFC05460A20FEF72FF9304679
:103A4000FDF798FC04460A20FEF728F93046FDF7FA
:103A500091FC85EA0403444023431B06E8D415F097
:103A6000800F0CBF4320402070BD00BF704700BFD7
:103A7000704700BF034646F2B0702DE9F04F402278
:103A800083B00D46C0F200000021019301F06EFBEF
:103A900046F610004FF4FF720021C0F2000001F062
:103AA00065FB46F2A871002446F2F27C46F2A67B42
:103AB00046F2A47A46F2A27946F2A07846F29E77C0
:103AC00046F29C7646F2607346F60C0E46F268703B
:103AD000C0F20001C0F2000CC0F20003C0F2000E00
:103AE0000C8034222146C0F2000BC0F2000AC0F262
:103AF0000009C0F20008C0F20007C0F20006C0F2E0
:103B00000000CEF80040ACF800401C605C603480DF
:103B1000ABF800402826AAF80040A9F80040A8F811
:103B200000403C8001F022FB40F6E800324621468E
:103B3000C3F2180001F01AFB46F2387032462146F3
:103B4000C0F2000001F012FB20220E21124801F009
:103B50000DFB46F2F87340F6C000C0F20003324697
:103B60002146C3F218001C605C609C60DC601C6134
:103B700001F0FCFA46F60E2246F2F6732946019849
:103B8000C0F20002C0F2000314801C8003B0BDE844
:103B9000F04FFFF779B900BF3A6B000046F2A87307
:103BA00046F29E712DE9F0410025C0F200031B880A
:103BB000C0F2000103F47F43B3F5106F0D8018D0FD
:103BC000B3F5306F2CD146F26873C0F200039C6AE3
:103BD00034B346F2A47146F61003C0F2000109881E
:103BE000C0F200032A4633F811102346BDE8F04125
:103BF000184746F2A67646F60E27C0F2000604469F
:103C0000C0F200073088B7F80080FEF789FF3388DC
:103C1000434505D046F26873C0F200039B690BB9B7
:103C2000BDE8F0812A4620463988BDE8F0411847B2
:103C300046F2A87370B5C0F200031B88044603F473
:103C40007F42B2F5006F82B000F088801BD8002A56
:103C500048D0B2F5C06F19D113F01F0240F0A38015
:103C600046F2A673C0F200031A88130A013BD5B2CC
:103C7000062B0BD8DFE813F03A01F00024010A000C
:103C80000A000801C700B2F5206F05D0204602B037
:103C9000BDE87040FEF7A0B903F01F03012BF5D17A
:103CA00046F2A673C0F200031B88002BEED146F249
:103CB000A273C0F2000318880128E7D146F2A4736A
:103CC000C0F200031B88FE2BE0D846F6100546F62E
:103CD0001431C0F2000535F81330C0F2000122465D
:103CE0000B7036E046F2A672C0F20002118800297D
:103CF000CCD146F2A272C0F200021288022AC5D1CB
:103D000046F61C3503F01F03C0F20005012B298085
:103D100000F01181022B00F0FD80002BB6D146F29D
:103D2000A473C0F200031B88002BAFD1FEF7AEFFD7
:103D300046F2F673C0F200031B882870012B04BF03
:103D400040F00200287046F61C3122460220C0F2E4
:103D5000000102B0BDE87040FEF796BC46F2A671C5
:103D600046F2A472C0F20001C0F2000203F01F008C
:103D700012880B88134303439BB2002B86D146F273
:103D8000A273C0F20003188801287FF47FAF46F6C3
:103D90000E2346F61831C0F200031B88C0F2000162
:103DA00022460B70D5E7012A7FF470AF46F2A67564
:103DB00046F2A47146F2A272ADF80030C0F20005DE
:103DC000C0F20001C0F200022D880988128846F274
:103DD0006873ADF80250ADF80410ADF8062046F255
:103DE0006070DDED000BC0F20003DB6AC0F2000082
:103DF00040F94F07002B00F08B802246002102B0D3
:103E0000BDE870401847FFF7FFF901287FF43EAF87
:103E100046F2A473C0F200031B882B437FF436AF35
:103E20002046FEF7ADFB46F2687346F2A272C0F27E
:103E30000003D3E90251C02808BF2946C0F200029E
:103E400010888B78CA7803EB02239BB28342224608
:103E50003FF67FAF18467CE746F2A473C0F200033A
:103E60001B882B437FF412AFFEF78AFB46F2687380
:103E700046F2A272C0F20003D3E90213C0F20002BC
:103E8000C02808BF1946DBE7FFF7BEF901287FF419
:103E9000FDAE46F2A473C0F200031B882B437FF4EF
:103EA000F5AE46F2687246F2A273C0F200025168A3
:103EB000C0F2000318880B7822468342CAD948E72B
:103EC00046F26873C0F2000393F83020AA427FF6EE
:103ED000DDAE46F2A2721B69C0F2000253F8251053
:103EE00010880B7822468342B4D932E746F2A47395
:103EF000C0F200031B882B437FF4C8AE46F2687201
:103F000046F2A273C0F200021168C0F20003D1E7CA
:103F100002B070BD46F2A476C0F2000633881907DD
:103F200019D190F82000FDF703FB82077FF50BAF56
:103F300001232B7007E7FDF7E7FF01287FF4A6AE0A
:103F4000FEF714FE46F2A473C0F200031B888342FE
:103F5000FFF4F9AE9AE6FDF7D7FF01287FF496AE9D
:103F600021463088FFF728F9FF2801463FF48EAE3E
:103F70002046FEF7A7FA8307DAD4E4E6FEF72CB86A
:103F8000F0B546F2A875C0F200052B88044603F48C
:103F90007F42B2F5A06F8DB000F0EE8020D9B2F56F
:103FA000106F00F0A480B2F5306F09D1FDF7ACFFBF
:103FB000012805D12B8803F01F03012B00F0F780A7
:103FC0002046FEF709F846F29E76C0F200063388D6
:103FD000012B33D021460020FEF7CAFB0DB0F0BD07
:103FE000B2F5807F5DD0B2F5407FE9D146F2A27292
:103FF000C0F200021288002AE2D113F01F0300F081
:104000002981022BDCD146F2A67246F2A473C0F2DB
:1040100000021288C0F200031888002AD0D10207DB
:1040200007D02146FFF7C8F8FF28C9D02146FDF781
:10403000CDFF00212046FEF78DFAC4E746F2A671B7
:1040400046F2A4722B88C0F20001ADF8003046F2AF
:10405000A2730988C0F20002ADF802101288C0F203
:104060000003ADF804201B889320ADF8063000252E
:10407000DDED000B94F820308DF80B008DF8083042
:1040800002A905AB082043F94F070495ADF80C5081
:10409000FEF782FA214600203580FEF769FB0DB05D
:1040A000F0BD46F2A272C0F200021288002A87D147
:1040B00013F01F0300F0AF80022B81D146F2A672ED
:1040C00046F2A473C0F200021288C0F200031B88FB
:1040D000002A7FF475AF13F00F0640F0C780314619
:1040E000FEF73EFA31462046FEF734FA6BE7DB0670
:1040F0007FF466AF46F2687346F2A677C0F200031B
:104100009A68C0F200073B885279002B18BF9A4288
:104110007FF456AF46F2A47246F2A273C0F20002D8
:10412000C0F2000316881B881E43B6B2002E7FF42F
:1041300047AF3146FEF70EFA3B88002B3FF443AF02
:1041400046F60E22C0F2000212889A423FF43BAFBC
:10415000FEF7F6FCFEF70AFD074630B1B0B20021CB
:104160000136FEF72FFDB742F8D12046FFF792FB4C
:104170002046FFF73FFB26E746F2A47246F2A27103
:10418000C0F20002C0F200011288098803F01F0388
:104190000A4313439BB2002B7FF412AF46F2A6737F
:1041A000C0F200031B887F2B7FF643AF08E746F27F
:1041B000A476FEF7DBFCC0F2000632889042FFF4E2
:1041C000FFAE46F2A273C0F200031F88002F7FF4F7
:1041D000F7AE1046FEF7D2FC46F2A673C0F200031B
:1041E0001B889842FFF4ECAE394646F61007328839
:1041F000DBB2C0F20007204627F81230FEF7AAF91A
:10420000FEF79EFC308837F81010FEF7DBFC2046E6
:10421000FFF7F0FAD7E646F2A673C0F200031B8858
:10422000012B7FF4CDAE46F2A473C0F200031E88CA
:10423000002E7FF4C5AEFEF719FD01287FF4C0AE55
:1042400046F2F6733146C0F2000320461E80FEF7A8
:1042500081F9B8E646F2A673C0F200031B88012B71
:1042600052D0022B31D0FFF7DFFBACE601461846F7
:10427000FEF7A2FFFF2806463FF4A2AE0146204605
:10428000FEF720F901283146204655D0FEF768F99F
:1042900031462046FDF77AFA00212046FEF75AF90A
:1042A00046F2F873C0F2000333F81620012A7FF4B7
:1042B0008AAE46F60C010022C0F2000123F8162057
:1042C00020460B68114698477DE6FEF759F9C0284D
:1042D0007FF476AE46F2A473C0F200031B88A3F508
:1042E000804211047FF56CAE46F2F07246F2F2762F
:1042F0000127C0F20002C0F20006002120463380F0
:104300001780FEF727F95EE646F2A473C0F20003B9
:104310001E88002E7FF454AEFEF7A8FC0128034649
:104320007FF44EAE46F2F6723146C0F200022046ED
:104330001380FEF70FF946E6FCF746FD31462046AE
:10434000FDF724FA31462046FEF704F9A4E700BF42
:1043500070B546F2A876C0F200063388044603F42E
:104360007F43B3F5006F8CB046D041D9A3F52063ED
:1043700013F47D4F40D046F29E752046C0F20005F2
:10438000FDF72AFE2B88012B41D146F2A67146F299
:10439000A4723388C0F20001ADF8003046F2A27377
:1043A0000988C0F20002ADF802101288C0F20003C2
:1043B000ADF804201B889320ADF806300026DDED13
:1043C000000B94F820308DF80B008DF8083002A90E
:1043D00005AB082043F94F070496ADF80C60FEF7D3
:1043E000DBF8214600202E80FEF7C2F90CB070BD2C
:1043F00013B1B3F5C06FBED146F29E7500212046C1
:10440000C0F20005FEF7A6F82B88012BBDD021468F
:104410000020FEF7ADF90CB070BD00BF70B546F2DC
:10442000A876C0F200063388044603F47F43B3F550
:10443000E06F8CB00ED046F29E75C0F20005FDF71D
:10444000CBFD2B88012B0FD021460020FEF790F9E1
:104450000CB070BD46F29E750021C0F20005FEF75B
:1044600079F82B88012BEFD146F2A67146F2A4729F
:104470003388C0F20001ADF8003046F2A27309881B
:10448000C0F20002ADF802101288C0F20003ADF8CD
:1044900004201B889320ADF806300026DDED000BCC
:1044A00094F820308DF80B008DF8083002A905AB88
:1044B000082043F94F070496ADF80C60FEF76CF83E
:1044C000214600202E80FEF753F90CB070BD00BFCE
:1044D000024630B50C468BB05168006804AB03C38C
:1044E00020460021FEF736F80025932294F820306C
:1044F00001A908208DF807208DF804300395ADF848
:104500000850FEF749F846F29E732146C0F20003B8
:1045100028461D80FEF72CF90BB030BD024630B5A1
:104520000C468BB05168006804AB03C320460021E1
:10453000FEF710F846F2387293210025C0F200020F
:10454000BDF8163012688DF807109B1A94F82020D9
:1045500001A9082003938DF80420ADF80850FEF758
:104560001BF846F29E732146C0F2000328461D80C8
:10457000FEF7FEF80BB030BD038810B503F0600302
:10458000203B23F020039BB284468CB033B905292D
:1045900066D8DFE801F0371A5F1A31434FF0930E07
:1045A000DCF8041092F820C00022006806AB8DF8F9
:1045B0000FE003C3072003A98DF80CC00592ADF8E6
:1045C0001020FDF7E9FF0CB010BD00244FF0930E52
:1045D000DCF80410006892F8202006AB8DF80C205F
:1045E00003C3072003A90594ADF810408DF80FE030
:1045F000FDF7D2FF0CB010BD11460CB0BDE8104065
:10460000FFF78CBF46F2A07246F29E730021C0F203
:104610000002C0F2000311801980D4E700244FF09B
:10462000930EDCF80410006892F820C006AB03C3B8
:1046300003A9072001928DF80CC00594ADF8104035
:104640008DF80FE0FDF7A8FF019A20461146FEF70E
:104650008FF8B8E711460CB0BDE81040FFF738BF3F
:10466000114607200CB0BDE81040FEF781B800BF2E
:1046700040F2DC50704700BF40F2DC50704700BF92
:1046800040F2DC50704700BF40F2DC50704700BF82
:1046900040F2DC50704700BF03461B7800200B70CF
:1046A000704700BF0346DB7800200B70704700BFE7
:1046B00003465B7800200B70704700BF03469B7871
:1046C00000200B70704700BF03469B8800200B80C2
:1046D000704700BF03469B6800200B60704700BF17
:1046E0000A4600F10C0303CB1060516000207047B4
:1046F00008B5A8B1A1B146F628330278C0F200038C
:1047000033F812309BB2022B03BF46F62C33C0F2B3
:104710000003002040F2DC5008BF43F8221008BD1F
:10472000FEF0D0F9012008BD18B111B140F2DC5003
:10473000704708B5FEF0C6F9012008BD10B140F27F
:10474000DC50704708B5FEF0BDF9012008BD00BF80
:10475000F0B505468DB00C4630220021684600F0C9
:1047600005FD002D74D0002C72D0A3782B70E27858
:10477000012B02F07F01E970A06AA86162D860781D
:10478000022851D812F0700F5ED101228A4012F433
:10479000E84F62D148F211210A4255D02278022A0C
:1047A00050D100284ED06268002A4BD046F6203700
:1047B000C0F20007FB5C012B08BF40F2DD5045D082
:1047C00046F6383040F2A4420021C0F2000000F06A
:1047D000CDFC46F6243646F6343C40F61010002157
:1047E0004FF0010E2B78C0F2000C4FF4F072C0F2C3
:1047F0000006C3F2180007F803E02CF8131026F89F
:10480000131000F0B3FC2378012B2CD12A7801235C
:10481000E97836F812008B4003439BB20A2926F848
:10482000123059D0002011E02378012B0AD112F068
:10483000700F09D148F211228B40134202D113F4B8
:10484000E84F01D0FEF03EF940F2E2500DB0F0BD6D
:10485000FEF038F901200DB0F0BD2278012AF1D127
:104860000228A3D0EEE746F6283302222878C0F2C9
:10487000000323F81020FDF75FF80028E6D1214659
:104880002846FFF7F7F846F26873C0F200039B680A
:10489000002BD9D021462878FDF75EF96378022BEA
:1048A0002CD02878FDF7D0FC2878FFF7BFF84028F7
:1048B0001AD023782A78012BA9D036F812309BB26F
:1048C00043F0010326F8123036F812309BB243F061
:1048D000020326F81230A5E736F812309BB243F4F3
:1048E000006326F812309DE72878FCF7F7FA0A20D3
:1048F000FDF7D8F92878FDF751FCDAE72B78684600
:104900008DF82030FCF710FBCBE700BF30B58DB041
:10491000002851D00C4600294ED046F628320378A4
:10492000C0F20002012B054632F8131049D832F8C4
:10493000131046F624310620C0F2000131F813109E
:10494000A07089B2002942D032F813208DF82030AF
:1049500093B2012B02D100200DB030BD0023684678
:104960002370FDF70DFE80281BBFC038B0FA80F021
:104970000120400918BF400060702878FCF7FAFC5D
:1049800000F07003202B27D012D9302B04BF032353
:10499000A3700AD02F2B08D9602B04D022D800F0A6
:1049A0006000402801D10423A3700023E370D2E704
:1049B000ABB10123A370F8E7FEF084F801200DB03D
:1049C00030BDFEF07FF840F2E2500DB030BDFEF099
:1049D00079F840F2DC50BFE70223A370E5E7062335
:1049E000A370E2E7702BDED0DFE700BFF0B583B045
:1049F00000284AD00D4646F6283104460078C0F219
:104A00000001164631F8102092B2022A32D031F855
:104A1000102092B2022A04BF03F07F03E370002D3E
:104A200018BF002E31D015F0030727D1012825D853
:104A3000E378A3F10D0103F0F702012A18BF022960
:104A40001CD946F62432C0F2000232F8102092B28D
:104A500042FA03F3DB0711D52046627801A9FFF77C
:104A600055FF9DF80630032B15D040F2DC57384631
:104A700003B0F0BD83F08002142AC8D9FEF022F8FA
:104A800040F2E257384603B0F0BD0127FEF01AF8B5
:104A9000384603B0F0BD324629462046FDF77EFC7D
:104AA0000028EFD0D528E0D140F2DD57EAE700BF7B
:104AB000F0B583B000284ED00D4646F628310446A6
:104AC0000078C0F20001164631F8102092B2022A96
:104AD00036D031F8102092B2022A04BF03F07F03CF
:104AE000E370B6FA86F35B09002D18BF43F00103AB
:104AF0008BB315F0030727D1012825D8E378A3F15C
:104B00000D0103F0FD02092A18BF02291CD946F63F
:104B10002432C0F2000232F8102092B242FA03F3BB
:104B2000DB0711D52046627801A9FFF7EFFE9DF85B
:104B30000630032B15D040F2DC57384603B0F0BDE9
:104B400083F08002142AC4D9FDF0BCFF40F2E25782
:104B5000384603B0F0BD0127FDF0B4FF384603B07E
:104B6000F0BD324629462046FDF748FC0028EFD02C
:104B7000D528E0D140F2DD57EAE700BF002330B589
:104B800083B08DF8063000284DD00D4646F628310A
:104B9000942A037804468CBF00200120C0F2000153
:104BA00031F813C01FFA8CFCBCF1020F18BF40F0A3
:104BB000010078B331F813102B4389B2022904BFE6
:104BC00002F07F02E270012B24D8E378A3F10D02FA
:104BD000092B18BF022A1DD90B2B19D0012B08BF96
:104BE000002D17D02046627801A9FFF78FFE9DF8AF
:104BF0000630032B14D129462046FDF743FC68B14B
:104C0000D52808BF40F2DD5008D040F2DC5005E066
:104C1000012DE7D1FDF056FF40F2E25003B030BD68
:104C2000FDF050FFF1E7FDF04DFF0120F6E700BF7A
:104C30000023984218BF994270B582B08DF80630B3
:104C40003CD046F628360378C0F20006012B054614
:104C500036F813202CD80C46427801A936F81330C8
:104C6000FFF754FE9DF80630032B2CD1012323803F
:104C70002A7836F8121089B2994216D046F2D460DA
:104C800002EB820202EB8202C0F2000000EB820023
:104C900042890A30012A02BF21889A400A4303F15F
:104CA000010308BF22800A2BF2D1002002B070BDA0
:104CB000FDF008FF40F2E25002B070BDFDF002FFCF
:104CC000012002B070BDFDF0FDFE40F2DC5002B0EC
:104CD00070BD00BF002370B58EB08DF8063000287F
:104CE0004DD00D4600294AD0002A48D0037804460A
:104CF000012B82703DD8092A3BD846F628364278E7
:104D000001A9C0F200068DF8283036F81330FFF7FD
:104D1000FDFD9DF80630032B41D1237836F8132092
:104D200092B2012A2DD046F2D462A17803EB83031C
:104D300003EB830301EB81009B0003EB4003C0F214
:104D400000021A44538802A803F00F02DB0648BF92
:104D500042F080022A70FDF7E1FBB0F5004F13D05E
:104D6000B0F5404F20D0B0F5804F1BD040F2DC5062
:104D700003E0FDF0A7FE40F2E2500EB070BDFDF082
:104D8000A1FE01200EB070BD01236B70A17802A8B6
:104D9000FDF7A2FB034600206B800EB070BDFDF056
:104DA00091FEE3E70023F0E70223EEE70E2370B560
:104DB0000B700D460446FDF749FC46F6383EC0F23E
:104DC000000E9EF801309EF800209A421BD0A446A7
:104DD00003EBC3040EEB840424340EEB03060FCC68
:104DE000ACE80F000FCCACE80F002368CCF8003023
:104DF000B3782B709EF801300133DBB21F2B88BFD4
:104E000000238EF80130002070BD00BF08B588B1C6
:104E100046F628330278C0F2000333F812309BB212
:104E2000022B18BF40F2DC5000D008BDFDF70EFC8D
:104E3000002008BDFDF046FE012008BD08B5A0B168
:104E400001290DD846F628330078C0F2000333F864
:104E500010309BB2012B0CD0FDF702FA002008BDE8
:104E6000FDF030FE40F2E25008BDFDF02BFE0120C7
:104E700008BDFDF027FE40F2DC5008BD08B530B19A
:104E8000034600789980FDF7FDF9002008BDFDF08C
:104E900019FE012008BD00BF00B58DB088B10378B0
:104EA00068468DF82030FDF7D3FB034630B140F261
:104EB000E15040F2DC52D52B18BF10460DB05DF822
:104EC00004FBFDF0FFFD01200DB05DF804FB00BF09
:104ED00070B588B304460078012827D846F62836EE
:104EE000C0F2000636F81030FCF77CFD0546C8B964
:104EF00046F620312378C0F2000136F81320C8545A
:104F000092B2012A05D0FDF79BFF2078FEF752FCF4
:104F1000237846F624320021C0F2000222F8131052
:104F2000284670BD4FF4BC65284670BD40F2E2557E
:104F3000FDF0C8FD284670BDFDF0C4FD0125EFE77A
:104F400010B500B3F9B1E2B1EBB194071FD1012B59
:104F50001DD1437061F94F0700F10C03114643F96D
:104F60004F07B0EEF02BFDF7A7F9D52808BF40F2A8
:104F7000DD5005D040F2DC53FF2814BF0020184656
:104F800010BDCC8844B1FDF09DFD012010BDFDF0A9
:104F900099FD40F2E25010BD002BD8D1F3E700BFDD
:104FA00010B588B181B111F0030412D1FDF784F975
:104FB000D52808BF40F2DD5404D040F2DC53FF286E
:104FC00008BF1C46204610BD0124FDF07BFD204695
:104FD00010BD40F2E254FDF075FD204610BD00BF4B
:104FE00010B588B181B111F0030412D1FDF78EF92B
:104FF000D52808BF40F2DD5404D040F2DC53FF282E
:1050000008BF1C46204610BD0124FDF05BFD204674
:1050100010BD40F2E254FDF055FD204610BD00BF2A
:1050200040F2DC50704700BF40F2DC50704700BFD8
:1050300053B94AB9002908BF00281CBF4FF0FF31FF
:105040004FF0FF3000F090B8ADF1080C6DE904CEE0
:1050500000F006F8DDF804E0DDE9022304B0704753
:105060002DE9F04390420D4675EB0301044638BF2D
:105070000020079F38BF014664D3B3FA83F6002BA4
:1050800069D0B5FA85F1002D61D0761AA6F1200C11
:10509000C6F1200EB34002FA0CF102FA06F80B43F7
:1050A00022FA0EF2444543EA020375EB03023CBFC9
:1050B000002001460AD30120B4EB080465EB030588
:1050C00000FA0CF120FA0EF21143B040D6B34FEAC9
:1050D0005802B04642EAC3725B080AE0A41A65EBC4
:1050E000030524196D41013445F10005B8F10108AB
:1050F00008D0944275EB0309F0D224196D41B8F140
:105100000108F6D1001905FA0EFE24FA06F441EB67
:10511000050125FA0CFC44EA0E0444EA0C04F540AF
:10512000A6F1200CC6F1200305FA06F204FA0CFCE5
:1051300024FA03F342EA0C021A4304FA06F3C01AF3
:1051400061EB02010FB1C7E90045BDE8F083B4FA95
:1051500084F1203199E7B2FA82F6B5FA85F120366A
:10516000002D92D1F3E700BF704700BF0244034611
:10517000934200D1704703F8011BF9E70A44431E2C
:10518000914200D1704710B511F8014B03F8014F5F
:105190009142F9D110BD0000310F19EEFC1F01E35F
:1051A000001040E3010000E0031000E3101040E3B2
:1051B000010080E14FF07FF5310F09EE6FF07FF5D0
:1051C000783903E3103040E30300A0E10110A0E3CD
:0851D0000010C0E597F303EAAB
:0851D80088FEFF7F01000000CA
:1051E000C0520000B0520000805200005052000037
:1051F0003852000020520000005200000000000061
:105200001C0330003000300030003000300030002F
:10521000300030003000300030003100000000006D
:105220001203480069002D005300700065006500FE
:1052300064000000000000001603460075006C00CA
:105240006C002D00530070006500650064000000D4
:105250002E0343006F006D006D0075006E00690045
:1052600063006100740069006F006E00730020002D
:10527000440065007600690063006500730000006B
:105280002C0343004400430020005500530042001B
:105290002000440065006D006F006E007300740014
:1052A00072006100740069006F006E000000000071
:1052B0001003520045004E004500530041005300CA
:1052C000040309040000000009004300020100C0BB
:1052D0000509040000010202010005240010010478
:1052E00024020205240600010524010301070583A9
:1052F0000310001009040100020A000000070581E4
:105300000200020007050202000200000000000087
:1053100009004300020100C0050904000001020267
:1053200001000524001001042402020524060001E6
:10533000052401030107058303100010090401007F
:10534000020A000000070581024000000705020272
:10535000400000000A0600020000004001000000BA
:1053600012010002020000400000020000020102DF
:10537000060100006053000010530000C8520000F6
:1053800054530000E051000007000000A12000007D
:105390000000020000000000710A0000D90A0000AD
:1053A00000000000D90A0000710A0000D90A0000BC
:1053B00000000000D90A000000000000000000000A
:1053C00000000000000000000000000000000000DD
:1053D00000000000000000000000000000000000CD
:1053E00000000000000000000000000000000000BD
:1053F00000000000000000000000000000000000AD
:10540000000000000000000000000000000000009C
:10541000000000000000000000000000000000008C
:1054200000000000000000005465726D696E616C40
:1054300000000000284E554C4C2900002A2A0D0A75
:1054400020525F5553425F436C6F73652041504952
:10545000204641494C4544202A2A0D0A00000000FC
:105460005B4552525D20496E2046756E6374696FCC
:105470006E3A20257328292C202573000D0A5265C9
:105480007475726E6564204572726F7220436F642A
:10549000653A203078257820200D0A00342E302EF1
:1054A000300000000D0A2A2A2A2A2A2A2A2A2A2A11
:1054B0002A2A2A2A2A2A2A2A2A2A2A2A2A2A2A2A4C
:1054C0002A2A2A2A2A2A2A2A2A2A2A2A2A2A2A2A3C
:1054D0002A2A2A2A2A2A2A2A2A2A2A2A2A2A2A2A2C
:1054E0002A2A2A2A2A2A2A2A2A2A2A2A2A2A0D0A59
:1054F0002A20202052656E65736173204653502028
:105500004578616D706C652050726F6A65637420B8
:10551000666F7220725F7573625F70636463204DA3
:105520006F64756C65202020202020202020202002
:10553000202020202020202A0D0A2A202020457803
:10554000616D706C652050726F6A6563742056657A
:105550007273696F6E202573202020202020202068
:10556000202020202020202020202020202020203B
:1055700020202020202020202020202020202A0D34
:105580000A2A202020466C657820536F6674776164
:105590007265205061636B2056657273696F6E206F
:1055A00025642E25642E2564202020202020202004
:1055B00020202020202020202020202020202020EB
:1055C00020202020202020202020202A0D0A2A2AE6
:1055D0002A2A2A2A2A2A2A2A2A2A2A2A2A2A2A2A2B
:1055E0002A2A2A2A2A2A2A2A2A2A2A2A2A2A2A2A1B
:1055F0002A2A2A2A2A2A2A2A2A2A2A2A2A2A2A2A0B
:105600002A2A2A2A2A2A2A2A2A2A2A2A2A2A2A2AFA
:105610002A2A2A2A2A2A0D0A526566657220746F80
:1056200020726561646D652E7478742066696C659E
:1056300020666F72206D6F72652064657461696C9D
:1056400073206F6E204578616D706C652050726FAD
:105650006A65637420616E640D0A46535020557369
:1056600065722773204D616E75616C20666F7220C4
:105670006D6F726520696E666F726D6174696F6EB1
:105680002061626F757420725F7573625F7063640E
:1056900063206472697665720D0A00000A546869B5
:1056A00073204578616D706C652070726F6A6563F8
:1056B000742064656D6F6E737472617465732074A9
:1056C00068652066756E6374696F6E616C69747964
:1056D000206F66207573625F706364632064726913
:1056E000766572206F6E2052656E6573617320520D
:1056F0005A204D505573207573696E6720525A2F8A
:1057000054324D20626F617264732E0A457865636E
:105710007574652054657261205465726D2C206526
:10572000737461626C6973682074686520636F6E5E
:105730006E656374696F6E2C20616E6420636F6E9A
:105740006669677572652074686520706172616D45
:10575000657465727320746F207374617274206352
:105760006F6D6D756E69636174696F6E2E0A507529
:10577000736820616E79206B6579206F6E20486FA9
:105780007374504320766961205465726154657268
:105790006D2C207468652063686172616374657242
:1057A000206461746120697320646973706C61792D
:1057B0006564206F6E205254542056696577657277
:1057C0002E0000000D0A4572726F7220696E20690A
:1057D0006E697469616C697A696E672055534220FD
:1057E000486F7374204344430D0A00000D0A45724C
:1057F000726F7220696E20676574206576656E74BD
:10580000732055534220486F7374204344430D0A5C
:10581000000000002A2A525F5553425F52656164BE
:1058200020415049204641494C45442A2A00000065
:105830002A2A525F5553425F57726974652041505E
:1058400049204641494C45442A2A0000257300005E
:105850000D0A2A2A525F5553425F50657269436FA1
:105860006E74726F6C446174614765742041504975
:10587000204641494C45442A2A0D0A000D0A2A2A8D
:10588000525F5553425F50657269436F6E74726F19
:105890006C4461746153657420415049204641490C
:1058A0004C45442A2A0D0A000D0A2A2A525F5553F4
:1058B000425F50657269436F6E74726F6C537461AE
:1058C00074757353657420415049204641494C45D5
:1058D000442A2A0D0A000000000000000000545471
:1058E0005220524547474553000000000000000089
:1058F0003031323334353637383941424344454606
:1059000068616E646C655F6572726F7200000000A2
:1059100068616C5F656E74727900000000000000C1
:105920000000000000000000000000000010000067
:105930000000001000000000001000000000001037
:10594000000000000202008074530000000000000C
:105950001D01DFFF1E011F01DFFFDFFFDFFF0C0C5A
:105960000C0C0C0C0C0000000000000000000000FB
:105970000000000000000000000000002A000000FD
:10598000885900001C590000580000000200000067
:1059900008220000040200001800000005020000B8
:1059A00008220000060200000800000007020000B4
:1059B000282200000703000002000000020400008B
:1059C0008800000000050000280000000407000017
:1059D000040000000208000002000000050A0000A8
:1059E00002000000060A000002000000000B000098
:1059F00002000000030B000002000000040B000086
:105A000002000000060B000002000000020D000072
:105A100002000000070D000002000000010E00005F
:105A200002000000050E000002000000031000004C
:105A30000400000003130000040000000413000031
:105A4000040000000613000004000000071300001B
:105A50000400000000140000040000000114000015
:105A60000400000002140000040000000314000001
:105A700004000000041400000400000007140000EB
:105A800004000000001500000822000001150000BD
:105A90000822000002150000082200000315000083
:105AA000082200000415000018220000051500005F
:105AB0001822000007150000182200000016000040
:105AC0000822000001160000182200000216000043
:105AD00004000000041700000000000000000000A7
:105AE00000000000000000000000000000000000B6
:105AF00000000000000000000000000000000000A6
:105B00000000000000000000000000000000000095
:105B10000000000000000000000000000000000085
:105F4000000000000000000000000000AD1C000088
:105F500031190000351900000000000000000000A9
:105F60000000000000000000000000000000000031
:105F70000000000000000000000000000000000021
