:020000022000DC
:102D0000284F0000FFFFFFFFFFFFFFFFFFFFFFFF58
:102D100000020000FFFFFFFFFFFFFFFFFFFFFFFFBD
:102D2000002F0220FFFFFFFFFFFFFFFFFFFFFFFF5E
:102D3000FFFFFFFFFFFFFFFFFFFFFFFFFFFFFFFFA3
:102D4000FFFFFFFFFFFFFFFFFFFFFFFFFFFFFFFF93
:102D5000FFFFFFFFFFFFFFFFFFFFFFFFFFFFFFFF83
:102D6000FFFFFFFFFFFFFFFFFFFFFFFFFFFFFFFF73
:102D7000FFFFFFFFFFFFFFFFFFFFFFFFFFFFFFFF63
:102D8000FFFFFFFFFFFFFFFFFFFFFFFFFFFFFFFF53
:102D9000FFFFFFFFFFFFFFFFFFFFFFFFFFFFFFFF43
:102DA000FFFFFFFFFFFFFFFFFFFFFFFFFFFFFFFF33
:102DB000FFFFFFFFFFFFFFFFFFFFFFFFFFFFFFFF23
:102DC000FFFFFFFFFFFFFFFFFFFFFFFFFFFFFFFF13
:102DD000FFFFFFFFFFFFFFFFFFFFFFFFFFFFFFFF03
:102DE000FFFFFFFFFFFFFFFFFFFFFFFFFFFFFFFFF3
:102DF000FFFFFFFFFFFFFFFFFFFFFFFFFFFFFFFFE3
:102E0000FFFFFFFFFFFFFFFFFFFFFFFFFFFFFFFFD2
:102E1000FFFFFFFFFFFFFFFFFFFFFFFFFFFFFFFFC2
:102E2000FFFFFFFFFFFFFFFFFFFFFFFFFFFFFFFFB2
:102E3000FFFFFFFFFFFFFFFFFFFFFFFFFFFFFFFFA2
:102E4000FFFFFFFFFFFFFFFFFFFFFFFFFFFFFFFF92
:102E5000FFFFFFFFFFFFFFFFFFFFFFFFFFFFFFFF82
:102E6000FFFFFFFFFFFFFFFFFFFFFFFFFFFFFFFF72
:102E7000FFFFFFFFFFFFFFFFFFFFFFFFFFFFFFFF62
:102E8000FFFFFFFFFFFFFFFFFFFFFFFFFFFFFFFF52
:102E9000FFFFFFFFFFFFFFFFFFFFFFFFFFFFFFFF42
:102EA000FFFFFFFFFFFFFFFFFFFFFFFFFFFFFFFF32
:102EB000FFFFFFFFFFFFFFFFFFFFFFFFFFFFFFFF22
:102EC000FFFFFFFFFFFFFFFFFFFFFFFFFFFFFFFF12
:102ED000FFFFFFFFFFFFFFFFFFFFFFFFFFFFFFFF02
:102EE000FFFFFFFFFFFFFFFFFFFFFFFFFFFFFFFFF2
:102EF000FFFFFFFFFFFFFFFFFFFFFFFFFFFF55AAE1
:102F0000024B83F3088800F037BD00BFB86B0200A6
:10300000B86B0200693902007539020065390200A7
:103010006539020065390200653902007139020024
:103020000000000000000000000000006539020000
:1030300065390200000000006539020065390200B0
:10304000595A0200595A0200A5550200595A020065
:10305000595A0200595A0200595A0200595A02009C
:10306000595A0200595A0200595A0200595A02008C
:10307000595A0200595A0200595A0200595A02007C
:10308000595A0200595A0200595A0200595A02006C
:10309000595A0200595A0200595A0200595A02005C
:1030A000595A0200595A0200595A0200595A02004C
:1030B000595A0200595A0200595A0200595A02003C
:1030C000595A0200595A0200595A0200595A02002C
:1030D000595A0200595A0200595A0200595A02001C
:1030E000595A0200595A0200595A0200595A02000C
:1030F000B1580200595A0200595A0200595A0200A6
:10310000595A0200595A0200595A0200595A0200EB
:10311000595A0200595A0200595A02003950020005
:10312000595A0200595A0200595A0200595A0200CB
:10313000595A0200595A0200595A0200595A0200BB
:10314000595A0200595A0200595A0200595A0200AB
:10315000595A0200595A0200595A0200595A02009B
:10380000287E020061380210495A02004138021035
:1038100045380210493802104D38021000000000EF
:1038200000000000000000000000000051380210FD
:103830005538021000000000593802105D3802109F
:10384000FEE700BFFEE700BFFEE700BFFEE700BFE8
:10385000FEE700BFFEE700BFFEE700BFFEE700BFD8
:04386000FEE700BFC0
:10389000704700BF022249F6F77108B50A4BC3F81A
:1038A000D0201A6922F00C021A61DA680A4042F04C
:1038B000BF6242F40832DA605A6A42F400225A6265
:1038C000FFF7E6FF08BD00BF00ED00E0EFF3108159
:1038D000012383F310884FF00313204AC2F82C35DC
:1038E000D2F8AC369807FBD081F31088EFF3108044
:1038F000012383F310884FF003131849C2F82C38C2
:10390000D1F8AC399B07FBD180F31088EFF310801E
:10391000012383F310884FF00313104AC1F82C35AC
:10392000D2F8AC369907FBD080F31088EFF3108003
:10393000012383F310884FF003130849C2F82C3891
:10394000D1F8AC399B07FBD180F31088044AD2F838
:103950001C3D23F00103C2F81C3D704700000141EB
:103960000000024100BE704708B500F011F8FEE704
:1039700000BE704700BE7047034A044BC3F84C2892
:10398000FFF7F2BF704700BF0030020000000241A5
:1039900008B5094A094B9A6002F006F8084B83F310
:1039A0000888084B83F30A88FFF774FFFFF78EFF40
:1039B000BDE8084002F04AB80030020000ED00E027
:1039C000B86B0200B8690200024B83F30888FFF766
:0839D000D3BF00BFB86B020079
:1039D8002DE9F0410446D0E902854068A8EB0507C7
:1039E80097422844154408D80E463A46A5EB0805E0
:1039F80002F062F82A466068F11902F05DF8BFF338
:103A08005F8FE560BDE8F0812DE9F8434FF00009CC
:103A1800064688461746D0E902243369151B9C429E
:103A280003F1FF3125BF03F1FF339B180B1B1B1B51
:103A3800BD4228BF3D469D4228BF1D46706841468D
:103A48002A46204402F038F8B2682C44A24208BF43
:103A58000024A944A8447F1BBFF35F8FF460002FA4
:103A6800DBD14846BDE8F883F8B5164CA8220021FA
:103A7800204602F0A1F84FF48066002303211020AD
:103A8800114A124F124D21616161A261E7612662FC
:103A9800A3626362E36222666566A0662367E366E3
:103AA8006367BFF35F8F0B4B9C46A3F11000ACEB31
:103AB800030213F9011D8342A154F8D1BFF35F8FAC
:103AC800F8BD00BF28700200E45D0200286C020007
:103AD800186C0200FC6402002DE9F04FDFF8A89092
:103AE800054699F800300F46532B144683B001D091
:103AF800FFF7BAFF05EB450309EBC303D3F86CB036
:103B08001E6F4FEA45085E451FD8ABEB060B5C45B8
:103B180028BF5C461CB9204603B0BDE8F08FA2461A
:103B280008EB050309EBC303596E384631442246B6
:103B380001F0C2FF2644BAF1000F04D0A84409EBF3
:103B4800C808C8F870605446E5E79A6E596EA2EB4B
:103B5800060AA24528BFA246314438465246019378
:103B680001F0AAFF019B56449B6EA4EB0A04B342E2
:103B780014BFABEB060B00265C4528BF5C46002C47
:103B8800D9D05744A244CBE72870020010B50B46A1
:103B9800EFF311844FF0200181F311881946FFF7E4
:103BA8009BFF84F3118810BD38B5214B00EB40040E
:103BB80003EBC40EDEF82C40013000EB4000012C72
:103BC8008C46154603EBC00015D0022C0FD034BB31
:103BD800DEF82830DEF8242093429CBFDEF820105F
:103BE8005B18013B9A1A95421CD9204638BDBDE89E
:103BF8003840FFF709BFDEF82830DEF82440A3423A
:103C08009CBFDEF820105B18013B1C1B944228BFA8
:103C1800144661462246FFF7DBFE204638BD0024E5
:103C2800204638BD2A466146FFF7D2FE2C46DCE71F
:103C380028700200F8B50B4B04461B780D46532B31
:103C4800164601D0FFF710FFEFF311874FF0200160
:103C580081F31188324629462046FFF7A5FF87F3EE
:103C68001188F8BD2870020010B5064C2378532B34
:103C780001D0FFF7F9FEE36E206FC01A18BF0120CC
:103C880010BD00BF2870020010B50446D0E901320B
:103C9800501C984207D8236899540246E168636823
:103CA8000131C4E902019A4200D010BD216820699F
:103CB800FFF7C0FFA368984215BF4FF0FF330023FA
:103CC800E360A36010BD00BF2DE9F84F91420F4695
:103CD800DDE90A94154683461E4668D30B464FF025
:103CE8000108B3FBF5F39D4208F10108F9D9B04585
:103CF80038BFB04614F0010A02D1B9F1000F3DD126
:103D0800DBF80C30002B29DB012402E005FB04F46E
:103D1800013E012EFAD8B7FBF4F39D4205D805FB06
:103D280004F4B7FBF4F39D42F9D9224E06E0AC4205
:103D3800B4FBF5F30CD31C46B7FBF3F3F156584626
:103D480004FB1377FFF7A0FFDBF80C30002BEEDA4B
:103D5800BAF1000F02D0B9F1000F09D1BDE8F88F10
:103D680020215846FFF790FFDBF80C30002BF5DBDD
:103D7800C14509F1FF39F3D8BDE8F88FA30711D47D
:103D880020240CE021465846FFF77EFFDBF80C3074
:103D980009F1FF39002BE1DBB9F1000FB2D0C145C1
:103DA800F0D8ADE7002E0CBF30242024F7E74FF001
:103DB80001089CE7006502002DE9F04F002340242C
:103DC8009BB00DF12809CDE9049480460C461746AE
:103DD800CDE90633089006E004A8FFF755FF079BD6
:103DE800002BC0F2AE8014F9011B002900F0A1805D
:103DF8002529F1D10026234613F9011BA1F123023D
:103E08000D2A08D8DFE802F0800707070707070729
:103E18007C0784070778A1F13002D2B2092A4FF053
:103E2800000501D90EE0013305EB850501EB4505D9
:103E380093F900101C46A1F13002D2B2092AA5F16B
:103E48003005F0D92E2900F080800022924694F99E
:103E5800001021F00403682B04F101045CD025292B
:103E6800BAD05839CBB2202BB9D82029B7D801A35A
:103E780053F821F0A13F0200E73D0200E73D0200B0
:103E8800E73D0200E73D0200E73D0200E73D020092
:103E9800E73D0200E73D0200E73D0200E73D020082
:103EA800BD3F020045400200E73D0200E73D020039
:103EB800E73D0200E73D0200E73D0200E73D020062
:103EC800E73D0200E73D0200E73D0200E73D020052
:103ED800E73D020027400200E73D0200E73D0200FF
:103EE800EB3F0200E73D0200D13F0200E73D020040
:103EF800E73D0200A13F02001C4646F002067AE7B1
:103F08001C4646F0040676E71C4646F0080672E7AB
:103F18001C4646F001066EE714F9011B21F0040364
:103F2800682B9CD114F9011B21F00403682B96D14E
:103F3800F2E7079B002B04DD069C002C40F0B280C2
:103F4800234418461BB0BDE8F08F94F901102A29C4
:103F580009D13B684FF0010A1A1D3A6094F9021022
:103F68001A68023475E7A1F13003DBB2092B4FF070
:103F7800000204F1010400F2E18002EB820201EB8D
:103F8800420214F9011F303AA1F13003DBB2092BC8
:103F9800F3D94FF0010A5CE7134610223968081D6F
:103FA800386009680DEB0200CDE90056FFF78CFE7A
:103FB800079B15E73B6804A81A1D3A6093F900109F
:103FC800FFF762FE079B0BE739681346081D386048
:103FD80009680A22CDE9005604A8FFF775FE079B79
:103FE800FEE63B68191D39601D68002D00F08D80C4
:103FF8000132AE1815F9011B00293FF4F0AEBAF1F1
:10400800000F02D0B5423FF4EAAE04A8FFF73CFE29
:10401800079B002BEEDA18461BB0BDE8F08F08238B
:104028000020102239680D1D3D600968CDE9003077
:104038000DEB0200FFF748FE079BD1E63B684FF007
:10404800010A191D3960D3F800B08BEAEB73A3EBB2
:10405800EB73092B09DD4A481946A0FB03C3632902
:104068000AF1010A4FEAD303F6DC924538BF9246BB
:104078000DBB079900250B460029FFF662AFBBF17F
:10408800000F46DB730752D406F00303022B57D008
:10409800134659460A22CDE9005604A8FFF714FE34
:1040A800079B9DE62246494640460393FFF7C2FD1B
:1040B800039B234445E7BBF1000F06F002031BDB1B
:1040C800710719D4002B53D09AB1F3070FD510E01C
:1040D800202104A80392FFF7D7FD0799039A002926
:1040E8000B4605F1FF35FFF62CAF002DC4D0AA45CD
:1040F800EED307990B46BFE7013D0BB1002AF8D074
:10410800F107F6D4002DF2D1B3E74FF0000A1D4DA8
:104118006EE72D2104A80392FFF7B6FD039ACBF1B1
:10412800000B079900290B46FFF60BAFACE72B21D4
:1041380004A80392FFF7A8FD039AF2E7924688E6DF
:10414800002AA5D1002DA3D0554517D9302104A8A0
:104158000392FFF799FD0799013D00290B46FFF6E9
:10416800F0AE039A002DEFD10029FFF6EAAE8FE7F3
:10417800F007BCD5079B002B8ADAE2E60B46F3E78B
:10418800CDCCCCCCF05D02000EB400B582B003AB50
:1041980053F8041B01AA0193FFF70EFE02B05DF865
:1041A80004EB03B0704700BF10B50849084801F098
:1041B80039F9044608B9204610BD064B064A074996
:1041C8000020FFF7E1FF204610BD00BFD0650200C8
:1041D8000C710200F85D02004C650200285E0200C6
:1041E80010B5074801F086F9044608B9204610BD05
:1041F800044B054A05490020FFF7C6FF204610BDBD
:104208000C710200445E020038650200285E02005C
:1042180010B5064801F090F900B910BD0020BDE8BE
:104228001040034B034A0449FFF7AEBF0C7102006C
:10423800745E020024650200285E020010B508487A
:1042480001F0ECF920B9BDE810400649FFF79CBF22
:104258000020BDE81040044B044A0549FFF794BF0D
:1042680034710200C45E0200A45E02001065020000
:10427800285E02002DE9F043002489B003A80394C6
:1042880001F0D2FB9DF80D009DF80E30724ACDE981
:104298000030724920469DF80F30714DFFF774FFCA
:1042A80020467049FFF770FF2C88002C00F08E80A4
:1042B8006D4AD2F8103BC3F340069B0700F1AD806E
:1042C80000F020F90446002840F09A80FFF76CFFC0
:1042D8000446002840F0858064490020FFF754FF19
:1042E80000206349FFF750FF624DDFF88C81634F70
:1042F800634EFFF7B9FC58B92B78032BF9D100208E
:1043080060492870FFF740FFFFF7AEFC0028F3D0A4
:104318000024102220460DEB0201CDE90444CDE92A
:104328000644FFF733FC04A801F042FCC0B20128A0
:1043380010D041462046FFF727FF39462046FFF7B1
:1043480023FF31462046FFF71FFF20464E49FFF75F
:104358001BFFD1E74D4B4E49D3F860224D4864F31B
:104368001042C3F8602200F087FD814678B900F05A
:10437800E5F88146E0B9FFF733FF8146F8B94649C9
:10438800FFF702FF48464549FFF7FEFEB4E720461F
:10439800434B444A4449FFF7F7FE00F0E7F8FFF7BC
:1043A80037FF4A4641490020FFF7EEFE00BEA3E76B
:1043B80020463F4B3B4A3C49FFF7E6FEEDE72046E7
:1043C8003C4B384A3849FFF7DFFEE6E720463A49D2
:1043D800FFF7DAFE062220463449FFF7D5FE00BE75
:1043E80066E7364B364A30490020FFF7CDFE00F02D
:1043F800BDF822462D490020FFF7C6FE00BE6BE738
:10440800304B2F4A28490020FFF7BEFE2246274995
:104418000020FFF7B9FE00BE58E74FF0021C032347
:104428006C68C2F810CB2288274F140AD2B2964083
:104438005200264D934037F8142025491343625DF6
:104448009BB227F8143042EA0603DBB2635500201A
:10445800FFF79AFE34E700BFF45E0200FC5E02003C
:10446800246702001861020000000141F4620200A2
:1044780010630200D4700200E8630200F8630200CF
:10448800246402004C6402003C6402000000024103
:10449800706602005071020080630200A863020087
:1044A800206302005C650200285E02004862020088
:1044B800406302005C63020028620200D4620200CA
:1044C80078650200B4620200400103412000034104
:1044D80068620200022800D0704708B506490748FC
:1044E80000F084FF064BD3F8003ADB0700D508BD7F
:1044F800BDE8084000F0B6B894660200D870020023
:104508000000024110B50849084801F0F3F80446D4
:1045180008B9204610BD064B064A07490020FFF798
:1045280033FE204610BD00BF486602003471020009
:1045380068640200B4650200285E020010B50748EE
:1045480001F05CF8044608B9204610BD044B054A42
:1045580005490020FFF718FE204610BD34710200FF
:1045680088640200A8650200285E020010B50648AB
:1045780001F064F800B910BD0020BDE81040034BFD
:10458800034A0449FFF700BE34710200A864020020
:1045980094650200285E02002DE9F041284800F0E9
:1045A80055FC10B3274B01205B68274D198803235E
:1045B800264C4FEA112CC9B235F81C6001FA00F7F5
:1045C8001CF8042000FA01F1BB4033430A439BB2B4
:1045D800D2B225F81C300CF804200020BDE8F041C8
:1045E8001B4B1C4A1C49FFF7CFBD1C4A4FF0010E5C
:1045F8001368144901331360194A49681378088805
:1046080083F00103137003220F4C104D4FEA102C56
:10461800C0B234F81C6003FA00F11CF8053000FA47
:104628000EF70EFA00F0BA4023EA000332430B43B8
:1046380092B2DBB224F81C200CF80530BDE8F081FA
:104648005071020024670200400103412000034129
:10465800C864020084650200285E0200D47002006B
:10466800D07002000F224FF00F1003212DE9F04FF8
:104678004FF4803A01254FF000094FF0023440F220
:1046880002284FF0005E4FF020576FF050466FF051
:10469800584C194BC3F81021C3F814019A60D9601B
:1046A8001649174AD1F804B41648D1F820B2C1F80F
:1046B80004A40AF1020AC1F820A2A3F50C1302F51A
:1046C800805102F54052D560C3F8209E1562826879
:1046D8000C62C1F824808C62CC62C3F848E3C3F84A
:1046E8004CC3C3F85073C3F854631368D0E900018E
:1046F800BDE8F04F184700BF000025410000014108
:1047080000000341E4650200002070470020704764
:1047180008B5FFF7AFFD002008BD00BF06207047B1
:1047280006207047062070470620704730B5046998
:10473800236F23F0300323670469236FDD07FCD45C
:10474800CB7B8D8991F810E003F0030391F811C039
:1047580043EA0563D5034FEA8E0EADB20EF01C0E88
:104768004FEA4C1C2B430CF4F07C43EA0E0343EA5B
:104778000C0391F80EC0012A4FEA4C2C0CF4785C1B
:1047880043EA0C03C4F8803003698C68C3F884409A
:1047980003D103690C68C3F888400469236F43F0A8
:1047A800010323670469D4F89031DB07FBD51AB9F4
:1047B800D4F888300B6004690123C4F8943130BD03
:1047C80000220123F0B587B0CDE903228DF80F3020
:1047D8008DF811300368858A997B902D0446CDE9C0
:1047E80000229E6902920592ADF80C1005D0482D62
:1047F80003D06946FFF79AFF18E00022737827690B
:10480800143357F8230069466FF3090047F823006B
:10481800A2822046FFF78AFF73782269143352F880
:10482800231065F3090142F82310A5822368009834
:104838009B79D84000F0010007B0F0BDF8B500281A
:1048480000F0C3800E46002900F0BF808F69002F5A
:1048580000F0BB80684BC26805469A4200F0C080F1
:104868003B78002B40F0C380BB69002B00F0AD8083
:10487800EFF31081012383F310884FF00F135F4A81
:10488800C2F85035D2F8D0361B07FBD081F3108818
:10489800EFF31081012383F310884FF40030C2F83E
:1048A800640BD2F8640B81F31088EFF3108183F363
:1048B80010884FF00313C2F85038504AD2F8D04944
:1048C80014F00304FAD181F310884B4ABB692E60B7
:1048D8002B61EA60FA682AB12946494890470028BE
:1048E8007BD12B697A783188143243F822103388C7
:1048F8002A69AB827B78002B6AD0136823F0F853BF
:1049080013607A683088137891781B045278090507
:1049180001F4801103F470230B43C0F3090052051E
:1049280002F40012034313437A782969143241F8D8
:1049380022307B78F1782A69013389001B0101F064
:104948000C01D15079782A693379013102EB0112CF
:104958001B04F17B03F4F81343EA012353602B692A
:10496800327B7978120203EB01139A617B782A690A
:10497800002B37D1136E43F00303136600263B7AEE
:104988002A691B0403F4803343F4786393602B692A
:1049980079781A6F61F3C3021A672B692A68117C48
:1049A8009A6E61F307029A662B692A68517C9A6E9F
:1049B80061F30F229A66AE603B693BB12946104805
:1049C8009847044610B1EE6000E001242046F8BD87
:1049D800116863F30C21116093E7EC600446F5E776
:1049E8000E24F3E7136E43F00C031366C6E740F298
:1049F8007A542046F8BD00BF495053510000014188
:104A0800F0660200F0B1104BC2689A4216D18B1EB4
:104A1800022B15D940F2FF33994211D010B4036824
:104A280002699B6981825B780020143352F8234025
:104A380061F3090442F8234010BC7047072070470F
:104A480003207047012070474950535140B3154B1C
:104A5800C2689A4222D1002203689B69C2601B7D0A
:104A6800D3B1EFF31081012383F310880E4A0F4866
:104A7800C2F8640BD2F8640B81F31088EFF310814D
:104A880083F310884FF47023C2F85035D2F8D0362B
:104A98001B07FBD181F3108800207047072070475F
:104AA800012070474950535100000141FFFF0200A7
:104AB800C0B138B50C4DD0F80CC0AC450AD103696B
:104AC8009B6EC3F30045DB030AD409B1CB7B1BB94A
:104AD800012038BD072038BDFFF728FE284638BD1D
:104AE800052038BD0120704749505351B8B1B1B1C4
:104AF80010B5104AC46882B094420DD103699A6E09
:104B0800D2030ED4D3F8843113F0410F0BD0012314
:104B18000B70002002B010BD072002B010BD0120AC
:104B280070470520F6E70191FFF74AFE01990870E2
:104B3800EFE700BF495053512DE9F041DFF838C184
:104B48001F46C36886B0634556D1036906469B6E07
:104B5800DC035AD403680D461446D3F81880FFF7CF
:104B68002FFE00284CD1002D42D0002C40D03368B5
:104B78009B68B4FBF3F203FB12429B1A9F4237D89F
:104B8800402F35D83046FFF71BFE002838D10122C8
:104B9800336803905B7BCDE90000CDE90400029007
:104BA80069463046ADF80C308DF80F20FFF7BEFD92
:104BB800BB072ED0F80750D47A085AD0023D04EB30
:104BC800420235F8023F24F8023B9442F9D1BFF380
:104BD8004F8F402F2CD13269D2F88431D907FBD5B9
:104BE80098F80830012B2FD0002006B0BDE8F081DE
:104BF800012006B0BDE8F081072006B0BDE8F081CD
:104C080049F6424006B0BDE8F081052006B0BDE88F
:104C1800F081BA082DD0043D04EB820255F8043F18
:104C280044F8043BA242F9D1BFF34F8F402FD2D0B2
:104C3800052331694A68013B0092009AFAD14B6E0C
:104C480043F480734B66C6E7D2F88431DB07FBD4A4
:104C5800536E43F480635366C6E7013C6A1E1346ED
:104C6800023312F8011F5B1B9F4204F8011FF6D89C
:104C7800ADE7BFF34F8FDBE74950535100282FD0E2
:104C88001A4BC2689A4201D00720704710B483B00B
:104C98000190019B02682BB34FF0000C93690169E6
:104CA8008DF803C09DF803405A788C6ED3066CF3D8
:104CB80010448C6603F100431B78DBB28DF8033097
:104CC80042B10269136E43F00C031366002003B06F
:104CD80010BC70470269136E43F003031366F5E7CF
:104CE80001207047012003B010BC70474950535150
:104CF80000282CD0184BC2689A4201D00720704770
:104D080082B00190019B02681BB30021936902697C
:104D18005B788DF803109DF803104FF0010C116EAD
:104D28008BB16CF383011166016900208A6EDB0682
:104D380042F480328A6603F100431B78DBB28DF8B7
:104D4800033002B070476CF301011166ECE70120F3
:104D58007047012002B07047495053512DE9F04384
:104D6800394B1546C26887B09A4258D1036906463E
:104D78009B6EDA0357D4036888469F69FFF720FDC6
:104D8800034600285DD1B8F1000F44D031688A7C11
:104D9800002A40D04C6903E09A4204F108043AD052
:104DA80060680133A842F7D1B4F80090B9F1000F58
:104DB80031D0002401224B7B304669460394CDE96B
:104DC8000144ADF80C30CDE9044400948DF80F206F
:104DD800FFF7ACFC08F100430135CDE90234CDE919
:104DE8000044CDE90444ADF80C9004D03368DC7875
:104DF800144404F007040122694630468DF8104037
:104E08008DF80F20FFF792FC3B7A93420FD00020D9
:104E180007B0BDE8F083012007B0BDE8F0830720A4
:104E280007B0BDE8F083052007B0BDE8F08332691C
:104E3800D2F88431DB07FBD4536E43F480635366A6
:104E4800E5E749F64240E7E74950535180B1094B3D
:104E580002689A420AD183681A68D20702D40122EA
:104E68001A60836801220020DA60704707207047C3
:104E78000120704754445700002900F0C58070B5E0
:104E88000546002800F0B480654B02689A4200F09D
:104E9800C4800C69002C00F0AB80E368002B00F0A4
:104EA800A78000238A680261CA684361C260E36818
:104EB800C0E90113EFF31080012383F31088032264
:104EC800237858495B0002FA03F343EA0343C1F825
:104ED800483523785B009A40D1F8C8361342FBD096
:104EE80080F31088EFF31080012383F31088227871
:104EF8004C49022A0FBF4FF40033023293401B047F
:104F0800C1F87C3BD1F87C3B80F31088EFF3108626
:104F1800012282F31088237802FA03F343EA034359
:104F2800C1F8483823789A40D1F8C8091040FBD115
:104F380086F310886388AA681B0553602B6943B3FE
:104F480094F9083094F808C0002BB8BF4FF0FE0C55
:104F58004FF00101B4F90A20A8BF4FEA4C0C324EB9
:104F68004FEA521302F1604EA8BF5FFA8CFC0EF5AF
:104F7800614E9B008EF800C303F1604346F822504F
:104F880002F01F0203F5614301FA02F2C3F880211F
:104F98001A602379227883F001035ABB234AD2F896
:104FA800501263F30001C2F850126379227843F477
:104FB800803393404FF480124FF0807C1949C1F838
:104FC800143B94F800E0A3790EF1040602FA0EF2FD
:104FD800B3401343C1F8143B2278E3790CFA02F486
:104FE800083293400E4A2343C1F8143B2A6070BD2F
:104FF800012070BD012A0D4A08D0D2F8701263F35F
:105008000001C2F87012D0E701207047D2F8601290
:1050180063F30001C2F86012C7E70E2070BD00BF3D
:1050280054445700000001416C7102000000024125
:1050380010B582B0EFF30383C3F308030B4A103BA8
:105048001BB252F8234023695BB1606958B1036809
:105058000193E36803602369984763690BB1019A78
:105068001A6002B010BD01A8F3E700BF6C7102001E
:105078000322F0B54FF0010EC0F307256B1EC0F3F5
:10508800850C214E0CEB430C5FFA8CFC104056F853
:105098002C7000FA02F30EFA03F027EA00076FEA11
:1050A800000EC1F380409840184C384346F82C0055
:1050B80054F82C609A40C1F3812026EA02069840F1
:1050C800304344F82C00F5B9D243C1F3C04000FA8C
:1050D80003F5D4F8F80F04F6F8740EEA0000284334
:1050E8002060D4F80054C1F301501540984028437B
:1050F800C4F80004D4F80008C1F381510240994073
:105108001143C4F80018F0BD081803410810034102
:105118000122C3B29A40F0B5D5B2FF2D364EC0F386
:105128000724C1F3004C08D0A55D0CFA03FC25EA5E
:10513800020242EA0C025FFA82FC04F806C04FF051
:10514800070C03224FF0010E2C4F9E00C1F302659D
:10515800B5400CFA06FC57F824609B0826EA0C0CAC
:1051680045EA0C05264E03EB440347F82450DBB20E
:1051780000F0030056F82350C0008240C1F3812498
:1051880025EA020584402C4346F8234006F540668C
:1051980056F82350C1F3011425EA020584402C4334
:1051A80046F8234006F5806656F823500EFA00FEAE
:1051B800C1F3C044844025EA0E0C44EA0C0446F8C6
:1051C8002340104CC1F3015CC1F381510CFA00FC7F
:1051D800814054F8230020EA02004CEA000044F819
:1051E800230004F5806454F8230020EA02021143E6
:1051F80044F82310F0BD00BF20020341800403419E
:1052080000110341002503414FF0010CC3B20CFA11
:1052180003FC2DE9F04F5FFA8CF6FF2E454FC0F3E3
:105228000722C1F3004405D0D55D9C4025EA0C0552
:105238002C43E4B2D45503244FF6FF785D00AC400C
:105248001FFA84F9C1453C4FC1F3810E0BD00EFA09
:1052580005F537F812E01FFA8EFE2EEA040E4EEA24
:10526800050E1FFA8EFEFF2E27F812E001F001044A
:10527800324F05D0D55D9C4025EA0C052C43E4B29D
:105288004FF0030C4FF0010E9B082D4D03EB42032A
:10529800D455DBB200F0030055F823B0C0000CFA77
:1052A80000FCC1F3812A0AFA00FA2BEA0C0BDFF89A
:1052B80094904AEA0B0A45F823A059F82350C1F301
:1052C800011808FA00F825EA0C051F4F48EA0505F9
:1052D80049F8235057F823500EFA00FEC1F38034E2
:1052E800844025EA0E05194E2C4347F8234056F80A
:1052F8002340C1F3C042824024EA0E042243144CE6
:1053080046F82320C1F30152C1F381518240814004
:1053180054F8230020EA0C0002430E4844F82320E6
:1053280050F8232022EA0C02114340F82310BDE86C
:10533800F08F00BF200203414001034120000341D8
:1053480000110341001D0341002D034100210341C9
:10535800002503410029034170B50546EFF310828B
:10536800012383F310881F4E33681BB91E490B6055
:1053780040230B6033680133336082F310882B8835
:10538800D3B1002406E0FFF7C3FE2A880134A3B294
:105398009A4211D96B6803EBC402506853F8341071
:1053A800B0F5803F1BD2CB03EDD4FFF72DFF0134BE
:1053B8002A88A3B29A42EDD8EFF31082012383F32F
:1053C8001088336813B13368013B336033681BB905
:1053D800802005490B60086082F3108870BDFFF7D4
:1053E80047FED2E76871020000300341A0B199B1CD
:1053F8004A6808B5034652B1094A186890420DD068
:1054080008461A609960FFF7A7FF002008BD0A88C0
:10541800002AF1D0012008BD012070470E2008BDE8
:1054280054524F5000284ED003462F4A00689042ED
:1054380058D0002947D0FF220878C240D2074ED55D
:1054480030B4B1F9022082B09A808A689A60CA683A
:10545800DA600A789A710879022836D84FF0030C76
:105468005200013090400CFA02FC01221F4C656981
:1054780025EA0C0C40EA0C006061206901909879DB
:10548800019D8240D243226122690192019AB3F9B7
:105498000420002A11DB91F9010049780028B4BFE3
:1054A800FE214900124C02F16040A8BFC9B200F5C4
:1054B800614080F8001344F8223000200A4A1A603C
:1054C80002B030BC7047012070470324074D5200DA
:1054D800686904FA02F220EA02026A61D7E740F238
:1054E8007A5070470E20704751524900000006411B
:1054F8006C710200D8B10F4B02689A4213D1B0F90F
:105508000420002A11DB012153099B0002F01F022D
:1055180003F1604303F5614301FA02F2C3F8802105
:105528001A6000207047072070470B207047012041
:10553800704700BF5152490040B3154A01680346FD
:10554800914221D1B0F90420002A19DB012010B4BE
:105558005109104C02F01F02203100FA02F244F8FF
:105568002120BFF34F8FBFF36F8F00200A4AB3F992
:10557800041042F8210000221A60104610BC70473F
:10558800002210461A6070470720704701207047B4
:105598005152490000E100E06C71020010B584B07E
:1055A800EFF30383C3F30803124A103B1BB252F80C
:1055B80023200323104992F806C04C694FEA4C0097
:1055C80083402340C3400AD0012303FA0CF3DB4392
:1055D8000869019001980B610B690193019B93681D
:1055E8002BB19179D26802A8CDE90221984704B07D
:1055F80010BD00BF6C7102000000064150B1064B9F
:1056080002689A4204D10122836800201A75704703
:1056180007207047012070474D54470050B1064B92
:1056280002689A4204D10122836800201A767047E2
:1056380007207047012070474D54470000284ED07E
:10564800284B02689A4248D1012210B583681A761D
:105658004368B3F9123013F1210F12D05909224CC3
:1056680003F01F039A4001F1200344F82320BFF3FD
:105678004F8FBFF36F8F42681C4BB2F9122043F86B
:10568800220000230360EFF3108E012383F31088B8
:105698004FF6FF7C4268117C154A043103FA01F188
:1056A8004CEA0141C2F87C1BD2F87C1B8EF31088AF
:1056B800EFF3108C83F310884168097C03FA01F139
:1056C8000904C2F834154168097C8B40D2F8B40645
:1056D8001840FBD18CF3108810BD072070470120BB
:1056E800704700BF4D54470000E100E06C710200B4
:1056F80000000141002800F0C080002900F0BD80B2
:10570800CB69002B00F0B9805B68002B00F0B580F6
:1057180070B5624A04460068904200F0B7804A6952
:10572800002A00F0AC80B1F91220002AC0F2B08043
:105738004A68002A00F0A880FF22087CC240D207ED
:1057480040F1A880C4E90113EFF31085012282F328
:1057580010880B7C524802FA03F343EA0343C0F86B
:1057680034350B7C9A40D0F8B4361342FBD085F31D
:105778001088EFF31085012282F310880B7C043324
:1057880002FA03F31B04C0F87C3BD0F87C3B85F39A
:105798001088EFF3108582F310880B7C02FA03F36C
:1057A8001B04C0F834380B7C3D489A40D0F8B43913
:1057B8001342FBD085F31088EFF3108C012282F39B
:1057C80010880B7C364D02FA03F343EA0343C0F812
:1057D80034380B7C9A40D5F8B4091040FBD18CF3CF
:1057E80010880122A3681A764B68A268E3601360E8
:1057F800CA6913785278A3F10103B3FA83F3012A33
:105808004FEA531308BF43F00203A268DBB282F8E1
:105818002030B1F91230002B26DB91F9112091F8D4
:1058280011C0002AB8BF4FF0FE0C4FF00105A8BF09
:105838004FEA4C0C1B4E4FEA531203F1604EA8BFBF
:105848005FFA8CFC0EF5614E92008EF800C302F1EF
:10585800604246F8234003F01F0302F5614205FA4F
:1058680003F3C2F88031136000234A692261896911
:105878000A4AA1612260636170BD012070470A78FD
:10588800012A7FF455AF4EE7012070BD0E2070BD90
:105898000B2070BD40F27A5070BD00BF4D544700D8
:1058A800000001416C71020030B585B0EFF303834D
:1058B800C3F30803124A103B1BB252F82340636833
:1058C8001B78012B04BFA268137623699BB1636917
:1058D80001AD93B193E8070085E8070000221A712B
:1058E800A26918461A602369984763691BB195E84D
:1058F800070083E8070005B030BD2B46EEE700BF80
:105908006C710200024A034B52681A60704700BF6C
:10591800B86B0200EC78020070B442F6E065134BF5
:10592800134A1448C3E90D22C3E90F20C3E9112023
:105938009A61114A1149C3E91402114C114E124AD5
:10594800C3E90B011160C3E90061C3E90944996027
:105958001C620E490E4C0F4ADC64C3E904120E4C5B
:105968000E48DD609C65D86170BC7047B86B02005A
:1059780000E1F50500C2EB0B0084D71780B2E60EF4
:105988005581F20700AB9041EC78020055A0FC016C
:10599800006889092A50FE0000366E0180F0FA027C
:1059A80070B442F6E065134B134A1448C3E90D225C
:1059B800C3E90F20C3E911209A61114A1149C3E9CB
:1059C8001402114C114E124AC3E90B011160C3E9CC
:1059D8000061C3E9094499601C620E490E4C0F4AE4
:1059E800DC64C3E904120E4C0E48DD609C65D86186
:1059F80070BC7047B86B020000E1F50500C2EB0B04
:105A08000084D71780B2E60E5581F20700AB9041AB
:105A1800EC78020055A0FC01006889092A50FE00B4
:105A280000366E0180F0FA02034620B14FF0806222
:105A380000201A6070470120704700BF00BF704700
:105A480000BE704708B500F005F8FEF761FEFEE7F6
:105A580000BE704770B50020FEF73CFDFFF75CFF05
:105A68000120FEF737FD0F480F4A0021121A00F0F7
:105A7800A3F80E4D0E4B5B1B002B07DD00249E1078
:105A880055F8043B01349847A642F9DCFFF73AFF82
:105A98000220FEF71FFDFFF7D1FFBDE87040002090
:105AA80000F008B8186C0200287A0200B8690200F1
:105AB800B8690200704700BF844641EA000313F04A
:105AC800030349D1403A23D30B6803604B68436012
:105AD8008B688360CB68C3600B6903614B69436162
:105AE8008B698361CB69C3610B6A03624B6A43624A
:105AF8008B6A8362CB6AC3620B6B03634B6B436332
:105B08008B6B8363CB6BC36340304031403ADBD24D
:105B180030320BD30B6803604B6843608B6883603B
:105B2800CB68C36010301031103AF3D20C3205D371
:105B380051F8043B40F8043B043AF9D2043208D047
:105B4800D2071CBF11F8013B00F8013B01D30B88B9
:105B580003806046704700BF082A13D38B07B1D073
:105B680010F00303AED0C3F10403D21ADB071CBF45
:105B780011F8013B00F8013BA4D331F8023B20F8AF
:105B8800023B9FE7043AD9D3013A11F8013B00F8E8
:105B9800013BF9D20B7803704B7843708B78837094
:105BA80060467047014B1868704700BF7468020070
:105BB8000A22002100F0D8B870B5860747D0541ED5
:105BC800002A3ED0CAB2034601E0013C39D303F8AB
:105BD800012B9D07F9D1032C2CD9CDB20F2C05EB45
:105BE800052505EB054535D9A4F1100C03F1100E78
:105BF8001A462CF00F064FEA1C1CB644C2E90055A1
:105C0800C2E9025510327245F8D10CF1010214F0C4
:105C18000C0F04F00F0C03EB021213D0ACF10403C9
:105C280023F003030433134442F8045B9342FBD18B
:105C38000CF003042CB1C9B21C4403F8011BA342A5
:105C4800FBD170BD64461346002CF4D1F9E7034636
:105C58001446C0E71A46A446E0E700BF2DE9F04F16
:105C680082468E463F4875461EF801BB10F80B4029
:105C780014F00804F7D1BBF12D0F5BD0BBF12B0F4B
:105C88006FF0004904BF9EF800B005F1020E33F032
:105C9800100010D1BBF1300F04D0002B5ED10A23C5
:105CA8001F4609E09EF8000000F0DF0058284ED09B
:105CB800002B53D108231F460025B9FBF7F62846C9
:105CC80007FB16980EE0ABF1370C63451DDD002D80
:105CD80004DB864202D321D1E0451FDA4FF0FF35BD
:105CE8001EF801BBABF1300CBCF1090FEDD9ABF1DB
:105CF800410CBCF1190FE6D9ABF1610CBCF1190FDD
:105D080003D8ABF1570C6345E1DC6B1C0AD004B136
:105D180040420AB1CDB91160BDE8F08F07FB00C061
:105D28000125DDE72223CAF800305AB10EF1FF3110
:105D38004846F0E79EF800B04FF0004905F1020E22
:105D48000124A4E74846BDE8F08F8146EEE710231A
:105D58009EF801B00EF1020E1F46ADE710231F4654
:105D6800AAE700BF3167020010B5242A094C134680
:105D7800246808D8012A06D00A4601462046BDE80C
:105D88001040FFF76BBFFFF70DFF162303600020DD
:105D980010BD00BF746802004275696C7420776991
:105DA800746820525A2F4720466C657869626C6582
:105DB80020536F667477617265205061636B616709
:105DC800652076657273696F6E20342E302E300030
:105DD800342E302E30000000000000045465726D2F
:105DE800696E616C00000000284E554C4C2900007B
:105DF8002A2A20525F494E54435F4952515F4578E1
:105E08007465726E616C4972714F70656E20415095
:105E180049206661696C6564202A2A0D0A00000021
:105E28005B4552525D20496E2046756E6374696FFA
:105E38006E3A20257328292C202573002A2A2052FF
:105E48005F494E54435F4952515F45787465726E9D
:105E5800616C497271456E61626C652041504920E0
:105E68006661696C6564202A2A0D0A002A2A205274
:105E78005F494E54435F4952515F45787465726E6D
:105E8800616C497271436C6F73652041504920669B
:105E980061696C6564202A2A0D0A00002A2A2052AA
:105EA8005F47544D5F53746F7020415049206661BD
:105EB800696C6564202A2A0D0A0000005075736811
:105EC80020627574746F6E206973207072657373C5
:105ED80065642E0D0A47544D2074696D65722073F0
:105EE800746F707065642E0D0A000000342E302E19
:105EF800300000000D0A2A2A2A2A2A2A2A2A2A2AAF
:105F08002A2A2A2A2A2A2A2A2A2A2A2A2A2A2A2AE9
:105F18002A2A2A2A2A2A2A2A2A2A2A2A2A2A2A2AD9
:105F28002A2A2A2A2A2A2A2A2A2A2A2A2A2A2A2AC9
:105F38002A2A2A2A2A2A2A2A2A2A2A2A2A2A2A2AB9
:105F48002A2A2A2A2A2A0D0A2A20202052656E6522
:105F580073617320465350204578616D706C6520DD
:105F680050726F6A65637420666F7220725F77641F
:105F780074204D6F64756C6520202020202020201F
:105F88002020202020202020202020202020202009
:105F9800202020202020202A0D0A2A202020457891
:105FA800616D706C652050726F6A65637420566508
:105FB8007273696F6E2025732020202020202020F6
:105FC80020202020202020202020202020202020C9
:105FD80020202020202020202020202020202020B9
:105FE8002020202020202A0D0A2A202020466C6507
:105FF8007820536F667477617265205061636B20F7
:1060080056657273696F6E2025642E25642E25648B
:106018002020202020202020202020202020202078
:106028002020202020202020202020202020202068
:1060380020202020202020202020202A0D0A2A2A63
:106048002A2A2A2A2A2A2A2A2A2A2A2A2A2A2A2AA8
:106058002A2A2A2A2A2A2A2A2A2A2A2A2A2A2A2A98
:106068002A2A2A2A2A2A2A2A2A2A2A2A2A2A2A2A88
:106078002A2A2A2A2A2A2A2A2A2A2A2A2A2A2A2A78
:106088002A2A2A2A2A2A2A2A2A2A2A2A2A2A0D0AA5
:10609800526566657220746F20726561646D652E45
:1060A8007478742066696C6520666F72206D6F72F3
:1060B800652064657461696C73206F6E2045786132
:1060C8006D706C652050726F6A65637420616E64D0
:1060D8000D0A46535020557365722773204D616E23
:1060E80075616C20666F72206D6F726520696E66CF
:1060F8006F726D6174696F6E2061626F7574207262
:106108005F776474206472697665720D0A00000016
:106118000D0A54686973206578616D706C6520702C
:10612800726F6A6563742064656D6F6E73747261F3
:1061380074657320746865207479706963616C2074
:10614800757365206F66207468652057445420482D
:10615800414C206D6F64756C6520415049730D0A80
:106168005573657220696E70757420696E697469FB
:10617800616C697A6573207468652057445420619E
:106188006E642073746172742047544D2074696D75
:1061980065720D0A57445420636F756E74657220DA
:1061A80069732072656672657368656420706572CC
:1061B800696F646963616C6C7920657665727920B2
:1061C80031207365636F6E64207768656E2074682C
:1061D800652047544D2074696D6572206578706933
:1061E8007265730D0A4F6E207072657373696E67FE
:1061F80020746865205075736820627574746F6EBA
:106208002C20746865205744542072657365742087
:1062180077696C6C206973737565640D0A000000FA
:106228002A2A204E6F206F6E2D626F617264204C97
:1062380045447320466F756E64202A2A0D0A0000B3
:106248000D0A52657475726E6564204572726F72BC
:1062580020436F64653A203078257820200D0A00A5
:106268000D0A2A2A2A2A2A2A2A2A2A2A2A2A2A2AC3
:106278002A2A2A2A2A2A2A2A2A2A205744542052F1
:1062880065736574206465746563746564202A2A7F
:106298002A2A2A2A2A2A2A2A2A2A2A2A2A2A2A2A56
:1062A8002A2A2A2A2A2A0D0A000000002A2A2069F6
:1062B8006E69745F67746D5F6D6F64756C65206679
:1062C80061696C6564202A2A0D0A00002A2A20695F
:1062D8006E69745F6972715F6D6F64756C65206655
:1062E80061696C6564202A2A0D0A00000D0A456E52
:1062F800746572203120746F20456E61626C652070
:106308005744540D0A0000000D0A55736572204960
:106318006E7075743A0D0A002A2A20525F57445449
:106328005F4F70656E20415049206661696C6564F5
:10633800202A2A0D0A0000002A2A2074696D657235
:106348005F7374617274206661696C6564202A2ABF
:106358000D0A00002A2A20656E61626C655F697209
:10636800715F6D6F64756C65206661696C6564202A
:106378002A2A0D0A0000000057445420696E6974E7
:1063880069616C697A65642C2047544D2074696D85
:10639800657220737461727465640D0A00000000F0
:1063A800546F2073746F702057445420636F756E58
:1063B8007465722066726F6D2072656672657368A7
:1063C800696E672C2070726573732074686520701D
:1063D80075736820627574746F6E0D0A0000000092
:1063E800496E76616C696420696E7075740D0A0077
:1063F800506C656173652070726F76696465206999
:106408006E7075742066726F6D2062656C6F772090
:106418006F7074696F6E0D0A00000000456E746538
:1064280072203120746F20656E61626C652057445C
:10643800540D0A005573657220696E7075743A20A0
:106448000D0A000057445420636F756E74657220FE
:106458005265667265736865642E0D0A0000000057
:106468002A2A20525F47544D5F4F70656E20415075
:1064780049206661696C6564202A2A0D0A000000BB
:106488002A2A20525F47544D5F5374617274204129
:106498005049206661696C6564202A2A0D0A00004B
:1064A8002A2A20525F47544D5F436C6F7365204121
:1064B8005049206661696C6564202A2A0D0A00002B
:1064C8002A2A20525F5744545F5265667265736882
:1064D80020415049206661696C6564202A2A0D0AAA
:1064E80000000000000000000000545452205245F3
:1064F80047474553000000003031323334353637D2
:1065080038394142434445466578745F6972715F22
:1065180063616C6C6261636B000000006465696EA6
:1065280069745F6972715F6D6F64756C65000000F6
:10653800656E61626C655F6972715F6D6F64756CC1
:1065480065000000696E69745F6972715F6D6F64E0
:10655800756C6500726561645F496E7075745F661D
:10656800726F6D5F5254545669657765720000000A
:1065780068616C5F656E74727900000067746D5FA6
:1065880063616C6C6261636B000000006465696E36
:1065980069745F67746D5F6D6F64756C650000008A
:1065A80074696D65725F737461727400696E697481
:1065B8005F67746D5F6D6F64756C650008710200CC
:1065C800FC700200E47002000118020000000000E4
:1065D8004542020000000000000000001C7102009B
:1065E800F0650200F06602000000000200000000F2
:1065F8000000000002060503AA55040028660200F0
:106608000C66020000000000706802000000000034
:106618001147020015470200000000000000064074
:106628002000000000100000520000000080000060
:10663800D800000000000100C7000000FFFFFFFFB6
:1066480000000000FFE0F505000000000000000069
:10665800000C2C00A1450200000000006866020042
:10666800000000000010804206080303000000003C
:1066780000000000000000008466020001002D00F8
:106688000101000018003700000480420A000000E1
:10669800A0660200C46502000004010603000000B1
:1066A8000C04000002150000000400000006FFFFB3
:1066B800000800000404FFFF000800000005FFFFB9
:1066C800000800000105FFFF000800000205FFFFA9
:1066D800000800000305FFFF000800000104FFFF99
:1066E800000800000004FFFF454802002947020097
:1066F8002D470200B94A02000D4A0200414B020030
:10670800654D0200F54A0200F94C0200854C020072
:106718003147020025470200554A020001000000E7
:106728002C670200021500000020202020202020D5
:106738002020282828282820202020202020202029
:106748002020202020202020208810101010101039
:106758001010101010101010100404040404040485
:10676800040404101010101010104141414141411F
:106778000101010101010101010101010101010101
:106788000101010110101010101042424242424211
:1067980002020202020202020202020202020202D1
:1067A8000202020210101010200000000000000079
:1067B80000000000000000000000000000000000D1
:1067C80000000000000000000000000000000000C1
:1067D80000000000000000000000000000000000B1
:1067E80000000000000000000000000000000000A1
:1067F8000000000000000000000000000000000091
:106808000000000000000000000000000000000080
:106818000000000000000000000000000000000070
:106828000000000000000000000000001000000050
:1068380000000000017A5200027C0E011B0C0D00C2
:10684800140000001800000070F2FFFFEC000000C8
:0868580000024D0A430B000091
:0868600060F2FF7F010000005F
:04686800000000002C
:10687000060000007868020000000000F0780200C6
:1068800058790200C07902000000000000000000FA
:1068900000000000000000000000000000000000F8
:1068A00000000000000000000000000000000000E8
:1068B00000000000000000000000000000000000D8
:1068C00000000000000000000000000000000000C8
:1068D00000000000000000000000000000000000B8
:1068E00000000000000000000000000000000000A8
:1068F0000000000000000000000000000000000098
:106900000000000000000000000000000000000087
:1069100001000000000000000E33CDAB34126DE624
:10692000ECDE05000B00000000000000000000008D
:106930000000000000000000000000000000000057
:106940000000000000000000000000000000000047
:106950000000000000000000000000000000000037
:106960000000000000000000000000000000000027
:106970000000000000000000000000000000000017
:106980000000000000000000000000000000000007
:1069900000000000000000000000000000000000F7
:1069A00000000000000000000000000000000000E7
:0869B0000000000000000000DF
:04000003200039C9D7
:00000001FF
