:1000000018F09FE518F09FE518F09FE518F09FE5C0
:1000100018F09FE518F09FE518F09FE518F09FE5B0
:100020004000000095201000992010009D20100035
:10003000A1201000A520100028211000A9201000E8
:10004000310F19EEFC1F01E3001040E3010000E056
:10005000031000E3101040E3010080E14FF07FF552
:10006000310F09EE6FF07FF5A03803E3103040E365
:100070000300A0E10110A0E30010C0E5ED0704EAD1
:100100002DE9F041D0E902850446A8EB05074068D7
:1001100097422844154408D80E463A46A5EB0805F0
:1001200008F086FE2A466068F11908F081FEBFF3E8
:100130005F8FE560BDE8F0812DE9F8434FF00008DE
:10014000064689461746D0E902243369151B9C42AE
:1001500003F1FF3125BF03F1FF339B180B1B1B1B62
:10016000BD4228BF3D469D4228BF1D467068494696
:100170002A46204408F05CFEB2682C44A24208BF24
:100180000024A844A9447F1BBFF35F8FF460002FB5
:10019000DBD14046BDE8F883F8B54FF6E024C3F262
:1001A0001804A8220021204608F03AFE48F65872AA
:1001B0004FF698304FF68831002303254FF400673F
:1001C0001026C0F20002C3F21800C3F21801256124
:1001D0006561A261E0612762A3626362E3622266F5
:1001E0006166A6662367E3666367BFF35F8F074BAD
:1001F0009C46A3F11000ACEB030213F9011D8342EE
:10020000A154F8D1BFF35F8FF8BD00BF5894000030
:1002100038B54FF6E02400EB4003C3F21804013078
:1002200004EBC30300EB400004EBC000DC6A8C4627
:10023000012C154612D0022C0CD0FCB99A6A596ACE
:100240008A429CBF1B6AD218013A511A8D4218D9B2
:10025000204638BDBDE83840FFF76EBF9A6A5C6A39
:10026000A2429CBF1B6AD218013A141BAC4228BFA1
:100270002C462246FFF744FF204638BD0024204686
:1002800038BD2A466146FFF73BFF2C46E0E700BF3A
:100290004FF6E02370B5C3F218031B780446532BC6
:1002A0000D46164601D0FFF777FF32462946204615
:1002B000BDE87040FFF7ACBF4FF6E02300EB400015
:1002C000C3F2180303EBC0039A6A586A82429CBFC8
:1002D0001B6AD218013A101A704700BFD0E90132E8
:1002E00010B50446501C984207D82368995402461A
:1002F000E16863680131A060E1609A4200D010BDFE
:1003000021682069FFF7C4FFA368984215BF4FF02A
:10031000FF330023E360A36010BD00BF2DE9F84F59
:100320009142DDE90A940F46154683461E4669D37D
:100330000B464FF00108B3FBF5F39D4208F10108AD
:10034000F9D9B04538BFB04614F0010A02D1B9F16D
:10035000000F41D1DBF80C30002B2EDB012401E033
:1003600005FB04F4012E06F1FF36F9D8B7FBF4F3D0
:100370009D4205D805FB04F4B7FBF4F39D42F9D97F
:1003800049F26046C0F2000606E0AC42B4FBF5F369
:100390000CD31C46B7FBF3F3F156584604FB137716
:1003A000FFF79CFFDBF80C30002BEEDAB9F1000F01
:1003B0000CBF00230AF001034BB9BDE8F88F2021E0
:1003C0005846FFF78BFFDBF80C30002BF5DBC145FF
:1003D00009F1FF39F3D8F0E7B6FA86F35B0913EABF
:1003E000540314BF3024202409E021465846FFF767
:1003F00075FFDBF80C3009F1FF39002BDDDBC1455F
:10040000F3D8A7E74FF001089BE700BF000000000A
:10041000DFED8F0B00232DE9F04F9BB00DF1280984
:1004200005AC44F98F0780460D461746CDE90730E5
:10043000CDF8109006E004A8FFF750FF079B002BB3
:10044000C0F2818015F9011B002900F08E8025295A
:10045000F1D100262B4613F9011BA1F123020D2A2D
:1004600008D8DFE802F05F070707070707075B0701
:1004700063070757A1F13002D2B2092A4FF00004F6
:100480000FD804EB840401EB440493F900101D46DB
:10049000A1F13002D2B2092AA4F1300403F1010320
:1004A000EFD92E2953D04FF0000B95F90010584684
:1004B00001E015F9011F21F00403682BF9D025296B
:1004C00038D05839CBB2202B37D8202935D8DFE89F
:1004D00011F0710034003400340034003400340072
:1004E0003400340034003400FD00C3003400340014
:1004F000340034003400340034003400340034005C
:100500003400AD0034003400880034008200340030
:10051000340071001D4646F002069BE71D4646F07A
:10052000040697E71D4646F0080693E71D4646F089
:1005300001068FE704A8FFF7D1FE079B002B05F10A
:100540000105BFF67FAF18461BB0BDE8F08F95F9E7
:1005500001102A2915D13B6802351A1D3A60012085
:10056000D3F800B095F90010A5E7079B002BEADD52
:10057000069C002C40F0B480234418461BB0BDE814
:10058000F08FA1F13003DBB2092B4FF0000B05F126
:10059000010500F2E6800BEB8B0201EB420215F93C
:1005A000011FA2F1300BA1F13003DBB2092BF2D90C
:1005B000012080E710225B46D7F800C00DEB020057
:1005C000DCF80010CDE900460CF104043C60FFF7B4
:1005D000A5FE079BB2E75B460A22D7F800C004A835
:1005E000EEE748F664733968C0F200030C1D3C6006
:1005F0000C680BF10102002C04BF00201C4600F027
:10060000010604EB020A0CE0544514BF002306F077
:100610000103002B91D104A8FFF760FE079B002B7C
:100620008CDB14F9011B0029EED186E70823102288
:1006300000263C680DEB0200216804343C60CDE9E3
:100640000036FFF76BFE079B78E700BFAFF3008033
:1006500040000000000000003B681A6804333B6063
:1006600082EAE273A3EBE273092B03927BDD4CF683
:10067000CD404FF0010ACCF6CC401946A0FB03C395
:1006800063290AF1010A4FEAD303F6DCDA4538BFE1
:10069000DA4674BB079900240B460029FFF653AFD6
:1006A000039B002B4CDB730756D406F00303022B8D
:1006B00008BFBBF1000F5FD05B460A22CDE90046C0
:1006C000039904A8FFF72AFE079B37E73B6804A8B5
:1006D0001A1D93F900103A60FFF700FE079B2DE703
:1006E0002246494640460393FFF7D2FD039B23442D
:1006F00043E7039A06F00203002A17DB720715D4BA
:10070000002B33D0BBF1000F0DD0F00709D50AE064
:10071000202104A8FFF7E2FD079B013C002BFFF618
:1007200012AFA245F4D307990B46B6E7013C13B1CB
:10073000BBF1000FF7D0F207F5D4002CF1D1A9E7F7
:100740005B422D2104A80393FFF7C8FD07990029F8
:100750000B46FFF6F8AEA8E72B2104A8FFF7BEFD75
:10076000F4E75846A7E64FF0010A8FE7F107D8D51E
:10077000079B002BA0DAE6E6002C9DD009E0302193
:1007800004A8FFF7ABFD0799013C00290B46FFF6D3
:10079000DAAEA245F3D30B1EFFF6D5AE8CE700BF51
:1007A0000EB400B582B003AB53F8041B01AA019349
:1007B000FFF72EFE02B05DF804EB03B0704700BFF8
:1007C0002DE9F04F002491B006A8069402F11AF921
:1007D00048F66C7248F674719DF819009DF81A304D
:1007E000C0F20002CDE90030C0F200019DF81B30DC
:1007F0002046FFF7D5FF49F26C112046C0F20001F8
:1008000049F60067FFF7CCFF49F2B4414AF2F440E1
:10081000C0F200073B68C0F20001C0F20000984738
:10082000002840F0498149F2743349F27048C0F21F
:100830000003AE4CBD6B0393C0F200080DF117012D
:1008400007A8A8478146002837D19DF81730033BF9
:10085000072BF3D801A252F823F000BF13090000C0
:100860003D0800003D0800003D0800003D08000074
:1008700025090000E10800007D080000099B002B0D
:10088000DCD04AF2C0014AF2F44001234FF4007276
:10089000BE68C0F20001C0F20000B0470028CDD011
:1008A00049F2D431C0F2000100F06AF90DF11701EC
:1008B00007A8A84781460028C7D049F238314246E8
:1008C000039BC0F200010020FFF76AFF49F2543198
:1008D0004A46C0F200010020FFF762FF00BEB4E705
:1008E0009DF81F308A2B69D04AF2CC414AF2F4407D
:1008F00001230A22BE68C0F20001C0F20000B04726
:1009000000289BD049F2D431C0F2000100F038F940
:10091000CCE74AF2F4409DF81D10C0F2000000F050
:10092000FBF88BE7BDF8283003F47F43B3F5005F95
:1009300032D0B3F5085F38D0B3F5045F7FF47EAFF3
:1009400049F2F03149F2AC3A49F2B4360020C0F233
:100950000001FFF725FF4FF0000BDFF89491C0F284
:10096000000AC0F2000603E0BBF5007F00F08580BE
:100970005FFA8BF209F801BF51460020FFF710FF24
:10098000BBF1FF0F0BF1010BEED131460020FFF759
:1009900007FF4FF4807BEBE74AF2F4409DF81D100F
:1009A000C0F2000000F0A8F848E74AF2F4409DF8D1
:1009B0001D10C0F2000000F0CFF83FE740F2FF79D1
:1009C0000020FFF779FC4845FAD149F29C3149F201
:1009D000AC3949F2B43BDFF81CA10020C0F20001A1
:1009E000FFF7DEFE5646C0F20009C0F2000B01E040
:1009F000A64211D016F8012F49460020FFF7D0FE7D
:100A0000A6EB0A0292B2B2F5807FF1D159460020DE
:100A1000FFF7C6FEA642EDD149F2B4310020C0F284
:100A20000001FFF7BDFE099AAAB14AF2C8214AF2B5
:100A3000F440FB68C0F200011E46C0F20000012332
:100A4000B04700283FF4FAAE49F2B831C0F20001D5
:100A500000F096F8F2E6B9684AF2F4400E464AF21F
:100A6000C00101234FF40072C0F20001C0F2000087
:100A7000B04700283FF4E2AE12E749F2B43100205B
:100A8000C0F20001FFF78CFE40F2FF790020FFF773
:100A900013FC4845FAD14AF2C8214AF2F440012336
:100AA0004FF40072FE68C0F20001C0F20000B047CF
:100AB00000283FF4C3AEC7E749F2103349F2704251
:100AC00049F238310546C0F200032046C0F2000268
:100AD000C0F20001FFF764FE49F254312A46204675
:100AE000C0F20001FFF75CFE00BE9CE6BFA2000062
:100AF000C7A20000BFA00000DFED050B00B583B06A
:100B00006A46CDED000B00F05BFB03B05DF804FB23
:100B100021220000000000004AF2E04210B54FF030
:100B2000000CDFED0B0B4FF0080E4FF4165482B0A3
:100B3000C0F200026B46CDED000B82F806E01460B7
:100B4000A2F804C000F056FB02B010BDAFF3008065
:100B500021200000000007004AF2D842DFED060B1A
:100B600000B583B06B46C0F20002CDED000B00F083
:100B700067FB03B05DF804FBA12100000000070043
:100B800038B504464AF2F440C0F200000D4608F0C1
:100B90001BF8B8B949F27C4249F238312B460020A3
:100BA000C0F20002C0F20001FFF7FAFD04B938BD3F
:100BB00049F254312246C0F200010020FFF7F0FD57
:100BC00000BE38BD49F2204349F27C4249F2383137
:100BD000C0F20003C0F20002C0F200010020FFF7E3
:100BE000DFFDD7E708B5FFF7EBFD002008BD00BF2C
:100BF0004AF21951C0F2000190F82020087840FA1A
:100C000002F313F001032ED12DE9F0414FF001085A
:100C10004AF23C544AF22C574AF228564AF23855C6
:100C20004AF2345E4AF2305C08FA02F840EA080000
:100C3000C0F20004C0F20007C0F20006C0F20005D6
:100C4000C0F2000EC0F2000C087027F8123026F82F
:100C5000123045F8223024F812304EF822304CF889
:100C60002230BDE8F081704710B582B0044601A97A
:100C7000062007F0BBF800B1FEE740F20123E08B4D
:100C80000199A28CC8834A848B8394F82030062073
:100C900081F82030E36ACB6207F070F808B902B03F
:100CA00010BD0199062007F0C3F802B010BD00BFC7
:100CB00030B504460D468BB090F8200003F0F2FEEC
:100CC00094F82030062001A98DF805508DF80430E5
:100CD00000F052FE0BB030BD2DE9F0414AF22C5825
:100CE0004AF228524AF238574AF2345E4AF23056F3
:100CF00000254AF21C5C90F8203004468869C0F256
:100D00000008008882B028F81300C869C0F2000209
:100D10000088C0F2000722F813000868C0F2000E35
:100D200047F8230048688F684EF82300C868C0F26F
:100D3000000646F823700580084632F813103A7909
:100D400003EB83030B44C0F2000C2CF8132001F0DA
:100D5000E5F84AF23C5394F82020C0F20003062044
:100D600001A923F8125007F041F800B1FEE740F264
:100D700001230199E26A8B83CA6294F8203006202D
:100D800081F8203006F0FAFF02B0BDE8F08100BF24
:100D90002DE9F0414AF264554FF47047090380464B
:100DA0000124FF208EB2C0F20005CFF6FF7702E0EB
:100DB00001340A2C1BD098F8203004EB840203EB9A
:100DC000830303EB83039B0003EB4203EA5A2B44A8
:100DD000012AEDD1DB883B409E42E9D14046A1B2D9
:100DE000013403F087FE0A2C4FF00000E3D1BDE888
:100DF000F08100BF30B505460C468BB009B1FFF756
:100E0000C7FF0A2395F82020032001A98DF80420AC
:100E10008DF805408DF8073000F0AEFD0BB030BD09
:100E20002DE9F04F0C7889B09C423CD29A464AF2A8
:100E300028534FF0FF0EC0F2000389468346F04668
:100E40007746CDE903E206AD059304E03378234409
:100E50009CB2A24527D909EB04067378052BF5D17E
:100E6000F37803F00303022B21D0032B27D10123B6
:100E700003939BF82000DDE90431CDE900650A22E7
:100E800031F8101003F024FD0146C0B12A469BF84A
:100E9000200000F049FFFF2F18BFB8F1FF0FD5D099
:100EA000039BFF2BD2D0002009B0BDE8F08F96F94C
:100EB0000230002BACBF01274FF00108D9E7FF201B
:100EC00009B0BDE8F08F00BF70B54AF23C5590F80C
:100ED00020C0C0F2000535F91C200446012A82B06A
:100EE00045D0022A11D0002A5FD14AF23453C0F211
:100EF000000353F82C305B78022B18BF604663D098
:100F000002B0BDE8704000F0F5BF438CA3B94CF6C9
:100F100060334FEA4C2CC3F2180313F80C20412A1B
:100F200064D8520803F80C2090F820205202995CF3
:100F30000139995490F820C04CF660514AF22C5374
:100F4000C3F2180101EB0C21C0F2000333F81C209E
:100F500020464B88FFF764FFFF28014618BF002199
:100F60003DD0204602B0BDE8704000F0F7BE438C93
:100F700043BB4AF238514AF2285240F66943C0F264
:100F8000000151F82C60C0F2000232F81C10F27B14
:100F9000C0F2000304F0E8F894F8202035F812308D
:100FA000013325F8123002B070BD0023FF2125F86F
:100FB0001C3000F0D3FE94F8200002B0BDE8704071
:100FC00000F098BFFF21F4E74AF2285140F6694348
:100FD000C0F2000131F81C10C0F20003DAE794F807
:100FE0002000019100F086FF0199BAE7202203F862
:100FF0000C2090F820C09FE700B583B040F6B832CF
:10100000062001A906F0A4FE40B940F2012301998F
:101010008A8B9A4205D0062006F00AFF03B05DF8DD
:1010200004FB0846FFF750FF0199062006F000FF79
:101030000199F0E710B50446807F94F820308AB01B
:101040008DF804308DF8060001F010F80346022BED
:1010500014BF8B238A239DF8061020468DF8073095
:1010600003F034FCD4E90331A28C5B1A000B042A90
:1010700003938DF8050008BF40F2DE5309D0052A1E
:1010800008BF40F2DF5304D0032A40F2DC5308BF0C
:101090000023092001A9ADF8083000F06DFC0AB06A
:1010A00010BD00BF8A2140F2DC5200B58BB08DF834
:1010B0000710818C0346012914BF13460023B0F8A2
:1010C0001EC090F820E05FFA8CF18DF804E08DF8F6
:1010D00006C0ADF8083003F0F9FB034601A91B0B6D
:1010E0000A208DF8053000F047FC0BB05DF804FBDA
:1010F00070B540F6B14140F6F55440F6F13640F691
:10110000D94541F65D638EB0C0F20004C0F2000123
:10111000CDE90241C0F20006C0F20005009601953B
:101120006DF9DF2AC0F2000349F64C5280EE903B85
:101130004FF0020C07AB43F98F2AC0F200020BAB51
:1011400004A943F98F07ADF816C0069200F05EFDC2
:101150000EB070BDF8B54AF218544AF23C574AF244
:101160002C564AF228554AF2385E4AF2345C4AF26A
:1011700030510022C0F2000490F820302078C0F2F4
:101180000007C0F20006C0F20005C0F2000EC0F277
:10119000000CC0F2000127F8132026F8132025F8D0
:1011A00013204EF823204CF8232041F8232000B1CF
:1011B000F8BD0421062006F069FF01232370F8BD65
:1011C00010B5144649F6006E40F2140C64F94F074E
:1011D00040F21002C0F2000EDEF84440C3F2180CD8
:1011E0000B464CF94F076146C3F21802A446BDE80E
:1011F00010406047E0B549F60065964640F2080C9D
:101200001F46C0F200056E6CDEF80050C3F2180CE9
:10121000CCF80050BEF804500B46ACF804509EF8D1
:10122000065040F214018CF8065067F94F07C3F2DC
:101230001801624641F94F07B446BDE8E0406047F7
:1012400040F2140C63F94F07C3F2180C30B549F69D
:1012500000644CF94F074AF2505E154640F2000216
:101260000B46C0F20004614690F800C0646CC0F206
:10127000000E0CEB8C0C4EF82C50C3F21802A44656
:10128000BDE83040604700BF0020C8F22000704732
:1012900030B5012083B001F173FC14EE161F002558
:1012A00004EE165F2C462B46C8F22804D4F810230F
:1012B000C8F2200322F48072C4F81023D4F810235B
:1012C0001A681A681A681A681B6804EE161F4FF429
:1012D0007A71012001F1A4FBD4F81033C3F3002389
:1012E000D4F81033C3F30023D4F81033C3F300232E
:1012F000012001F1D7FB46F6E7620195019BC0F2A0
:101300000302934205D8019B01330193019B934251
:10131000F9D9002318464AF6C772C8F22003D3F859
:10132000001821F00041C3F80018D3F80C1221F086
:101330000201C3F80C120190019B934205D8019B56
:1013400001330193019B9342F9D900231846C8F257
:101350002003D3F8002242F01002C3F80022D3F891
:10136000002242F00802C3F80022D3F8002242F023
:101370000402C3F80022D3F8002242F00202C3F8AC
:101380000022D3F8002242F00102C3F80022D3F871
:10139000082222F47042C3F80822D3F8082222F46B
:1013A0008072C3F80822D3F8082222F03002C3F872
:1013B0000822D3F8082222F00302C3F8082203B05F
:1013C00030BD00BF10B50024C8F22804D4F8103393
:1013D000DB0548BF40F2E2501DD4012001F1D0FBF3
:1013E000D4F810334FF47A7143F48073C4F8103397
:1013F000012001F115FBD4F81033C3F30023D4F816
:101400001033C3F30023D4F81033C3F300230120B7
:1014100001F148FB002010BDB1F90C30F0B5002BF4
:1014200014DB4FF0020C1A09920002F1144203F08F
:101430000F0ED2F8084C4FEA4E0E0CFA0EFC24EABE
:101440000C04C2F8084C002853D0F0BD13F1110F62
:101450004CDB0022022503F00F046400C9F21142A4
:10146000A540D2F8044C24EA0504C2F8044C002834
:10147000EBD100204FF0010C4AF24452FF2543F219
:10148000181603F1200703F00303C9F21140DB0033
:10149000C0F2000203F1030E9D400CFA07F3D0F8EE
:1014A00080C0116027F003024CEA030C02F11442E1
:1014B0008C7E02F58812C0F880C0C0F2100646F893
:1014C0002710D2F8001404FA0EF421EA0501C2F83C
:1014D0000014D2F800142143C2F80014C0F880327E
:1014E000D0F800211343C0F80031F0BD0028C0D06F
:1014F000F0BD4AF244500125FF2743F2181E5A0955
:10150000920002F11442D2F8844003F01F06B54065
:10151000C0F200002C43016023F0030091F81AC0D0
:1015200000F11440C2F8844003F00304D0F82064B2
:10153000E400A74026EA0706C0F82064D0F820643B
:1015400003340CFA04F42033C0F2100E3443C0F814
:1015500020444EF82310C2F88452D2F804312B43B1
:10156000C2F80431F0BD00BF4FF47A7101F158BAEE
:101570004AF24453FF21C0F200031868F0B5B0F9F5
:101580000C30847E03F00302D2009140002B02F164
:10159000030204FA02F403F1200C6FEA01022ADBD1
:1015A000012143F218154FEA531E4FEA8E0E0EF139
:1015B000144E03F01F06B140DEF8846023F00303ED
:1015C0000E43CEF8846003F11443D3F82064C0F2D4
:1015D00010053240C3F82024D3F820242243C3F856
:1015E000202445F82C00CEF88412DEF804310B4399
:1015F000CEF80431F0BD0021012543F21816C9F2DE
:101600001141D1F8807005FA0CF52CF003032F433B
:1016100003F11443C1F8807003F58813D3F8007404
:10162000C0F210063A40C3F80024D3F80024224345
:10163000C3F8002446F82C00C1F88052D1F80031DC
:101640002B43C1F80031F0BD4AF24453C0F200030D
:101650001B68B3F90C30002B0FDB01215A099200F3
:1016600003F01F0302F1144201FA03F3C2F88431BC
:10167000BFF34F8FBFF36F8F7047012200212033DC
:1016800002FA03F3C9F21141C1F88031BFF34F8F61
:10169000BFF36F8F704700BF2DE9F04F4BF6A845A1
:1016A00090F800C0C0F200050C4635F81C1083B05D
:1016B00089B2012903D0002003B0BDE8F08F4FF6B6
:1016C00000154FF0000A80EE902BCCEB0C1BC3F200
:1016D000180500F10C080346B8E8030041F6AD37E1
:1016E00005EB4B184546A8F81EA0C8F8084008F1BD
:1016F0000C0848F98F074FF00A0E41F634024FF0FC
:101700008009C0F200076F605C780CEB8C06B600B5
:101710001EFB046EC3F218020EEB02036B6104EBB6
:10172000840306EB4303D0501A446046019685F8C3
:10173000299085F820C014815160FFF7A5FD03466C
:101740002846EB6203B0BDE8F04F00F0F5BC00BFE7
:10175000FFF7A2BF2DE9F8431546C2780446092ACF
:101760000E4698BF00200AD949F658516378C0F256
:10177000000103EB8203293B5B00DBB2C85C00F095
:1017800073FC0146607800F00DFCE378092B02D869
:101790000020BDE8F8834FF6001848F6806CC7B209
:1017A000207880EE905BC0EB00194FEA491907EBF7
:1017B000470541F2304209EB0515C3F21808C0F2A3
:1017C000000C5CF833C008EB05031D46802100EBDC
:1017D000002EC3F2180202EB8E029A600C33EF83E4
:1017E00043F98F0785F82910C5F804C085F8200053
:1017F000FFF74AFD95F82030E8626278302003EB6D
:10180000830313444AF2485201244AF2505110FB18
:101810000790C0F20002C0F200011470404441F889
:101820002360BDE8F84300F087BC00BF2DE9F84F06
:10183000C3780446092B0D46164698BF00200CD9E4
:1018400049F65851A3F10A026378C0F2000103EB94
:1018500082035B00013BDBB2C85C00F005FC014683
:10186000607800F09FFBE378092B02D80020BDE8E8
:10187000F88F4FF6001940F21C0A94F80080C7B2A6
:10188000C8EB081829464FEA481807EB4705C3F28A
:10189000180908EB05154D44607895F8203000EBE9
:1018A000002003EB830303EB03238000C3F2180A39
:1018B00000EB8300324650444FEA830B07F0B8FA3E
:1018C00048F680628021EF8363782E6103EB032367
:1018D0000BEB83035344AB60E378C0F2000202EBEE
:1018E000C302536885F829106B60207885F82000C2
:1018F000FFF7CAFCE862302010FB07804844BDE8CF
:10190000F84F00F019BC00BF30B5C2780446092A70
:1019100098BF00208DB00BD949F658506378C0F2BB
:10192000000003EB8203293B01EB4301C9B2405C99
:1019300000F09AFB0146607800F034FB10F0FF05E0
:1019400002D0E378092B02D8FF200DB030BD2078FB
:101950008DF82000FFF798FC0346294668460B9354
:1019600000F0C6FB0DB030BD4AF25063C0F2000378
:1019700003EBC103988870472DE9F0414BF6B8445A
:101980008E46C0F2000423780E465D1CEDB2202D79
:1019900028BF00254BF6B04703EBC30C04EB8C0CBF
:1019A00023448AB00CF1240C98708046BEE80F00E6
:1019B000ACE80F00BEE80F00ACE80F00DEF8003026
:1019C0002570CCF800303378C0F2000757F8232098
:1019D0002AB34BF6AC4286F80680C0F2000252F8F9
:1019E0002380B8F1000F1DD0454601AC0FCD0FC4C8
:1019F0000FCD0FC42B682360C446B646BEE80F0067
:101A0000ACE80F00BEE80F00ACE80F00DEF80030D5
:101A10004046CCF80030337857F8233098470AB066
:101A2000BDE8F0810DF10408E6E700BF08B506F057
:101A3000DFFA06F039FB012800D008BD002003F0D2
:101A4000E3FBBDE808400020FFF7D6BA2DE9F041DE
:101A500082B004460F46012001A990461D4606F0BB
:101A6000C5F900B1FEE7019EE36A089A3060B783CA
:101A7000A6F81E80B5607260F36294F8203031469B
:101A8000012086F8203006F079F9044618B920467E
:101A900002B0BDE8F0813146012006F0C9F92046C8
:101AA00002B0BDE8F08100BFF0B583B004460E4639
:101AB000012001A917461D4606F098F900B1FEE77E
:101AC0000199E36A08608E83CF834D84CB6294F8DA
:101AD0002030012081F8203006F050F908B903B019
:101AE000F0BD0199012006F0A3F903B0F0BD00BFDD
:101AF000FF2A2DE9F04708BF4FF4807941F6780EB0
:101B000041F6480518BF4FF481794FF000064FF0B9
:101B1000800A08BF002290F82040C3F2180E04EBA0
:101B20008407C3F2180508BFC0F2010904EB440C96
:101B30004EF8179005EB0C1C0EEB47078CF829A00C
:101B40008CF82040CCF81470CCF80860CCF8106009
:101B5000ACF81E60CCF8043090F82030BA8003EB6B
:101B6000430205EB02123981C16AFE80BDE8F047ED
:101B70001046D16200F0E0BA2DE9F0410646084671
:101B80000D46174600F078FA0446284600F090FA11
:101B9000034628461C4300F083FAA4B201463B46A4
:101BA00022463046BDE8F041FFF7A2BF10B5818C58
:101BB0008AB019B106290CBF0121FF214FF413444B
:101BC0004AF2C85290F820C04369ADF808108DF869
:101BD00004C01988C0F20002ADF81010ADF806403C
:101BE00052F82C405A880820ADF812209A8801A992
:101BF000ADF81420DA88ADF816201B89121B8DF879
:101C000005300392FFF7B8FE0AB010BD2DE9F84386
:101C10004AF2CC5490F82030C0F2000434F813207B
:101C2000012A42D84AF200664FF6FF774FF00A08C1
:101C30008C46054602EBC20903EBC303C2F1000E5A
:101C40004FEA8909C0F200060EF0240E09EBC30921
:101C50000EEBC30ECFF2000706EB090346F80E7039
:101C6000A3F80480BCF806600022DE80DCF808607F
:101C70004FF470419E60DCF80C70DF60DCF810609F
:101C80001E61DCF814605E61DCF818609E61DCF8AF
:101C90001C60DE61DCF820601E62B84795F82020E9
:101CA00034F81230013324F81230BDE8F88300BF55
:101CB00090F8203031B94AF2CC52C0F2000222F83A
:101CC000131070474AF2006003EBC302C0F2000039
:101CD00000EBC20200B5B2F806E04FEAC30C8E4535
:101CE00006D0528D8A4208BF012202D05DF804FB63
:101CF00000224AF2CC51DFED0A0B52429C4402F022
:101D0000240202EBCC02C0F20001104431F813208F
:101D100040F94F07013A21F813205DF804FB00BF9A
:101D2000FFFF00F00A0000004AF264534FF0010C7C
:101D300000EB800000EB8000800001EB8101C0F22D
:101D4000000300EB410123F801C0B2F800C05818AD
:101D5000A0F802C0526806335A50704710B50446C6
:101D60004BF224438C4694F8202082B0C0F200034A
:101D7000012001A923F812C006F038F800B1FEE7EF
:101D80004FF492730199E26A08604884CA62CB6199
:101D900094F82030012081F8203005F0EFFF08B9D9
:101DA00002B010BD0199012006F042F802B010BD4A
:101DB0002DE9F04140F20A25AA420F461E4684B0A2
:101DC00020D040F20B239A4214460FD040F2092350
:101DD0009A4223D10023324640F209110097FFF7BF
:101DE00035FE0546284604B0BDE8F08100233246A2
:101DF00040F215110097FFF729FE0546284604B06A
:101E0000BDE8F081002332464FF48B710097FFF755
:101E10001DFE0546284604B0BDE8F081804603A9B2
:101E2000012005F0E3FF05460028DBD10399D8F82F
:101E30002C3008608C83CE834F60CB6298F82030C2
:101E4000012081F8203005F099FF05460028C9D00F
:101E50000399012005F0ECFFC4E700BF704700BF05
:101E6000024643F2181C4BF6B443042010B54FF061
:101E7000010E92F82020C0F2100CC0F20003DCF832
:101E8000F04433F812C08AB0A46A2CF0100C0DEBA9
:101E900000018DF805E0079423F812C08DF80420A6
:101EA000FFF76AFD0AB010BD024643F2181C4BF65C
:101EB000B44310B54FF0010E92F82020C0F2100C80
:101EC000C0F20003DCF8F04433F812C08AB0A46A10
:101ED0002CF0200C052001A98DF805E0079423F8CB
:101EE00012C08DF80420FFF747FD0AB010BD00BFF7
:101EF000FFF7FEB84AF2D452034600B5C0F2000222
:101F00008BB032F813200D2001A98DF804308DF824
:101F10000520FFF731FD0BB05DF804FBF0B500259F
:101F2000C36846681D8077882A462C461C4B6FB1D3
:101F300006EB040E9EF8011004292BD005290DD0C4
:101F40009EF8001021448CB2A742F1D80020F0BDC9
:101F50001FFA8CF2202A03F108031ED8597802F1E7
:101F6000010C0029F4D19EF8021001F00F01597004
:101F70009EF8021021F07F0199709EF8031001F085
:101F80000301D970BEF804109980C16909881D70D9
:101F9000D980D5E79EF80250D2E7FF20F0BD00BF00
:101FA00058A600004AF250630122C0F2000304E088
:101FB0000132202A03F1080309D0B3F80EC084458A
:101FC000F6D193F809C08C45F2D190B27047002049
:101FD000704700BF0000000038B54AF24864C0F204
:101FE0000004238893B34AF200634AF2DC5E4AF2AB
:101FF000D05C0024DFED180B0A254AF2D4504AF2D7
:10200000CC52C0F2000EC0F2000CC0F20003AEF8D9
:102010000050C0F20002ACF80040C0F2000043F9EA
:102020004F0724330480012143F94F0720461480D1
:1020300006F02CF80221012006F028F848F610706E
:10204000C0F2000002F0DAF9204638BD05F074FF56
:1020500001232380C7E700BFFFFF00F00A00000054
:102060004FF47A7100F1DCBC00F00EB808B500F056
:1020700027F8C0B208BD00BF4AF25063C0F20003A7
:1020800003EBC003587870474AF2645300EB8000BA
:10209000C0F2000303EB4003588800F00F007047C4
:1020A0004AF25063C0F2000303EBC003D8887047C4
:1020B0004AF25063C0F2000303EBC0039878704704
:1020C0004AF25063C0F2000303EBC003D8787047B4
:1020D0004AF24C63C0F2000323F81010704700BFAF
:1020E0004AF24C63C0F2000333F81000704700BF9F
:1020F00020291CD84AF25063C0F2000303EBC1024E
:10210000D38810B5B3FA83F400294FEA541408BFFA
:10211000002482B06CB911B9002002B010BD9478CF
:102120001946D3785278009402F046FAF4E7FF207B
:102130007047FF2002B010BD10B5C38B86B083B9C5
:1021400041690A8904938468039404690294B1F88C
:1021500000C000930CF08004019402F08DF906B0E9
:1021600010BD4AF25062C0F2000202EBC303DA88EB
:1021700012B9FF2006B010BD9988049181680469E6
:1021800003919978CDE90114DC7800215B78009403
:1021900002F072F906B010BD10B5044690F82000A8
:1021A00002F0D0FAFF2801BF4AF24C620021C0F2CF
:1021B000000251802046E28BBDE810400CBF432353
:1021C000402340F22111FFF76FBC00BF10B5044659
:1021D00090F8200002F0B6FAFF2812D002F0D2FAEE
:1021E00002289DBF49F68053C0F2000333F8103037
:1021F00000232046BDE81040002240F22311FFF7E3
:1022000053BC10BD00234FF491711A46FFF74CBC2C
:102210002DE9F0414AF24856C0F200061D463378D7
:102220000C46012B1746B0F81E800ED0EB1E012B7A
:1022300098BF236941469CBFDB1B2361204663682E
:10224000A584BDE8F041002218474AF25063CA8BCA
:10225000C0F200033AB103EBC2039B78802B16D087
:1022600000233370E2E79B78802BF9D14AF2505279
:1022700091F82030C0F2000203EB830352F82300F0
:102280000028EDD00A69896806F0D2FDE8E74AF235
:10229000505091F82030C0F2000003EB8303434418
:1022A0000A6950F82300896806F0C2FDD8E700BF2C
:1022B0000023C8F22003D3F82031C3F38103032B9A
:1022C0002AD010B58E4649F68851C0F2000151F867
:1022D0002330B2EBC30F4FEAC30415D24AF258734E
:1022E000C0F20003034403EB020C70B1ACEB00033B
:1022F00013F8011B11B1013903F8011C6345F7D133
:1023000072449442F444F1D810BD72449442FBD913
:1023100072449442F9D8F7E7704700BF0023C8F22F
:102320002003D3F834216FF30B027AB140F6FC732B
:1023300003EA81031A4306E0136823F01F0398425F
:1023400005D01A4613B11378DB07F5D5704703683B
:102350001360704738B50025C8F22005D5F8203144
:1023600023F00103C5F82031D5F82431D90458BF32
:1023700040F6B93402D50AE0013C2BD04FF47A7113
:10238000012000F14DFBD5F82431DB04F4D5002504
:10239000C8F22005D5F8203143F00203C5F82031FA
:1023A000D5F820319A0748BF002413D54FF47A712D
:1023B000012000F135FB40F6B932D5F82031013467
:1023C000C3F3400383F00103944208BF43F00103C9
:1023D000002BEBD038BD00BFF8B50025C8F22005B2
:1023E000D5F800311B0CB3F5887F01D0FF20F8BD74
:1023F000FFF7B0FF4AF65873FF210122C0F2000335
:102400001970D5F8203162F31743C5F82031D5F89B
:1024100008319807EAD50222D5F8203162F3830308
:10242000C5F82031D5F8203143F00103C5F820313B
:1024300000F060FE00F08EFE00F06CFE00F07AFE10
:1024400000F0ACFE4AF2587000214FF40062C0F276
:10245000000006F0E5FC00F0AFFEC5F83401D5F849
:10246000203143F01003C5F82031D5F82431590448
:1024700058BF40F6B93402D50AE0013CB6D04FF45B
:102480007A71012000F1CCFAD5F824315A04F4D540
:1024900000F098FE0028A9D001250246002437212B
:1024A0004379C8F2200443F0800365F342020060E0
:1024B00043710270C4F83801D4F8203143F020038E
:1024C000C4F82031D4F8203123F40063C4F820315B
:1024D000C4F82811D4F860312B43C4F86031D4F823
:1024E000046116F00F061EBF4EF6D5770025CFF615
:1024F000FF771CD0D4F864314FF47A713B4043F439
:102500008053C4F86431D4F8643164209B0648BF1A
:10251000D4F8643105F1010542BF23F02A0343F0EA
:102520002003C4F8643100F17BFAAE42E2D100200E
:10253000F8BD00BF08B5FFF70DFF00236FF03702AD
:10254000C8F22003C3F8282108BD00BF08B100204D
:10255000704738B50025C8F22005D5F864314FF42E
:102560007A7123F4957343F48073C5F864310A20BB
:1025700000F156FAD5F8643123F49573C5F8643147
:10258000D5F86431DA0548BF40F6B93402D40AE020
:10259000013C0FD04FF47A71012000F141FAD5F8D7
:1025A0006431DB05F4D44FF47A710A2000F138FA73
:1025B000012038BD002038BD0023C8F22003D3F825
:1025C0002031C3F38103032B1DBF49F68852C0F2AB
:1025D000000252F823000020704700BF0023C8F219
:1025E0002003D3F8383153B1834208D001211A684F
:1025F00061F342020260024661F342021A607047D0
:10260000002818BF03292DE9F0410CBF0125002542
:10261000002A08BF45F0010582B015B102B0BDE83F
:10262000F0810024C8F22004D4F82041C4F38104CE
:10263000032C1EBF49F68855C0F2000555F82450FA
:102640000024C8F22004D4F834616FF30B06002E86
:10265000E4D0072A4FEAD30E94BF0127D708AE452E
:10266000DCD206EB8E064FEA8708B4460CE02BB9A5
:10267000B4F84830C3F30D0393421DD3DCF80030A7
:102680001F2B23F01F0CC9D9DCF8004014F0010403
:1026900022D1DCF8004024F01F04A04225D0DCF851
:1026A0000030C3F34103012B12D0022BDFD1A38FE3
:1026B000C3F30D039342E1D20194DCF80030019C96
:1026C000C3F3410363F342040194019B036004E0FC
:1026D000A38EC3F30D03CFE704600190019B61F368
:1026E00042030193019BCCF80030BE44AE45464402
:1026F000BBD393E780EE901B40F98F07704700BF74
:10270000E0B138B503460BE01C682022184606F0FD
:1027100087FB00F0D1FD1F2C24F01F050DD92B469F
:10272000197811F00101EFD018462022002106F09F
:1027300077FBBDE8384000F0BFBD38BD704700BF33
:10274000002800F08E8038B50024C8F22004D4F8A8
:1027500038311F2B25D90568D4F8381125F01F030F
:1027600021F01F0183420A461CD00B68884208BF33
:1027700023F01F010B6808BF0A4623F01F0399428C
:102780000CD139E0984236D013681F2B23F01F027A
:1027900007D9136823F01F0399422DD01478E4075A
:1027A000F0D538BD8B42FCD1D4F8203123F400633E
:1027B000C4F82031D4F824315D0448BF002513D576
:1027C0004FF47A71012000F12BF940F6B932D4F8B8
:1027D00024310135C3F3803383F00103954208BFF0
:1027E00043F00103002BEBD000231A46C8F220036C
:1027F000C3F8382138BD15600025C8F22005D5F88A
:1028000020314FF47A7143F04003C5F820310120A4
:1028100000F106F9D5F824319B0648BF002413D5F2
:102820004FF47A71012000F1FBF840F6B932D5F887
:1028300024310134C3F3401383F00103944208BFF1
:1028400043F00103002BEBD000234FF22001C8F22C
:102850002003D3F82421C0F201010A40C3F8242147
:1028600038BD704758B3002310B5C8F22003D3F821
:102870002031C3F38103032B0CD049F68852C0F2F8
:10288000000252F823402CB10021FFF747FD01312F
:10289000A142FAD1818EC1F30D037BB1BDE8104096
:1028A0004379C28E03F03003202B14BF0520012092
:1028B000C1F30D01C2F30D02FFF7FABC10BD704762
:1028C000002842D0002310B5C8F22003D3F82031ED
:1028D000C3F38103032B0CD049F68852C0F20002E7
:1028E00052F823402CB10021FFF718FD0131A1421D
:1028F000FAD1B0F84820C2F30D0303B910BD00238C
:10290000C8F22003D3F82011C1F381010329F5D0C7
:1029100049F68854B0F84A30C0F2000454F8211047
:10292000C3F30D03B3EBC10F4FEAC10CE6D24AF279
:102930005871C2F30D00C0F20001CA5C0AB1013A3D
:10294000CA5403449C45F8D810BD7047A8B300236F
:1029500010B5C8F22003D3F82031C3F38103032B51
:102960000CD049F68852C0F2000252F823402CB134
:102970000021FFF7D3FC0131A142FAD1818FC1F3CD
:102980000D03CBB144F25D14836BCAF64C64BB33C8
:10299000A4FB0343BDE8104090F83D20DB0902F0A2
:1029A000C002402AC28F08BF02331846C1F30D018E
:1029B000C2F30D02FFF77CBC10BD704700232DE968
:1029C000F047C8F22003D3F820310546C3F3810352
:1029D000032B084622D18846E9B14FF0000CA846E7
:1029E0007DBBB8FBF0F300FB1388C44513D94AF252
:1029F0005873C0F200032B44444603EB0801CDB1E9
:102A00004B1B1A78013203F8012B8B42F9D1044495
:102A1000A4450144F4D84046BDE8F08749F6885201
:102A2000C0F2000252F823304FEAC30C0029D6D17D
:102A30008846DAE70444A445EDD90444A445F9D80E
:102A4000E9E74FF000084AF2587E4FF0FF39474659
:102A5000C5F1080AC0F2000E3C4600227E1964450A
:102A600006D223461EF80310034463450A44F9D3F3
:102A70000134B442F3D1914503D9B846002AB0D00D
:102A80009146012D03D007F00703534503D00137CA
:102A9000B842E1D8A5E7B042A3D93746DCE700BF8A
:102AA000F8B54CF20054C3F21804064604F5A065CC
:102AB00002E02834AC4249D0E3781F06F9D5A26879
:102AC000002AF6D0D27802F003010229F1D1616A1E
:102AD0000029EED003F06003202B38D091F8373076
:102AE000C86B5B06E5D54B7E13F00C0F18BF0022B8
:102AF0000B7E08BF012213F0400718BF42F002020C
:102B000013F0200F18BF42F0040213F0100F18BF8B
:102B100042F008021B072FD5E37823F08003E3700F
:102B20006FB9038923F4FE4323F07F039BB2B3F50F
:102B3000004F04D0CB6893F90830002BB9DB214655
:102B40003046283401F04EF9AC42B5D1F8BD02F060
:102B50000C02082A1ED091F83F305A06A9D58023CE
:102B6000CA68C8F200031340B3F1004FA1D1214657
:102B7000304601F0F1F99CE7002FE0D1038923F4FE
:102B8000FE4323F07F039BB2B3F5004FD7D0002A5A
:102B90008FD0CFE791F84B3058068AD5CB6D01EB3B
:102BA0008303DB79DB0984D12146304601F076F9D5
:102BB0007FE700BF0023C8F22003D3F8642192040A
:102BC00000F18E802DE9F041D3F864210746940688
:102BD00075D400230025C8F22003D3F86421C8F27D
:102BE0002005120748BFD3F86431D5F864319B073C
:102BF00001D4BDE8F08100264FF47A710A20D5F89F
:102C00006441FFF00DFFD5F8643104F0010403F0D6
:102C100001039C42EFD101360B2EEDD14AF65874D8
:102C2000D5F86431C0F20004DE07217813D4D5F85A
:102C3000643198040FD4FF29DBD0384601F00EFD33
:102C40004BF22813FF22C0F2000322703846BDE881
:102C5000F0415B681847FF293CD10025C8F22005E8
:102C6000D5F86431D907C4D5D5F86431C3F38123CD
:102C7000012B36D00020FFF769FC0028B9D0D5F829
:102C80006431DA07B5D5D5F864315B0729D501F091
:102C900043FB03460028ACD000254BF228111A68EC
:102CA000C0F2000122F0706222F07F0242F0206246
:102CB00025703846BDE8F0411A600B681847D3F814
:102CC0006431D90685D54BF22813C0F200039B6806
:102CD00098477EE7384601F0C1FCFF232370BCE72C
:102CE00070470022BDE8F041C8F22002D2F86431FA
:102CF0004FF47A7123F4005323F02A0343F4005372
:102D00003220C2F86431FFF08BBE00BF30B5002422
:102D1000C8F22004D4F8243183B05BB3D4F828314E
:102D200043B3D4F824310546DB0600F19380002438
:102D3000C8F22004D4F824315A0775D40024C8F20C
:102D40002004D4F82431980758D40024C8F2200471
:102D5000D4F824319A063BD40024C8F22004D4F8D5
:102D6000243118071ED40024C8F22004D4F82431DA
:102D7000DA0701D403B030BDD4F82831DB07F9D528
:102D8000002328461A461946CDE9003301F096FA89
:102D90004FF20103D4F82421C0F201031340C4F818
:102DA0002431E7E7D4F828311907DCD500230322C2
:102DB0001946CDE90033284601F080FA4FF20802A7
:102DC000D4F82431C0F201021340C4F82431CAE718
:102DD000D4F828319B06BFD5002305221946CDE93A
:102DE0000033284601F06AFA4FF22002D4F8243169
:102DF000C0F201021340C4F82431ADE7D4F8283101
:102E00009907C3F34002A0D5002328461946CDE90F
:102E1000003301F053FA0223D4F82421C0F21F0337
:102E20001340C4F8243190E7D4F828315B0785D5E6
:102E3000002302221946CDE90033284601F03EFA6C
:102E40004FF20402D4F82431C0F201021340C4F856
:102E5000243173E7D4F82831D9067FF568AF002311
:102E600004221946CDE9003301F028FA4FF210028E
:102E7000D4F82431C0F201021340C4F8243156E7DB
:102E800008B1FF2070474AF65873C0F20003187863
:102E9000704700BFA0B938B54AF65875C0F20005B2
:102EA0002B785BB90C4601F081FC034630B11A78EF
:102EB0002C7064F3060220461A7038BDFF2038BD1E
:102EC000FF207047E0B1C3781A0614D5426803F0BA
:102ED0006003202BD1B210D011F0400F12D0C2F3FA
:102EE000072202F00C020C2A05D111F03C0F0CBF96
:102EF0000620082070470820704711F0780F11D085
:102F0000072070472BB190F90130002B03DB012023
:102F1000704718467047D0E906329A4209D80AD25B
:102F20000420704790F90130002BB4BF1320142007
:102F30007047052070470320704700BFA0B90022EA
:102F4000C8F22002D2F8643123F4E00323F02A030C
:102F500043F4E003C2F86431D2F8643123F06A0329
:102F600043F04003C2F86431704700BF70BB10B536
:102F70000024C8F22004D4F86431180600D410BD2F
:102F8000D4F864315907FAD5D4F864314FF47A7122
:102F900023F4957343F480731420C4F86431FFF074
:102FA0003FFD03E0D4F864315B07E8D5D4F8643121
:102FB0004FF47A7123F06A03C4F864310120FFF002
:102FC0002FFDD4F864311A06ECD410BD704700BF51
:102FD000002834D038B5456A0446E5B1C37803F01B
:102FE0006003202B1CD0A86B50B3034604E01A6882
:102FF0001F2A22F01F0306D91A7A197822F08002BC
:103000001A72CA07F3D52B7E23F080032B76FFF7C5
:1030100077FB0023AB63E37823F08003E37038BDD4
:103020008368DB7803F00C03082B12D02B7B23F092
:1030300080032B73E37823F08003E37038BD70477F
:103040002B7E60F3C7132B76E37823F08003E370C5
:1030500038BDEB7AE97923F08003EB72EB7CEA7BF5
:1030600023F08003EB74EB7E21F0800122F08002DC
:1030700023F08003E971EA73E97DEA7FEB7695F846
:10308000233021F0800122F0800223F08003E975D3
:10309000EA7785F82330BEE7F8B54CF20056C3F264
:1030A000180600240746354604E00134202C05F1BB
:1030B000280514D004EB840206EBC203DB78DB099D
:1030C000F3D016F8323003F07F039F42EDD128464B
:1030D0000134FFF77DFF202C05F12805EAD13846A1
:1030E00000F074F9384600F0B3F93846BDE8F8400E
:1030F00000F0D2B908B501F07DF94AF680204FF40E
:1031000004620021C3F2180005F08AFEBDE8084001
:1031100001F072B908B501F06DF942F2001048F201
:1031200080120021C3F2180005F07AFEBDE80840C5
:1031300001F062B908B501F05DF942F200004FF408
:1031400080720021C3F2180005F06AFEBDE8084055
:1031500001F052B970B501F04DF94AF65C754AF2CA
:10316000802000214AF280244FF40062C0F2000562
:10317000C3F21800296005F053FE01F03DF9C3F2D7
:10318000180404F5006601F035F92B682C60236003
:10319000203401F031F9B442F5D170BD4CF2000396
:1031A000C0EF5100C3F2180303F5806243F9ED0A42
:1031B0009342FBD1704700BF4CF20000C3F21800ED
:1031C000704700BF10B54AF68024C3F2180401F01E
:1031D00011F904F5046202E04034944215D094F9E8
:1031E0003730002BF8DBC0EF1110C0EF100094F85F
:1031F0003730C4ED041B43F08003C4ED0E0B84F89C
:10320000373001F0F9F8204610BD002401F0F4F841
:10321000204610BD10B542F2001401F0EBF842F266
:1032200060010C4AC3F2180494F94B30002B07DA02
:103230000C449442F8D1002401F0DEF8204610BD81
:1032400094F84B3043F0800384F84B3001F0D4F80D
:10325000204610BD80A2183010B542F20004C3F21F
:10326000180401F0C7F804F5807294F93F30002B80
:1032700007DA40349442F8D1002401F0BDF820462A
:1032800010BD94F83F3043F0800384F83F3001F0E4
:10329000B3F8204610BD00BF10B501F0ABF84AF6F8
:1032A0005C73C0F200031C680CB122681A6001F064
:1032B000A3F8204610BD00BF10B5044601F09AF8EF
:1032C0004AF65C73C0F200031A681C602260BDE815
:1032D000104001F091B800BF30B5134C054604F51D
:1032E000006E002002E0403474451AD094F937C0D3
:1032F000BCF1000FF7DA94F804C00CF07F0CAC4579
:10330000F1D194F805C00CF00F0C8C45EBD14BB10A
:1033100094F835C0B2EB9C1F08BF2046403474457A
:10332000E4D130BD2046DEE7C0AA183042F20013D7
:1033300030B5054642F2600E0020104CC3F218036F
:1033400093F94BC0BCF1000F03DB7344A342F7D1E8
:1033500030BD93F824C00CF07F0CAC45F5D193F848
:1033600025C00CF00F0C8C45EFD193F829C0CCF39D
:10337000C00C944508BF1846E7E700BF80A218308C
:1033800042F2000310B504460020C3F2180303F50F
:10339000807E93F93FC0BCF1000F03DB40337345DF
:1033A000F7D110BD93F804C00CF07F0CA445F5D103
:1033B00093F805C00CF00F0C8C45EFD193F807C0C3
:1033C000B2EBDC1F08BF1846E8E700BF70B5124C2F
:1033D000064604F5006502E04034AC4217D094F98B
:1033E0003730002BF8DA237903F07F03B342F3D1AF
:1033F000A38E2046C3F30D0353B9FFF7A1F920466E
:1034000040220021403405F00BFDAC42E7D170BDF5
:10341000FFF728FAF3E700BFC0AA183098B190F977
:10342000373010B5002B044600DB10BD838EC3F38C
:103430000D034BB9FFF784F92046BDE81040402248
:10344000002105F0EDBC7047FFF70CFAF4E700BF70
:10345000F8B542F2001442F2600607460D4DC3F281
:10346000180494F94B30002B03DB3444AC42F8D100
:10347000F8BD94F8243003F07F03BB42F5D1204619
:10348000FFF71EFA42F260020021204605F0C8FC58
:10349000EBE700BF80A2183070B542F20004064688
:1034A000C3F2180404F5807594F93F30002B03DB58
:1034B0004034AC42F8D170BD237903F07F03B342AE
:1034C000F6D12046FFF742FA40220021204605F0BF
:1034D000A7FCEDE72DE9F04FC2780646C2F3411391
:1034E0008FB0032B0ED8DFE803F01002100200F0BB
:1034F00027FFB38960F30D03C3F30D02B381002AE4
:1035000040F036810FB0BDE8F08F838902F060058E
:103510006FF30D03202D838100F0438196F9013074
:10352000002BB5BF002701274FF001094FF000091C
:10353000002D00F0A381D6E9053500249A46AB465C
:10354000002D00F08E82012304930023029348F69D
:10355000807E4FEA092949F44869CFF6FF7E059736
:10356000CDF804905F46D1464FF00008B346F246CE
:103570000394FFF791FEC9F30B052646A5F5A04C71
:103580000446C5F5A045002800F06C81BBF8021088
:10359000C1F30A01B5FBF1F201FB1252AD1ABD42B3
:1035A00094444FF000014FF0200223BF3D46DDF868
:1035B00010800027674405F033FC0122019B227034
:1035C000227143EAC832029B42EA054242EAC372D0
:1035D00009F5805102EA0A026FF30B01A260B9F10A
:1035E000000F12D0CDE9069101F58052089201F545
:1035F00000520992DDED060BDDED081B01F540518F
:1036000004F10C0242F98F0AE161A944002E00F096
:10361000248130462146FFF76DF8002FA9D19BF891
:1036200003205E4612F0600F059F25D1FFF734FEA0
:103630000546002800F01A832022002105F0F0FB47
:1036400048F6804347F27F0220462C46A968C8F21C
:103650000003C7F6FF720A4043EA07231343AB6037
:103660002B78294643F001032B702B7943F001039B
:103670002B71FFF73FF8F27871783078C2F341137D
:1036800000F07F00CA0901F00F01FFF725FE054693
:10369000002800F09E82F378039A03F06003602B09
:1036A0007062C0E90E2400F0DF810020D6F808C067
:1036B00000249CF80310B6F802E072783778C1F362
:1036C0008109264607F07F0701F00C0102F00F0880
:1036D0006EF31A44002B00F0628166F38E3469F3B6
:1036E0000D3468F30B24082918BF334667F306042A
:1036F00014D04FF440419CF8027063F3DB649CF8F3
:10370000013007F07F0703F07F03CFF6FF7101EA76
:10371000164143EAC7130B4363F31F46039B012182
:10372000002B08BF01232B616B7961F39F76DB09C6
:1037300063F3CF342B7E6961590648BF23F0400301
:10374000696B48BF2B76D3099B0321F0804243F07D
:10375000804322F4404213436C60AE606B630028E8
:103760003FF4D0AE28460FB0BDE8F04FFEF736BFAD
:10377000FEF722FFB389C3F3CA02824283BF194610
:10378000C0F30D03DB00F27882BFF278C3F30D03C0
:1037900063F30D0102F0600588BFB181202D7FF435
:1037A000BDAEB269002A3FF4ADAEB368DB7803F07A
:1037B0000C03082B40F09380B189C1F30D01B3FBDA
:1037C000F1F3B2EB832F3FF69DAE71783078CA09E2
:1037D00000F07F0001F00F01FFF7A8FD044600286C
:1037E00000F0678270624FF00808B4F84830B5699D
:1037F000C3F30D03B8FBF3F3002B00F0E7820027BF
:10380000606D12E004EB8002A2F80690B4F8483034
:103810000137C3F30D03B8FBF3FC1844002D00F08F
:10382000B3816745606580F0B381738894F849205F
:10383000C3F30A03AB42994628BFA9463F2AA5EB2A
:103840000905DFD8716904EB80204A4607FB0311A4
:10385000603005F0EDFA606DD4E70394002F7FF43B
:1038600088AEDCE60398FEF74BFF9BF8033064F369
:10387000C7138BF803300FB0BDE8F08FFFF70CFDD6
:103880000446002800F0698129462022356905F0A8
:10389000C7FA4FF27F03A268C8F20003134043F453
:1038A000002343F46863A360237843F0010323708B
:1038B000237943F001032371002D58D1D6E905ABDC
:1038C000F2785D4612F0600053467FF437AEBBF1EC
:1038D000000F00F0E28101230490029337E6717833
:1038E0003078CA0900F07F0001F00F01FFF748FDB2
:1038F0000446002861D070627378B5697069DE098A
:1039000040F2FF33AB4228BF2B46BB2D19464FF088
:10391000010204D9BC3BBB2B02F10102FAD86FEAC9
:1039200041436FEA5343002120616FF30B0000F520
:10393000805023F4F843E1606061E38166B9BC2DF7
:1039400094BF00250125217D42EAC50321F01F0116
:1039500003F01F030B43237594F83F20237B42F0B1
:10396000400243F0800384F83F202373CAE50A95A0
:1039700005F580556FF30B0505F580530C9305F5A0
:1039800000530B950D93DDED0A0BDDED0C1B05F5DA
:10399000405504F10C0343F98F0AE5618EE744F4C6
:1039A000804469F30D3468F30B24082918BF012300
:1039B00067F306047FF49DAEB0E6FFF74DFC0446C6
:1039C000002800F0CA8044F25D137088CAF64C6388
:1039D000C0F30A00BB30A3FB003096F901207462EB
:1039E000002A4FEAD01000DA0230B189C1F30D018C
:1039F000FEF7E4FF4FF2FF024FF0010C7578B1685B
:103A000005F00F030746E8094D78897805F07F0532
:103A10001B0243EA054301F07F0143EA0163616849
:103A2000C0F280020A4043EAC07313433278B6F80A
:103A300002E0C2F306026360CEF30A0E62F30603ED
:103A40002371614673466546002B00F0E780BB2B6F
:103A500005FA0CF240F2E280BC3B11430CF1010C80
:103A6000F2E703942C4607E6EF8E0021C7F30D071B
:103A70003B464CF2FF007488327895F80480C4F31A
:103A80000A04D6F808C095F80B90C2F306024FEA74
:103A9000A42E62F306080EF1010E72786EF38719F8
:103AA0009CF803E002F00F021202CEF3810E85F8BB
:103AB000048042EA0E3242EA04426C68CFF600000B
:103AC000204085F80B900243B0896A60C0F30D0274
:103AD000072A03F0070445D949F6A450C0F20000B4
:103AE000005D28729CF8030000F00C00082817D035
:103AF00049F6945E9CF801009CF8028000F07F007B
:103B000008F07F0C40EACC10B5F80AC0C0F2000EF5
:103B10006FF30D0C40EA0C0068811EF80400687217
:103B2000012074786861E409686B42EA843400F02B
:103B3000404044EA07440443687E6C6340F00C0054
:103B40006876002940F09A8095F83730AA6B43F0E8
:103B500040032A6185F83730D4E4F37823F08003FA
:103B6000F370CFE4C0F30D00042800F08D8002282C
:103B700003BF49F69C5003F0010EC0F20000FF2085
:103B800008BF10F80E00ACE7517941F08001517187
:103B9000B4F84A5094F84B20C5F30D0542F04002AA
:103BA000656584F84B20BCF1000F10D00020A16D9A
:103BB00004EB8106F2880130C2F30B0222B1F279E4
:103BC00042F08002F271E16560451944F0D3A565C9
:103BD00098E4FFF7F7FA0546002847D0D6F808C062
:103BE000F378039A706203F0600382639CF8032009
:103BF000602BC46302F00C0218BF01207FF458ADA3
:103C0000B189082AC1F30D0114BF05200120FEF778
:103C1000D5FE01210346C0F30D072AE796F90130CE
:103C2000002B3CDB0023B940CAB200252272B289C6
:103C30006372E36BC2F30D02C3F6FF7503F0404CF1
:103C4000C4F838E0237E42EA803E05EA074545EAAB
:103C50000E0543F0010345EA0C05237602212046B8
:103C6000C7F30D03E563FEF7CBFC45E60398FEF7CB
:103C700047FDF37865F3C713F37043E42846C3F3B5
:103C80000D03FEF7BDFC5FE749F6A05003F0030EFD
:103C9000C0F2000010F80E0023E70394C6E449F6D2
:103CA000A452BB1C01FA03F3C0F20002D25DDBB2E6
:103CB000BBE7FFF7AFFA054600283FF44EAFB189E6
:103CC0000120C1F30D017562FEF778FE4FF47048D4
:103CD000034680EE900BA44605F16002CFF6FF7814
:103CE00002EA080105F50159696209F12009114646
:103CF000C2F30B0702F580625140B1F5805F0CF012
:103D0000070A0CF1010E05EB840028BF5FFA8EFC58
:103D100047EA0A37878028BF05EB8C0102EA0800D2
:103D200028BF48624A4504F10104E0D1727895F851
:103D30002500C2F3030262F3030085F82500327800
:103D400095F82410C2F3060262F30601747885F830
:103D5000241000214FF0010C084695F82920E409B1
:103D600064F3C30285F82920B289AF6CC2F30D0257
:103D7000C3F6FF7142EA843401EA034107F0404789
:103D800021433943B6F80280A96495F82C10B5F8A0
:103D900028E06CF3010185F82C1068F30A0E05F198
:103DA0005401A5F828E0C8F2200041F98F07EB651F
:103DB000D0F82C1101F007010729F9D1002128467C
:103DC000C3F30D03FEF71CFC746A0CE5B4F84A500B
:103DD00094F84B30C5F30D0543F04003656584F856
:103DE0004B30F4E62DE9F0414E6ACB780546B06BD6
:103DF00013F0600F14BF034603680C4608BF23F09E
:103E00001F035A898969C2F30E0291423BD3F76BB3
:103E10000BE01A7812F0010C0BD11B6823F01F0382
:103E20005A89C2F30E0291422DD39F42A1EB0201A7
:103E3000EFD1B369E1616360FEF762FC002296F89E
:103E40003730204662F3861386F83730B263FFF7C7
:103E500039F8E378074613F0600F16D04BF22816B6
:103E6000E278C0F2000622F08002E27022783B463F
:103E700002F07F02EA83D4E9072134692846A44688
:103E8000BDE8F04160470021D3E72046FFF71AF86C
:103E90000628E3D13046FFF7C1FADFE791F9013098
:103EA0002DE9F047002B0C4606464F6A34DB8B6940
:103EB000CB610025FB6D656007EB8303DA7921791F
:103EC000C2F30013C2F3401CDB0043EA0C13C2F33D
:103ED000801C43EA4C1302F0800201F047011343B7
:103EE0000B43237197F84B30204665F3861387F810
:103EF0004B30FEF7E7FF4BF22812E178C0F20002E8
:103F000065F3C71115690346E170D4E9072130460E
:103F1000AC46BDE8F047604700254B6907F16008F3
:103F200004E00135082D08F58068C2D007EB85094B
:103F3000B9F80620C2F30B02002AF2D04146184617
:103F400004F076FF0346B9F80620E169C2F30B02DC
:103F500011441344E161E4E74B6A8A6970B50C4689
:103F6000D9890546C1F309018A4234BF0022521A99
:103F7000D968E261616093F83F20204622F0400258
:103F800083F83F20FEF79EFF4BF22811E278C0F243
:103F90000001034628460D6922F08002E270D4E950
:103FA0000721AC46BDE87040604700BF4CF60022D8
:103FB000C3F2180238B592F90330002B11DA1378E6
:103FC00080B203F07F0181420BD1154643F080019E
:103FD000117005F58C7435B90134B4F58E7FFBD1C1
:103FE00038BD0025F5E705F58E75207828B9013430
:103FF000AC42F5D020780028F9D00134FFF7D6FF85
:10400000A542F2D138BD00BF2DE9F0418EB030227B
:10401000002102A804F004FF002201A9104603F0C9
:1040200097FE28B94AF67874C0F20004E36813B921
:104030000EB0BDE8F08100F027FCA36803F1240274
:1040400054F822605A1C202A28BF0022E018191DAB
:10405000443354F82380E36890F99071013B54F89D
:104060002150A260E360019C00F00CFC062FDFD819
:1040700001A353F827F000BF9540000095400000D1
:104080009D40000031400000314000003140000000
:10409000A54000002046FEF703FDC9E72046FEF7D5
:1040A00089FDC5E7434632462946204602F058FBC3
:1040B000BEE700BF0021F8B54BF23C164BF24014AE
:1040C0004AF674750B46C0F200063288C0F200044E
:1040D00002EB420204EB021484F82010C0F2000547
:1040E0002A88C8F2200342F480622A80DA685006E7
:1040F00031D51A6951062ED54AF66C7C4AF668709D
:104100004AF664714AF670729F6CC0F2000CCCF8EB
:104110000070DF6CC0F200000760D3F86401C0F2E9
:1041200000010860596DC0F2000211605A6DD2079B
:1041300038D5204601F0B4FF2046FEF7E7FD33886E
:104140002A8801339BB20F2B08BF002322F4806220
:104150002A803380F8BD0023C8F22003D3F824213D
:104160005107E6D5D3F828215207E2D55B6DDB076E
:10417000DFD44AF200634AF66077C0F20003DB88BE
:10418000C0F20007092B03D13B8801339BB23B806F
:104190003B889BB2012BCCD94220FDF761FF002365
:1041A0003B80C6E79A6C12F4007F9A6C1DD1D7054C
:1041B00066D40023C8F220031A6D42F001021A658A
:1041C0005A6D42F008025A65D3F8642142F4005255
:1041D000C3F86421D3F8642122F40052C3F86421A7
:1041E0001A6D42F480321A65C3E7D00523D4002348
:1041F000C8F220039A6C22F400729A641A6D42F09D
:1042000001021A655A6D42F008025A65D3F864211A
:1042100042F40052C3F86421D3F8642122F400521E
:10422000C3F864211A6D42F480321A659A6C42F424
:1042300000729A649DE7DA6C120C012AD7D19A6C4D
:1042400022F400729A645A6D42F400725A655A6DF3
:1042500042F008025A65D3F8642142F40052C3F8D0
:104260006421D3F8642122F40052C3F864215A6D0A
:1042700042F480725A659A6C42F400729A6478E74C
:10428000DA6C120C012A94D15A6D42F400725A650C
:104290005A6D42F008025A65D3F8642142F4005284
:1042A000C3F86421D3F8642122F40052C3F86421D6
:1042B0005A6D42F480725A655BE700BF8C4670B558
:1042C0004AF6787E014600200CEB4C0CC0F2000E42
:1042D0000CEBCC0C0EEB0C1465686E1C202E28BF6A
:1042E000064605EB8C0C254485F89021E268666053
:1042F0000132E2600CF104024EF82230049A0CF113
:1043000024034EF82320059B0CF1440C4EF82C306E
:10431000BDE8704003F032BD08B54CF60023C3F28F
:10432000180393F90320002AB8BF002007DB4FF4DD
:1043300092720021184604F073FD8022C27008BDFD
:1043400070B585680023467805F1180E03E01278F1
:104350001344FF2B27D80EEB030251780529F6D121
:10436000D17890F803C001F00301CCF341148C42E2
:10437000EDD1917886EA01042406E8D401F00F011A
:1043800006F00F048C42E2D1CCF34110012893795E
:104390000BD0032807D1EA7802F00C02082A18BFD4
:1043A000D8001BD070BD002070BDEA7802F00C026E
:1043B000082A0CD0EA88B2F5007F18D1013B16D04C
:1043C000013B02464FEA4000FAD1100170BD013BAB
:1043D000E8D0013B4FEA4000FBD170BD013B4FF0FC
:1043E0000100DFD0013B4FEA4000FBD170BD082047
:1043F00070BD00BF704700BF704700BFC8B308B5AD
:104400000368A3B3436893B3836883B3036973B347
:104410004BF2281E8446C0F2000EBCE80F00AEE846
:104420000F004AF67870DCF800304FF4D8720021A3
:10443000C0F20000CEF8003004F0F2FC4CF2005064
:104440004FF4A0620021C3F2180004F0E9FC4CF61E
:1044500000204FF492720021C3F2180004F0E0FC37
:10446000FDF7BAFF18B901F0E5FC00B908BDFF205F
:1044700008BDFF20704700BF2DE9F0474CF2005403
:10448000002582460E4691469846089FC3F21804BE
:1044900004E00135202D04F128045FD094F903C015
:1044A000BCF1000FF5DB28220021204604F0B8FC07
:1044B0004CF20043C3F2180303EBC50009F07F057B
:1044C00045F0004520612560B9F1000F49D04CF658
:1044D0000022C3F21802D1780B063BD513781FFADD
:1044E00089F903F07F034B4534D192F90030A26083
:1044F000002B2FDB4FEA082303F4706E0A9BC4F8ED
:1045000020A0A3610B9B6361099BB3F1000C18BF52
:104510004FF0010C4EEACC334FEA477C0CF0C04C14
:1045200043EA0C032B43236017B3013F022F9FBFC5
:1045300063880C9961F30A036380D37803F0030363
:10454000012B2FD0022B02D12046FEF7C3FF002003
:10455000BDE8F087E37823F08003E370FF20BDE837
:10456000F0874AF67673C0F20003B3F80090AEE726
:10457000431E06F1080516F8010BAE4203F8010FC1
:10458000F9D1D37A9BB901F00C0104290CBF0821A1
:104590004021638861F30A036380D37803F0030347
:1045A000012BCFD12146002002F06EFDCFE76188BC
:1045B00063F30A016180C0E74CF2005C70B5C3F29E
:1045C000180C15460646049C0CF5A06203E00CF19D
:1045D000280C94453CD09CF903E0BEF1000FF6DABC
:1045E0009CF800E0003C0EF07F0E18BF01248E45C1
:1045F000EDD19CF801E00EF00F00A842E7D1B4EB3A
:10460000DE1FE4D19CF80300C0F341109842DED1D4
:10461000DCF82430E3B14CF60022C3F21802D37860
:10462000180612D5107800F07F0088420DD103F0F3
:104630000303022BCCF808200BD0012B08D1304605
:10464000BDE87040614603F00BBA0023CCF8083097
:1046500070BD6046BDE87040FEF7BABC70B54CF660
:104660000024C3F2180494F90330002B11DA2278E5
:104670008BB202F07F029A420D460AD106460846E6
:10468000FFF794FCE37803F00303012B0BD0022B1C
:1046900000D070BD2846FEF7FFFC29463046BDE835
:1046A000704000F01FB800242146C8F2200463685F
:1046B000304643F0C003636001F07CFF00213046C8
:1046C00000F010F82946304601F074FF29463046C4
:1046D00000F008F8636823F0C00343F080036360D0
:1046E00070BD00BFF8B54CF60024C3F2180494F96D
:1046F0000330002B12DA237803F07F038B421EBFB6
:1047000004F21713002004F21B1408D013F8012F31
:104710008A4204BF18701871A342F7D1F8BD05464C
:1047200004F2171604F21B1716F8011F31B9BE4226
:10473000FAD1E37823F08003E370F8BD2846FFF751
:104740008DFFF4E710B50446FEF79AFBFF2800D072
:1047500010BD2046BDE8104001F0D8BC38B54AF67F
:104760007673C0F200030C4605461980FEF792FBF3
:10477000FF2800D038BD21462846BDE8384001F06A
:10478000D1BC00BF4CF60023C3F2180393F90320F9
:10479000002A08DA1A7802F07F02824203D1D87820
:1047A000C0F381007047FF20704700BF4CF6002324
:1047B000C3F2180393F90310002907DA197801F0FE
:1047C0007F0181420CBF18460020704700207047CF
:1047D00010B5044690F82000FEF752FBFF2894F82D
:1047E00020000AD0FDF7B2FE4BF22813C0F20003FE
:1047F0002046BDE81040DB68184701F087FCFF2821
:1048000000D110BD94F8200001F0A8FCECE700BF37
:1048100010B50446FEF734FBFF28204603D0BDE860
:104820001040FEF78BBB01F071FCFF2800D110BDDA
:104830002046BDE8104001F0BDBC00BF10B50446E5
:10484000FEF71EFBFF28204603D0BDE81040FEF710
:104850008DBB01F05BFCFF2800D110BD2046BDE8F8
:10486000104001F0AFBC00BF0022C8F22002D16BA3
:1048700030B1D36B9942FCD00138D16B0028F8D10C
:10488000704700BFFCF774BEFCF7DEBE0023C8F221
:104890002003D3F80422D00706D5D3F8042242F02F
:1048A0000102C3F80422704712F0060F0BD1110762
:1048B00000D57047D20642BFD3F8042242F010025E
:1048C000C3F804227047FFF7F5BB00BF0020704714
:1048D00010B4019C6078052827D1E07800F003002F
:1048E000022819D0032820D194F802C0A0791CF026
:1048F000800F1ED10A2A18D0942A16D100286AD017
:10490000C02B00F08A80B0FA80F2C2F11F0248F298
:104910001003092092B225E094F802C01CF0800F29
:1049200018D10A2A4FD0942A2ED000205DF8044BCB
:1049300070470A2A36D0942AF7D1002858D0C02BC5
:1049400073D0B0FA80F2C2F11F024FF40043092085
:1049500092B207E00A2A1CD0942AE6D100224FF432
:10496000854309200CF00F0C43EA0C0C237943EA31
:1049700001336179029C43EA0123A4F800C0E2807C
:10498000A3805DF8044B7047002244F210230920F5
:10499000E8E7022931D800224FF48543012000299D
:1049A000E0D1C2E7022930D80029BED0002844D087
:1049B000C02B64D0B0FA80F2C2F11F024FF4004362
:1049C000062092B2CEE702290AD8002244F2102330
:1049D0000029C7D1A9E7024648F210030920C1E720
:1049E000032902BF002244F210231F20BAD09CE703
:1049F00002464FF400430920B4E7032902BF002216
:104A00004FF485430F20ADD08FE703298DD1C8B96E
:104A100002464FF400432F20A4E708281DD8421E69
:104A200048F21003092092B29CE708281AD8421EC7
:104A30004FF40043092092B294E702464FF400433A
:104A400006208FE7C02B12D0B0FA80F2C2F11F020D
:104A50004FF400432F2092B284E7072248F210035C
:104A600009207FE707224FF4004309207AE708284E
:104A70000DD8421E4FF400432F2092B272E708284F
:104A80000AD8421E4FF40043062092B26AE707227A
:104A90004FF400432F2065E707224FF40043062020
:104AA00060E700BF4AF264534FF4704C00B54FF01A
:104AB000000EC0F2000300EB800000EB800203F167
:104AC0005A00090303EB820300EB8200CFF6FF7C60
:104AD0005A89012A08D11A8A0CEA0202914204BFBB
:104AE000C3F80AE0C3F810E00A338342F0D15DF85E
:104AF00004FB00BF704700BF38B54BF21C4490F870
:104B00002030C0F2000434F813206AB14BF2184C84
:104B10000546C0F2000C5CF82330002198470022C3
:104B200095F8203024F8132038BD00BF704700BF2F
:104B3000134640F223110022FCF7B6BF42694FF43E
:104B40009271838C1289FCF7AFBF00BF0000000098
:104B5000F0B5042A00F29980DFE802F00390724970
:104B600003004CF6A46C4CF6746EDFED490B90F824
:104B700020304CF6606203EB830503EB43042B46C5
:104B8000C3F2180CC3F2180EC3F2180202EB830230
:104B90000CEB45050EEB041345F94F079A6044F6FC
:104BA0003D3480270026012590F82020C0F2000423
:104BB00002EB42030EEB03135C6002EB82040CEB8E
:104BC00044042181E18883F829701961C16ADE8378
:104BD0009D8483F820205C61D96290F8200000EB6E
:104BE00040000EEB0010BDE8F040FDF7A5BA4CF612
:104BF00060534CF6A46C4CF6746E4FF4D06690F88B
:104C00002040C3F2180C04EB840204EB4405C3F209
:104C10001803C3F2180EC0F200264CF8126003EB22
:104C200004230EEB0514A3605B880027B3F5807F97
:104C300028BF4FF480730CEB42029780D380AEE71D
:104C40004CF6A46C4CF6746E4CF66053DFED120B10
:104C500090F82020C3F2180C02EB820502EB42040C
:104C6000C3F2180EC3F2180303EB02230CEB450545
:104C70000EEB041245F94F07936090E74CF6A46CD5
:104C80004CF6746EDFED060B71E7F0BDAFF30080FC
:104C900080060001000014008006000200000900E8
:104CA00080060001000012002DE9F0434CF6746507
:104CB0004FF0800944F63D364CF6A46C4FF4A067E3
:104CC00000244FF0010890F820E0C3F218050EEB25
:104CD0004E0305EB031383F82990C0F200065E60D3
:104CE000C66AC3F2180CDE620EEB8E062CF8167044
:104CF0000CEB4606A3F82480DC839C601C6183F8DF
:104D000020E05E6190F82000728000EB4000B480EB
:104D1000F480318105EB0010BDE8F043FDF70CBADB
:104D20002DE9F0434CF674654FF0800944F63D36AA
:104D30004CF6A46C4FF4106700244FF0010890F873
:104D400020E0C3F218050EEB4E0305EB031383F8C6
:104D50002990C0F200065E60C66AC3F2180CDE62DB
:104D60000EEB8E062CF816700CEB4606A3F824808A
:104D7000DC839C601C6183F820E05E6190F8200079
:104D8000728000EB4000B480F480318105EB0010AC
:104D9000BDE8F043FDF7D0B94CF660324CF6243C48
:104DA000F8B54CF6303E0024802790F82030C3F24E
:104DB0001802C3F2180C02EB432503EB83020CEB41
:104DC0004202D688C3F2180E03EB43020EEB021226
:104DD000C2E9011582F8203003EB83030CEB430397
:104DE00082F829701661D483536190F82030C16A2B
:104DF00003EB43020EEB02121046D162FDF79CF961
:104E00002046F8BDF0B54CF624354FF4D067B2F526
:104E1000007F0E464FF0000E194688BF4FF4007316
:104E200090F820C0C3F218050CEB8C04C0F20027E8
:104E300045F8147005EB4404A4F804E0268188BF0B
:104E4000E38001D8E280AAB14CF660360022FF2749
:104E5000C3F2180606EB4C2C0CF8027090F820C038
:104E600001320CEB8C0E05EB4E0EBEF806E094B250
:104E7000A645EFD8BDE8F040FFF78EBF0000000068
:104E80004BF220432DE9F047074690F820204BF2E3
:104E90001444C0F2000353F822300846B3F82280CD
:104EA0000D46FDF71DF997F82020C0F2000434F8F4
:104EB00012300646012B63D0022B1AD0E3B944F618
:104EC0003D33294609223846C0F20003FFF79AFF16
:104ED0004AF2DC5397F82010C0F2000334F8112096
:104EE000013224F8112033F81630502B0CD0BDE8D5
:104EF000F087B8F1000F4FD04AF2DC53C0F2000344
:104F000033F81630502BF2D14AF2CC5A97F82010D1
:104F1000C0F2000A3AF81130002BE8D04AF20064DF
:104F20004BF21C484AF2E05900250136C0F2000459
:104F3000C0F20008C0F2000907E03AF8112001357C
:104F4000ABB29A4204F14804D1D96388B342F4D198
:104F50000022E36911463046984740F2052397F84E
:104F600020C038F81C209A4222D05022638803EBDC
:104F70004C0309EB03135A80A28097F82010DCE75A
:104F8000B8F1000FB8D14CF66033C3F2180303EB4D
:104F90004223DB799B061AD4FFF73AFC4AF2DC5332
:104FA000502197F82020C0F2000323F812109AE74E
:104FB0004BF21843C0F2000353F82C30002138465E
:104FC0009847002397F820C028F81C30CDE74CF60E
:104FD0002433DFED090B44F63D3102EB8202C3F2CC
:104FE000180303EB4203384643F94F07C0F20001B0
:104FF0001D81FFF7D1FE6BE70003010000000000F8
:105000004BF220432DE9F04F4BF2104490F820B0C2
:10501000C0F2000353F82B30C0F200045A8C34F86D
:105020001B300746012B83B074D0022B19D06BB90B
:1050300044F63D330922C0F20003FFF7E3FE97F880
:1050400020B034F81B30013324F81B304AF2DC5313
:10505000C0F2000333F81B30462B0BD003B0BDE881
:10506000F08F002AF2D14AF2DC534622C0F200034C
:1050700023F81B204AF2CC59C0F2000939F81B3042
:10508000002BEBD04AF2E05C4BF21C404AF2006885
:10509000C0F2000CC0F200000025CDE9000CC0F207
:1050A000000807E097F820B039F81B200135ABB2B3
:1050B0009A42D3D90BEBCB0405EBC503E40004EB18
:1050C0008304444461884FEACB0601294FEAC50AAC
:1050D000E8D100223846236A98474FF0460C40F248
:1050E000072197F820306288019802EB430200EB19
:1050F0000212A2F802C0009A32F813208A4223D08A
:105100005E449B464623AA44F60006EB8A064644C4
:10511000B380C9E7002A99D14CF66033C3F2180373
:1051200003EB4B23DB799B069DD544F63D33FF22F1
:10513000C0F20003FCF7DCFC97F820B034F81B3019
:10514000013324F81B3081E74BF21844C0F200040D
:10515000002154F8233038469847002297F8203031
:10516000009921F81320CBE72DE9F0470D4690F880
:1051700020C01946002A3BD04CF660374FF4007926
:10518000C3F2180702F5407307EB4C22D4789278EB
:105190009BB24FEA4C2E42EA04224CF624364FF4DE
:1051A000D06A00244FF0FF080CEB8C0CC3F21806F9
:1051B00026F81CA006EB4C0CACF80420ACF80690CA
:1051C000ACF80230ACF80850BE440EF8048090F8F9
:1051D00020C001340CEB8C0206EB4202D288A5B24F
:1051E000AA424FEA4C2EEFD8BDE8F047FFF7D4BDF6
:1051F0004CF660374FF004094FF440734FEA4C2EE1
:10520000C3F21807C9E700BF2DE9F04F99B0FEF7C8
:10521000FBFE42F2107201200EA902F099FD002857
:105220004DD14BF220431A460E9CC0F20002A38BD4
:1052300094F82070B3F5927F3E46B4F81E80029237
:1052400042F827403ED9A3F20222072A33D8A3F21C
:105250000323062B00F2B885DFE813F0C700DE0059
:105260001A01F50049018000C1004AF2DC5E4FF0EE
:105270000A0944F6313200234BF2184C4BF21C461B
:1052800040F203282046C0F2000EC0F2000CC0F22B
:1052900000062EF81790C0F200024CF8271026F8EE
:1052A0001780A18B00921A46FCF7D0FB94F82030AF
:1052B000029A52F823402146012002F0B9FD19B0AC
:1052C000BDE8F08FB3F5827FF5D96FF48272134495
:1052D0001F2BF0D801A252F823F000BF5155000057
:1052E000B7520000B7520000B7520000B75200009A
:1052F000B7520000B7520000B7520000B75200008A
:10530000B7520000B7520000B7520000B752000079
:10531000B7520000B7520000B7520000B752000069
:10532000B7520000B7520000B7520000B752000059
:10533000B7520000B7520000B7520000B752000049
:10534000B7520000B7520000B7520000F3560000F9
:1053500059560000DD5500006555000040F2051368
:105360004046A383FCF7BCFE4FF6FF72904215D077
:105370004AF2DC5167264BF210420025C0F20001D0
:1053800021F8106094F82030C0F2000222F8135087
:10539000FFF754FA2046E18BFFF732FE4BF218423A
:1053A0004BF21C434FF4027594F820006668C0F27B
:1053B0000002C0F20003B8F1010FA18B42F8206097
:1053C00023F810507FF47BAF44F631350023C0F250
:1053D000000520461A460095FCF738FB6FE741466A
:1053E00020466268FCF7C8FB69E740F20713B8F192
:1053F000010F6168A3833FF438AF4BF218434BF2BF
:105400001C4240F20320C0F20003C0F2000222F866
:10541000170043F827104EE74FF48473B8F1010FDB
:105420006168A38300F056824BF218434BF21C4292
:105430004FF40170C0F20003C0F2000222F817001E
:1054400043F8271037E74FF483734046A383FCF7F4
:1054500047FE4FF6FF73984213D04AF2DC5266269D
:105460004BF21443002594F82010C0F2000222F8F9
:105470001160C0F2000323F811502046E18BFFF7C2
:10548000FFFC4BF218424BF21C4340F206258BE71F
:105490004FF483714BF218424BF21C4340F2052546
:1054A0006668C0F20003C0F200024046A18323F800
:1054B000175042F82760FCF713FE4FF6FF7398422F
:1054C0003FF4FDAE4AF2DC5266214BF21443002653
:1054D00094F82050C0F2000222F81510C0F2000328
:1054E0002046E18B23F81560FFF7CAFCE7E64BF294
:1054F00018424BF21C4340F2051140F2072540468A
:105500006668C0F20002C0F2000342F8276023F888
:105510001750A183FCF7E4FD4FF6FF7290423FF471
:10552000CEAE4AF2DC5167264BF210420025C0F2A3
:10553000000121F8106094F82030C0F2000222F837
:105540001350FFF77BF92046E18BFFF759FDB6E6D4
:105550004BF21C4340F20512C0F20003404623F810
:105560001720D7E74AF2DC56C0F2000636F81730AB
:10557000662B00F0BD81672B00F0A281282B7FF401
:105580009AAE4AF2D05AC0F2000A3AF81730002B0D
:105590003FF491AE4AF2D453C0F2000333F817003F
:1055A0000393FCF79DFD029B94F82070054653F889
:1055B0002720538C002B00F037824BF21C430A212A
:1055C000C0F2000326F8171033F81730A3F20223B5
:1055D0009BB2012B40F2058114466CE64AF2DC5680
:1055E000C0F2000636F81730502B00F0A78100F209
:1055F00064810A2B00F08681282B7FF45CAE4AF28E
:10560000D058638CC0F20008394628F817300020C3
:10561000FCF75EFD4AF2D85040274BF228410022A9
:1056200094F82030C0F2000020F8237038F81300FE
:10563000C0F20001802821F8132000F0CF81C0289B
:1056400000F0CC81B84200F0E6810A22029951F8BC
:10565000234026F813202EE60FA90C208DF83C706D
:10566000FCF78AF94AF2DC5228214AF2CC5394F82A
:1056700020E0C0F20002C0F2000322F81E1033F84E
:105680001E407CB34FF6FF7900224AF200634AF2D3
:10569000E05CCB46CFF200094FF00A0816464846B8
:1056A0000EEBCE01C0F200034FEA4E0A03EBC1033A
:1056B000C0F2000C19880132B9420ED15988A3F802
:1056C000048051440CEB0115090118602CF801B05D
:1056D000A5F80280AE80EE802E8191B2A14203F146
:1056E0002403E7D3029B012053F82E1002F0A0FB05
:1056F000E5E5638C422B7DD83F2B7FF6DCAD4AF28B
:10570000DC56C0F2000636F817300A2B7FF4D3AD12
:105710004AF2D4584FF00109C0F2000828F8179057
:1057200002F0D2FC282394F8200026F8103038F834
:105730001010FFF713F82046FFF74AF894F82030CE
:10574000029A484652F8231002F072FBB7E54AF27B
:10575000CC53C0F2000333F81700002800F0D682C3
:105760004AF20069039BC0F2000933F817104A4659
:10577000002303E00133984200F0C8825588483284
:105780008D42F7D148224AF2E05C02FB03934FF0CE
:1057900046093AF817E0C0F2000C01EB470A0CEB9F
:1057A0000A1C5F69A3F804900022ACF8029020461E
:1057B000ACF808E0B84794F8207038F81730013397
:1057C00028F8173046224BF21C4326F81720C0F267
:1057D000000333F81730A3F202239BB2012B00F22F
:1057E000F9802046FFF788F994F82030029A52F8A1
:1057F000234060E5432B7FF45EAD4AF2DC524AF26F
:10580000D0534AF2CC5B0A214FF00008C0F20003EB
:10581000C0F2000222F81710C0F2000B23F8178024
:105820003BF81730002B3FF446AD4FF6FF724AF2BB
:1058300000694AF2E055C246CFF20002C0F2000908
:10584000C0F20005039206EBC60608EBC803F7009A
:1058500007EB83064E447188012920D1002220469F
:10586000B36998470A214FF6FF7C94F8202073888B
:10587000039803EB4203C8F1000202F024023A4409
:1058800049F8020005EB03121B01B18025F803C0A3
:105890005180A2F804A0A2F806A0A2F808A094F8EB
:1058A000206008F101083BF816201FFA88F39A429D
:1058B000C9D8029B53F82640FDE4672B7FF4FBAC6C
:1058C00020464146FFF79CFB94F82030029A52F89C
:1058D0002340F0E44AF2DC5E4FF00A0944F631322C
:1058E00000234BF2184C4BF21C464FF40178C9E4EC
:1058F00020464146FFF7C4FA94F82030029A52F845
:105900002340D8E44BF21C46C0F2000636F81720BC
:10591000B2F5017F7FF4CFAC4BF21843C0F2000325
:105920000021204653F827309847002294F8203071
:10593000029951F8234026F81320BCE44AF2CC5BCC
:10594000C0F2000B3BF81730002B3FF4B4AC4AF226
:10595000E0504AF200694BF21C45C0F200000026FC
:10596000C0F20009C0F20005039005E03BF81720E3
:105970000136B3B29A422DD907EBC70306EBC60234
:10598000DB0003EB82034B4459884FEAC60A012926
:105990004FEAC708EAD10022DB692046984740F267
:1059A000052394F820C035F81C209A4224D05021B9
:1059B00008EB0703B244DB0003EB8A034B445A882D
:1059C000039802EB4C0200EB02125180998094F88C
:1059D0002070CBE7029B53F827406CE448F628730D
:1059E000C0F20003114620461B68984794F8203007
:1059F000029A52F823405EE44BF21843C0F20003CF
:105A000053F82C30002120469847002394F820C0FA
:105A100025F81C30CBE7204602F04EFB94F82030EE
:105A2000029A52F8234046E44BF22848C0F200089C
:105A300038F81730062B00F2C18101A151F823F08C
:105A4000335C0000AB5B0000235C0000135C0000D3
:105A50007D5A00005D5A00004F5700004BF224436E
:105A6000C0F2000333F81730002B00F06681FF2BE3
:105A700000F0E780062328F817309EE5039B4AF2E2
:105A8000CC5B33F81700FEF791FE4CF660634CF6E2
:105A90006052074694F82060C3F2180306EB8606AE
:105AA000C3F2180203EB8606049208930FCE7860C7
:105AB000FA60B9603B613388049ABB8294F8201085
:105AC00007F1180002EB01214FF4807203F0B0F9E6
:105AD00094F82070C0F2000B3BF81730002B00F058
:105AE0001E814AF200690022C0F20009CDF8188038
:105AF000FF234E469046CDE909590AE03BF81710BE
:105B000008F101081FFA88F2914206F1480640F2B6
:105B10000181B2880A2AF1D14FF0FF03ADF8343089
:105B200000231421ADF83630089B01FB07310D79B5
:105B300048798B7905EA00021A40FF2A08D0092D1E
:105B400006D128B9002B40F0D9800123ADF83630BA
:105B500041F60A230D89B1F80A909D4208BFB9F5B4
