:020000022000DC
:102D0000703F0000FFFFFFFFFFFFFFFFFFFFFFFF20
:102D100000020000FFFFFFFFFFFFFFFFFFFFFFFFBD
:102D2000002F0220FFFFFFFFFFFFFFFFFFFFFFFF5E
:102D3000FFFFFFFFFFFFFFFFFFFFFFFFFFFFFFFFA3
:102D4000FFFFFFFFFFFFFFFFFFFFFFFFFFFFFFFF93
:102D5000FFFFFFFFFFFFFFFFFFFFFFFFFFFFFFFF83
:102D6000FFFFFFFFFFFFFFFFFFFFFFFFFFFFFFFF73
:102D7000FFFFFFFFFFFFFFFFFFFFFFFFFFFFFFFF63
:102D8000FFFFFFFFFFFFFFFFFFFFFFFFFFFFFFFF53
:102D9000FFFFFFFFFFFFFFFFFFFFFFFFFFFFFFFF43
:102DA000FFFFFFFFFFFFFFFFFFFFFFFFFFFFFFFF33
:102DB000FFFFFFFFFFFFFFFFFFFFFFFFFFFFFFFF23
:102DC000FFFFFFFFFFFFFFFFFFFFFFFFFFFFFFFF13
:102DD000FFFFFFFFFFFFFFFFFFFFFFFFFFFFFFFF03
:102DE000FFFFFFFFFFFFFFFFFFFFFFFFFFFFFFFFF3
:102DF000FFFFFFFFFFFFFFFFFFFFFFFFFFFFFFFFE3
:102E0000FFFFFFFFFFFFFFFFFFFFFFFFFFFFFFFFD2
:102E1000FFFFFFFFFFFFFFFFFFFFFFFFFFFFFFFFC2
:102E2000FFFFFFFFFFFFFFFFFFFFFFFFFFFFFFFFB2
:102E3000FFFFFFFFFFFFFFFFFFFFFFFFFFFFFFFFA2
:102E4000FFFFFFFFFFFFFFFFFFFFFFFFFFFFFFFF92
:102E5000FFFFFFFFFFFFFFFFFFFFFFFFFFFFFFFF82
:102E6000FFFFFFFFFFFFFFFFFFFFFFFFFFFFFFFF72
:102E7000FFFFFFFFFFFFFFFFFFFFFFFFFFFFFFFF62
:102E8000FFFFFFFFFFFFFFFFFFFFFFFFFFFFFFFF52
:102E9000FFFFFFFFFFFFFFFFFFFFFFFFFFFFFFFF42
:102EA000FFFFFFFFFFFFFFFFFFFFFFFFFFFFFFFF32
:102EB000FFFFFFFFFFFFFFFFFFFFFFFFFFFFFFFF22
:102EC000FFFFFFFFFFFFFFFFFFFFFFFFFFFFFFFF12
:102ED000FFFFFFFFFFFFFFFFFFFFFFFFFFFFFFFF02
:102EE000FFFFFFFFFFFFFFFFFFFFFFFFFFFFFFFFF2
:102EF000FFFFFFFFFFFFFFFFFFFFFFFFFFFF55AAE1
:102F0000024B83F3088800F037BD00BF705D0200FC
:10300000705D0200693902007539020065390200FD
:103010006539020065390200653902007139020024
:103020000000000000000000000000006539020000
:1030300065390200000000006539020065390200B0
:10304000CD520200CD520200CD52020021510200A9
:10305000CD520200CD520200CD520200CD520200EC
:10306000CD520200CD520200CD520200CD520200DC
:10307000CD520200CD520200CD520200CD520200CC
:10308000CD520200CD520200CD520200CD520200BC
:10380000706E020061380210BD5202004138021091
:1038100045380210493802104D38021000000000EF
:1038200000000000000000000000000051380210FD
:103830005538021000000000593802105D3802109F
:10384000FEE700BFFEE700BFFEE700BFFEE700BFE8
:10385000FEE700BFFEE700BFFEE700BFFEE700BFD8
:04386000FEE700BFC0
:10389000704700BF022249F6F77108B50A4BC3F81A
:1038A000D0201A6922F00C021A61DA680A4042F04C
:1038B000BF6242F40832DA605A6A42F400225A6265
:1038C000FFF7E6FF08BD00BF00ED00E0EFF3108159
:1038D000012383F310884FF00313204AC2F82C35DC
:1038E000D2F8AC369807FBD081F31088EFF3108044
:1038F000012383F310884FF003131849C2F82C38C2
:10390000D1F8AC399B07FBD180F31088EFF310801E
:10391000012383F310884FF00313104AC1F82C35AC
:10392000D2F8AC369907FBD080F31088EFF3108003
:10393000012383F310884FF003130849C2F82C3891
:10394000D1F8AC399B07FBD180F31088044AD2F838
:103950001C3D23F00103C2F81C3D704700000141EB
:103960000000024100BE704708B500F011F8FEE704
:1039700000BE704700BE7047034A044BC3F84C2892
:10398000FFF7F2BF704700BF0030020000000241A5
:1039900008B5094A094B9A6001F040FC084B83F3D3
:1039A0000888084B83F30A88FFF774FFFFF78EFF40
:1039B000BDE8084001F084BC0030020000ED00E0EA
:1039C000705D0200705B0200024B83F30888FFF712
:0839D000D3BF00BF705D0200CF
:1039D8002DE9F0410446D0E902854068A8EB0507C7
:1039E80097422844154408D80E463A46A5EB0805E0
:1039F80001F09CFC2A466068F11901F097FCBFF3BE
:103A08005F8FE560BDE8F0812DE9F8434FF00009CC
:103A1800064688461746D0E902243369151B9C429E
:103A280003F1FF3125BF03F1FF339B180B1B1B1B51
:103A3800BD4228BF3D469D4228BF1D46706841468D
:103A48002A46204401F072FCB2682C44A24208BF06
:103A58000024A944A8447F1BBFF35F8FF460002FA4
:103A6800DBD14846BDE8F883F8B5164CA8220021FA
:103A7800204601F0D1FC4FF480660023032110207A
:103A8800114A124F124D21616161A261E7612662FC
:103A9800A3626362E36222666566A0662367E366E3
:103AA8006367BFF35F8F0B4B9C46A3F11000ACEB31
:103AB800030213F9011D8342A154F8D1BFF35F8FAC
:103AC800F8BD00BFE061020008550200E05D020099
:103AD800D05D0200C859020038B5214B00EB400404
:103AE80003EBC40EDEF82C40013000EB4000012C43
:103AF8008C46154603EBC00015D0022C0FD034BB02
:103B0800DEF82830DEF8242093429CBFDEF820102F
:103B18005B18013B9A1A95421CD9204638BDBDE86E
:103B28003840FFF771BFDEF82830DEF82440A342A2
:103B38009CBFDEF820105B18013B1C1B944228BF79
:103B4800144661462246FFF743FF204638BD00244D
:103B5800204638BD2A466146FFF73AFF2C46DCE787
:103B6800E0610200F8B50B4B04461B780D46532B59
:103B7800164601D0FFF778FFEFF311874FF02001C9
:103B880081F31188324629462046FFF7A5FF87F3BF
:103B98001188F8BDE061020010B50446D0E9013291
:103BA800501C984207D8236899540246E168636814
:103BB8000131C4E902019A4200D010BD2168206990
:103BC800FFF7D0FFA368984215BF4FF0FF330023DB
:103BD800E360A36010BD00BF2DE9F84F91420F4686
:103BE800DDE90A94154683461E4668D30B464FF016
:103BF8000108B3FBF5F39D4208F10108F9D9B04576
:103C080038BFB04614F0010A02D1B9F1000F3DD116
:103C1800DBF80C30002B29DB012402E005FB04F45F
:103C2800013E012EFAD8B7FBF4F39D4205D805FBF7
:103C380004F4B7FBF4F39D42F9D9224E06E0AC42F6
:103C4800B4FBF5F30CD31C46B7FBF3F3F156584617
:103C580004FB1377FFF7A0FFDBF80C30002BEEDA3C
:103C6800BAF1000F02D0B9F1000F09D1BDE8F88F01
:103C780020215846FFF790FFDBF80C30002BF5DBCE
:103C8800C14509F1FF39F3D8BDE8F88FA30711D46E
:103C980020240CE021465846FFF77EFFDBF80C3065
:103CA80009F1FF39002BE1DBB9F1000FB2D0C145B2
:103CB800F0D8ADE7002E0CBF30242024F7E74FF0F2
:103CC80001089CE7CC5902002DE9F04F002340245D
:103CD8009BB00DF12809CDE9049480460C4617469F
:103CE800CDE90633089006E004A8FFF755FF079BC7
:103CF800002BC0F2AE8014F9011B002900F0A1804E
:103D08002529F1D10026234613F9011BA1F123022D
:103D18000D2A08D8DFE802F080070707070707071A
:103D28007C0784070778A1F13002D2B2092A4FF044
:103D3800000501D90EE0013305EB850501EB4505CA
:103D480093F900101C46A1F13002D2B2092AA5F15C
:103D58003005F0D92E2900F080800022924694F98F
:103D6800001021F00403682B04F101045CD025291C
:103D7800BAD05839CBB2202BB9D82029B7D801A34B
:103D880053F821F0B13E0200F73C0200F73C020074
:103D9800F73C0200F73C0200F73C0200F73C020047
:103DA800F73C0200F73C0200F73C0200F73C020037
:103DB800CD3E0200553F0200F73C0200F73C0200EE
:103DC800F73C0200F73C0200F73C0200F73C020017
:103DD800F73C0200F73C0200F73C0200F73C020007
:103DE800F73C0200373F0200F73C0200F73C0200B4
:103DF800FB3E0200F73C0200E13E0200F73C0200F5
:103E0800F73C0200B13E02001C4646F002067AE783
:103E18001C4646F0040676E71C4646F0080672E79C
:103E28001C4646F001066EE714F9011B21F0040355
:103E3800682B9CD114F9011B21F00403682B96D13F
:103E4800F2E7079B002B04DD069C002C40F0B280B3
:103E5800234418461BB0BDE8F08F94F901102A29B5
:103E680009D13B684FF0010A1A1D3A6094F9021013
:103E78001A68023475E7A1F13003DBB2092B4FF061
:103E8800000204F1010400F2E18002EB820201EB7E
:103E9800420214F9011F303AA1F13003DBB2092BB9
:103EA800F3D94FF0010A5CE7134610223968081D60
:103EB800386009680DEB0200CDE90056FFF78CFE6B
:103EC800079B15E73B6804A81A1D3A6093F9001090
:103ED800FFF762FE079B0BE739681346081D386039
:103EE80009680A22CDE9005604A8FFF775FE079B6A
:103EF800FEE63B68191D39601D68002D00F08D80B5
:103F08000132AE1815F9011B00293FF4F0AEBAF1E1
:103F1800000F02D0B5423FF4EAAE04A8FFF73CFE1A
:103F2800079B002BEEDA18461BB0BDE8F08F08237C
:103F38000020102239680D1D3D600968CDE9003068
:103F48000DEB0200FFF748FE079BD1E63B684FF0F8
:103F5800010A191D3960D3F800B08BEAEB73A3EBA3
:103F6800EB73092B09DD4A481946A0FB03C36329F3
:103F78000AF1010A4FEAD303F6DC924538BF9246AC
:103F88000DBB079900250B460029FFF662AFBBF170
:103F9800000F46DB730752D406F00303022B57D0F9
:103FA800134659460A22CDE9005604A8FFF714FE25
:103FB800079B9DE62246494640460393FFF7D2FDFC
:103FC800039B234445E7BBF1000F06F002031BDB0C
:103FD800710719D4002B53D09AB1F3070FD510E00D
:103FE800202104A80392FFF7D7FD0799039A002917
:103FF8000B4605F1FF35FFF62CAF002DC4D0AA45BE
:10400800EED307990B46BFE7013D0BB1002AF8D064
:10401800F107F6D4002DF2D1B3E74FF0000A1D4D99
:104028006EE72D2104A80392FFF7B6FD039ACBF1A2
:10403800000B079900290B46FFF60BAFACE72B21C5
:1040480004A80392FFF7A8FD039AF2E7924688E6D0
:10405800002AA5D1002DA3D0554517D9302104A891
:104068000392FFF799FD0799013D00290B46FFF6DA
:10407800F0AE039A002DEFD10029FFF6EAAE8FE7E4
:10408800F007BCD5079B002B8ADAE2E60B46F3E77C
:10409800CDCCCCCC145502000EB400B582B003AB25
:1040A80053F8041B01AA0193FFF70EFE02B05DF856
:1040B80004EB03B0704700BF2DE9F04F002485B032
:1040C800664D03A82E888DF80B40039401F0E6F89E
:1040D8009DF80D30624A01939DF80E3061490093B6
:1040E80020469DF80F30FFF7D7FF5F492046FFF7BE
:1040F800D3FF00F0EDF8002840F0A18000F004F9AB
:10410800044600287DD1002E75D0DFF86081584F15
:10411800DFF860B198F80030002BFBD00024564936
:10412800204688F80040FFF7B7FF2B88002B5BD0AC
:10413800DFF8489103E02B880134A3421CD96B684F
:10414800384633F814100DF10B0200F083FE0646D2
:104158000028F0D05B464A4649490020FFF79CFFFB
:1041680000F0EAF8324647490020FFF795FF00BE05
:104178002B880134A342E2D89DF80B2082F001027B
:104188008DF80B2043B30026DFF8FCA0DFF8EC9095
:1041980005E02B880136B3429DF80B201CD96B68CB
:1041A800384633F8161000F06DFE04460028F0D0AB
:1041B80053464A4632490020FFF76EFF00F0BCF82C
:1041C800224630490020FFF767FF00BE2B880136E2
:1041D800B3429DF80B20E2D8012A0CBF2B492C4989
:1041E8000020FFF759FF95E79DF80B2082F00102A8
:1041F8008DF80B20F0E72749FFF74EFF00F09CF8F9
:1042080083E7254B1D4A1E490020FFF745FF00F0B4
:1042180093F822461B490020FFF73EFF00BE002E00
:104228007FF473AF1B493046FFF736FF00F084F880
:10423800224630461349FFF72FFF00BE65E70746C1
:10424800164B20460D4A0E49FFF726FF3A462046F0
:104258000C49FFF721FF00BE50E700BF245B0200B6
:104268001C550200245502004457020088620200CF
:104278008C620200AC5802008C580200DC59020023
:104288000C58020028580200D0580200F8580200C2
:1042980010590200485802006C580200EC570200FE
:1042A800022800D0704708B50649074800F05CFEB0
:1042B800064BD3F8003ADB0700D508BDBDE8084037
:1042C80000F05AB89C5A02008C62020000000241B9
:1042D80010B50849084800F063FE044608B92046AE
:1042E80010BD064B064A07490020FFF7D5FE2046B9
:1042F80010BD00BF245A0200C06202002859020003
:10430800085A02000C58020010B5074800F0B0FE29
:10431800044608B9204610BD044B054A054900204B
:10432800FFF7BAFE204610BDC062020058590200CD
:10433800F85902000C58020010B5064800F0BAFE01
:1043480000B910BD0020BDE81040034B034A0449E2
:10435800FFF7A2BEC062020088590200E8590200B5
:104368000C5802004368022B02D10122014B1A703B
:10437800704700BF886202000F224FF00F10032120
:104388002DE9F04F4FF4803A01254FF000094FF026
:10439800023440F202284FF0005E4FF020576FF0D1
:1043A80050466FF0584C194BC3F81021C3F814014C
:1043B8009A60D9601649174AD1F804B41648D1F85A
:1043C80020B2C1F804A40AF1020AC1F820A2A3F598
:1043D8000C1302F5805102F54052D560C3F8209EB7
:1043E800156282680C62C1F824808C62CC62C3F8C2
:1043F80048E3C3F84CC3C3F85073C3F85463136855
:10440800D0E90001BDE8F04F184700BF0000254182
:104418000000014100000341385A020000207047A3
:104428000020704708B5FFF747FE002008BD00BF11
:104438000620704706207047062070470620704700
:1044480030B50469236F23F0300323670469236FB1
:10445800DD07FCD4CB7B8D8991F810E003F00303D2
:1044680091F811C043EA0563D5034FEA8E0EADB249
:104478000EF01C0E4FEA4C1C2B430CF4F07C43EA64
:104488000E0343EA0C0391F80EC0012A4FEA4C2CA4
:104498000CF4785C43EA0C03C4F8803003698C6838
:1044A800C3F8844003D103690C68C3F888400469E1
:1044B800236F43F0010323670469D4F89031DB07C5
:1044C800FBD51AB9D4F888300B6004690123C4F805
:1044D800943130BD00220123F0B587B0CDE9032225
:1044E8008DF80F308DF811300368858A997B902DEF
:1044F8000446CDE900229E6902920592ADF80C109F
:1045080005D0482D03D06946FFF79AFF18E000222E
:1045180073782769143357F8230069466FF3090045
:1045280047F82300A2822046FFF78AFF73782269A2
:10453800143352F8231065F3090142F82310A582B9
:10454800236800989B79D84000F0010007B0F0BDBF
:10455800F8B5002800F0C3800E46002900F0BF809F
:104568008F69002F00F0BB80684BC26805469A42ED
:1045780000F0C0803B78002B40F0C380BB69002B63
:1045880000F0AD80EFF31081012383F310884FF022
:104598000F135F4AC2F85035D2F8D0361B07FBD04C
:1045A80081F31088EFF31081012383F310884FF40F
:1045B8000030C2F8640BD2F8640B81F31088EFF373
:1045C800108183F310884FF00313C2F85038504A13
:1045D800D2F8D04914F00304FAD181F310884B4A79
:1045E800BB692E602B61EA60FA682AB129464948FE
:1045F800904700287BD12B697A783188143243F8A8
:10460800221033882A69AB827B78002B6AD0136822
:1046180023F0F85313607A683088137891781B0474
:104628005278090501F4801103F470230B43C0F399
:104638000900520502F40012034313437A782969EA
:10464800143241F822307B78F1782A6901338900E5
:104658001B0101F00C01D15079782A6933790131B5
:1046680002EB01121B04F17B03F4F81343EA012364
:1046780053602B69327B7978120203EB01139A613C
:104688007B782A69002B37D1136E43F00303136636
:1046980000263B7A2A691B0403F4803343F47863C9
:1046A80093602B6979781A6F61F3C3021A672B69D3
:1046B8002A68117C9A6E61F307029A662B692A6848
:1046C800517C9A6E61F30F229A66AE603B693BB1EA
:1046D800294610489847044610B1EE6000E00124CE
:1046E8002046F8BD116863F30C21116093E7EC6074
:1046F8000446F5E70E24F3E7136E43F00C03136644
:10470800C6E740F27A542046F8BD00BF49505351DD
:1047180000000141F05A0200F0B1104BC2689A4201
:1047280016D18B1E022B15D940F2FF33994211D0B6
:1047380010B4036802699B6981825B780020143396
:1047480052F8234061F3090442F8234010BC704733
:104758000720704703207047012070474950535184
:1047680040B3154BC2689A4222D1002203689B6964
:10477800C2601B7DD3B1EFF31081012383F310884E
:104788000E4A0F48C2F8640BD2F8640B81F3108804
:10479800EFF3108183F310884FF47023C2F850357B
:1047A800D2F8D0361B07FBD181F310880020704760
:1047B80007207047012070474950535100000141BC
:1047C800FFFF0200C0B138B50C4DD0F80CC0AC45A5
:1047D8000AD103699B6EC3F30045DB030AD409B110
:1047E800CB7B1BB9012038BD072038BDFFF728FE59
:1047F800284638BD052038BD01207047495053511F
:10480800B8B1B1B110B5104AC46882B094420DD1A4
:1048180003699A6ED2030ED4D3F8843113F0410F92
:104828000BD001230B70002002B010BD072002B08E
:1048380010BD012070470520F6E70191FFF74AFEF9
:1048480001990870EFE700BF49505351002800F064
:104858008F802DE9F04114461F46C2684D4B06462D
:104868009A4286B053D103699B6EDA0358D40D4639
:10487800FFF730FE00284ED1002D44D0002C42D046
:1048880033689B68B4FBF3F203FB12429B1A9F4206
:1048980039D8402F37D83046FFF71CFE00283AD1C8
:1048A800012233680390597BCDE90000CDE904006B
:1048B8000290ADF80C1030466946D3F818808DF890
:1048C8000F20FFF7BDFDBB072ED0F80752D47A089A
:1048D8005CD0023D04EB420235F8023F24F8023B6B
:1048E8009442F9D1BFF34F8F402F2CD13269D2F8BF
:1048F8008431D907FBD598F80830012B2FD0002038
:1049080006B0BDE8F081012006B0BDE8F0810720BF
:1049180006B0BDE8F08149F6424006B0BDE8F08136
:10492800052006B0BDE8F081BA082FD0043D04EB9D
:10493800820255F8043F44F8043BA242F9D1BFF380
:104948004F8F402FD2D0052331694A68013B00922E
:10495800009AFAD14B6E43F480734B66C6E7D2F8DF
:104968008431DB07FBD4536E43F480635366C6E798
:1049780001207047013C6A1E1346023312F8011FDA
:104988005B1B9F4204F8011FF6D8ABE7BFF34F8FBC
:10499800D9E700BF4950535100282CD0184BC268A2
:1049A8009A4201D00720704782B00190019B0268AB
:1049B8001BB30021936902695B788DF803109DF899
:1049C80003104FF0010C116E8BB16CF3830111666B
:1049D800016900208A6EDB0642F480328A6603F1A0
:1049E80000431B78DBB28DF8033002B070476CF3DC
:1049F80001011166ECE701207047012002B0704701
:104A08004950535100282FD01A4BC2689A4201D0FE
:104A18000720704710B483B00190019B02682BB344
:104A28004FF0000C936901698DF803C09DF80340AD
:104A38005A788C6ED3066CF310448C6603F10043ED
:104A48001B78DBB28DF8033042B10269136E43F074
:104A58000C031366002003B010BC70470269136E84
:104A680043F003031366F5E701207047012003B004
:104A780010BC704749505351002873D02DE9F043BA
:104A8800394B1546C26806469A4287B055D1036924
:104A98009B6EDA0355D40F46FFF71CFD034600282A
:104AA8005DD1002F45D031688A7C002A41D04C69FD
:104AB80003E0934204F108043BD060680133854267
:104AC800F7D1B4F80090B9F1000F32D000240122D8
:104AD8004B7BD1F81880304669460394CDE90144F0
:104AE800CDE90444ADF80C3000948DF80F2007F19F
:104AF8000047FFF7A5FC0135CDE90274CDE9004474
:104B0800CDE90444ADF80C9004D03368DC78144443
:104B180004F007040122694630468DF810408DF8EC
:104B28000F20FFF78DFC98F8083093420DD0002035
:104B380000E0012007B0BDE8F083072007B0BDE81A
:104B4800F083052007B0BDE8F0833269D2F88431DC
:104B5800DB07FBD4536E43F480635366E7E749F6FB
:104B68004240E7E701207047495053510322F0B50E
:104B78004FF0010EC0F307256B1EC0F3850C214EC4
:104B88000CEB430C5FFA8CFC104056F82C7000FAC2
:104B980002F30EFA03F027EA00076FEA000EC1F3EA
:104BA80080409840184C384346F82C0054F82C6044
:104BB8009A40C1F3812026EA02069840304344F81F
:104BC8002C00F5B9D243C1F3C04000FA03F5D4F87C
:104BD800F80F04F6F8740EEA000028432060D4F8B1
:104BE8000054C1F30150154098402843C4F800040C
:104BF800D4F80008C1F38151024099401143C4F828
:104C08000018F0BD08180341081003410122C3B27F
:104C18009A40F0B5D5B2FF2D364EC0F30724C1F344
:104C2800004C08D0A55D0CFA03FC25EA020242EA12
:104C38000C025FFA82FC04F806C04FF0070C03224E
:104C48004FF0010E2C4F9E00C1F30265B5400CFADF
:104C580006FC57F824609B0826EA0C0C45EA0C056C
:104C6800264E03EB440347F82450DBB200F0030060
:104C780056F82350C0008240C1F3812425EA02057A
:104C880084402C4346F8234006F5406656F82350E6
:104C9800C1F3011425EA020584402C4346F8234059
:104CA80006F5806656F823500EFA00FEC1F3C0449C
:104CB800844025EA0E0C44EA0C0446F82340104CC4
:104CC800C1F3015CC1F381510CFA00FC814054F836
:104CD800230020EA02004CEA000044F8230004F50F
:104CE800806454F8230020EA0202114344F8231098
:104CF800F0BD00BF200203418004034100110341BD
:104D0800002503414FF0010CC3B20CFA03FC2DE956
:104D1800F04F5FFA8CF6FF2E454FC0F30722C1F320
:104D2800004405D0D55D9C4025EA0C052C43E4B22F
:104D3800D45503244FF6FF785D00AC401FFA84F980
:104D4800C1453C4FC1F3810E0BD00EFA05F537F87B
:104D580012E01FFA8EFE2EEA040E4EEA050E1FFA26
:104D68008EFEFF2E27F812E001F00104324F05D025
:104D7800D55D9C4025EA0C052C43E4B24FF0030CAA
:104D88004FF0010E9B082D4D03EB4203D455DBB2C7
:104D980000F0030055F823B0C0000CFA00FCC1F382
:104DA800812A0AFA00FA2BEA0C0BDFF894904AEAF7
:104DB8000B0A45F823A059F82350C1F3011808FA43
:104DC80000F825EA0C051F4F48EA050549F8235065
:104DD80057F823500EFA00FEC1F38034844025EAC8
:104DE8000E05194E2C4347F8234056F82340C1F3CB
:104DF800C042824024EA0E042243144C46F8232081
:104E0800C1F30152C1F381518240814054F823001B
:104E180020EA0C0002430E4844F8232050F82320CF
:104E280022EA0C02114340F82310BDE8F08F00BFBE
:104E380020020341400103412000034100110341C6
:104E4800001D0341002D03410021034100250341BA
:104E58000029034170B1094B006898420CD14AB14E
:104E6800074B080AC35CC9B20B4103F001030020D9
:104E780013707047012070470720704754524F50F5
:104E88002008034100B3114B0068984218D1012A49
:104E980018D80123C8B28340D8B2FF2810B4C1F390
:104EA800072C0B4C07D0C9B28A401CF8041021EA21
:104EB80003031343DAB20CF80420002010BC704737
:104EC80007207047032070470120704754524F5005
:104ED8002000034170B50546EFF31082012383F3E8
:104EE80010881F4E33681BB91E490B6040230B60A6
:104EF80033680133336082F310882B88D3B10024E0
:104F080006E0FFF783FE2A880134A3B29A4211D93A
:104F18006B6803EBC402506853F83410B0F5803F57
:104F28001BD2CB03EDD4FFF7EDFE01342A88A3B2E0
:104F38009A42EDD8EFF31082012383F31088336887
:104F480013B13368013B336033681BB980200549CE
:104F58000B60086082F3108870BDFFF707FED2E788
:104F6800E862020000300341A0B199B14A6808B56F
:104F7800034652B1094A186890420DD008461A6093
:104F88009960FFF7A7FF002008BD0A88002AF1D022
:104F9800012008BD012070470E2008BD54524F5013
:104FA80000284ED003462F4A0068904258D0002966
:104FB80047D0FF220878C240D2074ED530B4B1F9A5
:104FC800022082B09A808A689A60CA68DA600A7891
:104FD8009A710879022836D84FF0030C5200013034
:104FE80090400CFA02FC01221F4C656925EA0C0C62
:104FF80040EA0C006061206901909879019D824027
:10500800D243226122690192019AB3F90420002A4D
:1050180011DB91F9010049780028B4BFFE2149004D
:10502800124C02F16040A8BFC9B200F5614080F897
:10503800001344F8223000200A4A1A6002B030BC3B
:105048007047012070470324074D5200686904FA2D
:1050580002F220EA02026A61D7E740F27A5070470A
:105068000E2070475152490000000641EC620200D0
:10507800D8B10F4B02689A4213D1B0F90420002A24
:1050880011DB012153099B0002F01F0203F1604369
:1050980003F5614301FA02F2C3F880211A60002087
:1050A8007047072070470B2070470120704700BFEA
:1050B8005152490040B3154A01680346914221D133
:1050C800B0F90420002A19DB012010B45109104C52
:1050D80002F01F02203100FA02F244F82120BFF347
:1050E8004F8FBFF36F8F00200A4AB3F9041042F8BC
:1050F800210000221A60104610BC7047002210469A
:105108001A607047072070470120704751524900C4
:1051180000E100E0EC62020010B584B0EFF3038315
:10512800C3F30803124A103B1BB252F8232003238F
:10513800104992F806C04C694FEA4C00834023405E
:10514800C3400AD0012303FA0CF3DB43086901903A
:1051580001980B610B690193019B93682BB19179BD
:10516800D26802A8CDE90221984704B010BD00BF5B
:10517800EC62020000000641024A034B52681A60C2
:10518800704700BF705D02006C6A020070B442F69E
:10519800E065134B134A1448C3E90D22C3E90F20F5
:1051A800C3E911209A61114A1149C3E91402114C4B
:1051B800114E124AC3E90B011160C3E90061C3E94A
:1051C800094499601C620E490E4C0F4ADC64C3E91D
:1051D80004120E4C0E48DD609C65D86170BC7047A7
:1051E800705D020000E1F50500C2EB0B0084D717E3
:1051F80080B2E60E5581F20700AB90416C6A02005E
:1052080055A0FC01006889092A50FE0000366E018D
:1052180080F0FA0270B442F6E065134B134A144862
:10522800C3E90D22C3E90F20C3E911209A61114A8D
:105238001149C3E91402114C114E124AC3E90B017A
:105248001160C3E90061C3E9094499601C620E4911
:105258000E4C0F4ADC64C3E904120E4C0E48DD60A4
:105268009C65D86170BC7047705D020000E1F5056F
:1052780000C2EB0B0084D71780B2E60E5581F20707
:1052880000AB90416C6A020055A0FC0100688909D6
:105298002A50FE0000366E0180F0FA02034618B16B
:1052A800024A00201A60704701207047000002047B
:1052B80000BF704700BE704708B500F005F8FFF75B
:1052C800B1F8FEE700BE704770B50020FEF7E8FFB2
:1052D800FFF75CFF0120FEF7E3FF0F480F4A0021AC
:1052E800121A00F099F80E4D0E4B5B1B002B07DDD0
:1052F80000249E1055F8043B01349847A642F9DC77
:10530800FFF73AFF0220FEF7CBFFFFF7D1FFBDE81A
:105318007040002000F008B8D05D0200706A0200FA
:105328006C5B02006C5B0200704700BF844641EA78
:10533800000313F0030349D1403A23D30B680360F9
:105348004B6843608B688360CB68C3600B690361FB
:105358004B6943618B698361CB69C3610B6A0362E3
:105368004B6A43628B6A8362CB6AC3620B6B0363CB
:105378004B6B43638B6B8363CB6BC36340304031B0
:10538800403ADBD230320BD30B6803604B68436082
:105398008B688360CB68C36010301031103AF3D249
:1053A8000C3205D351F8043B40F8043B043AF9D2D7
:1053B800043208D0D2071CBF11F8013B00F8013BAA
:1053C80001D30B8803806046704700BF082A13D3B7
:1053D8008B07B1D010F00303AED0C3F10403D21A87
:1053E800DB071CBF11F8013B00F8013BA4D331F8DF
:1053F800023B20F8023B9FE7043AD9D3013A11F85F
:10540800013B00F8013BF9D20B7803704B784370ED
:105418008B7883706046704770B5860747D0541EF6
:10542800002A3ED0CAB2034601E0013C39D303F852
:10543800012B9D07F9D1032C2CD9CDB20F2C05EBEC
:10544800052505EB054535D9A4F1100C03F1100E1F
:105458001A462CF00F064FEA1C1CB644C2E9005548
:10546800C2E9025510327245F8D10CF1010214F06C
:105478000C0F04F00F0C03EB021213D0ACF1040371
:1054880023F003030433134442F8045B9342FBD133
:105498000CF003042CB1C9B21C4403F8011BA3424D
:1054A800FBD170BD64461346002CF4D1F9E70346DE
:1054B8001446C0E71A46A446E0E700BF4275696C87
:1054C80074207769746820525A2F4720466C657893
:1054D80069626C6520536F667477617265205061EC
:1054E800636B6167652076657273696F6E20342E11
:1054F800322E3000342E322E30000000000002041C
:105508005465726D696E616C00000000284E554C40
:105518004C290000342E302E300000000D0A2A2AB3
:105528002A2A2A2A2A2A2A2A2A2A2A2A2A2A2A2AD3
:105538002A2A2A2A2A2A2A2A2A2A2A2A2A2A2A2AC3
:105548002A2A2A2A2A2A2A2A2A2A2A2A2A2A2A2AB3
:105558002A2A2A2A2A2A2A2A2A2A2A2A2A2A2A2AA3
:105568002A2A2A2A2A2A2A2A2A2A2A2A2A2A0D0AD0
:105578002A20202052656E6573617320465350209F
:105588004578616D706C652050726F6A6563742030
:10559800666F7220725F696E74635F697271204D05
:1055A8006F64756C6520202020202020202020207A
:1055B8002020202020202020202020202020202AD9
:1055C8000D0A2A2020204578616D706C6520507284
:1055D8006F6A6563742056657273696F6E202573F0
:1055E80020202020202020202020202020202020B3
:1055F80020202020202020202020202020202020A3
:1056080020202020202020202020202020202A0D9B
:105618000A2A202020466C657820536F66747761CB
:105628007265205061636B2056657273696F6E20D6
:1056380025642E25642E256420202020202020206B
:105648002020202020202020202020202020202052
:105658002020202020202020202020202020202042
:105668002020202A0D0A2A2A2A2A2A2A2A2A2A2AED
:105678002A2A2A2A2A2A2A2A2A2A2A2A2A2A2A2A82
:105688002A2A2A2A2A2A2A2A2A2A2A2A2A2A2A2A72
:105698002A2A2A2A2A2A2A2A2A2A2A2A2A2A2A2A62
:1056A8002A2A2A2A2A2A2A2A2A2A2A2A2A2A2A2A52
:1056B8002A2A2A2A2A2A0D0A526566657220746FD8
:1056C80020726561646D652E7478742066696C65F6
:1056D80020666F72206D6F72652064657461696CF5
:1056E80073206F6E204578616D706C652050726F05
:1056F8006A65637420616E640D0A465350205573C1
:1057080065722773204D616E75616C20666F72201B
:105718006D6F726520696E666F726D6174696F6E08
:105728002061626F757420725F696E74635F69725D
:1057380071206472697665720D0A00000D0A54685A
:105748006973204578616D706C652050726F6A6569
:1057580063742064656D6F6E737472617465732011
:105768007468652066756E6374696F6E616C6974C0
:1057780079206F6620494E54435F49525120647224
:10578800697665722E0D0A4F6E20707265737369A3
:105798006E6720746865207573657220707573680C
:1057A80020627574746F6E2C20616E206578746544
:1057B800726E616C20495251206973207472696756
:1057C80067657265642C20776869636820746F6701
:1057D800676C65732075736572204C45442E0D0AFD
:1057E800000000002A2A20696E74635F6972715F85
:1057F800696E6974206661696C6564202A2A0D0ADD
:10580800000000005B4552525D20496E2046756ECF
:105818006374696F6E3A20257328292C202573003C
:105828000D0A52657475726E6564204572726F72E6
:1058380020436F64653A203078257820200D0A00CF
:105848000D0A546865726520617265206E6F204C80
:10585800454473206F6E207468697320626F6172AB
:10586800640D0A002A2A20696E74635F6972715F89
:10587800656E61626C65206661696C6564202A2AC0
:105888000D0A00000D0A5573657220707573682043
:10589800627574746F6E20707265737365640D0A37
:1058A800000000002A2A20525F494F504F52545F8F
:1058B80050696E5265616420415049206661696C87
:1058C8006564202A2A0D0A002A2A20525F494F506F
:1058D8004F52545F50696E57726974652041504940
:1058E800206661696C6564202A2A0D0A00000000A0
:1058F8004C45442053746174653A20486967687B55
:105908004F4E7D0D0A0000004C45442053746174CD
:10591800653A204C6F777B4F46467D0D0A000000A4
:105928002A2A20525F494E54435F4952515F4578B5
:105938007465726E616C4972714F70656E2041506A
:1059480049206661696C6564202A2A0D0A000000F6
:105958002A2A20525F494E54435F4952515F457885
:105968007465726E616C497271456E61626C652016
:10597800415049206661696C6564202A2A0D0A0035
:105988002A2A525F494E54435F4952515F45787401
:1059980065726E616C497271436C6F73652041501A
:1059A80049206661696C6564202A2A0D0A00000096
:1059B8000000000000005454522052454747455308
:1059C800000000003031323334353637383941423F
:1059D8004344454668616C5F656E747279000000E7
:1059E800696E74635F6972715F6465696E6974007A
:1059F800696E74635F6972715F656E61626C650080
:105A0800696E74635F6972715F696E697400000022
:105A1800BC620200B062020098620200020C03003D
:105A2800010000006D4302000000000000000000BB
:105A3800D0620200445A0200F05A0200000000023C
:105A4800000000000000000002060503AA5504003B
:105A58007C5A0200605A020000000000685B0200E5
:105A68000000000025440200294402000000000054
:105A78000000064020000000001000005200000056
:105A880000800000D800000000000100C7000000EE
:105A9800FFFFFFFF09000000A85A0200185A020081
:105AA8000C0400000215000000040100000A0000B8
:105AB800000800000404FFFF000800000005FFFFC5
:105AC800000800000105FFFF000800000205FFFFB5
:105AD800000800000305FFFF000800000104FFFFA5
:105AE800000800000004FFFF594502003D44020081
:105AF80041440200CD4702002147020055480200F8
:105B0800814A020009480200A14902000D4A020028
:105B180045440200394402006947020001000000C0
:105B28002C5B0200021500001000000000000000BD
:105B3800017A5200027C0E011B0C0D0014000000BB
:105B480018000000E8F7FFFFEC00000000024D0A13
:045B5800430B0000FB
:085B5C00D8F7FF7F01000000F3
:045B6400000000003D
:045B68000600000033
:04000003200039C9D7
:00000001FF
