:1000000018F09FE518F09FE518F09FE518F09FE5C0
:1000100018F09FE518F09FE518F09FE518F09FE5B0
:10002000B084000095201000992010009D20100041
:10003000A1201000A520100028211000A9201000E8
:1000400000000000000000000000000000000000B0
:1000500000000000000000000000000000000000A0
:100060000000000000000000000000000000000090
:100070000000000000000000000000000000000080
:100100002DE9F041D0E902850446A8EB05074068D7
:1001100097422844154408D80E463A46A5EB0805F0
:1001200008F0B8F92A466068F11908F0B3F9BFF38E
:100130005F8FE560BDE8F0812DE9F8434FF00008DE
:10014000064689461746D0E902243369151B9C42AE
:1001500003F1FF3125BF03F1FF339B180B1B1B1B62
:10016000BD4228BF3D469D4228BF1D467068494696
:100170002A46204408F08EF9B2682C44A24208BFF7
:100180000024A844A9447F1BBFF35F8FF460002FB5
:10019000DBD14046BDE8F883F8B540F20004C3F275
:1001A0001804A8220021204608F06CF948F2D05229
:1001B00040F2B80040F2A801002303254FF4006785
:1001C0001026C0F20002C3F21800C3F21801256124
:1001D0006561A261E0612762A3626362E3622266F5
:1001E0006166A6662367E3666367BFF35F8F074BAD
:1001F0009C46A3F11000ACEB030213F9011D8342EE
:10020000A154F8D1BFF35F8FF8BD00BFA88B0000E9
:1002100038B540F2000400EB4003C3F2180401308B
:1002200004EBC30300EB400004EBC000DC6A8C4627
:10023000012C154612D0022C0CD0FCB99A6A596ACE
:100240008A429CBF1B6AD218013A511A8D4218D9B2
:10025000204638BDBDE83840FFF76EBF9A6A5C6A39
:10026000A2429CBF1B6AD218013A141BAC4228BFA1
:100270002C462246FFF744FF204638BD0024204686
:1002800038BD2A466146FFF73BFF2C46E0E700BF3A
:1002900040F2000370B5C3F218031B780446532BD9
:1002A0000D46164601D0FFF777FF32462946204615
:1002B000BDE87040FFF7ACBFD0E9013210B504468D
:1002C000501C984207D8236899540246E168636835
:1002D0000131A060E1609A4200D010BD2168206920
:1002E000FFF7D6FFA368984215BF4FF0FF330023F6
:1002F000E360A36010BD00BF2DE9F84F9142DDE936
:100300000A940F46154683461E4669D30B464FF0A6
:100310000108B3FBF5F39D4208F10108F9D9B04596
:1003200038BFB04614F0010A02D1B9F1000F41D133
:10033000DBF80C30002B2EDB012401E005FB04F47C
:10034000012E06F1FF36F9D8B7FBF4F39D4205D82C
:1003500005FB04F4B7FBF4F39D42F9D948F6B03637
:10036000C0F2000606E0AC42B4FBF5F30CD31C4629
:10037000B7FBF3F3F156584604FB1377FFF79CFFE6
:10038000DBF80C30002BEEDAB9F1000F0CBF0023C4
:100390000AF001034BB9BDE8F88F20215846FFF75A
:1003A0008BFFDBF80C30002BF5DBC14509F1FF3981
:1003B000F3D8F0E7B6FA86F35B0913EA540314BFE7
:1003C0003024202409E021465846FFF775FFDBF86A
:1003D0000C3009F1FF39002BDDDBC145F3D8A7E76D
:1003E0004FF001089BE700BFDFED8F0B00232DE9E5
:1003F000F04F9BB00DF1280905AC44F98F078046FA
:100400000D461746CDE90730CDF8109006E004A858
:10041000FFF752FF079B002BC0F2818015F9011BEB
:10042000002900F08E802529F1D100262B4613F9F2
:10043000011BA1F123020D2A08D8DFE802F05F07B3
:100440000707070707075B0763070757A1F1300294
:10045000D2B2092A4FF000040FD804EB840401EB58
:10046000440493F900101D46A1F13002D2B2092ACA
:10047000A4F1300403F10103EFD92E2953D04FF03A
:10048000000B95F90010584601E015F9011F21F005
:100490000403682BF9D0252938D05839CBB2202B4A
:1004A00037D8202935D8DFE811F071003400340046
:1004B000340034003400340034003400340034009C
:1004C000FD00C30034003400340034003400340034
:1004D00034003400340034003400AD003400340003
:1004E0008800340082003400340071001D4646F05C
:1004F00002069BE71D4646F0040697E71D4646F0B8
:10050000080693E71D4646F001068FE704A8FFF7AB
:10051000D3FE079B002B05F10105BFF67FAF184600
:100520001BB0BDE8F08F95F901102A2915D13B6861
:1005300002351A1D3A600120D3F800B095F9001079
:10054000A5E7079B002BEADD069C002C40F0B48059
:10055000234418461BB0BDE8F08FA1F13003DBB295
:10056000092B4FF0000B05F1010500F2E6800BEBC3
:100570008B0201EB420215F9011FA2F1300BA1F130
:100580003003DBB2092BF2D9012080E710225B4651
:10059000D7F800C00DEB0200DCF80010CDE90046F2
:1005A0000CF104043C60FFF7A7FE079BB2E75B4633
:1005B0000A22D7F800C004A8EEE748F2DC533968F5
:1005C000C0F200030C1D3C600C680BF10102002C12
:1005D00004BF00201C4600F0010604EB020A0CE0F8
:1005E000544514BF002306F00103002B91D104A849
:1005F000FFF762FE079B002B8CDB14F9011B00291F
:10060000EED186E70823102200263C680DEB02009D
:10061000216804343C60CDE90036FFF76DFE079B8E
:1006200078E700BFAFF3008040000000000000004A
:100630003B681A6804333B6082EAE273A3EBE2731F
:10064000092B03927BDD4CF6CD404FF0010ACCF62E
:10065000CC401946A0FB03C363290AF1010A4FEA03
:10066000D303F6DCDA4538BFDA4674BB07990024B9
:100670000B460029FFF653AF039B002B4CDB73079F
:1006800056D406F00303022B08BFBBF1000F5FD066
:100690005B460A22CDE90046039904A8FFF72CFE29
:1006A000079B37E73B6804A81A1D93F900103A60CE
:1006B000FFF702FE079B2DE722464946404603937B
:1006C000FFF7E6FD039B234443E7039A06F002038A
:1006D000002A17DB720715D4002B33D0BBF1000FB3
:1006E0000DD0F00709D50AE0202104A8FFF7E4FDAA
:1006F000079B013C002BFFF612AFA245F4D30799EC
:100700000B46B6E7013C13B1BBF1000FF7D0F2077F
:10071000F5D4002CF1D1A9E75B422D2104A8039365
:10072000FFF7CAFD079900290B46FFF6F8AEA8E7C8
:100730002B2104A8FFF7C0FDF4E75846A7E64FF0C9
:10074000010A8FE7F107D8D5079B002BA0DAE6E670
:10075000002C9DD009E0302104A8FFF7ADFD0799DA
:10076000013C00290B46FFF6DAAEA245F3D30B1E7F
:10077000FFF6D5AE8CE700BF0EB400B582B003AB78
:1007800053F8041B01AA0193FFF72EFE02B05DF897
:1007900004EB03B0704700BF2DE9F04300248FB095
:1007A00004A8049402F190F948F2E45248F2EC51A2
:1007B0009DF811009DF81230C0F20002CDE9003022
:1007C000C0F200019DF813302046FFF7D5FF48F234
:1007D000E4712046C0F20001FFF7CEFF48F6104159
:1007E0004AF2E470C0F20001C0F2000007F098FB8A
:1007F000002840F076814AF2487848F6C41948F655
:10080000CC3748F688160025C0F20008C0F200096F
:10081000C0F20007C0F200060DF10F0105A807F0B5
:10082000ABFC0446002853D19DF80F30082B62D052
:10083000092B76D0032BEFD14AF24A714AF2E470C9
:100840000122C0F20001C0F2000000F075FD044674
:10085000002840F0BC804AF248714AF2E47001235B
:100860000022C0F20001C0F2000000F097FD044633
:10087000002876D14AF2E47001220021C0F2000083
:1008800000F04AF904460028C6D048F664233A46E8
:1008900031460020C0F20003FFF76EFF4AF2E47019
:1008A000C0F2000007F0C8FC002840F0BC8048F609
:1008B000A4112246C0F200010020FFF75DFF00BE38
:1008C0000DF10F0105A807F057FC04460028ABD036
:1008D0004B463A4631460020FFF74EFF48F6A4113A
:1008E0002246C0F200010020FFF746FF00BE9DF83F
:1008F0000F30082B9CD148F6C4210020C0F2000123
:10090000FFF73AFFBDF8203003F47F43B3F5306FB3
:1009100077D048F6F0210020C0F20001FFF72CFF4D
:100920007AE74AF2D07149F248702A46B8F80030A6
:10093000C0F20001C0F2000000F018F94AF2D071D4
:1009400005464AF2E4700123B8F80020C0F2000125
:10095000C0F2000007F0B2FB0446E8B900F022F94B
:100960005AE748F634233A4631460020C0F20003E5
:10097000FFF702FF4AF2E470C0F2000007F05CFCEF
:10098000002877D148F6A4112246C0F200010020C9
:10099000FFF7F2FE00BE6DE748F6A4233A46314663
:1009A0000020C0F20003FFF7E7FE4AF2E470C0F255
:1009B000000007F041FC002842D148F6A41122466D
:1009C000C0F200010020FFF7D7FE00BEC6E748F6E0
:1009D000EC133A4631460020C0F20003FFF7CCFE8C
:1009E0004AF2E470C0F2000007F026FCA8BB48F60B
:1009F000A4112246C0F200010020FFF7BDFE00BE98
:100A000029E74AF2D0714AF2E4700123B8F80020D5
:100A1000C0F20001C0F2000007F050FB0446B0BB7A
:100A200000F0C0F875E748F6142348F6C0323146A6
:100A3000C0F20003C0F200020020FFF79DFE36E77F
:100A400048F6142348F6C0323146C0F20003C0F223
:100A500000020020FFF790FEAFE748F6142348F6A7
:100A6000C0323146C0F20003C0F200020020FFF79E
:100A700083FEBCE748F6142348F6C0323146C0F284
:100A80000003C0F200020020FFF776FE7AE748F686
:100A9000A4233A4631460020C0F20003FFF76CFE63
:100AA0004AF2E470C0F2000007F0C6FB48B948F60D
:100AB000A4112246C0F200010020FFF75DFE00BE37
:100AC000AEE748F6142348F6C03248F68811C0F263
:100AD0000003C0F20002C0F200010020FFF74CFE4C
:100AE000E5E748F6601348F6CC3248F6881105462B
:100AF000C0F200032046C0F20002C0F20001FFF77E
:100B00003BFE48F6A4112A462046C0F20001FFF73A
:100B100033FE00BE6FE600BF13464AF2507230B596
:100B200040F6213C0C46002583B06946C0F2000225
:100B3000ADF80240ADF800C0019507F04DFB04464A
:100B400010B9204603B030BD48F6543348F6D832C9
:100B500048F688112846C0F20003C0F20002C0F235
:100B60000001FFF709FE204603B030BDBBB14FF0D6
:100B7000000C10B501390CEB0204B4F5805F08BF1E
:100B80000022964611F8014F86440EF80C400CF1F5
:100B9000010C9C45EFD194441FFA8CF010BD104617
:100BA000704700BF48F6843170B5002048F6903594
:100BB000C0F20001FFF7E0FD0A4CC0F2000504F1AD
:100BC000080614F8012F29460020FFF7D5FDB4428E
:100BD000F7D1BDE8704048F65C110020C0F200017A
:100BE000FFF7CABDCFA7000008B5FFF7D5FD00206D
:100BF00008BD00BF10B582B0044601A9072006F069
:100C00002BFF00B1FEE70346019907200B608B83A1
:100C100094F8203081F82030E36ACB6206F0E4FEDD
:100C200008B902B010BD0199072006F037FF02B0E5
:100C300010BD00BF03468C468C2200B58BB093F8E4
:100C40002030052001A98DF805C08DF807208DF80A
:100C5000043000F0E7FE0BB05DF804FB30B50C4645
:100C60008BB0054690F8200003F094FD204601F07B
:100C700069F98C2295F82030062001A98DF80540ED
:100C80008DF807208DF8043000F0CCFE0BB030BD9D
:100C90002DE9F0474AF6100A4AF618090C4640F6C4
:100CA000C0084AF6340E40F6C4064AF60C074AF667
:100CB000280C8A6990F820301288C0F2000A82B0AD
:100CC0002AF81320CA69054610888968C0F200090D
:100CD00003EB8302024429F81300206891F807907F
:100CE000C3F2180848F82300C0F2000E6068C3F28F
:100CF00018062EF81290C0F2000747F8231046F8A5
:100D000023000B79C0F2000C20462CF8123001F0C1
:100D1000BDF84AF614030127002695F82010E26872
:100D2000C0F2000323F81170072001A9168006F015
:100D300093FE00B1FEE70346019907200B608B8309
:100D400095F8203081F82030EB6ACB6206F04CFE3B
:100D500010B902B0BDE8F0870199072006F09EFEA9
:100D600002B0BDE8F08700BF2DE9F04F98464B7800
:100D700089B0042B5ED14AF6180B0C780E464AF661
:100D800034014AF61C0C0025814690F82000C0F280
:100D9000000B00EB80033BF81000C0F2000103449D
:100DA00031F81310C0F2000C4FF0010A2CF8135068
:100DB000002943D044453DD2002306AF049303925B
:100DC000CDF814C004E02B7823449CB2A04531D95F
:100DD00035196B78052BF6D199F82000CDE900572D
:100DE0000C223BF81010039B03F048FC014608B3AB
:100DF0003A4699F8200000F0EFFFBDF81830DB0606
:100E000012D54FF0010099F82030049A3BF81310E6
:100E100003EB83030B4405994FF0010A21F81300FB
:100E2000002AD0D0002006E0012352460493002A75
:100E3000C9D0F7E7FF2009B0BDE8F08F4AF62801D6
:100E4000C0F2000131F813E0BEF1020A18BF4FF002
:100E5000010AAFE72DE9F04790F820C0002A5FD0E3
:100E600040F6C8064FF40079C3F2180602F5407840
:100E700006EB4C22D47892781FFA88F84FEA4C2E71
:100E800042EA042240F6F8254FF4D06A0024FF27F6
:100E90000CEB8C0CC3F2180525F81CA005EB4C0CD0
:100EA000ACF80420ACF80690ACF80280ACF808105E
:100EB000B6440EF8047090F820C001340CEB8C029C
:100EC00005EB4202D288A1B28A424FEA4C2EEFD8FB
:100ED00040F6C82700244FF0800E0CEB4C010CEBC1
:100EE0008C08C3F2180707EB011106EB4C2605EB43
:100EF0004805C1E90425C1E9013681F829E081F8F6
:100F000020C0CC8390F82030C16A03EB430207EB8A
:100F100002121046D16201F0A1F82046BDE8F08728
:100F200040F6C8064FF004094FF440784FEA4C2EC3
:100F3000C3F21806A6E700BFF0B583B040F6B8329A
:100F4000072001A906F03AFD30B9019CA58B2DB10F
:100F50002146072006F0A2FD03B0F0BD4AF61406B4
:100F600094F820C0C0F2000636F81C30022B1AD0CC
:100F7000032B2CD0012B1DD14AF6180140F6F53376
:100F8000C0F200012A462046C0F2000331F81C10CE
:100F9000FFF760FF94F82020019C36F812300133EF
:100FA00026F81230D4E7A28C002A51D0013326F85B
:100FB0001C30CDE701232046FF2126F81C3000F02D
:100FC00025FF94F8200000F04DFF019CC0E74AF691
:100FD00018014AF63402C0F2000131F81C100CEB83
:100FE0008C03C0F200020B4432F813304AF60C01B5
:100FF000013BDBB2012B40F6C4034AF61002C3F2F8
:10100000180353F82C30C0F2000151F82C10C0F234
:10101000000288BF26F81C5032F81C2093F803C049
:101020009F78CB1AC3EB0C2317FA83F320469BB2AD
:10103000FFF79AFEFF28074624D0002294F82030BC
:1010400026F813202046294600F0E0FE019C7FE7A9
:1010500040F6C0014AF6180240F6F533C3F2180113
:1010600051F82C50C0F2000232F81C102046C0F299
:101070000003EA7BFFF7EEFE94F820C0019C36F8EF
:101080001C3093E7002394F820003D4626F81030EA
:1010900000F0E8FED6E700BF30B5C38B044690F8F9
:1010A00020208BB0D9B28DF804208DF8063003F0E3
:1010B000DBFAD4E903358C21A28C5B1B000B042ADC
:1010C00003938DF8050008BF40F2DE538DF807103A
:1010D00009D0052A08BF40F2DF5304D0032A40F2AA
:1010E000DC5308BF0023092001A9ADF8083000F047
:1010F00099FC0BB030BD00BF10B5C38B90F8202019
:1011000004468AB0D9B28DF804208DF8063003F079
:10111000ABFAA48C0246012C40F2DC534FF08C0C4D
:1011200008BF0023120B0A2001A98DF805208DF8B5
:1011300007C0ADF8083000F075FC0AB010BD00BF64
:1011400030B541F6F92340F6914541F2F92240F6D7
:101150005D448FB0C0F20003C0F20005C0F200028F
:10116000C0F2000449F2A841009302920195039451
:1011700040F635424FF0030C6DF9DF0AC0F2000172
:1011800006910B93C0F2000207AB04A943F98F0A42
:10119000ADF816C00C9200F091FD0FB030BD00BF4D
:1011A0002DE9F8434AF60806C0F20006377890F8B1
:1011B000203047FA03F414F0010469D1054640F6E3
:1011C000C8004AF634094AF628084AF61C0E03EB12
:1011D000830CC3F218004FEA4C0CC0F2000E4FF41F
:1011E0000072214600EB4320C0F20009C0F2000863
:1011F00029F80C4028F80C402EF80C4007F042F972
:1012000040F6F82340F6C82095F82010C3F21803E2
:1012100001EB810143F8114003EB41035C601C8149
:1012200095F82030C3F2180003EB43033022214627
:1012300000EB03104FF0010807F024F94AF61409F7
:101240004AF618004AF6100E40F6C40C40F6C001EB
:101250004AF60C0295F82030C0F2000008FA03F5B7
:10126000C0F200092F43C0F2000EC3F2180CC3F203
:101270001801C0F2000229F8134037702EF813400D
:101280004CF8234020F8134041F8234042F8234013
:101290000321BDE8F843072006F0D2BC2DE9F04158
:1012A0004AF664054FF47047012480460E03C0F2ED
:1012B0000005CFF6FF7702E001340A2C19D098F828
:1012C000203004EB840203EB830303EB83039B00D6
:1012D00003EB4203EA5A2B44012AEDD1DB883B4061
:1012E0009E42E9D1A1B24046013403F07BFA0A2CB8
:1012F000E5D1BDE8F08100BF30B505468BB00C46A6
:10130000FFF7CCFF8C2295F82030032001A98DF83F
:1013100005408DF807208DF8043000F083FB0BB0FA
:1013200030BD00BF4AF6340300EB8000C0F200037A
:10133000084413F810007047F0B583B040B30D4671
:1013400031B303780446012B13D8531E042B1646E1
:101350000FD801A906F0EEFC074618B99DF8063033
:10136000032B0DD040F2DC5701F1ACFB384603B043
:10137000F0BD40F2E25701F1A5FB384603B0F0BDE5
:1013800031462078FFF7CEFF2870384603B0F0BD15
:10139000012701F197FB384603B0F0BD2DE9F0417C
:1013A00090B0002863D00F46002960D090F800C0AC
:1013B000154642EA0C0CBCF1010F044640D81E460B
:1013C000013B042B3CD8324603A906F0B3FC0028AD
:1013D0003ED19DF80E30032B3AD12078002D3FD01E
:1013E0000122314600920C2203F0FEF9804632467B
:1013F00020460DF10A0106F02BFD054640BBBDF865
:101400000A3043FA08F3DB0722D520788DF8300044
:1014100000F036F863780F905FFA88F0ADF82E3060
:1014200000F0E6FD0146BDF82E0000F073FD014618
:1014300004A800F0EDFA3880284610B0BDE8F0812D
:1014400040F2E25501F13EFB284610B0BDE8F081C4
:1014500040F2DC5501F136FB284610B0BDE8F081C2
:101460000C223146009503F0BFF98046BFE7012505
:1014700001F128FB284610B0BDE8F081704700BF9D
:101480000020C8F22000704730B5012083B001F180
:10149000D7FB14EE161F002504EE165F2C462B46D4
:1014A000C8F22804D4F81023C8F2200322F4807272
:1014B000C4F81023D4F810231A681A681A681A6836
:1014C0001A681A681B6804EE161F4FF47A7101201F
:1014D00001F106FB0120D4F81033D4F81033D4F80E
:1014E000103301F13FFB46F6E7620195019BC0F224
:1014F0000302934205D8019B01330193019B934260
:10150000F9D9002318464AF6C772C8F22003D3F867
:10151000001821F00041C3F80018D3F80C1221F094
:101520000201C3F80C120190019B934205D8019B64
:1015300001330193019B9342F9D900231846C8F265
:101540002003D3F8002242F01002C3F80022D3F89F
:10155000002242F00802C3F80022D3F8002242F031
:101560000402C3F80022D3F8002242F00202C3F8BA
:101570000022D3F8002242F00102C3F80022D3F87F
:10158000082222F47042C3F80822D3F8082222F479
:101590008072C3F80822D3F8082222F03002C3F880
:1015A0000822D3F8082222F00302C3F8082203B06D
:1015B00030BD00BF10B50024C8F22804D4F81033A1
:1015C000DB0548BF40F2E25017D4012001F138FB9F
:1015D000D4F810334FF47A7143F480730120C4F8C7
:1015E000103301F17DFA0120D4F81033D4F8103310
:1015F000D4F8103301F1B6FA002010BDB1F90C3067
:10160000F0B5002B14DB4FF0020C1A09920002F126
:10161000144203F00F0ED2F8084C4FEA4E0E0CFAAB
:101620000EFC24EA0C04C2F8084C002853D0F0BD8C
:1016300013F1110F4CDB0022022503F00F046400AC
:10164000C9F21142A540D2F8044C24EA0504C2F8BC
:10165000044C0028EBD100204FF0010C4AF6440264
:10166000FF2543F2F01603F1200703F00303C9F24C
:101670001140DB00C0F2000203F1030E9D400CFAA2
:1016800007F3D0F880C0116027F003024CEA030C86
:1016900002F114428C7E02F58812C0F880C0C0F2BC
:1016A000100646F82710D2F8001404FA0EF421EAC6
:1016B0000501C2F80014D2F800142143C2F8001446
:1016C000C0F88032D0F800211343C0F80031F0BDDB
:1016D0000028C0D0F0BD4AF644000125FF2743F2A0
:1016E000F01E5A09920002F11442D2F8844003F02D
:1016F0001F06B540C0F200002C43016023F0030038
:1017000091F81AC000F11440C2F8844003F00304B9
:10171000D0F82064E400A74026EA0706C0F8206459
:10172000D0F8206403340CFA04F42033C0F2100E15
:101730003443C0F820444EF82310C2F88452D2F843
:1017400004312B43C2F80431F0BD00BF4FF47A716D
:1017500001F1C6B94AF64403FF21C0F2000318683C
:10176000F0B5B0F90C30847E03F00302D200914052
:10177000002B02F1030204FA02F403F1200C6FEAD9
:1017800001022ADB012143F2F0154FEA531E4FEA12
:101790008E0E0EF1144E03F01F06B140DEF8846089
:1017A00023F003030E43CEF8846003F11443D3F80F
:1017B0002064C0F210053240C3F82024D3F820245E
:1017C0002243C3F8202445F82C00CEF88412DEF81A
:1017D00004310B43CEF80431F0BD0021012543F262
:1017E000F016C9F21141D1F8807005FA0CF52CF011
:1017F00003032F4303F11443C1F8807003F58813EA
:10180000D3F80074C0F210063A40C3F80024D3F8AD
:1018100000242243C3F8002446F82C00C1F880526B
:10182000D1F800312B43C1F80031F0BD4AF6440332
:10183000C0F200031B68B3F90C30002B0FDB012151
:101840005A09920003F01F0302F1144201FA03F354
:10185000C2F88431BFF34F8FBFF36F8F70470122FF
:101860000021203302FA03F3C9F21141C1F880319B
:10187000BFF34F8FBFF36F8F704700BF2DE9F04F5D
:101880004CF2D80590F800C0C0F200050C4635F8BF
:101890001C1083B089B2012903D0002003B0BDE839
:1018A000F08F40F600154FF0000A80EE902BCCEB45
:1018B0000C1BC3F2190500F10C080346B8E803003D
:1018C00041F65D4705EB4B184546A8F81EA0C8F841
:1018D000084008F10C0848F98F074FF00A0E42F251
:1018E0001C324FF08009C0F200076F605C780CEB8F
:1018F0008C06B6001EFB046EC3F218020EEB020348
:101900006B6104EB840306EB4303D0501A4460463A
:10191000019685F8299085F820C014815160FFF761
:10192000AFFD03462846EB6203B0BDE8F04F00F080
:1019300095BB00BF2DE9F8431546C2780446092A35
:101940000E4698BF00200AD949F2B0416378C0F230
:10195000000103EB8203293B5B00DBB2C85C00F0B3
:1019600047FB0146607800F0D5FAE378092B02D8EE
:101970000020BDE8F88340F6001848F2F84CC7B2E2
:10198000207880EE905BC0EB00194FEA491907EB15
:10199000470541F6187209EB0515C3F21908C0F2A4
:1019A000000C5CF833C008EB05031D46802100EBFA
:1019B000002EC3F2180202EB8E029A600C33EF8302
:1019C00043F98F0785F82910C5F804C085F8200071
:1019D000FFF756FD95F82030E8626278302003EB7F
:1019E000830313444AF6480201244AF6500110FBCF
:1019F0000790C0F20002C0F200011470404441F8A8
:101A00002360BDE8F84300F029BB00BF0020704709
:101A10004AF64C13C0F2000303EBC10398887047E9
:101A2000704700BF2DE9F0414CF2E8048E46C0F249
:101A3000000423780E465D1CEDB2202D28BF002542
:101A40004CF2E00703EBC30C04EB8C0C23448AB08C
:101A50000CF1240C98708046BEE80F00ACE80F0033
:101A6000BEE80F00ACE80F00DEF800302570CCF8BF
:101A700000303378C0F2000757F823202AB34CF225
:101A8000DC0286F80680C0F2000252F82380B8F12A
:101A9000000F1DD0454601AC0FCD0FC40FCD0FC4B4
:101AA0002B682360C446B646BEE80F00ACE80F00C2
:101AB000BEE80F00ACE80F00DEF800304046CCF87E
:101AC0000030337857F8233098470AB0BDE8F081EA
:101AD0000DF10408E6E700BF08B506F063F806F06C
:101AE000BDF8012800D008BD002003F04BFABDE886
:101AF00008400020FFF720BA704700BF2DE9F041F1
:101B000082B004460F46012001A990461D4605F00B
:101B1000A3FF00B1FEE7019EE36A089A3060B78335
:101B2000A6F81E80B5607260F36294F820303146EA
:101B3000012086F8203005F057FF044618B92046EA
:101B400002B0BDE8F0813146012005F0A7FF204634
:101B500002B0BDE8F08100BFF0B583B004460E4688
:101B6000012001A917461D4605F076FF00B1FEE7EA
:101B70000199E36A08608E83CF834D84CB6294F829
:101B80002030012081F8203005F02EFF08B903B085
:101B9000F0BD0199012005F081FF03B0F0BD00BF49
:101BA000FF2A2DE9F04708BF4FF4807942F2603EEA
:101BB00042F2303518BF4FF481794FF000064FF0F4
:101BC000800A08BF002290F82040C3F2180E04EBF0
:101BD0008407C3F2180508BFC0F2010904EB440CE6
:101BE0004EF8179005EB0C1C0EEB47078CF829A05C
:101BF0008CF82040CCF81470CCF80860CCF8106059
:101C0000ACF81E60CCF8043090F82030BA8003EBBA
:101C1000430205EB02123981C16AFE80BDE8F0473C
:101C20001046D16200F01ABA2DE9F0410646084686
:101C30000D46174600F0DEF90446284600F0F6F996
:101C4000034628461C4300F0E9F9A4B201463B468E
:101C500022463046BDE8F041FFF7A2BF10B5818CA7
:101C60008AB019B106290CBF0121FF214FF413449A
:101C70004AF6C80290F820C04369ADF808108DF804
:101C800004C01988C0F20002ADF81010ADF806408B
:101C900052F82C405A880820ADF812209A8801A9E1
:101CA000ADF81420DA88ADF816201B89121B8DF8C8
:101CB00005300392FFF7B6FE0AB010BD2DE9F843D8
:101CC0004AF6CC0490F82030C0F2000434F8132017
:101CD000012A42D84AF600164FF6FF774FF00A085D
:101CE0008C46054602EBC20903EBC303C2F1000EAA
:101CF0004FEA8909C0F200060EF0240E09EBC30971
:101D00000EEBC30ECFF2000706EB090346F80E7088
:101D1000A3F80480BCF806600022DE80DCF80860CE
:101D20004FF470419E60DCF80C70DF60DCF81060EE
:101D30001E61DCF814605E61DCF818609E61DCF8FE
:101D40001C60DE61DCF820601E62B84795F8202038
:101D500034F81230013324F81230BDE8F88300BFA4
:101D600090F8203031B94AF6CC02C0F2000222F8D5
:101D7000131070474AF6001003EBC302C0F20000D4
:101D800000EBC20200B5B2F806E04FEAC30C8E4584
:101D900006D0528D8A4208BF012202D05DF804FBB2
:101DA00000224AF6CC01DFED0A0B52429C4402F0BD
:101DB000240202EBCC02C0F20001104431F81320DF
:101DC00040F94F07013A21F813205DF804FB00BFEA
:101DD000FFFF00F00A0000004AF664034FF0010C18
:101DE00000EB800000EB8000800001EB8101C0F27D
:101DF000000300EB410123F801C0B2F800C05818FD
:101E0000A0F802C0526806335A50704710B5044615
:101E10004BF224738C4694F8202082B0C0F2000369
:101E2000012001A923F812C005F016FE00B1FEE75B
:101E30004FF492730199E26A08604884CA62CB61E8
:101E400094F82030012081F8203005F0CDFD08B94C
:101E500002B010BD0199012005F020FE02B010BDB6
:101E6000FFF76EB94AF6D402034600B5C0F200028D
:101E70008BB032F813200D2001A98DF804308DF8B5
:101E80000520FFF7CFFD0BB05DF804FBF0B5002592
:101E9000C36846681D8077882A462C461C4B6FB164
:101EA00006EB040E9EF8011004292BD005290DD055
:101EB0009EF8001021448CB2A742F1D80020F0BD5A
:101EC0001FFA8CF2202A03F108031ED8597802F178
:101ED000010C0029F4D19EF8021001F00F01597095
:101EE0009EF8021021F07F0199709EF8031001F016
:101EF0000301D970BEF804109980C16909881D706A
:101F0000D980D5E79EF80250D2E7FF20F0BD00BF90
:101F100054A900004AF64C130122C0F2000304E069
:101F20000132202A03F1080309D0B3F80EC084451A
:101F3000F6D193F809C08C45F2D190B270470020D9
:101F4000704700BF4FF0000C074B03F1F801DA882F
:101F50000833824204BF43F808CC43F804CC8B42D8
:101F6000F5D10020704700BF54A900000000000018
:101F700038B505F07BFE4AF600134AF6DC0E4AF649
:101F8000D00C0024DFED160B0A254AF6D4004AF6E1
:101F9000CC02C0F2000EC0F2000CC0F20003AEF89A
:101FA0000050C0F20002ACF80040C0F2000043F95B
:101FB0004F0724330480012143F94F072046148042
:101FC00005F09CFE0221012005F098FE48F28850A1
:101FD000C0F2000002F05CF9204638BDAFF300808B
:101FE000FFFF00F00A0000004FF47A7100F178BDA5
:101FF00000F008B84AF64C13C0F2000303EBC0032C
:10200000587870474AF6640300EB8000C0F2000382
:1020100003EB4003588800F00F0070474AF64C135A
:10202000C0F2000303EBC003D88870474AF64C1394
:10203000C0F2000303EBC003987870474AF64813D8
:10204000C0F2000323F81010704700BF4AF648138F
:10205000C0F2000333F81000704700BF10B5C38B07
:1020600086B083B941690A8904938468039404693A
:102070000294B1F800C000930CF08004019402F0C7
:1020800045F906B010BD4AF64C12C0F2000202EB50
:10209000C303DA8812B9FF2006B010BD99880491F5
:1020A0008168046903919978CDE90114DC780021F5
:1020B0005B78009402F02AF906B010BD10B5044612
:1020C00090F8200002F036FAFF2801BF4AF64812C5
:1020D0000021C0F2000251802046E28BBDE8104092
:1020E0000CBF4323402340F22111FFF735BD00BF51
:1020F00010B5044690F8200002F01CFAFF2812D018
:1021000002F038FA02289DBF49F2D843C0F200031A
:1021100033F8103000232046BDE81040002240F282
:102120002311FFF719BD10BD00234FF491711A461A
:10213000FFF712BD2DE9F0414AF64806C0F200064D
:102140001D4633780C46012B1746B0F81E800ED082
:10215000EB1E012B98BF236941469CBFDB1B23610B
:1021600020466368A584BDE8F041002218474AF67E
:102170004C13CA8BC0F200033AB103EBC2039B7845
:10218000802B16D000233370E2E79B78802BF9D1A7
:102190004AF6500291F82030C0F2000203EB8303AC
:1021A00052F823000028EDD00A69896806F072F918
:1021B000E8E74AF6500091F82030C0F2000003EB47
:1021C000830343440A6950F82300896806F062F9E2
:1021D000D8E700BF0023C8F22003D3F82031C3F3AF
:1021E0008103032B2AD010B58E4649F2E041C0F29C
:1021F000000151F82330B2EBC30F4FEAC30415D2EC
:102200004AF65823C0F20003034403EB020C70B1FA
:10221000ACEB000313F8011B11B1013903F8011CE9
:102220006345F7D172449442F444F1D810BD72442E
:102230009442FBD972449442F9D8F7E7704700BF43
:102240000023C8F22003D3F834216FF30B027AB1D4
:1022500040F6FC7303EA81031A4306E0136823F097
:102260001F03984205D01A4613B11378DB07F5D542
:10227000704703681360704738B50025C8F2200521
:10228000D5F8203123F00103C5F82031D5F82431E9
:10229000D90458BF40F6B93402D50AE0013C2BD02E
:1022A0004FF47A71012000F11BFCD5F82431DB04D6
:1022B000F4D50025C8F22005D5F8203143F00203FB
:1022C000C5F82031D5F820319A0748BF002413D52E
:1022D0004FF47A71012000F103FC40F6B932D5F8D1
:1022E00020310134C3F3400383F00103944208BF5B
:1022F00043F00103002BEBD038BD00BFF8B500253B
:10230000C8F22005D5F800311B0CB3F5887F01D049
:10231000FF20F8BDFFF7B0FF4BF25823FF21012249
:10232000C0F200031970D5F8203162F31743C5F8E5
:102330002031D5F808319807EAD50222D5F82031A6
:1023400062F38303C5F82031D5F8203143F001034F
:10235000C5F8203100F016FE00F044FE00F022FE29
:1023600000F030FE00F062FE4AF6582000214FF4E3
:102370000062C0F2000006F085F800F065FEC5F8C6
:102380003401D5F8203143F01003C5F82031D5F8D9
:102390002431590458BF40F6B93402D50AE0013C53
:1023A000B6D04FF47A71012000F19AFBD5F82431B0
:1023B0005A04F4D500F04EFE0028A9D001250246AB
:1023C000002437214379C8F2200443F0800365F3E9
:1023D0004202006043710270C4F83801D4F8203121
:1023E00043F02003C4F82031D4F8203123F40063F3
:1023F000C4F82031C4F82811D4F860312B43C4F854
:102400006031D4F8046116F00F061EBF4EF6D57782
:102410000025CFF6FF771CD0D4F864314FF47A71E1
:102420003B4043F48053C4F86431D4F864316420F1
:102430009B0648BFD4F8643105F1010542BF23F083
:102440002A0343F02003C4F8643100F149FBAE4293
:10245000E2D10020F8BD00BF08B5FFF70DFF002353
:102460006FF03702C8F22003C3F8282108BD00BF6F
:1024700008B10020704738B50025C8F22005D5F80E
:1024800064314FF47A7123F4957343F48073C5F883
:1024900064310A2000F124FBD5F8643123F49573EC
:1024A000C5F86431D5F86431DA0548BF40F6B9346F
:1024B00002D40AE0013C0FD04FF47A71012000F100
:1024C0000FFBD5F86431DB05F4D44FF47A710A20A0
:1024D00000F106FB012038BD002038BD0023C8F202
:1024E0002003D3F82031C3F38103032B1DBF49F22E
:1024F000E042C0F2000252F823000020704700BF03
:102500000023C8F22003D3F8383153B1834208D0F6
:1025100001211A6861F342020260024661F342023D
:102520001A607047002818BF03292DE9F0410CBF3D
:1025300001250025002A08BF45F0010582B015B12C
:1025400002B0BDE8F0810024C8F22004D4F8204194
:10255000C4F38104032C1EBF49F2E045C0F200051C
:1025600055F824500024C8F22004D4F834616FF3E5
:102570000B06002EE4D0072A4FEAD30E94BF0127A2
:10258000D708AE45DCD206EB8E064FEA8708B44684
:102590000CE02BB9B4F84830C3F30D0393421DD3BC
:1025A000DCF800301F2B23F01F0CC9D9DCF80040E9
:1025B00014F0010422D1DCF8004024F01F04A042F2
:1025C00025D0DCF80030C3F34103012B12D0022BDD
:1025D000DFD1A38FC3F30D039342E1D20194DCF862
:1025E0000030019CC3F3410363F342040194019B57
:1025F000036004E0A38EC3F30D03CFE704600190F2
:10260000019B61F342030193019BCCF80030BE446F
:10261000AE454644BBD393E780EE901B40F98F074D
:10262000704700BFE0B138B503460BE01C682022BC
:10263000184605F027FF00F087FD1F2C24F01F052A
:102640000DD92B46197811F00101EFD01846202240
:10265000002105F017FFBDE8384000F075BD38BD1A
:10266000704700BF002800F08E8038B50024C8F203
:102670002004D4F838311F2B25D90568D4F8381137
:1026800025F01F0321F01F0183420A461CD00B686E
:10269000884208BF23F01F010B6808BF0A4623F0D9
:1026A0001F0399420CD139E0984236D013681F2B92
:1026B00023F01F0207D9136823F01F0399422DD07E
:1026C0001478E407F0D538BD8B42FCD1D4F8203122
:1026D00023F40063C4F82031D4F824315D0448BFEA
:1026E000002513D54FF47A71012000F1F9F940F675
:1026F000B932D4F824310135C3F3803383F00103B8
:10270000954208BF43F00103002BEBD000231A468B
:10271000C8F22003C3F8382138BD15600025C8F27F
:102720002005D5F820314FF47A7143F04003C5F805
:102730002031012000F1D4F9D5F824319B0648BF9F
:10274000002413D54FF47A71012000F1C9F940F645
:10275000B932D5F824310134C3F3401383F00103B7
:10276000944208BF43F00103002BEBD000234FF24B
:102770002001C8F22003D3F82421C0F201010A404D
:10278000C3F8242138BD704758B3002310B5C8F2F0
:102790002003D3F82031C3F38103032B0CD049F27B
:1027A000E042C0F2000252F823402CB10021FFF7B2
:1027B00047FD0131A142FAD1818EC1F30D037BB1F6
:1027C000BDE810404379C28E03F03003202B14BFC4
:1027D00005200120C1F30D01C2F30D02FFF7FABC81
:1027E00010BD7047002842D0002310B5C8F2200366
:1027F000D3F82031C3F38103032B0CD049F2E0421C
:10280000C0F2000252F823402CB10021FFF718FD5E
:102810000131A142FAD1B0F84820C2F30D0303B947
:1028200010BD0023C8F22003D3F82011C1F38101A9
:102830000329F5D049F2E044B0F84A30C0F2000470
:1028400054F82110C3F30D03B3EBC10F4FEAC10CD1
:10285000E6D24AF65821C2F30D00C0F20001CA5C6C
:102860000AB1013ACA5403449C45F8D810BD7047D8
:10287000A8B3002310B5C8F22003D3F82031C3F366
:102880008103032B0CD049F2E042C0F2000252F85F
:1028900023402CB10021FFF7D3FC0131A142FAD132
:1028A000818FC1F30D03CBB144F25D14836BCAF683
:1028B0004C64BB33A4FB0343BDE8104090F83D20BB
:1028C000DB0902F0C002402AC28F08BF023318465B
:1028D000C1F30D01C2F30D02FFF77CBC10BD7047C0
:1028E00000232DE9F047C8F22003D3F82031054634
:1028F000C3F38103032B084622D18846E9B14FF088
:10290000000CA8467DBBB8FBF0F300FB1388C44560
:1029100013D94AF65823C0F200032B44444603EB74
:102920000801CDB14B1B1A78013203F8012B8B4201
:10293000F9D10444A4450144F4D84046BDE8F087E9
:1029400049F2E042C0F2000252F823304FEAC30CD1
:102950000029D6D18846DAE70444A445EDD90444D9
:10296000A445F9D8E9E74FF000084AF6582E4FF091
:10297000FF394746C5F1080AC0F2000E3C46002266
:102980007E19644506D223461EF8031003446345AE
:102990000A44F9D30134B442F3D1914503D9B8467E
:1029A000002AB0D09146012D03D007F0070353450C
:1029B00003D00137B842E1D8A5E7B042A3D93746E2
:1029C000DCE700BFF8B54DF20054C3F21804064628
:1029D00004F5A06502E02834AC4249D0E3781F0634
:1029E000F9D5A268002AF6D0D27802F003010229B4
:1029F000F1D1616A0029EED003F06003202B38D0BA
:102A000091F83730C86B5B06E5D54B7E13F00C0FA1
:102A100018BF00220B7E08BF012213F0400718BF29
:102A200042F0020213F0200F18BF42F0040213F02C
:102A3000100F18BF42F008021B072FD5E37823F0D0
:102A40008003E3706FB9038923F4FE4323F07F030F
:102A50009BB2B3F5004F04D0CB6893F90830002B3C
:102A6000B9DB21463046283401F004F9AC42B5D137
:102A7000F8BD02F00C02082A1ED091F83F305A0629
:102A8000A9D58023CA68C8F200031340B3F1004FF0
:102A9000A1D12146304601F0A7F99CE7002FE0D1F3
:102AA000038923F4FE4323F07F039BB2B3F5004F69
:102AB000D7D0002A8FD0CFE791F84B3058068AD56F
:102AC000CB6D01EB8303DB79DB0984D121463046F2
:102AD00001F02CF97FE700BF0023C8F22003D3F8F0
:102AE0006421920400F18E802DE9F041D3F8642135
:102AF0000746940675D400230025C8F22003D3F8B6
:102B00006421C8F22005120748BFD3F86431D5F814
:102B100064319B0701D4BDE8F08100264FF47A713F
:102B20000A20D5F86441FFF0DBFFD5F8643104F0EA
:102B3000010403F001039C42EFD101360B2EEDD1CD
:102B40004BF25824D5F86431C0F20004DE07217836
:102B500013D4D5F8643198040FD4FF29DBD038465C
:102B600001F074FC4BF22843FF22C0F200032270F4
:102B70003846BDE8F0415B681847FF293CD1002585
:102B8000C8F22005D5F86431D907C4D5D5F8643129
:102B9000C3F38123012B36D00020FFF769FC002806
:102BA000B9D0D5F86431DA07B5D5D5F864315B070B
:102BB00029D501F0FBFA03460028ACD000254BF2E2
:102BC00028411A68C0F2000122F0706222F07F02F0
:102BD00042F0206225703846BDE8F0411A600B686B
:102BE0001847D3F86431D90685D54BF22843C0F293
:102BF00000039B6898477EE7384601F027FCFF23D7
:102C00002370BCE770470022BDE8F041C8F2200203
:102C1000D2F864314FF47A7123F4005323F02A037D
:102C200043F400533220C2F86431FFF059BF00BFB3
:102C300030B50024C8F22004D4F8243183B05BB34B
:102C4000D4F8283143B3D4F824310546DB0600F12B
:102C500093800024C8F22004D4F824315A0775D494
:102C60000024C8F22004D4F82431980758D4002452
:102C7000C8F22004D4F824319A063BD40024C8F2C8
:102C80002004D4F8243118071ED40024C8F22004EC
:102C9000D4F82431DA0701D403B030BDD4F8283198
:102CA000DB07F9D5002328461A461946CDE900333B
:102CB00001F04CFA4FF20103D4F82421C0F20103D1
:102CC0001340C4F82431E7E7D4F828311907DCD5DC
:102CD000002303221946CDE90033284601F036FAD5
:102CE0004FF20802D4F82431C0F201021340C4F8B4
:102CF0002431CAE7D4F828319B06BFD5002305222A
:102D00001946CDE90033284601F020FA4FF220029F
:102D1000D4F82431C0F201021340C4F82431ADE7E5
:102D2000D4F828319907C3F34002A0D500232846E0
:102D30001946CDE9003301F009FA0223D4F8242121
:102D4000C0F21F031340C4F8243190E7D4F82831AF
:102D50005B0785D5002302221946CDE900332846BA
:102D600001F0F4F94FF20402D4F82431C0F2010268
:102D70001340C4F8243173E7D4F82831D9067FF51D
:102D800068AF002304221946CDE9003301F0DEF9D3
:102D90004FF21002D4F82431C0F201021340C4F8FB
:102DA000243156E708B1FF2070474BF25823C0F298
:102DB00000031878704700BFA0B938B54BF258250A
:102DC000C0F200052B785BB90C4601F0E7FB034627
:102DD00030B11A782C7064F3060220461A7038BDA0
:102DE000FF2038BDFF207047E0B1C3781A0614D524
:102DF000426803F06003202BD1B210D011F0400FD5
:102E000012D0C2F3072202F00C020C2A05D111F0F5
:102E10003C0F0CBF0620082070470820704711F0B7
:102E2000780F11D0072070472BB190F90130002B9B
:102E300003DB0120704718467047D0E906329A42FA
:102E400009D80AD20420704790F90130002BB4BF92
:102E5000132014207047052070470320704700BFDF
:102E6000002834D038B5456A0446E5B1C37803F08C
:102E70006003202B1CD0A86B50B3034604E01A68F3
:102E80001F2A22F01F0306D91A7A197822F080022D
:102E90001A72CA07F3D52B7E23F080032B76FFF737
:102EA000C1FB0023AB63E37823F08003E37038BDFC
:102EB0008368DB7803F00C03082B12D02B7B23F004
:102EC00080032B73E37823F08003E37038BD7047F1
:102ED0002B7E60F3C7132B76E37823F08003E37037
:102EE00038BDEB7AE97923F08003EB72EB7CEA7B67
:102EF00023F08003EB74EB7E21F0800122F080024E
:102F000023F08003E971EA73E97DEA7FEB7695F8B7
:102F1000233021F0800122F0800223F08003E97544
:102F2000EA7785F82330BEE7F8B54DF20056C3F2D4
:102F3000180600240746354604E00134202C05F12C
:102F4000280514D004EB840206EBC203DB78DB090E
:102F5000F3D016F8323003F07F039F42EDD12846BC
:102F60000134FFF77DFF202C05F12805EAD1384612
:102F700000F074F9384600F0B3F93846BDE8F8407F
:102F800000F0D2B908B501F07FF94BF680204FF47C
:102F900004620021C3F2180005F074FABDE808408D
:102FA00001F074B908B501F06FF943F2001048F26E
:102FB00080120021C3F2180005F064FABDE8084051
:102FC00001F064B908B501F05FF943F200004FF475
:102FD00080720021C3F2180005F054FABDE80840E1
:102FE00001F054B970B501F04FF94BF25C254BF28A
:102FF000802000214BF280244FF40062C0F20005D3
:10300000C3F21800296005F03DFA01F03FF9C3F260
:10301000180404F5006601F037F92B682C60236072
:10302000203401F033F9B442F5D170BD4DF2000304
:10303000C0EF5100C3F2180303F5806243F9ED0AB3
:103040009342FBD1704700BF4DF20000C3F218005D
:10305000704700BF10B54BF68024C3F2180401F08E
:1030600013F904F5046202E04034944215D094F957
:103070003730002BF8DBC0EF1110C0EF100094F8D0
:103080003730C4ED041B43F08003C4ED0E0B84F80D
:10309000373001F0FBF8204610BD002401F0F6F8AF
:1030A000204610BD10B543F2001401F0EDF842F2D5
:1030B00060010C4AC3F2180494F94B30002B07DA74
:1030C0000C449442F8D1002401F0E0F8204610BDF1
:1030D00094F84B3043F0800384F84B3001F0D6F87D
:1030E000204610BD80B2183010B543F20004C3F280
:1030F000180401F0C9F804F5807294F93F30002BF0
:1031000007DA40349442F8D1002401F0BFF8204699
:1031100010BD94F83F3043F0800384F83F3001F055
:10312000B5F8204610BD00BF10B501F0ADF84BF268
:103130005C23C0F200031C680CB122681A6001F025
:10314000A5F8204610BD00BF10B5044601F09CF85C
:103150004BF25C23C0F200031A681C602260BDE8D9
:10316000104001F093B800BF30B5134C054604F58C
:10317000006E002002E0403474451AD094F937C044
:10318000BCF1000FF7DA94F804C00CF07F0CAC45EA
:10319000F1D194F805C00CF00F0C8C45EBD14BB17C
:1031A00094F835C0B2EB9C1F08BF204640347445EC
:1031B000E4D130BD2046DEE7C0BA183043F2001338
:1031C00030B5054642F2600E0020104CC3F21803E1
:1031D00093F94BC0BCF1000F03DB7344A342F7D15A
:1031E00030BD93F824C00CF07F0CAC45F5D193F8BA
:1031F00025C00CF00F0C8C45EFD193F829C0CCF30F
:10320000C00C944508BF1846E7E700BF80B21830ED
:1032100043F2000310B504460020C3F2180303F57F
:10322000807E93F93FC0BCF1000F03DB4033734550
:10323000F7D110BD93F804C00CF07F0CA445F5D174
:1032400093F805C00CF00F0C8C45EFD193F807C034
:10325000B2EBDC1F08BF1846E8E700BF70B5124CA0
:10326000064604F5006502E04034AC4217D094F9FC
:103270003730002BF8DA237903F07F03B342F3D120
:10328000A38E2046C3F30D0353B9FFF7EBF9204695
:1032900040220021403405F0F5F8AC42E7D170BD82
:1032A000FFF772FAF3E700BFC0BA183098B190F98F
:1032B000373010B5002B044600DB10BD838EC3F3FE
:1032C0000D034BB9FFF7CEF92046BDE81040402270
:1032D000002105F0D7B87047FFF756FAF4E700BFB2
:1032E000F8B543F2001442F2600607460D4DC3F2F2
:1032F000180494F94B30002B03DB3444AC42F8D172
:10330000F8BD94F8243003F07F03BB42F5D120468A
:10331000FFF768FA42F260020021204605F0B2F899
:10332000EBE700BF80B2183070B543F200040646E8
:10333000C3F2180404F5807594F93F30002B03DBC9
:103340004034AC42F8D170BD237903F07F03B3421F
:10335000F6D12046FFF78CFA40220021204605F0E6
:1033600091F8EDE72DE9F04FC2780646C2F341131C
:103370008FB0032B0ED8DFE803F01002100200F02C
:1033800029FFB38960F30D03C3F30D02B381002A53
:1033900040F036810FB0BDE8F08F838902F0600500
:1033A0006FF30D03202D838100F0438196F90130E6
:1033B000002BB5BF002701274FF001094FF000098E
:1033C000002D00F0A381D6E9053500249A46AB46CE
:1033D000002D00F08E82012304930023029348F60F
:1033E000807E4FEA092949F44869CFF6FF7E0597A8
:1033F000CDF804905F46D1464FF00008B346F24640
:103400000394FFF791FEC9F30B052646A5F5A04CE2
:103410000446C5F5A045002800F06C81BBF80210F9
:10342000C1F30A01B5FBF1F201FB1252AD1ABD4224
:1034300094444FF000014FF0200223BF3D46DDF8D9
:1034400010800027674405F01DF80122019B2270BF
:10345000227143EAC832029B42EA054242EAC37241
:1034600009F5805102EA0A026FF30B01A260B9F17B
:10347000000F12D0CDE9069101F58052089201F5B6
:1034800000520992DDED060BDDED081B01F5405100
:1034900004F10C0242F98F0AE161A944002E00F008
:1034A000248130462146FFF7B7F8002FA9D19BF8B9
:1034B00003205E4612F0600F059F25D1FFF734FE12
:1034C0000546002800F01A832022002104F0DAFFCC
:1034D00048F6804347F27F0220462C46A968C8F28E
:1034E0000003C7F6FF720A4043EA07231343AB60A9
:1034F0002B78294643F001032B702B7943F001030D
:103500002B71FFF789F8F27871783078C2F34113A4
:1035100000F07F00CA0901F00F01FFF725FE054604
:10352000002800F09E82F378039A03F06003602B7A
:103530007062C0E90E2400F0DF810020D6F808C0D8
:1035400000249CF80310B6F802E072783778C1F3D3
:103550008109264607F07F0701F00C0102F00F08F1
:103560006EF31A44002B00F0628166F38E3469F327
:103570000D3468F30B24082918BF334667F306049B
:1035800014D04FF440419CF8027063F3DB649CF864
:10359000013007F07F0703F07F03CFF6FF7101EAE8
:1035A000164143EAC7130B4363F31F46039B0121F4
:1035B000002B08BF01232B616B7961F39F76DB0938
:1035C00063F3CF342B7E6961590648BF23F0400373
:1035D000696B48BF2B76D3099B0321F0804243F0EF
:1035E000804322F4404213436C60AE606B6300285A
:1035F0003FF4D0AE28460FB0BDE8F04FFEF780BFD5
:10360000FEF76CFFB389C3F3CA02824283BF194637
:10361000C0F30D03DB00F27882BFF278C3F30D0331
:1036200063F30D0102F0600588BFB181202D7FF4A6
:10363000BDAEB269002A3FF4ADAEB368DB7803F0EB
:103640000C03082B40F09380B189C1F30D01B3FB4B
:10365000F1F3B2EB832F3FF69DAE71783078CA0953
:1036600000F07F0001F00F01FFF7A8FD04460028DD
:1036700000F0678270624FF00808B4F84830B5690E
:10368000C3F30D03B8FBF3F3002B00F0E782002730
:10369000606D12E004EB8002A2F80690B4F84830A6
:1036A0000137C3F30D03B8FBF3FC1844002D00F001
:1036B000B3816745606580F0B381738894F84920D1
:1036C000C3F30A03AB42994628BFA9463F2AA5EB9C
:1036D0000905DFD8716904EB80204A4607FB031116
:1036E000603004F0D7FE606DD4E70394002F7FF4C0
:1036F00088AEDCE60398FEF795FF9BF8033064F391
:10370000C7138BF803300FB0BDE8F08FFFF70CFD47
:103710000446002800F0698129462022356904F01A
:10372000B1FE4FF27F03A268C8F20003134043F4D6
:10373000002343F46863A360237843F001032370FC
:10374000237943F001032371002D58D1D6E905AB4D
:10375000F2785D4612F0600053467FF437AEBBF15D
:10376000000F00F0E28101230490029337E67178A4
:103770003078CA0900F07F0001F00F01FFF748FD23
:103780000446002861D070627378B5697069DE09FB
:1037900040F2FF33AB4228BF2B46BB2D19464FF0FA
:1037A000010204D9BC3BBB2B02F10102FAD86FEA3B
:1037B00041436FEA5343002120616FF30B0000F592
:1037C000805023F4F843E1606061E38166B9BC2D69
:1037D00094BF00250125217D42EAC50321F01F0188
:1037E00003F01F030B43237594F83F20237B42F023
:1037F000400243F0800384F83F202373CAE50A9512
:1038000005F580556FF30B0505F580530C9305F511
:1038100000530B950D93DDED0A0BDDED0C1B05F54B
:10382000405504F10C0343F98F0AE5618EE744F437
:10383000804469F30D3468F30B24082918BF012371
:1038400067F306047FF49DAEB0E6FFF74DFC044637
:10385000002800F0CA8044F25D137088CAF64C63F9
:10386000C0F30A00BB30A3FB003096F9012074625C
:10387000002A4FEAD01000DA0230B189C1F30D01FD
:10388000FFF72EF84FF2FF024FF0010C7578B16888
:1038900005F00F030746E8094D78897805F07F05A4
:1038A0001B0243EA054301F07F0143EA01636168BB
:1038B000C0F280020A4043EAC07313433278B6F87C
:1038C00002E0C2F306026360CEF30A0E62F306035F
:1038D0002371614673466546002B00F0E780BB2BE1
:1038E00005FA0CF240F2E280BC3B11430CF1010CF2
:1038F000F2E703942C4607E6EF8E0021C7F30D078D
:103900003B464CF2FF007488327895F80480C4F38B
:103910000A04D6F808C095F80B90C2F306024FEAE5
:10392000A42E62F306080EF1010E72786EF3871969
:103930009CF803E002F00F021202CEF3810E85F82C
:10394000048042EA0E3242EA04426C68CFF600007C
:10395000204085F80B900243B0896A60C0F30D02E5
:10396000072A03F0070445D949F2FC40C0F20000E1
:10397000005D28729CF8030000F00C00082817D0A6
:1039800049F2EC4E9CF801009CF8028000F07F00A8
:1039900008F07F0C40EACC10B5F80AC0C0F2000E67
:1039A0006FF30D0C40EA0C0068811EF80400687289
:1039B000012074786861E409686B42EA843400F09D
:1039C000404044EA07440443687E6C6340F00C00C6
:1039D0006876002940F09A8095F83730AA6B43F05A
:1039E00040032A6185F83730D4E4F37823F080036C
:1039F000F370CFE4C0F30D00042800F08D8002289E
:103A000003BF49F2F44003F0010EC0F20000FF20B2
:103A100008BF10F80E00ACE7517941F080015171F8
:103A2000B4F84A5094F84B20C5F30D0542F040021B
:103A3000656584F84B20BCF1000F10D00020A16D0B
:103A400004EB8106F2880130C2F30B0222B1F27955
:103A500042F08002F271E16560451944F0D3A5653A
:103A600098E4FFF7F7FA0546002847D0D6F808C0D3
:103A7000F378039A706203F0600382639CF803207A
:103A8000602BC46302F00C0218BF01207FF458AD14
:103A9000B189082AC1F30D0114BF05200120FEF7EA
:103AA0001FFF01210346C0F30D072AE796F90130F5
:103AB000002B3CDB0023B940CAB200252272B28938
:103AC0006372E36BC2F30D02C3F6FF7503F0404C63
:103AD000C4F838E0237E42EA803E05EA074545EA1D
:103AE0000E0543F0010345EA0C052376022120462A
:103AF000C7F30D03E563FEF715FD45E60398FEF7F2
:103B000091FDF37865F3C713F37043E42846C3F3DC
:103B10000D03FEF707FD5FE749F2F84003F0030EDF
:103B2000C0F2000010F80E0023E70394C6E449F247
:103B3000FC42BB1C01FA03F3C0F20002D25DDBB20F
:103B4000BBE7FFF7AFFA054600283FF44EAFB18957
:103B50000120C1F30D017562FEF7C2FE4FF47048FB
:103B6000034680EE900BA44605F16002CFF6FF7885
:103B700002EA080105F50159696209F120091146B7
:103B8000C2F30B0702F580625140B1F5805F0CF083
:103B9000070A0CF1010E05EB840028BF5FFA8EFCCA
:103BA00047EA0A37878028BF05EB8C0102EA080044
:103BB00028BF48624A4504F10104E0D1727895F8C3
:103BC0002500C2F3030262F3030085F82500327872
:103BD00095F82410C2F3060262F30601747885F8A2
:103BE000241000214FF0010C084695F82920E40923
:103BF00064F3C30285F82920B289AF6CC2F30D02C9
:103C0000C3F6FF7142EA843401EA034107F04047FA
:103C100021433943B6F80280A96495F82C10B5F811
:103C200028E06CF3010185F82C1068F30A0E05F109
:103C30005401A5F828E0C8F2200041F98F07EB6590
:103C4000D0F82C1101F007010729F9D100212846ED
:103C5000C3F30D03FEF766FC746A0CE5B4F84A5032
:103C600094F84B30C5F30D0543F04003656584F8C7
:103C70004B30F4E62DE9F0414E6ACB780546B06B47
:103C800013F0600F14BF034603680C4608BF23F00F
:103C90001F035A898969C2F30E0291423BD3F76B25
:103CA0000BE01A7812F0010C0BD11B6823F01F03F4
:103CB0005A89C2F30E0291422DD39F42A1EB020119
:103CC000EFD1B369E1616360FEF7ACFC002296F8C6
:103CD0003730204662F3861386F83730B263FFF739
:103CE00083F8E378074613F0600F16D04BF22846AE
:103CF000E278C0F2000622F08002E27022783B46B1
:103D000002F07F02EA83D4E9072134692846A446F9
:103D1000BDE8F04160470021D3E72046FFF764F893
:103D20000628E3D13046FFF7C1FADFE791F9013009
:103D30002DE9F047002B0C4606464F6A34DB8B69B1
:103D4000CB610025FB6D656007EB8303DA79217990
:103D5000C2F30013C2F3401CDB0043EA0C13C2F3AE
:103D6000801C43EA4C1302F0800201F04701134328
:103D70000B43237197F84B30204665F3861387F881
:103D80004B30FFF731F84BF22842E178C0F20002E5
:103D900065F3C71115690346E170D4E90721304680
:103DA000AC46BDE8F047604700254B6907F1600865
:103DB00004E00135082D08F58068C2D007EB8509BD
:103DC000B9F80620C2F30B02002AF2D04146184689
:103DD00004F060FB0346B9F80620E169C2F30B0268
:103DE00011441344E161E4E74B6A8A6970B50C46FB
:103DF000D9890546C1F309018A4234BF0022521A0B
:103E0000D968E261616093F83F20204622F04002C9
:103E100083F83F20FEF7E8FF4BF22841E278C0F23A
:103E20000001034628460D6922F08002E270D4E9C1
:103E30000721AC46BDE87040604700BF4DF6002248
:103E4000C3F2180238B592F90330002B11DA137857
:103E500080B203F07F0181420BD1154643F080010F
:103E6000117005F58C7435B90134B4F58E7FFBD132
:103E700038BD0025F5E705F58E75207828B90134A1
:103E8000AC42F5D020780028F9D00134FFF7D6FFF6
:103E9000A542F2D138BD00BF2DE9F0418EB03022ED
:103EA000002102A804F0EEFA002201A9104603F056
:103EB00085FD28B94BF27824C0F20004E36813B9F9
:103EC0000EB0BDE8F08100F0ABFBA36803F1240263
:103ED00054F822605A1C202A28BF0022E018191D1D
:103EE000443354F82380E36890F99071013B54F80F
:103EF0002150A260E360019C00F090FB062FDFD808
:103F000001A353F827F000BF253F0000253F000024
:103F10002D3F0000C13E0000C13E0000C13E000038
:103F2000353F00002046FEF74DFDC9E72046FEF76D
:103F3000D3FDC5E7434632462946204602F046FAFD
:103F4000BEE700BF0021F8B54BF23C464BF24044BF
:103F50004BF274250B46C0F200063288C0F2000412
:103F600002EB420204EB021484F82010C0F20005B8
:103F70002A88C8F2200342F480622A80DA68500658
:103F800031D51A6951062ED54BF26C2C4BF26820B4
:103F90004BF264214BF270229F6CC0F2000CCCF803
:103FA0000070DF6CC0F200000760D3F86401C0F25B
:103FB00000010860596DC0F2000211605A6DD2070D
:103FC00038D5204601F0C4FE2046FEF731FE338886
:103FD0002A8801339BB20F2B08BF002322F4806292
:103FE0002A803380F8BD0023C8F22003D3F82421AF
:103FF0005107E6D5D3F828215207E2D55B6DDB07E0
:10400000DFD44AF600134BF26027C0F20003DB88CE
:10401000C0F20007092B03D13B8801339BB23B80E0
:104020003B889BB2012BCCD94220FDF7DDFF00235A
:104030003B80C6E79A6C12F4007F9A6C1DD1D705BD
:1040400066D40023C8F220031A6D42F001021A65FB
:104050005A6D42F008025A65D3F8642142F40052C6
:10406000C3F86421D3F8642122F40052C3F8642118
:104070001A6D42F480321A65C3E7D00523D40023B9
:10408000C8F220039A6C22F400729A641A6D42F00E
:1040900001021A655A6D42F008025A65D3F864218C
:1040A00042F40052C3F86421D3F8642122F4005290
:1040B000C3F864211A6D42F480321A659A6C42F496
:1040C00000729A649DE7DA6C120C012AD7D19A6CBF
:1040D00022F400729A645A6D42F400725A655A6D65
:1040E00042F008025A65D3F8642142F40052C3F842
:1040F0006421D3F8642122F40052C3F864215A6D7C
:1041000042F480725A659A6C42F400729A6478E7BD
:10411000DA6C120C012A94D15A6D42F400725A657D
:104120005A6D42F008025A65D3F8642142F40052F5
:10413000C3F86421D3F8642122F40052C3F8642147
:104140005A6D42F480725A655BE700BF2DE9F04377
:104150004BF2782E0446002001EB410CC0F2000E19
:104160000CEBCC0C21460EEB0C146568E7686E1C5A
:10417000202E28BF064605EB8C0C0CF10409CA83DF
:104180004EF82930079B0CF124084EF82830089B84
:10419000254401370CF1440C666085F890214EF8F7
:1041A0002C30E760BDE8F04303F01EBC08B54DF6C7
:1041B0000023C3F2180393F90320002AB8BF00209C
:1041C00007DB4FF492720021184604F05BF980225D
:1041D000C27008BD70B585680023467805F1180ED9
:1041E00003E012781344FF2B27D80EEB030251781B
:1041F0000529F6D1D17890F803C001F00301CCF382
:1042000041148C42EDD1917886EA01042406E8D469
:1042100001F00F0106F00F048C42E2D1CCF3411003
:10422000012893790BD0032807D1EA7802F00C0219
:10423000082A18BFD8001BD070BD002070BDEA78D6
:1042400002F00C02082A0CD0EA88B2F5007F18D1DF
:10425000013B16D0013B02464FEA4000FAD1100163
:1042600070BD013BE8D0013B4FEA4000FBD170BD7F
:10427000013B4FF00100DFD0013B4FEA4000FBD192
:1042800070BD082070BD00BF704700BF704700BF01
:10429000C8B308B50368A3B3436893B3836883B313
:1042A000036973B34BF2284E8446C0F2000EBCE89B
:1042B0000F00AEE80F004BF27820DCF800304FF42E
:1042C000D8720021C0F20000CEF8003004F0DAF815
:1042D0004DF200504FF4A0620021C3F2180004F028
:1042E000D1F84DF600204FF492720021C3F218006D
:1042F00004F0C8F8FEF702F818B901F0F3FB00B9B2
:1043000008BDFF2008BDFF20704700BF2DE9F04722
:104310004DF20054002582460E4691469846089F6D
:10432000C3F2180404E00135202D04F128045FD005
:1043300094F903C0BCF1000FF5DB282200212046D0
:1043400004F0A0F84DF20043C3F2180303EBC500DC
:1043500009F07F0545F0004520612560B9F1000FA7
:1043600049D04DF60022C3F21802D1780B063BD596
:1043700013781FFA89F903F07F034B4534D192F982
:104380000030A260002B2FDB4FEA082303F4706E8D
:104390000A9BC4F820A0A3610B9B6361099BB3F146
:1043A000000C18BF4FF0010C4EEACC334FEA477CAB
:1043B0000CF0C04C43EA0C032B43236017B3013FBE
:1043C000022F9FBF63880C9961F30A036380D3783F
:1043D00003F00303012B2FD0022B02D12046FEF75E
:1043E000C1FF0020BDE8F087E37823F08003E3708D
:1043F000FF20BDE8F0874BF27623C0F20003B3F84C
:104400000090AEE7431E06F1080516F8010BAE4218
:1044100003F8010FF9D1D37A9BB901F00C010429FB
:104420000CBF08214021638861F30A036380D378BD
:1044300003F00303012BCFD12146002002F05AFCE8
:10444000CFE7618863F30A016180C0E770B54DF67C
:104450000024C3F2180494F90330002B11DA2278F7
:104460008BB202F07F029A420D460AD106460846F8
:10447000FFF7E4FCE37803F00303012B0BD0022BDE
:1044800000D070BD2846FEF74FFD29463046BDE8F6
:10449000704000F01FB800242146C8F22004636871
:1044A000304643F0C003636001F0CCFE002130468B
:1044B00000F010F82946304601F0C4FE2946304687
:1044C00000F008F8636823F0C00343F080036360E2
:1044D00070BD00BFF8B54DF60024C3F2180494F97E
:1044E0000330002B12DA237803F07F038B421EBFC8
:1044F00004F21713002004F21B1408D013F8012F44
:104500008A4204BF18701871A342F7D1F8BD05465E
:1045100004F2171604F21B1716F8011F31B9BE4238
:10452000FAD1E37823F08003E370F8BD2846FFF763
:104530008DFFF4E710B50446FEF734FCFF2800D0E9
:1045400010BD2046BDE8104001F038BC38B54BF234
:104550007623C0F200030C4605461980FEF72CFCBA
:10456000FF2800D038BD21462846BDE8384001F07C
:1045700031BC00BF4DF60023C3F2180393F90320AA
:10458000002A08DA1A7802F07F02824203D1D87832
:10459000C0F381007047FF20704700BF4DF6002335
:1045A000C3F2180393F90310002907DA197801F010
:1045B0007F0181420CBF18460020704700207047E1
:1045C00010B5044690F82000FEF7ECFBFF2894F8A5
:1045D00020000AD0FDF74CFF4BF22843C0F2000345
:1045E0002046BDE81040DB68184701F0E7FBFF28D4
:1045F00000D110BD94F8200001F008FCECE700BFEA
:104600000022C8F22002D16B30B1D36B9942FCD0AA
:104610000138D16B0028F8D1704700BFFDF79AB878
:10462000FDF704B90023C8F22003D3F80422D00711
:1046300006D5D3F8042242F00102C3F804227047E1
:1046400012F0060F0BD1110700D57047D20642BFFA
:10465000D3F8042242F01002C3F804227047FFF797
:1046600071BC00BF00207047002070474AF64C1311
:10467000C0F2000303EBC103D888704730B4029C3A
:104680006078052826D1E07800F0030002281AD0CF
:1046900003281FD194F802C0A5791CF0800F1CD10B
:1046A0000C2A5ED0942A15D148F21002092035B3A5
:1046B000C02B5AD0B5FA85F5C5F11F0548F2100296
:1046C0000920ADB21BE094F802C01CF0800F26D187
:1046D000942A2BD0002030BC70470C2A2BD0942A6F
:1046E000F8D14FF4004209204DB1C02B45D0B5FAA6
:1046F00085F54FF400420920C5F11F05ADB22379BD
:104700000CF00F0C43EA01336179039C42EA0C027E
:1047100043EA01232280E580A38030BC7047942ABD
:10472000D8D100254FF485420920E8E7002544F25E
:1047300010220920E3E74A1E92B2032ACAD849F29E
:104740000450C0F20000805C35B1C02B1BD0B5FA1C
:1047500085F5C5F11F05ADB20028BCD04FF400426D
:10476000CDE74A1E012AB5D89EE748F21002082D6F
:1047700006D8013D0920ADB2C1E74FF40042F6E78B
:1047800007250920BBE7082D96BF05F1FF35072552
:10479000ADB2E1E74AF664034FF4704C00B54FF058
:1047A000000EC0F2000300EB800000EB800203F17A
:1047B0005A00090303EB820300EB8200CFF6FF7C73
:1047C0005A89012A08D11A8A0CEA0202914204BFCE
:1047D000C3F80AE0C3F810E00A338342F0D15DF871
:1047E00004FB00BF704700BF0C2A9DF8000004D0F6
:1047F000942A14BF002009207047032B18BF002003
:1048000000D07047013989B238B90329F9D849F283
:104810000453C0F20003585C7047022934BF0920DA
:104820000020704738B54BF21C7490F82030C0F26D
:10483000000434F813206AB14BF2187C0546C0F22C
:10484000000C5CF8233000219847002295F82030B6
:1048500024F8132038BD00BF704700BF134640F254
:1048600023110022FDF778B94FF49271838CC28B2B
:10487000FDF772B900000000F0B5042A00F299803B
:10488000DFE802F00390724903004DF6A46C4DF688
:10489000746EDFED490B90F820304DF6606203EB4B
:1048A000830503EB43042B46C3F2180CC3F2180E26
:1048B000C3F2180202EB83020CEB45050EEB041366
:1048C00045F94F079A6044F66904802700260125C0
:1048D00090F82020C0F2000402EB42030EEB031319
:1048E0005C6002EB82040CEB44042181E18883F8D4
:1048F00029701961C16ADE839D8483F820205C6180
:10490000D96290F8200000EB40000EEB0010BDE8EB
:10491000F040FDF7A3BB4DF660534DF6A46C4DF689
:10492000746E4FF4D06690F82040C3F2180C04EB7C
:10493000840204EB4405C3F21803C3F2180EC0F25C
:1049400000264CF8126003EB04230EEB0514A36061
:104950005B880027B3F5807F28BF4FF480730CEB92
:1049600042029780D380AEE74DF6A46C4DF6746E8C
:104970004DF66053DFED120B90F82020C3F2180CB7
:1049800002EB820502EB4204C3F2180EC3F21803D5
:1049900003EB02230CEB45050EEB041245F94F0720
:1049A000936090E74DF6A46C4DF6746EDFED060B48
:1049B00071E7F0BDAFF30080800600010000140035
:1049C00080060002000009008006000100001200BD
:1049D0002DE9F0434DF674654FF0800944F6690601
:1049E0004DF6A46C4FF4A06700244FF0010890F836
:1049F00020E0C3F218050EEB4E0305EB031383F81A
:104A00002990C0F200065E60C66AC3F2180CDE622E
:104A10000EEB8E062CF816700CEB4606A3F82480DD
:104A2000DC839C601C6183F820E05E6190F82000CC
:104A3000728000EB4000B480F480318105EB0010FF
:104A4000BDE8F043FDF70ABB2DE9F0434DF6746570
:104A50004FF0800944F669064DF6A46C4FF41067D8
:104A600000244FF0010890F820E0C3F218050EEB87
:104A70004E0305EB031383F82990C0F200065E6035
:104A8000C66AC3F2180CDE620EEB8E062CF81670A6
:104A90000CEB4606A3F82480DC839C601C6183F841
:104AA00020E05E6190F82000728000EB4000B4804E
:104AB000F480318105EB0010BDE8F043FDF7CEBA7C
:104AC0004DF660324DF6243CF8B54DF6303E0024EC
:104AD000802790F82030C3F21802C3F2180C02EBC2
:104AE000432503EB83020CEB4202D688C3F2180E77
:104AF00003EB43020EEB0212C2E9011582F82030EB
:104B000003EB83030CEB430382F829701661D48313
:104B1000536190F82030C16A03EB43020EEB02129E
:104B20001046D162FDF79AFA2046F8BD70B54BF2F7
:104B3000207590F82030C0F2000555F8233082B07F
:104B4000DE8B0446310301F47041FFF78BFD88B121
:104B5000012E94F8201017D04AF6DC034BF21072A5
:104B600067200026C0F20003C0F2000222F81160A4
:104B700023F81100012094F8203055F8231002B0DA
:104B8000BDE8704002F08ABF44F65D02002355F88C
:104B90002110C0F20002898B204600921A46FCF7D1
:104BA000ADFF94F82010D7E7F0B54DF624354FF45B
:104BB000D067B2F5007F0E464FF0000E194688BF51
:104BC0004FF4007390F820C0C3F218050CEB8C046E
:104BD000C0F2002745F8147005EB4404A4F804E083
:104BE000268188BFE38001D8E280AAB14DF6603605
:104BF0000022FF27C3F2180606EB4C2C0CF80270BB
:104C000090F820C001320CEB8C0E05EB4E0EBEF876
:104C100006E094B2A645EFD8BDE8F040FFF750BFDC
:104C200070B54BF214744BF2207390F82020C0F250
:104C3000000434F81260C0F2000353F82230012E51
:104C400005468C465B8C82B020D0022E10D06EB907
:104C500044F669030922C0F20003FFF7A5FF95F8A7
:104C6000202034F81230013324F8123002B070BD25
:104C7000002BFBD1BCF1010F30D04AF6DC035021F0
:104C8000C0F2000323F8121002B070BD002BEDD16A
:104C90004DF66033C3F2180303EB4223DB7913F0C4
:104CA0002003E7D04DF62433DFED130B44F6690102
:104CB00002EB8202C3F2180303EB420343F94F07EE
:104CC000C0F20001A3F808C0FFF7FAFE95F8202013
:104CD00034F81230013324F81230C7E744F65D048B
:104CE000C0F200041A464FF483710094FCF706FFEB
:104CF00095F82020C1E700BF00030100000000007C
:104D00002DE9F8434BF2207890F82030C0F20008EB
:104D100058F823300546B3F81E904FEA0937BFB262
:104D20003946FFF79FFCD8B3012402E001340A2C76
:104D300020D0A6B228463146FFF796FCB842F5D1FE
:104D400031462846FCF762FE0128EFD1314628465D
:104D5000FCF794FB4BF22872502195F82030C0F2FA
:104D6000000203EB830304EB430301340A2C22F813
:104D70001310DED14BF21473002495F82020C0F2FA
:104D800000034946284623F81240FFF749FF4AF638
:104D9000DC03662195F82020C0F2000323F81210EE
:104DA00095F82030012058F82310BDE8F84302F0B0
:104DB00075BE00BF4BF220722DE9F04F4BF210741C
:104DC00090F82030C0F2000252F82320C0F2000414
:104DD000568C34F813200D46012A074683B000F0A4
:104DE000A580022A19D06AB944F669030922C0F2E3
:104DF0000003FFF7D9FE97F8203034F81320013272
:104E000024F813204AF6DC02C0F2000232F8133014
:104E1000462B0BD003B0BDE8F08F002EF2D14AF63E
:104E2000DC024621C0F2000222F813104BF228786F
:104E30002D030124ADB2C0F2000802E001340A2CB7
:104E400020D0A6B238463146FFF710FCA842F5D173
:104E500097F8203003EB830304EB430338F8133057
:104E6000502BEBD131463846FCF7DAFD002297F89B
:104E7000203003EB830304EB430301340A2C28F8AE
:104E80001320DED14AF6CC0B97F82060C0F2000B5D
:104E90003BF81630002BBDD04AF6E00C4BF21C70EC
:104EA0004AF6001AC0F2000CC0F200000025CDE95D
:104EB000000CC0F2000A07E097F820603BF81620CB
:104EC0000135ABB29A42A5D906EBC60405EBC50382
:104ED000E40004EB8304544461884FEAC6080129C6
:104EE0004FEAC509E8D100223846236A98474FF0B7
:104EF000460C40F2072197F820306288019802EBB7
:104F0000430200EB0212A2F802C0009A32F813200A
:104F10008A4227D0B0441E464623A9444FEAC80817
:104F200008EB8908D044A8F80430C7E7002E7FF4C6
:104F300069AF4DF66032C3F2180202EB4322D27918
:104F400092067FF56CAF44F66903FF22C0F20003BE
:104F5000FCF726FE97F8203034F81320013224F8AD
:104F600013204FE74BF21874C0F20004002154F8EC
:104F7000233038469847002297F82030009921F8CE
:104F80001320C7E72DE9F04F99B0FEF785FF42F2F5
:104F9000107201200EA902F011FD00284BD14BF236
:104FA000207319460E9CC0F20001A38B94F8206078
:104FB000B3F5927FE78B029141F826403ED9A3F2E8
:104FC0000222072A33D8A3F20323062B00F25485CA
:104FD000DFE813F0AD00C300E800D900FE00800058
:104FE000A7004AF6DC0E4FF00A0944F65D020023E2
:104FF0004BF2187C4BF21C7740F203282046C0F29B
:10500000000EC0F2000CC0F200072EF81690C0F29D
:1050100000024CF8261027F81680A18B00921A4641
:10502000FCF76CFD94F82030029A52F82340214698
:10503000012002F033FD19B0BDE8F08FB3F5827F97
:10504000F5D96FF482710B441F2BF0D801A151F8F0
:1050500023F000BFFD5100002F5000002F50000032
:105060002F5000002F5000002F5000002F50000044
:105070002F5000002F5000002F5000002F50000034
:105080002F5000002F5000002F5000002F50000024
:105090002F5000002F5000002F5000002F50000014
:1050A0002F5000002F5000002F5000002F50000004
:1050B0002F5000002F5000002F5000002F500000F4
:1050C0002F50000075530000DB5200005F520000BB
:1050D0001552000040F205134FF40271A3832046DD
:1050E000FFF724FD4BF218734BF21C724FF4027160
:1050F00094F82000C0F2000222F810106268C0F29A
:105100000003012FA18B43F8202094D144F65D05C4
:105110000023C0F2000520461A460095FCF7EEFC7D
:1051200089E7394620466268FCF77EFD83E740F256
:105130000713012F6168A3833FF453AF4BF2187339
:105140004BF21C7240F20320C0F20003C0F20002D6
:1051500022F8160043F8261069E74FF48473012FF4
:105160006168A38300F09F814BF218734BF21C72AD
:105170004FF40170C0F20003C0F2000222F81600E2
:1051800043F8261053E74FF4837340F20621A383BC
:105190002046FFF7B5FD4BF218734BF21C7240F23C
:1051A0000621A5E74FF483774BF218724BF21C737C
:1051B00040F205216568C0F20002C0F200032046FB
:1051C000A78342F8265023F81610FFF799FD32E71F
:1051D00040F205174BF218724BF21C7340F2072194
:1051E0006568C0F20002C0F200032046A78342F8BF
:1051F000265023F81610FFF799FC1CE74BF21C739E
:1052000040F20511C0F20003204623F81610FFF704
:105210008DFC10E739464AF6DC072046FFF724FAF2
:1052200094F82030C0F2000737F813200146662AB0
:1052300000F05C81672A00F05181282A08D14AF6E3
:10524000D00BC0F2000B3BF81320002A40F0CF81B6
:10525000029A012052F8231002F020FCEBE64AF6F5
:10526000DC07C0F2000737F81630502B00F04681FB
:1052700000F227810A2B00F08C81282B7FF4D7AE17
:105280004AF6D008638CC0F20008314628F8163080
:105290000020FCF7D3FE4AF6D80040264BF23C71C2
:1052A000002294F82030C0F2000020F8236038F883
:1052B0001300C0F20001802821F8132000F089813A
:1052C000C02800F08681B04200F0C5810A22029910
:1052D00051F8234027F81320A9E60FA90C208DF8D8
:1052E0003C60FCF79FFB4AF6DC0228214AF6CC031F
:1052F00094F820E0C0F20002C0F2000322F81E1071
:1053000033F81E407CB34FF6FF7900224AF60013B3
:105310004AF6E00CCB46CFF200094FF00A081746D8
:1053200048460EEBCE01C0F200034FEA4E0A03EBF3
:10533000C103C0F2000C19880132B1420ED1598864
:10534000A3F8048051440CEB0115090118602CF8F6
:1053500001B0A5F80280AF80EF802F8191B2A14209
:1053600003F12403E7D3029B012053F82E1002F02F
:1053700095FB60E6638C422B24D83F2B7FF657AE1B
:105380004AF6DC07C0F2000737F816300A2B7FF424
:105390004EAE4AF6D4084FF00109C0F2000828F8D2
:1053A000169002F0C1FC282394F8200027F8103052
:1053B00038F81010FFF7CAF82046FFF701F994F803
:1053C000203045E7432B7FF432AE4AF6DC014AF643
:1053D000D0034AF6CC0A0A204FF00008C0F20003BE
:1053E000C0F2000121F81600C0F2000A23F816806E
:1053F0003AF81630002B3FF41AAE4CF2E4004FF6A8
:10540000FF7C4AF600194AF6E0053346C0F2000078
:10541000CFF2000CCDE9030CC0F20009C0F2000588
:1054200003EBC30708EBC806FF0007EB86064E44F4
:105430007188012928D14FF0000B039A204622F8E9
:1054400013B0B3695A4698474FF00A0C4FF6FF7EE7
:1054500094F820107388049A03EB4103C8F100010B
:1054600001F02401394449F8012005EB03111B0127
:10547000A6F804C025F803E0A1F802C0A1F804B022
:10548000A1F806B0A1F808B094F8203008F101089E
:105490003AF813101FFA88F29142C1D81A46029BBB
:1054A00053F82240C3E54AF6DC0E4FF00A0944F6F1
:1054B0005D0200234BF2187C4BF21C774FF401780D
:1054C0009CE5672B7FF4B3AD20460121FFF772FC0A
:1054D00094F82030029A52F82340A8E52046C1F300
:1054E0000F31FFF767FC94F82030B1E62046C1F396
:1054F0000F31FFF795FB94F82030A9E64AF6CC0A65
:10550000C0F2000A3AF81630002B3FF490AD4AF68C
:10551000E0004AF600194BF21C7BC0F200000027A5
:10552000C0F20009C0F2000B039005E03AF8162023
:105530000137BBB29A4248D906EBC60307EBC70254
:10554000DB0003EB82034B4459884FEAC70801296B
:105550004FEAC605EAD10022DB692046984740F2AF
:10556000052394F820C03BF81C209A4264D05021B7
:10557000AB19B844DB0003EB88034B445A8803980B
:1055800002EB4C0200EB02125180998094F82060EB
:10559000CCE74BF21C77C0F2000737F81620B2F5C3
:1055A000017F7FF444AD4BF21873C0F20003002179
:1055B000204653F826309847002294F8203002996C
:1055C00051F8234027F8132031E5029B53F8264079
:1055D0002DE548F2A053C0F20003114620461B6897
:1055E000984794F82030029A52F823401FE54AF673
:1055F000D402C0F2000232F813000392FCF726FD39
:1056000094F82030029A054652F823201E46528C08
:1056100052B30A214BF21C7227F81310C0F2000299
:1056200032F81320A2F2022292B2012A3FF610AE03
:105630002046FFF7F7F8C2E64BF21873C0F20003FA
:1056400053F82C30002120469847002394F820C0BE
:105650002BF81C308BE7204602F05EFB94F82030DC
:10566000029A52F82340E2E44BF23C78C0F2000880
:1056700038F81320062A00F2B181DFE812F02C017D
:10568000F000260120015C004C0007004AF6CC0225
:10569000C0F2000232F813C0BCF1000F00F0A2818A
:1056A0004AF60019039AC0F2000932F8131048466E
:1056B000002203E00132944500F09481458848308F
:1056C0008D42F7D13BF813E001EB430A48234AF639
:1056D000E00C03FB02964FF04609C0F2000C0CEB05
:1056E0000A1C7369A6F804900022ACF802902046C8
:1056F000ACF808E0984794F8206038F81630013389
:1057000028F8163046214BF21C72334627F8161043
:10571000C0F2000284E74BF22472C0F2000232F8B9
:105720001320002A00F04981FF2A00F0E3800622BE
:1057300028F813206DE7039A4AF6CC0A32F81300D2
:10574000FEF72CFF4DF660634DF66052074694F865
:105750002060C3F2180306EB8606C3F2180203EBBF
:105760008606049208930FCE7860FA60B9603B61B8
:105770003388049ABB8294F8201007F1180002EBDA
:1057800001214FF4807202F085FE94F82060C0F28F
:10579000000A3AF81630002B00F02D814AF6001965
:1057A0000022C0F20009CDF81880FF234F46904632
:1057B000CDE909590AE03AF8161008F101081FFA74
:1057C00088F2914207F1480740F21081BA880A2A0C
:1057D000F1D14FF0FF03ADF8343000231421ADF8C0
:1057E0003630089B01FB06310D7948798B7905EA43
:1057F00000021A40FF2A08D0092D06D128B9002B33
:1058000040F0D3800123ADF8363041F60A230D89EC
:10581000B1F80A909D4208BFB9F5007F0CBF012383
:105820000023059379D14246482303FB02F2134635
:10583000DDF82890099DDDF8188029F8025094F8C9
:10584000202003994B4431F812205A8094F82060AC
:1058500038F816203346013228F81620F8E4039A67
:105860004DF6606632F81300FEF798FE074694F88E
:105870002030C3F2180603EB830306EB83060FCE3A
:10588000B960FA6078603B6133882946BB8294F83E
:105890002030039D35F81300FCF7D0FB204694F828
:1058A000203035F8131038F81320FEF7E5FF94F890
:1058B000203038F81320013228F81320C8E4039A66
:1058C000204632F813100322EFE7039A204632F8FD
:1058D00013100222E9E7039A002132F81320204630
:1058E000FFF776F894F8203038F81320013228F8C2
:1058F0001320ADE406214BF21C7228F813100A2184
:10590000C0F2000232F8132027F81310A2F202228C
:1059100092B2012A3FF69CAC8AE6BB681A88002A3C
:1059200000F0A8804FF0FF0C4FF6FF7E03EB8202E1
:105930009888704518BF854206D1D888814518BF20
:10594000704508BF4FF0000C04339A42F0D1BCF10F
:10595000FF0F00F08F80049B0B9103EB06256888F6
:105960000023B0F5807F28BF4FF4807010E0BCF1B9
:10597000040F07D103F10509B7F806C015F809E0CF
:10598000E64548D0127813449BB2EA5C002A71D0F5
:10599000984205EB03026DD992F801C0BCF1020FE9
:1059A000E5D1012107920591ECE7012B2FD0022BC5
:1059B00004BF0323ADF8363027E7039A204632F8B8
:1059C00013104DF66052C3F2180202EB0322527913
:1059D000FFF73AF894F8203038F81320013228F80D
:1059E000132035E4072228F813208BE6FF2BDDF87F
:1059F00018807FF42DAF049B039A03EB062332F843
:105A000016105A790523204628F81630E0E70223BD
:105A1000ADF83630F9E6059B0B990BB1079B109357
:105A20000DAB12930DF1360313930BEB4603159355
:105A3000039B204603EB46060F913B6911920FA989
:105A4000169698474AF6E00294F82000039915F854
:105A5000095031F81010BDF8343001EB4001C0F2AC
:105A6000000202EB0112D580002B3FF4DCAE94F86B
:105A70002060A0E6FF239EE640F20B13012FD4F82E
:105A800004E0A3830FD04BF218734BF21C7240F268
:105A90000221C0F20003C0F2000222F8161043F8FF
:105AA00026E0FFF7C4BA4AF6DC0C4BF218774BF24B
:105AB0001C714FF00A0944F65D0240F20228C0F260
:105AC000000CC0F20007C0F200012CF81690002371
:105AD0002046C0F2000247F826E021F81680FFF7C2
:105AE0009CBA00BF2DE9F0432DED028B4DF6B06856
:105AF000A5B000F049FE00F057FE00F035FE00F0C2
:105B0000B1FEC3F21808C8F80000002800F0E980D0
:105B100000250123C8F22005AB60AB68DA0748BF57
:105B200040F6B93403D40AE0013C00F0DA804FF4C7
:105B30007A710120FCF0D4FFAB68DB07F4D400F0ED
:105B40000DFE0023C8F22003D8F80040986100F051
:105B500005FED8F8007020603C4649F20853002248
