:020000040800F2
:101E0000B0FF0000FFFFFFFFFFFFFFFFFFFFFFFF2F
:101E1000000A0000FFFFFFFFFFFFFFFFFFFFFFFFC4
:101E200000280028FFFFFFFFFFFFFFFFFFFFFFFF6E
:101E3000FFFFFFFFFFFFFFFFFFFFFFFFFFFFFFFFB2
:101E4000FFFFFFFFFFFFFFFFFFFFFFFFFFFFFFFFA2
:101E5000FFFFFFFFFFFFFFFFFFFFFFFFFFFFFFFF92
:101E6000FFFFFFFFFFFFFFFFFFFFFFFFFFFFFFFF82
:101E7000FFFFFFFFFFFFFFFFFFFFFFFFFFFFFFFF72
:101E8000FFFFFFFFFFFFFFFFFFFFFFFFFFFFFFFF62
:101E9000FFFFFFFFFFFFFFFFFFFFFFFFFFFFFFFF52
:101EA000FFFFFFFFFFFFFFFFFFFFFFFFFFFFFFFF42
:101EB000FFFFFFFFFFFFFFFFFFFFFFFFFFFFFFFF32
:101EC000FFFFFFFFFFFFFFFFFFFFFFFFFFFFFFFF22
:101ED000FFFFFFFFFFFFFFFFFFFFFFFFFFFFFFFF12
:101EE000FFFFFFFFFFFFFFFFFFFFFFFFFFFFFFFF02
:101EF000FFFFFFFFFFFFFFFFFFFFFFFFFFFFFFFFF2
:101F0000FFFFFFFFFFFFFFFFFFFFFFFFFFFFFFFFE1
:101F1000FFFFFFFFFFFFFFFFFFFFFFFFFFFFFFFFD1
:101F2000FFFFFFFFFFFFFFFFFFFFFFFFFFFFFFFFC1
:101F3000FFFFFFFFFFFFFFFFFFFFFFFFFFFFFFFFB1
:101F4000FFFFFFFFFFFFFFFFFFFFFFFFFFFFFFFFA1
:101F5000FFFFFFFFFFFFFFFFFFFFFFFFFFFFFFFF91
:101F6000FFFFFFFFFFFFFFFFFFFFFFFFFFFFFFFF81
:101F7000FFFFFFFFFFFFFFFFFFFFFFFFFFFFFFFF71
:101F8000FFFFFFFFFFFFFFFFFFFFFFFFFFFFFFFF61
:101F9000FFFFFFFFFFFFFFFFFFFFFFFFFFFFFFFF51
:101FA000FFFFFFFFFFFFFFFFFFFFFFFFFFFFFFFF41
:101FB000FFFFFFFFFFFFFFFFFFFFFFFFFFFFFFFF31
:101FC000FFFFFFFFFFFFFFFFFFFFFFFFFFFFFFFF21
:101FD000FFFFFFFFFFFFFFFFFFFFFFFFFFFFFFFF11
:101FE000FFFFFFFFFFFFFFFFFFFFFFFFFFFFFFFF01
:101FF000FFFFFFFFFFFFFFFFFFFFFFFFFFFF55AAF0
:1028000008B504F019FEFEE7024B83F3088804F0D4
:1028100007BE00BFC8A000080000000000000000C4
:1028200000000000000000000000000000000000A8
:102830000000000000000000000000000000000098
:102840000000000000000000000000000000000088
:102850000000000000000000000000000000000078
:10300000C8A0000801280008AD730008A9730008D3
:10301000A9730008A9730008A9730008B173000818
:10302000000000000000000000000000A97300087C
:10303000A973000800000000A9730008A973000824
:10304000A5730008A5730008A5730008A573000800
:10305000A5730008A5730008A5730008A5730008F0
:10306000A5730008C96B0008A5730008A5730008C4
:10307000A5730008A5730008A5730008A5730008D0
:10308000A57300084D700008A5730008A57300081B
:10309000A5730008A5730008A5730008A5730008B0
:1030A000A5730008A5730008A5730008A5730008A0
:1030B000A5730008A5730008A5730008A573000890
:1030C000A5730008A5730008A5730008A573000880
:1033B000A5730008A5730008496100086961000849
:1033C00089610008A9610008C9610008E961000875
:1033D000A5730008A5730008A5730008A57300086D
:1033E000A5730008A5730008A5730008A57300085D
:1033F000A5730008A5730008A5730008A57300084D
:10340000A5730008A5730008A5730008A57300083C
:10341000A5730008A5730008A5730008A57300082C
:10342000A5730008A5730008A5730008A57300081C
:10343000A5730008A5730008A5730008A57300080C
:10344000A5730008A5730008A5730008A5730008FC
:10345000A5730008A5730008A5730008A5730008EC
:10346000A5730008A5730008A5730008A5730008DC
:10347000A5730008A5730008A5730008A5730008CC
:10348000A5730008A5730008A5730008A5730008BC
:10349000A5730008A5730008A5730008A5730008AC
:1034A000A5730008A5730008A5730008A57300089C
:1034B000A5730008A5730008A5730008A57300088C
:1034C000A5730008A5730008A5730008A57300087C
:1034D000A5730008A5730008A5730008A57300086C
:1034E000A5730008A5730008A5730008A57300085C
:1034F000A5730008A5730008A5730008A57300084C
:10350000A5730008A5730008A5730008A57300083B
:10351000A5730008A5730008A5730008A57300082B
:10352000A5730008A5730008A5730008A57300081B
:10353000A5730008A5730008A5730008A57300080B
:10354000A5730008A5730008A5730008A5730008FB
:10355000A5730008A5730008A5730008A5730008EB
:10356000A5730008A5730008A5730008A5730008DB
:10357000A5730008A5730008A5730008A5730008CB
:10358000A5730008A5730008A5730008A5730008BB
:10359000A5730008A5730008A5730008A5730008AB
:1035A000A5730008A5730008A5730008A57300089B
:1035B000A5730008A5730008A5730008A57300088B
:1035C000A57300080961000829610008A5730008B7
:1035D000A5730008A5730008A5730008A57300086B
:1035E000A5730008A5730008A5730008A57300085B
:1035F000A5730008A5730008A5730008A57300084B
:10360000A5730008A5730008A5730008A57300083A
:10361000A5730008A5730008A5730008A57300082A
:10362000A5730008A5730008A5730008A57300081A
:10363000A5730008A5730008A5730008A57300080A
:10364000A5730008A5730008A5730008A5730008FA
:10365000A5730008A5730008A5730008A5730008EA
:10366000A5730008A5730008A5730008A5730008DA
:10367000A5730008A5730008A5730008A5730008CA
:10368000A5730008A5730008A5730008A5730008BA
:10369000A5730008A5730008A5730008A5730008AA
:1036A000A5730008A5730008A5730008A57300089A
:1036B000A5730008A5730008A5730008A57300088A
:1036C000A5730008A5730008A5730008A57300087A
:1036D000A5730008A5730008A5730008A57300086A
:1036E000A5730008A5730008A5730008A57300085A
:1036F000A5730008A5730008A5730008A57300084A
:10370000A5730008A5730008A5730008A573000839
:10371000A5730008A5730008A5730008A573000829
:10372000A5730008A5730008A5730008A573000819
:10373000A5730008A5730008A5730008A573000809
:10374000A5730008A5730008A5730008A5730008F9
:10375000A5730008A5730008A5730008A5730008E9
:10376000A5730008A5730008A5730008A5730008D9
:10377000A5730008A5730008A5730008A5730008C9
:10378000A5730008A5730008A5730008A5730008B9
:10379000A5730008A5730008A5730008A5730008A9
:1037A000A5730008A5730008A5730008A573000899
:1037B000A5730008A5730008A5730008A573000889
:1037C0000369C268934204D881688A1A1344581E58
:1037D0007047981A013870472DE9F8430446884627
:1037E0001646C5688768A7EB0509914509D9406861
:1037F000284404F04BFABFF35F8F3544E560BDE821
:10380000F88340684A46284404F040FAED1B3544EA
:103810002A4608EB0901606804F038FABFF35F8FAD
:10382000E560ECE72DE9F843064688461746C5688B
:103830004FF000091AE05B1B5A1EB3685C1B9442F0
:1038400028BF1446BC4228BF3C4670682246414609
:10385000284404F01BFAA144A0443F1B2544B3684C
:10386000AB420BD0BFF35F8FF5604FB133699D4220
:10387000E1D3B2685B1B1A44013ADEE70025F1E7A9
:103880004846BDE8F883000010B5154CA822002179
:10389000204604F07BFA032323616361114AA2618D
:1038A000114BE3614FF4806323620023A3626362E0
:1038B000E36222660D4A62661022A2662367E3660F
:1038C0006367BFF35F8F06E0C3F10F0208498956B3
:1038D000034AD15401330F2BF6D9BFF35F8F10BDCC
:1038E00088A50008B07F000888A1000878A100081A
:1038F000488800082DE9F047044688469146254B44
:103900001B785BB2532B18D104EB4402214B03EB21
:10391000C2031F6FDD6EAF4212D80026ED1B4D456E
:1039200028BF4D463DBB2EB104EB4404194B03EBBD
:10393000C4031F673046BDE8F087FFF7A5FFE3E744
:103940001346144A02EBC30ADAF86860F61B4E45C8
:1039500028BF4E46DAF8641032463944404604F037
:1039600095F9B044A9EB06093744DAF86830BB4250
:10397000D4D10027D2E704EB4402064B03EBC20389
:10398000596E2A463944404604F080F92E442F44AB
:10399000C9E700BF88A5000810B50B46EFF31184F6
:1039A0004FF0200181F311881946FFF7A3FF84F33C
:1039B000118810BDF8B50F461646441C04EB4404AC
:1039C000164B03EBC40400EB400003EBC003DD6ABD
:1039D000012D0ED0022D1AD0F5B92046FFF7F0FECA
:1039E000864212D8324639462046FFF7F5FE354664
:1039F0000BE02046FFF7E4FE3546864228BF054629
:103A00002A4639462046FFF7E7FE2846F8BD2046FD
:103A1000FFF708FF0546F8E70025F6E788A5000848
:103A2000F8B504460D4616460A4B1B785BB2532B7D
:103A30000DD1EFF311874FF0200181F31188324649
:103A400029462046FFF7B6FF87F31188F8BDFFF738
:103A50001BFFEEE788A5000808B5084B1B785BB292
:103A6000532B06D1054B1A6FDB6E934204D0012015
:103A700008BDFFF709FFF5E70020F9E788A5000872
:103A800010B504468268531C4068834205D82068FC
:103A90008154A360E3680133E360A26863689A42DB
:103AA00000D010BD21682069FFF7BAFFA3689842D3
:103AB00003D04FF0FF33E360F3E70023A360F0E7A8
:103AC0002DE9F84F81460F4615461E46DDF828A021
:103AD0000B9A0B464FF0010803E0B3FBF5F308F136
:103AE0000108AB42F9D2B04500D2B04612F0010B4A
:103AF00018D1BAF1000F15D012F0020F02D0BEB1EA
:103B0000202400E02024BAF1000F0BD0C24509D9CF
:103B10000AF1FF3A21464846FFF7B2FFD9F80C30C8
:103B2000002BF0DAD9F80C30002B25DB012404E05F
:103B30003024E8E7013E05FB04F4012EFAD8B7FB78
:103B4000F4F39D42F7D900E01C46B7FBF4F304FB05
:103B50001377124AD1564846FFF792FFD9F80C3036
:103B6000002B03DBB4FBF5F3AC42EDD2BBF1000F4D
:103B700002D0BAF1000F01D1BDE8F88FBAF1000F01
:103B8000FAD0C245F8D90AF1FF3A20214846FFF79A
:103B900077FFD9F80C30002BF0DAEDE75C880008ED
:103BA0002DE9F04782B007468846154699460A9E99
:103BB000DDF82CA081EAE17CACEBE17C012402E0A1
:103BC0009CFBF5FC01346545FADD4C4500D24C46C2
:103BD00036B1B8F1000F02DB1AF0040F00D0013E3D
:103BE0001AF0020F02D0B9F1000F03D01AF0010F42
:103BF00000D1AEB9FB68002B0FDBB8F1000F1CDB66
:103C00001AF0040F20D1FB68002B06DB0AF0030337
:103C1000022B1ED0FB68002B2DDA02B0BDE8F08726
:103C2000002EE7D0A642E5D9013E20213846FFF715
:103C300027FFFB68002BF3DADCE7C8F100082D2131
:103C40003846FFF71DFFDEE72B213846FFF718FF48
:103C5000D9E7B9F1000FDDD1002EDBD0002ED9D08D
:103C6000A642D7D9013E30213846FFF709FFFB684D
:103C7000002BF3DACEE7CDF804A000964B462A4697
:103C800041463846FFF71CFFC7E700002DE9F04327
:103C900099B006460C46154603AB13934023149384
:103CA0000023159317901693A2E00020012211E043
:103CB00040F0010001340CE040F00200013408E063
:103CC00040F00400013404E040F00800013400E05A
:103CD00000221AB394F90030233B0D2BF8D801A130
:103CE00051F823F0C93C0008D13C0008D13C000841
:103CF000D13C0008D13C0008D13C0008D13C000870
:103D0000D13C0008C13C0008D13C0008B13C00088F
:103D1000D13C0008D13C0008B93C000894F90030BF
:103D2000A3F13001C9B2092907D8013402EB82029C
:103D300003EB4203A3F13002F0E72E2B04D000275F
:103D4000B84694F9003025E004F1010C94F90130F3
:103D50002A2B07D102342B68191D29601F684FF0E8
:103D60000108EEE70027B8469CF90030A3F13001C6
:103D7000C9B209290AD80CF1010C07EB870703EB3C
:103D80004703A3F130074FF00108EDE76446D8E799
:103D900014F9013F6C2BFBD0682BF9D0252B00F0D8
:103DA000818021DB782B1FDC582B1DDB583B202B1F
:103DB0001AD8DFE803F04019191919191919191936
:103DC00019112819191919191919191919196A190B
:103DD000194C1934191940002B681A1D2A6093F9DF
:103DE000001013A8FFF74CFE0134169B002B5EDB7E
:103DF00014F9011B00295AD025293FF456AF13A806
:103E0000FFF73EFEF1E72B68191D29601968019044
:103E100000923B460A2213A8FFF7C2FEE4E72B6894
:103E2000191D29601968019000923B460A2213A8C7
:103E3000FFF746FED8E72B68191D29601968019025
:103E400000923B46102213A8FFF73AFECCE72B68FE
:103E50001A1D2A60D3F80090B9F1000F0BD1DFF8DA
:103E600074904FF0000806E013A8FFF709FE013F29
:103E7000169B002BB8DB19F9011B0029B4D0B8F14F
:103E8000000FF1D0002FEFD1AEE72B681A1D2A608A
:103E900019680023019308230093102213A8FFF749
:103EA0000FFEA1E7252113A8FFF7EAFD9CE7169B6B
:103EB000002B05DD159A3AB9169B159A13441693F3
:103EC000169819B0BDE8F08303A93046FFF7A8FDA6
:103ED000F2E700BFBC7F00080EB400B582B003ABB0
:103EE00053F8041B019301AAFFF7D0FE02B05DF85E
:103EF00004EB03B07047000010B50749074802F013
:103F0000BFFD044608B9204610BD054B054A0649C9
:103F10000020FFF7E1FFF6E74489000854A60008F7
:103F2000C47F0008A8880008F87F000810B507487B
:103F300002F00AFE044608B9204610BD044B054AAB
:103F400005490020FFF7C8FFF6E700BF54A60008A8
:103F50001480000894880008F87F000808B5064817
:103F600002F008FE00B908BD044B054A05490020CF
:103F7000FFF7B2FFF7E700BF54A60008448000082F
:103F800080880008F87F000808B50C4B01221A70E1
:103F90000B4802F0AEFE48B90A490020FFF79CFF2B
:103FA0004FF47A71642003F087F908BD064B074A85
:103FB00007490020FFF790FFF7E700BF30A6000891
:103FC000BCA600089C800008788000086C88000867
:103FD000F87F000870B54FEA102C0D4D35F81C60C5
:103FE000B6B20C4C1CF804E0C0B24200032393406C
:103FF0009BB201228240D2B28140C9B2334325F83C
:104000001C302EEA020E41EA0E010CF8041070BDBD
:104010004001414020004140034AD2F8003C23F4D3
:104020008033C2F8003C704700004340064B1B78C9
:10403000DBB2064A11788B404FF480328A4013433A
:10404000034AC2F8043B704730A60008448A0008BF
:104050000000424008B50F4BD3F8403B13F0010F6E
:1040600000D108BD0B4BD3F8402B42F48032C3F88B
:10407000402BD3F8402B42F00102C3F8402B064BF3
:104080005B6801211888FFF7A5FF04490020FFF7AE
:1040900023FFE6E700004240E48D0008CC800008E2
:1040A00010B584B00020009001900290039010227F
:1040B0006946FFF771FC684603F064FEC0B2012850
:1040C00013D021490020FFF707FF20490020FFF708
:1040D00003FF1F490020FFF7FFFE1E490020FFF7E6
:1040E000FBFE0024204604B010BDFFF795FF1A49DF
:1040F0001A4801F0CBF8044680B900F0C7FB04462B
:1041000098B9FFF713FF0446B0B915490020FFF72F
:10411000E3FE14490020FFF7DFFEE3E7124B134AEA
:1041200013490020FFF7D8FEDCE7124B0F4A104975
:104130000020FFF7D1FED5E70F4B0C4A0C490020B9
:10414000FFF7CAFECEE700BFF0810008008200083A
:104150002C82000848820008308A0008D8A600088F
:1041600088810008B081000818810008B88800081C
:10417000F87F00083C8100086081000810B584B019
:104180000024039403A803F083F89DF80E309DF8F3
:104190000D20019200939DF80F303C4A3C49204687
:1041A000FFF79AFE3B492046FFF796FE3A49204624
:1041B000FFF792FE39492046FFF78EFE3849204628
:1041C000FFF78AFE37492046FFF786FE364B1B88ED
:1041D00093B1FFF73FFF00F03FFB0446B8B9FFF78C
:1041E0008BFE044600BB31490020FFF775FE3049C5
:1041F0000020FFF771FE37E02E492046FFF76CFEE6
:1042000006222D492046FFF767FE00BEE1E72B4B53
:104210002B4A2C490020FFF75FFE2246264900204A
:10422000FFF75AFE00BEDAE7274B254A2549002052
:10423000FFF752FE00F042FB22461F490020FFF725
:104240004BFE00BECFE700F039FBFFF787FE2246AA
:1042500019490020FFF740FE00BEFFF7E7FE1B4BA9
:104260001B78DBB2032B09D0FFF7F6FB0028F4D054
:10427000FFF716FF04460028EFD0E4E70020134BB9
:1042800018701349FFF728FEEEE700BF58820008B8
:10429000608200087C840008D0840008088500083B
:1042A0005C850008A0850008E48D00082C820008C9
:1042B00048820008C4850008E085000800860008E0
:1042C000CC880008F87F00082486000834A600087F
:1042D0004C860008022800D0704708B50A490B48F0
:1042E00002F096FB00F028F9094BD3F8003313F4E1
:1042F000806F06D000F048FA00F016FA00F05EFB7E
:1043000008BD00F03FF9F5E7548A000838A6000818
:1043100000004340114B00221A704FF0FF33184643
:104320005A1E40F1FF31134608460A4312D00B4A89
:104330001278002AF4D0094B1B78DBB2012B03D092
:104340000020064B18707047044B00221A704FF47F
:10435000967070474FF49670704700BF308F00081A
:1043600010B582B08DF804008DF805100F488368F1
:104370009C680023022201A90068A04748B10446B6
:104380000B4B0C4A0C490020FFF7A6FD204602B05B
:1043900010BDFFF7BFFF0446B0F5967FF6D1074B7F
:1043A000044A05490020FFF797FDEFE75889000808
:1043B00068860008E8880008F87F000890860008F2
:1043C000F0B583B08DF80700A9B10E46224B9F6867
:1043D000BC681D6801231A460DF107012846A04755
:1043E000044680B11D4B1E4A1E490020FFF774FD94
:1043F000204603B0F0BD1C4B194A1A490020FFF7B4
:104400006BFD0224F4E7FFF785FF0446B0F5967FC5
:104410000ED07C680023012231462846A04704467E
:1044200068B1124B0E4A0F490020FFF755FDDFE738
:104430000F4B0B4A0B490020FFF74EFDD8E7FFF763
:1044400069FF0446B0F5967FD2D10A4B044A05496C
:104450000020FFF741FDCBE7588900086886000877
:10446000D8880008F87F0008C4860008E88600089D
:104470009086000810870008F0B583B000248DF8FE
:104480000740244B9E6832681D685968284690474B
:104490000DF10701F820FFF793FF9DF80730F82290
:1044A0001D492046FFF718FD0DF107018D20FFF78C
:1044B00087FF1A4F9DF807308D2239462046FFF7B7
:1044C0000BFD0DF107016C20FFF77AFF9DF8073017
:1044D0006C2213492046FFF7FFFC12492046FFF7E4
:1044E000FBFC02218DF807108D20FFF739FF0DF13D
:1044F00007018D20FFF764FF9DF807308D223946B4
:104500002046FFF7E9FCF36928469847204603B0A8
:10451000F0BD00BF58890008408700085C8700088C
:104520007C8700089887000810B10279014B1A7047
:10453000704700BF308F0008114B4FF01F12C3F8B7
:104540000022C3F80422C3F80822C3F80C22C3F8DF
:104550001022C3F81422C3F81822C3F81C22C3F88F
:104560002022C3F82422C3F82822C3F82C22C3F83F
:104570003022C3F83422C3F838220020704700BF2D
:104580000000424038B55C4C5C4BC4F800394FF435
:10459000E023C4F804395A4BC4F80839594BC4F81D
:1045A0000C394FF47C13C4F81039574BC4F8143944
:1045B000564BC4F81839564BC4F81C3903F1C46380
:1045C000C4F82039534AC4F82429534AC4F8282986
:1045D0004FF48022C4F82C29A2F51012C4F8302917
:1045E0004E4AC4F83429C4F838394D4AC4F83C2935
:1045F000C4F8403903F18063C4F844390125C4F894
:104600008C5CFFF739FF4FF47A711E2002F054FEE4
:10461000C4F8785C4FF47A71142002F04DFE364BEA
:10462000D3F87C3C03F00603062BF8D1324C002370
:10463000C4F8783C4FF00422C4F82C2DC4F88C3C0C
:1046400000F0C4F86FF02013C4F800366FF00413C4
:10465000C4F804364FF08023C4F808366FF0011315
:10466000C4F80C366FF08022C4F810266FF00F13D8
:10467000C4F814364FF0FF33C4F81836C4F81C36AB
:10468000C4F82026C4F824266FF00712C4F82826A0
:10469000C4F82C36C4F83036C4F83436C4F838368A
:1046A000C4F83C361F4AC4F840266FF0F022C4F824
:1046B00044266FF00312C4F84826C4F84C36C4F8F8
:1046C00050364FF00F13C4F854360323C4F84C3C53
:1046D000094BD3F84C3C03F00C03082BF8D1064BE4
:1046E0000222C3F84C2C044BD3F8883C13F0010F82
:1046F000F9D0002038BD00BF000042400000FF3F5D
:104700000000FF1F0000BCE7000080FE00001F9EAD
:104710000000DFF90000DFFF000086030000E1F188
:10472000000003710106010610B4154B00209860CB
:104730004FF00F12C3F8142101249C60A3F162739F
:104740004FF08061C3F8241D0E498860C1F8142120
:104750008C604FF0FF21C3F80C194FF03F11C3F8E4
:10476000101903F5A0239860C3F814210F22C3F891
:1047700010210321D9609A605DF8044B704700BF97
:104780000000CA430000CB430F4B4FF0C062C3F898
:104790002C2D4FF04022C3F83C294FF0FF32C3F8D4
:1047A00040296FF0FC22C3F84429074BD3F81C3A88
:1047B000B3F5803FF9D2044BD3F8203AC3F3090391
:1047C000002BF8D100207047000042401E4B4FF0F4
:1047D00001121A621C4B1B6B13F0100FFAD01A4B0C
:1047E0004FF001121A64184B1B6D13F0100FFAD022
:1047F000154B164A5A66164A9A664FF001121A6607
:10480000114B1B6F13F0100FFAD00F4B4FF001122A
:10481000C3F880200C4BD3F8903013F0100FF9D070
:10482000094B43F28242C3F844210A4AC3F84821A3
:104830004FF00112C3F84021034BD3F8503113F06D
:10484000100FF9D0704700BF000042404335008090
:10485000001E0C00011A0C0010B50749074802F0B1
:10486000FFFA044608B9204610BD054B054A064923
:104870000020FFF731FBF6E7088A0008BCA6000815
:10488000B087000828890008F87F000810B507489D
:1048900002F026FA044608B9204610BD044B054A2A
:1048A00005490020FFF718FBF6E700BFBCA600088B
:1048B000D88700081C890008F87F000808B506485A
:1048C00002F020FA00B908BD044B054A0549002052
:1048D000FFF702FBF7E700BFBCA60008FC87000853
:1048E00008890008F87F000808B5114800F092FC1C
:1048F00068B1104B5B68012219880F4801F0CEFCAB
:104900000E4B0F4A0F490020FFF7E6FA08BD0E4A8A
:104910001368013313600D4B1A7882F001021A708C
:10492000044B5B681988044801F0B8FCEEE700BF4F
:10493000D8A60008E48D000838A6000820880008E2
:10494000F8880008F87F000834A6000831A600089F
:10495000EFF31080012181F31088174BD3F8042C5A
:1049600042F02002C3F8042C80F31088D3F8402CC6
:1049700022F00402C3F8402CD3F8402C22F00802A5
:10498000C3F8402CD3F8402C22F01002C3F8402C7E
:10499000D3F8402C22F02002C3F8402CEFF3108013
:1049A00081F31088D3F8042C22F02002C3F8042CE1
:1049B00080F31088704700BF0030414008B5084BB5
:1049C000084AC3F804234FF01022C3F80025FFF76C
:1049D000BFFF054B9A68126859681868904708BD70
:1049E0000000424000010011A489000838B50546C6
:1049F0000C460A69D2F8083123F48033C2F8083132
:104A00000121084602F058FC2269D2F8083143F42B
:104A10008033C2F8083123681B88492B01D0922BC0
:104A200017D1492B17D00E4B7F221A602B6900211A
:104A300020469847EB6801220A4920469847EB68D0
:104A400001220749204698472B69074A11882046CA
:104A50009847002038BD024BBF221A60E6E700BF2E
:104A6000508F0008388F0008B08900080020704778
:104A700008B5FFF783FB002008BD0000F8B500284B
:104A800000F00B810E460546002900F009818F6970
:104A9000002F00F00781C268874B9A4200F0048122
:104AA0003B78002B40F00281BB69002B00F00181B4
:104AB000EFF31082012383F31088804B4FF08021A5
:104AC000C3F824167D4BD3F81038002BFADA82F3A2
:104AD0001088EFF31082012383F31088774B4FF097
:104AE0000311C3F82816754BD3F8143813F0070FC9
:104AF000F9D082F31088EFF31080012282F310883E
:104B00006E4B4FF40011C3F80C1DD3F80C4D80F31D
:104B10001088EFF3108082F31088C3F8101DD3F8CB
:104B2000101D80F31088EFF3108182F310884FF08E
:104B30001812C3F82829614BD3F8104A14F4401412
:104B4000F9D181F31088BB692B612E605A4BEB6061
:104B5000FB682BB129465A489847002840F08D80C1
:104B600031882A697B78143342F823103388AB826A
:104B70007B78002B40F085802A69136823F4F85372
:104B800013603388C3F3090379680A78120402F4C6
:104B9000702213438A78120502F4801213434A7874
:104BA000520502F4001229697878134300F11402C7
:104BB00041F82230F1782A697B78890001F00C01F4
:104BC00001331B01D150F07B33791B0403F4F8133C
:104BD0002A69797843EA0023013102EB011253601C
:104BE000327B2B697978120203EB01139A617B788F
:104BF000002B4CD12A69136E43F0030313663B7AF2
:104C00001B0403F480332A6943F4786393603B7A8E
:104C10001B0403F480332A6943F47863D3602B695F
:104C200079781A6F61F3C3021A672A682B69117CBD
:104C30009A6E61F307029A662A682B69517C9A6E14
:104C400061F30F229A662A682B69117CDA6E61F390
:104C50000702DA662A682B69517CDA6E61F30F224B
:104C6000DA660023AB603B69C3B129461448984714
:104C7000044698B10023EB6010E00022EA6004468D
:104C80000CE02A69136823F0F853136079E72A6966
:104C9000136E43F00C031366B1E701242046F8BD00
:104CA0000124FBE70124F9E70E24F7E740F27A54E8
:104CB000F4E70124F2E700BF49505351000042409D
:104CC000B88B000806207047062070470620704702
:104CD000062070470346D8B1C068134A904219D1E4
:104CE000022919D0032919D0042919D040F2FF3222
:104CF000914217D01A68906999821A6943781433DF
:104D000052F8230061F3090042F8230000207047A5
:104D10000120704707207047032070470320704729
:104D2000032070470320704749505351034630B168
:104D3000C168054A914204D10020D8607047012023
:104D400070470720704700BF4950535110B483B0DB
:104D50000190019B002B3DD0C168234B99423BD170
:104D600003689B69597800238DF803309DF8033060
:104D70003AB101BB03691C6E4FF0010C6CF30104E6
:104D80001C6603699C6E62F310449C660369DC6ECA
:104D900062F31044DC6601F10C03DB061B78DBB226
:104DA0008DF80330EAB971B90269136E43F0030359
:104DB0001366002011E003691C6E4FF0010C6CF3C8
:104DC00083041C66DDE70269136E43F00C0313666F
:104DD000002002E0012000E0072003B05DF8044B52
:104DE00070470020F9E700BF4950535160B108B542
:104DF000C168064A914201D0072008BD016801221E
:104E0000097CFFF7A3FFF8E7012070474950535191
:104E100060B108B5C168064A914201D0072008BDBB
:104E200001680022497CFFF791FFF8E701207047F5
:104E30004950535110B40469236F23F030032367A2
:104E400003691C6F14F0010FFAD1CC7B04F003044A
:104E500091F810C04FEA8C0C0CF01C0C44EA0C04C6
:104E600091F811C04FEA4C1C0CF4F07C44EA0C049D
:104E700091F80EC04FEA4C2C0CF4785C44EA0C0418
:104E80004FEAC23C1FFA8CFC44EA0C04B1F80CC097
:104E900044EA0C64C3F8804003698C68C3F884401A
:104EA000012A15D00469236F43F0010323670369C6
:104EB000D3F8904114F0010FF9D012B9D3F888302B
:104EC0000B6003690122C3F894215DF8044B70471D
:104ED00003690C68C3F88840E4E70000A0B110B58E
:104EE00003460D48DC68844210D11869806E10F4C6
:104EF000803F0DD171B1C87B08B9012007E0184689
:104F0000FFF798FF002002E001207047072010BD46
:104F10000520FCE70120FAE749505351F0B587B06E
:104F20000446026896690023009301930293039359
:104F300004930593937BADF80C3001238DF80F306B
:104F40008DF81130858A902D04D0482D02D000258F
:104F50002F460BE021697378143351F823206FF347
:104F6000090241F823200023A38201270022694679
:104F70002046FFF75FFF4FB122697378143352F870
:104F8000231065F3090142F82310A58223689B7959
:104F90000098D84000F0010007B0F0BD38B500B36C
:104FA0000C460346F9B1C168124A91421DD102690B
:104FB000916E11F4803F1AD1D2F8842102F040059D
:104FC00012F0010F00D145B112F0410F14BF0123BF
:104FD000002323700025284638BDFFF79FFF20706F
:104FE000F9E70125F7E70125F5E70725F3E70525AB
:104FF000F1E700BF4950535100B587B0002300933B
:105000000193029303930493059303685B7BADF8CC
:105010000C3001228DF80F206946FFF70BFF07B017
:105020005DF804FB78B108B5C1680A4A91420CD119
:105030000269926E12F4803F09D1FFF76FFF28B129
:1050400049F6424002E001207047072008BD0520D4
:10505000FCE700BF495053512DE9F04186B00446AA
:105060000E461546FFF7DEFF074608BB002E44D06C
:1050700006F12046034603E04FF0000811E001333B
:10508000216891F812C09C450DD94969D80001EBFF
:10509000C3025268AA42F2D1B5F1FF3FECD04FF003
:1050A00001080D5A02E04FF00108002525B901273B
:1050B000384606B0BDE8F0812046FFF79DFF00238B
:1050C000009301930293039304930593ADF80C505E
:1050D0000296B8F1000F0ED02368DB78013303F09D
:1050E00007038DF8103001228DF80F206946204605
:1050F000FFF7A0FEDCE70023F3E70127D8E7F8B5C8
:1051000007460D4614461E46FFF78CFF60B965B191
:105110006CB13B689B68B4FBF3F203FB12441B1BAE
:10512000B34206D3402E06D8F8BD0120FCE701208B
:10513000FAE70120F8E70120F6E72DE9F0410746FC
:105140000C4615461E46FFF7DAFF804610B1404672
:10515000BDE8F0813846FFF7E1FE88BB3846FFF72F
:105160004BFF16F0030304D016F001030FD04346A3
:1051700023E0B3EB960F0DD254F8042B45F8042B23
:105180000133F6E734F8022B25F8022B0133B3EB99
:10519000560FF7D3BFF34F8F3F2E04D83A69536EA3
:1051A00043F4807353663B69D3F8843113F0010FE5
:1051B000F9D0CCE7E25CEA540133B342FAD3E9E731
:1051C00049F64248C3E7000000F01F0240090123EE
:1051D0009340044A00F1600142F8213042F8203047
:1051E000704700BF00E100E008B511F0800F0DD15D
:1051F0004900C9B200F1604303F5614383F800132D
:10520000034B43F82020FFF7DFFF08BD7F21EFE7C6
:10521000F0A60008034650B10168074A914208D140
:105220008268002010709B68FF221A70704701206E
:1052300070470720704700BF544457000B46A1B188
:10524000A8B10168104A914213D01A699AB1D26884
:105250009AB11B78022B12D013D3043BDBB2022B82
:1052600001D80020704701207047012070470120BD
:1052700070470E20704701207047012070470020C2
:1052800070470120704700BF54445700F8B50546E9
:105290000E46FFF7D3FF0746002840F00681346929
:1052A000E368AB606E60EFF31080012383F3108836
:1052B0002178022959D801FA03F20B3293401B04DA
:1052C000022955D84FEA410C0CF10B0C012202FACD
:1052D0000CF202294ED88B4913430B608A4BD3F84A
:1052E000081823785B000B33012202FA03F31942FA
:1052F000F4D080F31088EFF31080134682F3108807
:1053000094F800C0944537D9ACF102025200012351
:1053100093401B04BCF1010F34D9ACF102014900E8
:1053200001228A40BCF1010F32D9784913430B6046
:10533000754BD3F80818237806335B00012202FA74
:1053400003F31942F4D080F31088EFF31081134671
:1053500082F310882278EAB902F10A0083401B0424
:105360003AB3012A23D96A4A24E04FF40033A7E76D
:105370000222AEE76549AFE70CF106029A4093407E
:105380001B04C7E70CF10601490001228A40C9E766
:105390005C49CBE7012A05D902F10A0001238340C9
:1053A0001B04DDE7501E012383401B04D8E7594A44
:1053B00000E0594A136023782BB1012B01D9544BDB
:1053C00002E0544B00E0544B1B6881F31088EFF36C
:1053D0001080012383F310882278053203FA02F249
:1053E00012044949C1F81C2980F31088EFF310809A
:1053F00083F3108822780532934043EA0343C1F8CF
:105400001C39414BD3F80C1A227806320123934001
:105410001942F6D180F31088B4F90A00002846DA60
:10542000B3682B61F368EB6000236B61AA6893712A
:1054300033783A4AD25C02F0030273781B01DBB284
:105440001343B278120302F440521A43F3781B025A
:1054500003F44073A96813434B80237863BB23791B
:1054600083F001032E4AD2F8001C63F30001C2F856
:10547000001C637921788B404FF480328A401343BB
:10548000214AC2F8043B237823B9A37943F480333B
:10549000C2F8003B237833B9E3799B0043F48023BF
:1054A000194AC2F8003B1F4B2B603846F8BD2A460C
:1054B000217AFFF799FEB3E7012B0CD0022B15D010
:1054C000237983F00103164AD2F8081C63F3000124
:1054D000C2F8081CCDE7237983F00103104AD2F803
:1054E0000C1C63F30001C2F80C1CC2E7237983F0A3
:1054F00001030B4AD2F8041C63F30001C2F8041C38
:10550000B7E700BF10064240000042401406424088
:10551000100D4240000D4240080D4240EC8B000847
:10552000000043405444570000F01F02400901238B
:105530009340044A00F1600142F8213042F82030E3
:10554000704700BF00E100E008B511F0800F0DD1F9
:105550004900C9B200F1604303F5614383F80013C9
:10556000034B43F82020FFF7DFFF08BD7F21EFE763
:10557000F0A6000878B110B403460B48DC688442FA
:105580000BD1D86958B993F82A4054B959601A72A6
:105590005DF8044B7047012070470720F8E70820AA
:1055A000F6E70820F4E700BF4349495288B1844632
:1055B00089B110B40A48DCF80C4084420DD1CCF813
:1055C0003410CCF83C20CCF8383000205DF8044B87
:1055D000704701207047012070470720F6E700BFA1
:1055E0004349495248B151B1C368064A934214BF76
:1055F000002301230B700020704701207047012019
:10560000704700BF4349495210B582B004460A466C
:10561000836BBBB193E803000DF1080C0CE90300A8
:10562000E16B19601A71626B18469047A36B23B146
:1056300002AA12E9030083E80300002384F82B3058
:1056400002B010BD6B46EBE7F8B504460D460368A3
:105650009E6A0269137823F080031370026913783D
:1056600043F0400313700269137843F08003137012
:105670003379026943F0E0031374F378026943F06D
:10568000E0035374B3781B0103F07003026943F025
:10569000080393703378012B4FD0042173785B009B
:1056A000DBB222690B43D37073792269013BDBB211
:1056B000137123685A68234B9A4240D0772223699A
:1056C0005A71236900279F712369B322DA71224638
:1056D000697BB6F90E00FFF737FF2246697BB6F902
:1056E0000C00FFF731FF2246697BB6F90A00FFF78D
:1056F0002BFF2246697BB6F90800FFF725FF2246FB
:10570000697BB6F90600FFF71FFF2246697BB5F9F2
:105710001000FFF719FF2246697BB5F91200FFF769
:1057200013FF2246697BB5F90E00FFF70DFF2269D2
:10573000137867F386131370F8BD0521AEE7F722DF
:10574000BDE700BF40420F0038B5002800F0E980F7
:105750000546002900F0E8808B6A002B00F0E68007
:105760001A69002A00F0E480B1F90E000028C0F2A6
:10577000E180B1F910000028C0F2DE80B1F912001A
:105780000028C0F2DB80B3F906000028C0F2D88000
:10579000B3F90A000028C0F2D580B3F90800002848
:1057A000C0F2D280B3F90C000028C0F2CF80B3F968
:1057B0000E30002BC0F2CC80E868694B984200F0B4
:1057C000C980087840F2FF13034113F0010F00F085
:1057D000C3802A6129608B686B600B7B2B720B6A1C
:1057E0006B634B6AEB630023AB636B61AB61EB6193
:1057F0002B6285F8293085F82A3085F82B3085F81A
:105800002C30EFF31084012383F310880A78082AE0
:105810000DD0101D83401B04082A0BD00432012038
:1058200000FA02F213434F4AC2F8243608E04FF45C
:105830000023F1E70822F5E74FF4002318420AD1CC
:10584000484BD3F810080B78082BF5D014330122FD
:1058500002FA03F3F2E784F31088EFF310800123D8
:1058600083F310880A78082A48D0D418A3401B0470
:10587000082A46D03C4A13600B78082B43D03A4B99
:105880001B6880F31088EFF31080012383F31088E6
:105890000A78082A39D002F10804A3401B04082A18
:1058A00036D0324A136080F31088EFF31080012362
:1058B00083F310880A78082A2CD002F10804A34048
:1058C0001B04082A29D002F1080C012404FA0CF464
:1058D000082A24D0254A23431360224BD3F8104AC8
:1058E0000A780932012393401C40F6D180F31088D6
:1058F0002846FFF7A9FE1A4BEB6013E04FF0005368
:10590000B6E71B4AB7E71A4BBAE74FF48033C6E74E
:10591000184AC7E74FF48033D3E70124D8E7154A84
:10592000D9E70124204638BD0124FBE70124F9E72B
:105930000124F7E70124F5E70124F3E70124F1E767
:105940000124EFE70124EDE70124EBE70124E9E777
:105950000124E7E70E24E5E740F27A54E2E700BFCE
:105960004349495200004240000D42402409424050
:10597000080D42402809424010B5044679B9002379
:10598000E36194F8262084F82820A269226284F832
:105990002C3084F82A302369B322DA7110BD0369F0
:1059A0000022DA710168FFF74FFEE8E758B108B549
:1059B000C168064A914201D0072008BD0121FFF7C6
:1059C000DBFF0020F9E70120704700BF434949523F
:1059D000002800F0D48038B504460368002B00F09E
:1059E000D0809D6A002D00F0CE80C268674B9A423D
:1059F00001D0072038BD0121FFF7BEFF2269002337
:105A0000D371E360B5F90E3003F01F00590901238B
:105A100003FA00F05E4A203142F82100BFF34F8FB5
:105A2000BFF36F8FB5F90C1001F01F00490903FA9D
:105A300000F0203142F82100BFF34F8FBFF36F8F8A
:105A4000B5F9081001F01F00490903FA00F02031F0
:105A500042F82100BFF34F8FBFF36F8FB5F90A10E3
:105A600001F01F00490903FA00F0203142F821003B
:105A7000BFF34F8FBFF36F8FB5F9061001F01F0012
:105A8000490903FA00F0203142F82100BFF34F8F9B
:105A9000BFF36F8F2168B1F90E1001F01F004909A3
:105AA00003FA00F0203142F82100BFF34F8FBFF31B
:105AB0006F8F2168B1F9121001F01F00490903FA34
:105AC00000F0203142F82100BFF34F8FBFF36F8FFA
:105AD0002168B1F9101001F01F00490903FA00F024
:105AE000203142F82100BFF34F8FBFF36F8FEFF3E8
:105AF000108083F3108823681B78082B23D05A1C4E
:105B0000012191404FF6FF7242EA0142082B1CD05E
:105B1000204B1A6023681B78082B18D01D4B1B687C
:105B200080F31088EFF31081012383F3108823683A
:105B30001B78082B0DD01A1D012393401B04164A15
:105B4000C2F824360CE0154AE0E7154BE1E7144BA8
:105B5000E5E74FF40023F2E74FF4002318400BD0A1
:105B60000D4BD3F8100823681B78082BF4D003F1F1
:105B7000140201239340F1E781F310883AE70120F2
:105B80007047012036E7012034E700BF43494952FE
:105B900000E100E0000D424000004240FFFF002015
:105BA000080D424090F829301BB190F82730012BA6
:105BB00017D0C36953B990F82A30BBB90269537A38
:105BC00003F0F7035372036908225A700269D3790C
:105BD00023F04003D3710369DB7913F0400FFAD14E
:105BE000704790F83030002BF0D0E2E710B4036833
:105BF000B3F9103003F01F025B09012101FA02F230
:105C00002033114C44F82320BFF34F8FBFF36F8F25
:105C10000269D37943F08003D371036904225A7077
:105C20000269537923F00103537180F82C10026943
:105C3000D37923F04003D3710369DB7913F0400F6C
:105C4000FAD15DF8044B704700E100E038B5044636
:105C500003695A7812F0400F02D190F8312052B106
:105C600094F83120B2B1002184F831105A7A61F3EE
:105C700004125A7238BD5A7A22F010025A72012563
:105C800080F82B502946FFF777FE29462046FFF77C
:105C9000BBFCEFE7012284F82B205A7A02F0F702CE
:105CA0005A72236908225A7023689B6A1B78012B59
:105CB00010D002222369DA702269537943F001037C
:105CC000537123695A7A12F0080F05D1012384F821
:105CD0003130CFE70322EDE75A7A22F010025A72F0
:105CE000C8E710B504460269537A23F008035372DB
:105CF00090F82B3073B990F829304BB1022122690A
:105D0000D37923F00803D3712046FFF77DFC10BD43
:105D10000321F4E70021FFF72FFE0121F4E708B586
:105D20000269537A23F00403537290F82C308BB13C
:105D300090F82B305BB990F8293033B10221026919
:105D4000D37923F00403D37102E00321F7E70121A3
:105D5000FFF75AFC08BD38B504460269537A23F0B0
:105D600002035372012580F82B502946FFF704FEE9
:105D700029462046FFF748FC38BD38B5044602697D
:105D8000537A23F001035372012580F82B502946E2
:105D9000FFF7F2FD29462046FFF736FC38BD00002C
:105DA00010B4C369032B37D0022B4ED0012B38D14E
:105DB00090F82A30002B58D00368B3F9103003F064
:105DC0001F015B09012202FA01F120332B4C44F838
:105DD0002310BFF34F8FBFF36F8F0169CB7943F06F
:105DE0008003CB7101690B7943F010030B710169DA
:105DF0000B7923F008030B7101690B7923F0100371
:105E00000B7103690421597001694B7923F0010377
:105E10004B7180F82C2004E00269137943F04003B1
:105E2000137101694269036AC97CD154036A013361
:105E30000362C369013BC36123B90269137923F08B
:105E4000400313715DF8044B70470269137943F006
:105E5000100313710269137943F008031371026987
:105E6000137923F010031371DBE70269537A03F00F
:105E7000F7035372036908225A70D2E700E100E089
:105E800000B583B090F82D303BBB8369022B04D85A
:105E90000269137943F040031371C369012B0CD0DD
:105EA0000369DB7CDBB28DF807309DF807300123F6
:105EB00080F82D3003B05DF804FB0269137943F0DC
:105EC000100313710269137943F008031371026917
:105ED000137923F010031371E2E7C369002BE9D0B3
:105EE000FFF75EFFE6E790F82630032B0ED090F820
:105EF000242003699A7490F82830013380F8283000
:105F000090F82730013B80F82730704790F8283010
:105F1000022BECD190F83030002BF6D0E7E70000F0
:105F200008B590F8273063BB90F829305BBBC36994
:105F300053B14169026A03698A5C9A74036A013346
:105F40000362C369013BC361C369E3B90269D379E1
:105F500023F08003D3710369DB79DB09FBD103688C
:105F6000B3F9123003F01F015B0901228A4060334C
:105F7000054941F823200269D37943F04003D371E6
:105F800001E0FFF7B0FF08BD00E100E070B5044696
:105F900003689E6A072001F075F90546092001F0A3
:105FA00071F921698B78C3F30213D840B5FBF0F384
:105FB0000A7C02F01F0202FB03F394F82C2052B972
:105FC0009B0800E0013B13B14A78D209FAD1002BBB
:105FD0004FD00023CB71002384F828302362A269BC
:105FE000E26194F8262084F8272084F82B3084F886
:105FF0002D3084F82E3084F82F3084F83030337808
:10600000012B30D0042173785B00DBB222690B4393
:10601000D3702269137943F0100313712269137945
:1060200023F0080313712269137923F0100313710D
:106030002269537943F0010353712368B3F9103097
:1060400003F01F015B0901228A400B4941F823201C
:106050002369BF22DA7194F82C3033B92369022204
:106060005A70002070BD0521CDE7002084F82C0077
:10607000F8E70820F6E700BF00E100E021B338B5FB
:106080000C461449C5688D4220D1416B01B344616F
:106090008261002280F83120027A012A07D0003B79
:1060A00018BF012380F82930FFF770FF38BD0022A8
:1060B00080F8252042685200D2B21A4380F824208A
:1060C000012280F82620EAE7012070470720EDE74B
:1060D0000120EBE74349495248B10AB90120704712
:1060E00008B580F82A300123FFF7C8FF08BD01205A
:1060F000704730B108B580F82A300023FFF7BEFFA3
:1061000008BD01207047000008B5EFF30383EFF3EB
:106110000383C3F30803103B024A52F82300FFF73E
:10612000AFFE08BDF0A6000808B5EFF30383EFF358
:106130000383C3F30803103B024A52F82300FFF71E
:10614000EFFE08BDF0A6000808B5EFF30383C3F324
:106150000803103B034A52F82300FFF723FDEFF337
:10616000038308BDF0A6000808B5EFF30383C3F36B
:106170000803103B034A52F82300FFF767FDEFF3D3
:10618000038308BDF0A6000808B5EFF30383C3F34B
:106190000803103B034A52F82300FFF7A2FDEFF378
:1061A000038308BDF0A6000808B5EFF30383C3F32B
:1061B0000803103B034A52F82300FFF7B0FDEFF34A
:1061C000038308BDF0A6000808B5EFF30383C3F30B
:1061D0000803103B034A52F82300FFF7BCFDEFF31E
:1061E000038308BDF0A6000808B5EFF30383C3F3EB
:1061F0000803103B034A52F82300FFF7BEFDEFF3FC
:10620000038308BDF0A60008EFF31081012383F398
:106210001088084B1B6833B9074AD2F8043C43F096
:106220004003C2F8043C034A13680133136081F34E
:106230001088704770AE000800304140EFF31083C3
:10624000012282F310880A4A12681AB108490A68C2
:10625000013A0A60064A126832B90649D1F8042C9C
:1062600022F04002C1F8042C83F31088704700BF6D
:1062700070AE000800304140C0F307230B7010706F
:106280007047FF2B07D090F800C02CEA03035BB2E5
:1062900091400B43D9B2017070470000A8B108B516
:1062A000944602680C4B9A4211D1BCF1010F10D8F0
:1062B000CAB201239340C1F3072EDBB261460748FF
:1062C0007044FFF7DEFF002008BD01207047072063
:1062D000FAE70320F8E700BF54524F502000414036
:1062E0004FF6FF7C634509D0B0F800C01FFA8CFC64
:1062F0002CEA03031BB291400B4399B20180704713
:10630000B3F1FF3F09D010B4046824EA03039140BD
:10631000194301605DF8044B70470160704700004D
:106320002DE9F04383B00D460DF106020DF1070192
:10633000FFF7A2FF9DF8063003F00304E4009DF888
:10634000070003384000C0B200EB9300C0B2012642
:10635000A64033462246C5F380413B4F07EB800001
:10636000FFF7CEFF9DF8070003384000C0B29DF84C
:10637000063000EB9300C0B20327A7403B462246FD
:10638000C5F38121DFF8D0C00CEB8000FFF7B8FF28
:106390009DF8070003384000C0B29DF8063000EBBE
:1063A0009300C0B233462246C5F34041DFF8ACC08B
:1063B0000CEB8000FFF7A4FF9DF8070005384000B4
:1063C000C0B29DF8063000EB9300C0B233462246BF
:1063D000C5F38011DFF888C00CEB8000FFF790FF59
:1063E0009DF8070005384000C0B29DF8063000EB6C
:1063F0009300C0B23B462246C5F30111DFF864C0EA
:106400000CEB8000FFF77CFF9DF80730012B02D0DA
:1064100003B0BDE8F083C5F30159C5F38158334695
:106420002246C5F3C0410948FFF76AFF3B462246B2
:1064300049460748FFF764FF3B4622464146054868
:10644000FFF75EFFE4E700BF181841400820414015
:106450000824414008284140181041401814414088
:1064600028304140281C41402DE9F04182B00D46C2
:106470000DF106020DF10701FFF7FEFE9DF8062063
:10648000012606FA02F39DF80740DBB2C5F300418E
:106490003D482044FFF7F5FE9DF80620B240032753
:1064A00007FA02F39DF807409BB2C5F38101374814
:1064B00000EB4400FFF714FF9DF8062006FA02F3F4
:1064C0009DF80740DBB205EA060131482044FFF79A
:1064D000D8FE9DF80700B040C0B29DF8064000EB22
:1064E0009400C0B23C40BC40A7404FEA80083B4605
:1064F0002246C5F38121DFF8BCC00CEB8000FFF71A
:10650000FFFE3B462246C5F3011122484044FFF7F7
:10651000F7FEA64033462246C5F380311E4840446C
:10652000FFF7EEFE33462246C5F3C0411B48404408
:10653000FFF7E6FE3B462246C5F3015118484044AA
:10654000FFF7DEFE3B462246C5F381511548404425
:10655000FFF7D6FE33462246C5F340411248404479
:10656000FFF7CEFE33462246C5F380110F48404464
:10657000FFF7C6FE33462246E90F0D484044FFF7B9
:10658000BFFE02B0BDE8F081200241404001414021
:1065900020004140001D4140002D4140002141406C
:1065A0000025414000294140001541400031414053
:1065B00000354140001141402DE9F04782B0C1F360
:1065C000C048C1F30157C1F3815601F070640DF169
:1065D00006020DF10701FFF74FFEB4F1506F1FD017
:1065E000B4F1706F2AD0DFF88090DFF880A01A48ED
:1065F00000240325A5400123A34022464146FFF77E
:106600007FFE2B46224639465046FFF779FE2B4641
:10661000224631464846FFF773FE02B0BDE8F087D8
:106620009DF807109DF806200C4B03EBC1039C5C02
:10663000DFF83490DFF834A00748DAE79DF8071058
:106640009DF80620064B03EBC1039C5CDFF820900D
:10665000DFF820A00348CCE7083C4140FC8C000850
:10666000148C0008143C4140103C41400C3C41401B
:106670001C3C4140183C41402DE9F04383B0814629
:106680000C460DF106020DF10701FFF7F5FD9DF82F
:106690000620012606FA02F39DF80750DBB2C4F388
:1066A000004166482844FFF7ECFD9DF80620920063
:1066B000C4F303689DF807500F2393404146604898
:1066C00000EB8500FFF71CFE9DF8063003F0030584
:1066D000ED009DF80700B040C0B200EB9300C0B2DF
:1066E0000327AF403B462A46C4F38121DFF868C147
:1066F0000CEB8000FFF704FE9DF80700B040C0B22D
:106700009DF8063000EB9300C0B23B462A46C4F326
:106710000111DFF848C10CEB8000FFF7F1FD9DF897
:106720000700B040C0B29DF8063000EB9300C0B245
:10673000AE4033462A46C4F34041DFF824C10CEB97
:106740008000FFF7DDFD9DF807004000C0B29DF816
:10675000063000EB9300C0B233462A46C4F38011E2
:10676000DFF800C10CEB8000FFF7CAFD9DF807C001
:10677000ACF10B0C4FEA4C0C5FFA8CFC9DF8063028
:106780000CEB930C5FFA8CFC33462A46C4F3804131
:106790002C4800EB8C00FFF7B3FD9DF8070040008C
:1067A000C0B29DF8063000EB9300C0B233462A46D3
:1067B000E10FDFF8B4C00CEB8000FFF7A1FDB8F1EA
:1067C0000D0F0ED04FEA0863B3F1706F0ED19DF834
:1067D00007109DF806201C4B03EBC1039B5CF02BBC
:1067E00004D021464846FFF7E7FE23E09DF8070066
:1067F0004000C0B29DF8063000EB9300C0B24FEAF3
:10680000800833462A46C4F3C041104E06EB800090
:10681000FFF776FD3B462A46C4F301510C4840443D
:10682000FFF76EFD3B462A46C4F3815109484044B8
:10683000FFF766FD03B0BDE8F08300BF20024140D2
:106840008004414098184140148C000800214140C8
:10685000002541400029414000114140001D4140B8
:1068600000154140003141400035414008B5B0F5C8
:10687000803F05D211F4803F05D0FFF7FDFE08BD33
:10688000FFF74EFDFBE7FFF7EFFDF8E738B50546EC
:10689000FFF7BAFC002409E06B6803EBC40253F86D
:1068A00034105068FFF7E2FF0134A4B22B88A342F2
:1068B000F2D8FFF7C3FC38BDF8B50446FFF7A4FCD7
:1068C00000200346014618E043F008032B435578A7
:1068D000012D2FD012795201D2B21343DBB20EF147
:1068E000804202F5820243F60C055355A26812F865
:1068F0000C20012A2ED00131C9B203292FD8A26859
:1069000001EB41034FEA430C02EB430253881E0A9A
:10691000DDB28E4601F1804303F5820343F60C0796
:10692000DB5D03F08003062ECED0082ECED143F0DF
:106930001003CBE752795201D2B21343DBB2314E8E
:1069400096F81058012202FA0EF2D2B22A4386F8C3
:106950001028C4E702FA0EF2D2B21043CBE70026A9
:1069600032460EE0256875446D782D01EDB22B435B
:1069700001F1804101F5820143F602054B550132D8
:10698000D2B2012A32D8616802EB8205294491F81B
:1069900003C021684FEA420E11F812104CEA010CB4
:1069A0001146194F07F802C0676807EB050C7D5DBB
:1069B000012DD7D1154DAF1843F60203FB5C03F050
:1069C00088039CF801701F439CF802309B00DBB2E7
:1069D0003B439CF8047002F6F85C05EB8C0585F8E7
:1069E000247001259540EDB22E43BBE7B60046EA80
:1069F000001606F0FC06034B83F81168FFF71EFC37
:106A0000F8BD00BF00304140003841400000414027
:106A1000D8B110B50C460346C9B14A6882B11968AD
:106A20000E4A914215D0A268AAB10C4A1A609C6025
:106A30002046FFF72BFFA068FFF73EFF002010BDA8
:106A40000A88002AEBD00120F9E7012070470120D5
:106A5000F5E70E20F3E70120F1E700BF54524F5055
:106A600000F01F02400901239340044A00F1600135
:106A700042F8213042F82030704700BF00E100E0CA
:106A8000002851D0024600682C4B98424ED0002975
:106A90004ED008784FF6FF73C34013F0010F49D072
:106AA00030B4B1F9023093808B689360CB68D360C7
:106AB0000B7893710879012804D0022804D078BBA0
:106AC000012502E0022500E003251D4CA0695B00C2
:106AD0004FF0030C0CFA03FC20EA0C0005FA03F358
:106AE0000343A3611DB19079012383406361B2F92F
:106AF000040000280FDB4B7891F90110002911DB0D
:106B00005B00DBB200F1604101F5614181F80033C7
:106B10000C4B43F82020094B1360002030BC704719
:106B20000025D2E77F23EBE7012070470E20704756
:106B30000120704740F27A50704700BF515249001F
:106B400000004040F0A6000860B108B50168084A9E
:106B5000914209D1B0F90400002807DBFFF780FF5C
:106B6000002008BD012070470720FAE70B20F8E756
:106B7000515249000346E8B10168104A91421BD1C5
:106B8000B0F90420002A12DB02F01F005209012193
:106B9000814020320A4840F82210BFF34F8FBFF3E4
:106BA0006F8FB3F90410074A002042F8210000203B
:106BB0001860704701207047072070475152490004
:106BC00000E100E0F0A6000810B582B0EFF3038307
:106BD000C3F30803103B0D4A52F823200C4B9C6969
:106BE0009079410003238B402340CB4003D0012305
:106BF000834007494B6193682BB191790191D26829
:106C000000926846984702B010BD00BFF0A6000889
:106C10000000404000F01F02400901239340044A55
:106C200000F1600142F8213042F82030704700BF87
:106C300000E100E008B511F0800F0DD14900C9B2A4
:106C400000F1604303F5614383F80013034B43F8FD
:106C50002020FFF7DFFF08BD7F21EFE7F0A6000847
:106C6000E0B1E9B1CB69EBB15B68EBB10268144B01
:106C70009A421BD04B696BB1B1F91230002B17DB74
:106C80004B68BBB10A7CFF23D34013F0010F13D034
:106C9000002070470B78012BF2D1EDE701207047FF
:106CA0000120704701207047012070470E20704777
:106CB0000B2070470120704740F27A50704700BFA8
:106CC0004D54470028B10268044B9A4203D100207A
:106CD0007047012070470720704700BF4D544700A0
:106CE00010B50446FFF7EEFF10B9A36801221A752C
:106CF00010BD10B50446FFF7E5FF10B9A3680122E7
:106D00001A7610BD10B50446FFF7DCFF002840F0EE
:106D10008980A36801221A766368B3F9123013F1EF
:106D2000210F11D003F01F015B098A402033404935
:106D300041F82320BFF34F8FBFF36F8F6368B3F920
:106D400012203C4B43F8224000232360EFF31081D4
:106D5000012383F3108863681B7C012B0CD9032B60
:106D60001CD803F10B024FF0010C0CFA02FC4FF699
:106D7000FF7242EA0C4209E003F10A024FF0010CF3
:106D80000CFA02FC4FF6FF7242EA0C42012B1CD9AE
:106D9000032B26D9062B26D8274B17E0062B0AD81B
:106DA00003F109024FF0010C0CFA02FC4FF6FF72DE
:106DB00042EA0C42EAE7DA1F4FF0010C0CFA02FC3F
:106DC0004FF6FF7242EA0C42E0E71C4B1A60636820
:106DD0001B7C012B09D9032B25D9062B25D8164B53
:106DE00004E0174BF2E7174BF0E7144B1B6881F3F5
:106DF0001088EFF3108C012383F310886268127CF3
:106E0000033293401B04104AC2F810360E4BD3F8DD
:106E1000081863681A7C0332012393401942F5D1A4
:106E20008CF3108810BD064BE0E7064BDEE700BF91
:106E300000E100E0F0A60008280D4240100D42409D
:106E4000040D42402C0D4240000042400B4621B14F
:106E50004A1EC36083681A6070474FF0FF32F8E73C
:106E6000F8B505460C46FFF7FBFE0646002840F045
:106E7000CC80E3695B68AB606C60EFF3108001234A
:106E800083F31088227C0332934043EA0343654A2C
:106E9000C2F81036634BD3F80818227C0332012362
:106EA00093401942F6D080F31088EFF3108101234C
:106EB00083F31088227C9A4207D9032A11D802F161
:106EC0000B00012383401B0403E002F10A0083400E
:106ED0001B04012A12D9032A1BD9062A1BD8524A9D
:106EE0000DE0062A05D802F10900012383401B04A6
:106EF000EFE7D01F012383401B04EAE74B4A1360EE
:106F0000237C012B09D9032B35D9062B35D8464BC9
:106F100004E0474AF3E7474AF1E7444B1B6881F333
:106F20001088EFF31081012383F31088227C022A5A
:106F300025D802F10D0083401B04022A24D83E4AC2
:106F4000136081F31088EFF31080012383F310881E
:106F5000227C022A1AD802F10D018B401B04022A5E
:106F600019D802F10D070121B940022A17D8324A77
:106F70000B4313601DE02E4BD0E72E4BCEE7D01E07
:106F8000012383401B04D8E72C4AD9E7D11E0123F3
:106F90008B401B04E3E7D71E0121B940E5E7274AF0
:106FA000E6E7274A09E0023B012202FA03F31F4009
:106FB0000BD0237C012BF4D9224A1768012BF2D87D
:106FC0001E33012202FA03F3F1E780F31088AB6865
:106FD00001221A7661682846FFF738FFE3691A78BC
:106FE000012A14D05B78012B13D0AB68F9B283F877
:106FF0002010B4F9120000280EDA63692B61A3692E
:10700000AB6100236B61104B2B603046F8BD01274C
:10701000E8E747F00207E8E72A46617CFFF70AFE47
:10702000EBE700BF00004240280D4240100D4240F7
:10703000040D42402C0D4240180942401C094240B8
:10704000080A42400C0A42404D54470010B584B033
:10705000EFF30383C3F30803103B134A52F82340B2
:1070600063681B78012B19D02369ABB16369CBB17D
:1070700093E807000DF1100C0CE9070000221A71CB
:10708000A2691A60226918469047636923B104AA6D
:1070900012E9070083E8070004B010BDA3680122CD
:1070A0001A76E1E701ABE9E7F0A6000800BF7047F8
:1070B00010B54FF0000E22E0824011430133022B45
:1070C00018D80EEB4E021A447E2A13D803EB830C19
:1070D0004FEA4C0040F2FF3C0CFA00FC21EA0C01A4
:1070E0000D4C34F8122040F2422C6245E4D140F2BB
:1070F000FF32E1E7094B43F82E100EF1010EBEF10D
:107100002A0F03D800236FF04041D8E7044B002238
:10711000C3F8042C10BD00BFB88A0008000240402C
:10712000000042407047000008B5144B0222C3F82B
:10713000D0201A6922F00C021A61DA6822F4C042E7
:1071400022F008021204120C42F0BF6242F408322C
:10715000DA605A6A42F400225A62D3F88C2042F470
:107160004062C3F88C20064A536B23F0E05343F08F
:1071700080535363FFF7D6FF08BD00BF00ED00E06A
:1071800000EF00E0024BDA69024B1A60704700BF63
:10719000C8A0000874AE000870B5264B264A1A60D5
:1071A0005A609A60DA60254A1A61254A5A61254A6E
:1071B0009A612548D8612549C3F89C102449C3F831
:1071C000A010C3F89820234AC3F88420C3F888206D
:1071D000C3F88C20C3F890201F49C3F894101F49AE
:1071E00059671F4CC3F8A4401C625C621D4E9E622E
:1071F0001D4DDD6218635C639E63DD6318645C642F
:107200009864D8641D655E659D651848D8651966E3
:1072100059669966D9661A679A67DA67144AC3F895
:107220008020144AC3F8A820134AC3F8AC20FFF703
:10723000A9FF70BDC8A0000800D2496B8074D21AA3
:1072400000131A4B0008AF2F00C2EB0BAA02E50F88
:107250005581F20780098D2520EED9084059730722
:1072600000E1F50580F0FA020084D71700B4C404E9
:10727000286BEE0000366E01003E490008B5FFF7AE
:107280008BFF08BD014B53F820007047C8A00008D1
:10729000034638B100201870587002229A700422F8
:1072A000DA70704701207047A0F101000028FBD17F
:1072B000704700000000000070B501FB00F6344B81
:1072C000186800F019FA02460B462FA1D1E9000117
:1072D00000F0B6FB04460D46F10E73019B1B61F1F5
:1072E0000001890041EA93719B009B1941F1000163
:1072F000C90041EA5371D8004FF0FF3383424FF089
:1073000000038B4110D300F03BFA22462B4600F0DD
:1073100097FB00221F4B00F093FB00F079FC01303B
:1073200008B1FFF7C1FF70BD00221A4B2046294665
:1073300000F05CFA04460D46304600F0DDF92246C6
:107340002B4600F07DFB00F083FC013041F1000191
:107350004A0142EAD06243011B1A62EB0102920029
:1073600042EA93729B001B1841EB0201C90041EAFB
:107370005371D8004FF0FF3383424FF000038B412D
:10738000CED24FF0FF30CCE70000000065CDCD41FC
:1073900074AE000800003E4008B500F00BF8FDF7A1
:1073A00067FBFEE700BE704700BE704700BE704737
:1073B00000BE704738B5154B4FF47002C3F88820F3
:1073C0000020FCF787FFFFF7E7FE0120FCF782FFB4
:1073D0000F48104A121A002100F0D8FC0E4D0F4B36
:1073E000ED1AAD10002404E00C4B53F824309847FC
:1073F0000134AC42F8DBFFF7C5FE0220FCF76AFF60
:10740000FFF754FE002000F033F838BD00ED00E037
:1074100078A10008B0AF0008C8900008C890000824
:10742000034B044AC2F80030FBF7EAB9704700BFCB
:10743000003000080C08434008B5094A094B9A601F
:10744000FFF71CFF084B83F30888084B83F30A8877
:10745000FFF76AFEFFF72CFEFFF79EFF08BD00BF97
:107460000030000800ED00E0C8A00008C890000847
:107470007047000081F0004102E000BF83F000434C
:1074800030B54FEA41044FEA430594EA050F08BFBF
:1074900090EA020F1FBF54EA000C55EA020C7FEA83
:1074A000645C7FEA655C00F0E2804FEA5454D4EB00
:1074B0005555B8BF6D420CDD2C4480EA020281EACA
:1074C000030382EA000083EA010180EA020281EA02
:1074D0000303362D88BF30BD11F0004F4FEA013154
:1074E0004FF4801C4CEA113102D0404261EB410163
:1074F00013F0004F4FEA03334CEA133302D05242E9
:1075000063EB430394EA050F00F0A780A4F10104A4
:10751000D5F1200E0DDB02FA0EFC22FA05F28018DE
:1075200041F1000103FA0EF2801843FA05F35941C4
:107530000EE0A5F120050EF1200E012A03FA0EFC43
:1075400028BF4CF0020C43FA05F3C01851EBE3716D
:1075500001F0004507D54FF0000EDCF1000C7EEB8A
:1075600000006EEB0101B1F5801F1BD3B1F5001FC8
:107570000CD349085FEA30004FEA3C0C04F10104E7
:107580004FEA445212F5800F80F09A80BCF1004F10
:1075900008BF5FEA500C50F1000041EB045141EA92
:1075A000050130BD5FEA4C0C404141EB0101013C5B
:1075B00028BFB1F5801FE9D291F0000F04BF01464A
:1075C0000020B1FA81F308BF2033A3F10B03B3F11C
:1075D00020020CDA0C3208DD02F1140CC2F10C02AC
:1075E00001FA0CF021FA02F10CE002F11402D8BF0A
:1075F000C2F1200C01FA02F120FA0CFCDCBF41EAD6
:107600000C019040E41AA2BF01EB0451294330BDA4
:107610006FEA04041F3C1CDA0C340EDC04F1140481
:10762000C4F1200220FA04F001FA02F340EA030058
:1076300021FA04F345EA030130BDC4F10C04C4F19E
:10764000200220FA02F001FA04F340EA030029467E
:1076500030BD21FA04F0294630BD94F0000F83F4C8
:10766000801306BF81F480110134013D4EE77FEAAB
:10767000645C18BF7FEA655C29D094EA050F08BFF7
:1076800090EA020F05D054EA000C04BF19461046D8
:1076900030BD91EA030F1EBF0021002030BD5FEA1C
:1076A000545C05D14000494128BF41F0004130BD44
:1076B00014F580043CBF01F5801130BD01F0004598
:1076C00045F0FE4141F470014FF0000030BD7FEA0B
:1076D000645C1ABF194610467FEA655C1CBF0B4606
:1076E000024650EA013406BF52EA033591EA030F1D
:1076F00041F4002130BD00BF90F0000F04BF002115
:10770000704730B54FF4806404F132044FF0000547
:107710004FF0000150E700BF90F0000F04BF0021C0
:10772000704730B54FF4806404F1320410F0004526
:1077300048BF40424FF000013EE700BF42004FEA21
:10774000E2014FEA31014FEA02701FBF12F07F439E
:1077500093F07F4F81F06051704732F07F4208BF55
:10776000704793F07F4F04BF41F40021704730B55C
:107770004FF4607401F0004521F000411CE700BFA8
:1077800050EA010208BF704730B54FF000050AE02B
:1077900050EA010208BF704730B511F0004502D52C
:1077A000404261EB41014FF4806404F132045FEA2E
:1077B000915C3FF4D8AE4FF003025FEADC0C18BFD7
:1077C00003325FEADC0C18BF033202EBDC02C2F1C9
:1077D000200300FA03FC20FA02F001FA03FE40EA5B
:1077E0000E0021FA02F11444BDE600BF70B54FF05F
:1077F000FF0C4CF4E06C1CEA11541DBF1CEA13553D
:1078000094EA0C0F95EA0C0F00F0DEF82C4481EAA4
:10781000030621EA4C5123EA4C5350EA013518BFC4
:1078200052EA033541F4801143F4801338D0A0FBB1
:1078300002CE4FF00005E1FB02E506F00042E0FB5E
:1078400003E54FF00006E1FB03569CF0000F18BF64
:107850004EF0010EA4F1FF04B6F5007F64F540740C
:1078600004D25FEA4E0E6D4146EB060642EAC6219F
:1078700041EA55514FEAC52040EA5E504FEACE2E0C
:10788000B4F1FD0C88BFBCF5E06F1ED8BEF1004F0F
:1078900008BF5FEA500E50F1000041EB045170BD8B
:1078A00006F0004646EA010140EA020081EA0301CF
:1078B000B4EB5C04C2BFD4EB0C0541EA045170BDCB
:1078C00041F480114FF0000E013C00F3AB8014F145
:1078D000360FDEBF002001F0004170BDC4F100048E
:1078E000203C35DA0C341BDC04F11404C4F120050F
:1078F00000FA05F320FA04F001FA05F240EA02006A
:1079000001F0004221F0004110EBD37021FA04F69F
:1079100042EB06015EEA430E08BF20EAD37070BD59
:10792000C4F10C04C4F1200500FA04F320FA05F0B8
:1079300001FA04F240EA020001F0004110EBD370BA
:1079400041F100015EEA430E08BF20EAD37070BD2A
:10795000C4F1200500FA05F24EEA020E20FA04F303
:1079600001FA05F243EA020321FA04F001F00041B2
:1079700021FA04F220EA020000EBD3705EEA430E23
:1079800008BF20EAD37070BD94F0000F0FD101F052
:107990000046400041EB010111F4801F08BF013C8B
:1079A000F7D041EA060195F0000F18BF704703F0C9
:1079B0000046520043EB030313F4801F08BF013D50
:1079C000F7D043EA0603704794EA0C0F0CEA13550C
:1079D00018BF95EA0C0F0CD050EA410618BF52EAC6
:1079E0004306D1D181EA030101F000414FF00000CC
:1079F00070BD50EA410606BF1046194652EA4306DA
:107A000019D094EA0C0F02D150EA013613D195EA4D
:107A10000C0F05D152EA03361CBF104619460AD195
:107A200081EA030101F0004141F0FE4141F470019F
:107A30004FF0000070BD41F0FE4141F4780170BD8F
:107A400070B54FF0FF0C4CF4E06C1CEA11541DBFF4
:107A50001CEA135594EA0C0F95EA0C0F00F0A7F8F6
:107A6000A4EB050481EA030E52EA03354FEA013123
:107A700000F088804FEA03334FF0805545EA131336
:107A800043EA12634FEA022245EA111545EA1065FE
:107A90004FEA00260EF000419D4208BF964244F195
:107AA000FD0404F5407402D25B084FEA3202B61AB4
:107AB00065EB03055B084FEA32024FF480104FF488
:107AC000002CB6EB020E75EB030E22BFB61A7546FC
:107AD00040EA0C005B084FEA3202B6EB020E75EB8F
:107AE000030E22BFB61A754640EA5C005B084FEAF7
:107AF0003202B6EB020E75EB030E22BFB61A7546C4
:107B000040EA9C005B084FEA3202B6EB020E75EBCE
:107B1000030E22BFB61A754640EADC0055EA060E8F
:107B200018D04FEA051545EA16754FEA06164FEAD2
:107B3000C30343EA52734FEAC2025FEA1C1CC0D17E
:107B400011F4801F0BD141EA00014FF000004FF00B
:107B5000004CB6E711F4801F04BF01430020B4F1CC
:107B6000FD0C88BFBCF5E06F3FF6AFAEB5EB030C84
:107B700004BFB6EB020C5FEA500C50F1000041EB81
:107B8000045170BD0EF0004E4EEA113114EB5C044E
:107B9000C2BFD4EB0C0541EA045170BD41F4801121
:107BA0004FF0000E013C90E645EA060E8DE60CEA29
:107BB000135594EA0C0F08BF95EA0C0F3FF43BAF46
:107BC00094EA0C0F0AD150EA01347FF434AF95EAFD
:107BD0000C0F7FF425AF104619462CE795EA0C0FE1
:107BE00006D152EA03353FF4FDAE1046194622E7AE
:107BF00050EA410618BF52EA43067FF4C5AE50EA88
:107C000041047FF40DAF52EA43057FF4EBAE12E777
:107C10004A0011D212F5001211D20DD56FF478730B
:107C2000B3EB62520ED44FEAC12343F0004343EA60
:107C3000505323FA02F070474FF00000704750EAAB
:107C4000013002D14FF0FF3070474FF00000704715
:107C5000D0B500220B4B06460F46FFF7C7FDFFF7D6
:107C6000D7FF0446FFF748FD0022074BFFF7BEFD94
:107C700002460B4630463946FFF700FCFFF7C8FFC7
:107C80002146D0BD0000F03D0000F041844641EAAD
:107C9000000313F0030349D1403A23D30B68036078
:107CA0004B6843608B688360CB68C3600B6903617A
:107CB0004B6943618B698361CB69C3610B6A036262
:107CC0004B6A43628B6A8362CB6AC3620B6B03634A
:107CD0004B6B43638B6B8363CB6BC363403040312F
:107CE000403ADBD230320BD30B6803604B68436001
:107CF0008B688360CB68C36010301031103AF3D2C8
:107D00000C3205D351F8043B40F8043B043AF9D255
:107D1000043208D0D2071CBF11F8013B00F8013B28
:107D200001D30B8803806046704700BF082A13D335
:107D30008B07B1D010F00303AED0C3F10403D21A05
:107D4000DB071CBF11F8013B00F8013BA4D331F85D
:107D5000023B20F8023B9FE7043AD9D3013A11F8DD
:107D6000013B00F8013BF9D20B7803704B7843706C
:107D70008B78837060467047014B1868704700BF6E
:107D8000848F00080A22002100F0D8B870B5860759
:107D900047D0541E002A3ED0CAB2034601E0013C3F
:107DA00039D303F8012B9D07F9D1032C2CD9CDB27F
:107DB0000F2C05EB052505EB054535D9A4F1100C75
:107DC00003F1100E1A462CF00F064FEA1C1CB644A5
:107DD000C2E90055C2E9025510327245F8D10CF1E2
:107DE000010214F00C0F04F00F0C03EB021213D07D
:107DF000ACF1040323F003030433134442F8045B9F
:107E00009342FBD10CF003042CB1C9B21C4403F81B
:107E1000011BA342FBD170BD64461346002CF4D174
:107E2000F9E703461446C0E71A46A446E0E700BF58
:107E30002DE9F04F82468E463F4875461EF801BB3D
:107E400010F80B4014F00804F7D1BBF12D0F5BD0F4
:107E5000BBF12B0F6FF0004904BF9EF800B005F195
:107E6000020E33F0100010D1BBF1300F04D0002B04
:107E70005ED10A231F4609E09EF8000000F0DF00F3
:107E800058284ED0002B53D108231F460025B9FB9C
:107E9000F7F6284607FB16980EE0ABF1370C634562
:107EA0001DDD002D04DB864202D321D1E0451FDA1F
:107EB0004FF0FF351EF801BBABF1300CBCF1090FE0
:107EC000EDD9ABF1410CBCF1190FE6D9ABF1610C66
:107ED000BCF1190F03D8ABF1570C6345E1DC6B1C07
:107EE0000AD004B140420AB1CDB91160BDE8F08FAB
:107EF00007FB00C00125DDE72223CAF800305AB194
:107F00000EF1FF314846F0E79EF800B04FF000490F
:107F100005F1020E0124A4E74846BDE8F08F814632
:107F2000EEE710239EF801B00EF1020E1F46ADE7FA
:107F300010231F46AAE700BFF18D000810B5242AC0
:107F4000094C1346246808D8012A06D00A4601467F
:107F50002046BDE81040FFF76BBFFFF70DFF16236B
:107F60000360002010BD00BF848F00084275696C5B
:107F700074207769746820525A2F5620466C6578B1
:107F800069626C6520536F66747761726520506119
:107F9000636B6167652076657273696F6E20342E3E
:107FA000322E3000342E322E300000000000020449
:107FB0005465726D696E616C00000000284E554C6E
:107FC0004C2900000D0A202A2A20525F494E5443B2
:107FD0005F4952515F45787465726E616C49727188
:107FE0004F70656E20415049204661696C65642080
:107FF0002A2A200D0A0000005B4552525D20496E7E
:108000002046756E6374696F6E3A20257328292C9B
:10801000202573000D0A202A2A20525F4952515F01
:1080200045787465726E616C497271456E61626CFF
:108030006520415049204661696C6564202A2A20E8
:108040000D0A00000D0A202A2A20525F494E54438F
:108050005F4952515F45787465726E616C49727107
:10806000436C6F736520415049206661696C65649B
:10807000202A2A200D0A00000D0A202A2A20525FF9
:1080800047544D5F53746F702041504920666169B9
:108090006C6564202A2A200D0A0000005075736860
:1080A00020627574746F6E206973207072657373CB
:1080B00065642E0D0A47544D2074696D65722073F6
:1080C000746F707065642E0D0A0000000D0A2A2A74
:1080D0002A2A2A2A2A2A2A2A2A2A2A2A2A2A2A2A00
:1080E0002A2A2A2A2A2A2057445420526573657462
:1080F000206465746563746564202A2A2A2A2A2A02
:108100002A2A2A2A2A2A2A2A2A2A2A2A2A2A2A2ACF
:108110002A2A0D0A000000000D0A202A2A20525F98
:108120005744545F4F70656E204150492046616945
:108130006C6564202A2A200D0A0000000D0A202AFE
:108140002A2047544D2054494D4552205354415202
:1081500054204641494C4544202A2A200D0A00005B
:108160000D0A202A2A2045585445524E414C204998
:10817000525120454E41424C45204641494C4544D0
:10818000202A2A200D0A00000D0A57445420696E47
:10819000697469616C697A65642C2047544D205478
:1081A000696D65722053746172746564000000002B
:1081B0000D0A546F2073746F702057445420636FFE
:1081C000756E7465722066726F6D20726566726579
:1081D0007368696E672C20707265737320746865AC
:1081E000207075736820627574746F6E0D0A0000DC
:1081F0000D0A496E76616C696420496E7075740071
:108200000D0A506C656173652070726F76696465E4
:1082100020696E7075742066726F6D2062656C6F78
:1082200077206F7074696F6E000000000D0A456E54
:10823000746572203120746F20456E61626C652018
:108240005744540D0A0000005573657220496E7042
:1082500075743A2020000000342E302E30000000CB
:108260000D0A2A2A2A2A2A2A2A2A2A2A2A2A2A2AAB
:108270002A2A2A2A2A2A2A2A2A2A2A2A2A2A2A2A5E
:108280002A2A2A2A2A2A2A2A2A2A2A2A2A2A2A2A4E
:108290002A2A2A2A2A2A2A2A2A2A2A2A2A2A2A2A3E
:1082A0002A2A2A2A2A2A2A2A2A2A2A2A2A2A2A2A2E
:1082B0002A2A0D0A2A20202052656E6573617320D8
:1082C000465350204578616D706C652050726F6A1E
:1082D00065637420666F7220725F776474204D6FDF
:1082E00064756C6520202020202020202020202064
:1082F000202020202020202020202020202020207E
:108300002020202A0D0A2A2020204578616D706CDB
:10831000652050726F6A6563742056657273696F69
:108320006E202573202020202020202020202020A7
:10833000202020202020202020202020202020203D
:10834000202020202020202020202020202020202D
:1083500020202A0D0A2A202020466C657820536FA1
:10836000667477617265205061636B205665727325
:10837000696F6E2025642E25642E25642020202020
:1083800020202020202020202020202020202020ED
:1083900020202020202020202020202020202020DD
:1083A000202020202020202A0D0A2A2A2A2A2A2AB0
:1083B0002A2A2A2A2A2A2A2A2A2A2A2A2A2A2A2A1D
:1083C0002A2A2A2A2A2A2A2A2A2A2A2A2A2A2A2A0D
:1083D0002A2A2A2A2A2A2A2A2A2A2A2A2A2A2A2AFD
:1083E0002A2A2A2A2A2A2A2A2A2A2A2A2A2A2A2AED
:1083F0002A2A2A2A2A2A2A2A2A2A0D0A5265666540
:108400007220746F20726561646D652E74787420BB
:1084100066696C6520666F72206D6F726520646599
:108420007461696C73206F6E204578616D706C6546
:108430002050726F6A65637420616E640D0A465342
:108440005020557365722773204D616E75616C20E5
:10845000666F72206D6F726520696E666F726D61F6
:1084600074696F6E2061626F757420725F776474D7
:10847000206472697665720D0A0000000D0A546866
:108480006973206578616D706C652070726F6A65C4
:1084900063742064656D6F6E7374726174657320AC
:1084A000746865207479706963616C2075736520E8
:1084B0006F6620746865205744542048414C206DF5
:1084C0006F64756C6520415049730D0A000000000F
:1084D0005573657220696E70757420696E69746970
:1084E000616C697A65732074686520574454206113
:1084F0006E642073746172742047544D2074696DEA
:1085000065720D0A0000000057445420636F756EB9
:10851000746572206973207265667265736865643C
:1085200020706572696F646963616C6C792065762F
:108530006572792031207365636F6E64207768659A
:108540006E207468652047544D2074696D657220F3
:10855000657870697265730D0A0000004F6E2070B7
:1085600072657373696E67207468652050757368EF
:1085700020627574746F6E2C2057445420636F759D
:108580006E7465722073746F70732066726F6D20E5
:1085900072656672657368696E670D0A0000000097
:1085A0005744542072657365747320746865204D58
:1085B000435520696E2032207365636F6E64730DBE
:1085C0000A0000000D0A4E6F206F6E2D626F6172FF
:1085D00064204C45447320466F756E6400000000B3
:1085E0000D0A52657475726E6564204572726F7201
:1085F00020436F64653A203078257820200D0A00EA
:108600000D0A202A2A2047544D2054494D45522016
:10861000494E4954204641494C4544202A2A200DC0
:108620000A0000000D0A202A2A2045585445524EBF
:10863000414C2049525120494E4954204641494C11
:108640004544202A2A200D0A0000000057445420E7
:10865000636F756E746572205265667265736865C6
:10866000642E0D0A000000002A2A20525F52494958
:10867000435F4D41535445525F57726974652041C1
:108680005049206661696C6564202A2A200D0A0021
:108690002A2A204465766963652072656769737468
:1086A000657220616464726573732C2049324320C3
:1086B0007772697465206661696C6564202A2A2076
:1086C0000D0A00002A2A204E554C4C20506F696E2E
:1086D00074657220636865636B206661696C202A2B
:1086E0002A200D0A000000002A2A20525F52494920
:1086F000435F4D41535445525F5265616420415080
:1087000049206661696C6564202A2A200D0A0000F0
:108710002A2A2044657669636520726567697374E7
:10872000657220726561642C202049324320726595
:108730006164206661696C6564202A2A200D0A0044
:1087400048572052455620616464723A25782C209F
:10875000646174613A25780D0A0000004D50494F5C
:108760003320436F6E66696720616464723A2578CE
:108770002C20646174613A25780D0A00426C6F63A5
:108780006B20454E20616464723A25782C20646128
:1087900074613A25780D0A00577269746520746F08
:1087A000204D50494F3320436F6E6669670D0A00B4
:1087B0000D0A202A2A20525F47544D5F54696D6587
:1087C000724F70656E20415049206661696C656426
:1087D000202A2A200D0A00000D0A202A2A20525F92
:1087E00047544D5F53746172742041504920666153
:1087F000696C6564202A2A200D0A00000D0A202ACF
:108800002A20525F47544D5F436C6F73652041507F
:1088100049206661696C6564202A2A200D0A0000DF
:108820000D0A202A2A20525F5744545F526566720F
:1088300065736820415049206661696C6564202A2F
:108840002A200D0A0000000000000000000054541F
:108850005220524547474553000000003031323323
:108860003435363738394142434445466578745F7C
:108870006972715F63616C6C6261636B0000000020
:108880006465696E69745F6972715F6D6F64756C40
:1088900065000000656E61626C655F6972715F6D95
:1088A0006F64756C65000000696E69745F69727150
:1088B0005F6D6F64756C6500726561645F496E70B1
:1088C00075745F66726F6D5F5254540068616C5FBF
:1088D000656E747279000000706D69635F72656126
:1088E000645F726567000000706D69635F7772692D
:1088F00074655F726567000067746D5F63616C6CBF
:108900006261636B000000006465696E69745F6793
:10891000746D5F6D6F64756C6500000074696D65E2
:10892000725F737461727400696E69745F67746DED
:108930005F6D6F64756C650050A6000844A6000862
:10894000688F0008080C090000000000893F00083B
:10895000000000000000000064A600086489000810
:10896000F48B000808000000A0860100120000003F
:10897000010C61016201DE00000000000000000047
:108980000000000029450008000000009089000850
:108990000101041C1C01DF00E100E000E200E30033
:1089A0000010C041A4A60008B0890008B88B0008D8
:1089B000900000030A00000000000000120605EC11
:1089C000FFFF0400E8890008CC89000800000000CF
:1089D000808F000800000000ED4900086D4A000883
:1089E0000000000000000341210000000010000012
:1089F0005C00000000800000DC00000000000100BE
:108A0000C7000000FFFFFFFF00000000FFE0F505CA
:108A10000000000000000000000C1100E948000800
:108A200000000000288A00080000000000008041CB
:108A30000605030300000000000000000000000025
:108A4000448A000800000000010000000C00DFFF65
:108A50000004C0410B000000608A0008388900084B
:108A60000C04000000000000000C01810600000062
:108A7000000C0181070000000004018D04070000C4
:108A8000000C00000007FFFF000C00000207FFFFC2
:108A9000000C00000008FFFF000C00000108FFFFB1
:108AA000000C00000208FFFF000C00000308FFFF9D
:108AB000000C00000407FFFF640063004202420252
:108AC0004202420242024202420242024202420286
:108AD0004202420242024202420242024202420276
:108AE0004202420242024202420242024202420266
:108AF0004202420242024202420242024202420256
:108B00004202420242024202420242024202420245
:108B10004202420242024202420242024202420235
:108B20004202420242024202420242024202420225
:108B30004202420242024202420242024202420215
:108B40004202420242024202420242024202420205
:108B500042024202420242024202420242024202F5
