:020000021000EC
:10000000B8111160391D0160451D0160351D016089
:10001000351D0160351D0160351D016000000000C7
:10002000000000000000000000000000351D01601D
:10003000351D016000000000351D0160351D0160A7
:10004000351D0160351D0160351D0160351D0160E4
:10005000351D0160351D0160351D0160351D0160D4
:10006000351D0160351D0160351D0160351D0160C4
:10007000351D0160351D0160351D0160351D0160B4
:10008000351D0160351D0160351D0160351D0160A4
:10009000351D0160351D0160351D0160351D016094
:1000A000351D0160351D0160351D0160351D016084
:1000B000351D0160351D0160351D0160351D016074
:1000C000351D0160351D0160351D0160351D016064
:1000D000351D0160351D0160351D0160351D016054
:1000E000351D0160351D0160351D0160351D016044
:1000F000351D0160351D0160351D0160891B0160E2
:10010000351D0160351D0160351D0160351D016023
:10011000351D0160351D0160351D0160351D016013
:10012000351D0160351D0160351D0160351D016003
:10013000351D0160351D0160351D0160351D0160F3
:10065000351D0160351D0160A9130160D5130160CE
:10066000151301608912016045130160351D016099
:10067000351D0160351D0160351D0160351D0160AE
:10068000351D0160351D0160351D0160351D01609E
:10069000351D0160351D0160351D0160351D01608E
:1006A000351D0160351D0160351D0160351D01607E
:1006B000351D0160351D0160351D0160351D01606E
:1006C000351D0160351D0160351D0160351D01605E
:1006D000351D0160351D0160351D0160351D01604E
:1006E000351D0160351D0160351D0160351D01603E
:1006F000351D0160351D0160351D0160351D01602E
:10070000351D0160351D0160351D0160351D01601D
:10071000351D0160351D0160351D0160351D01600D
:10072000351D0160351D0160351D0160351D0160FD
:10073000351D0160351D0160351D0160351D0160ED
:10074000351D0160351D0160351D0160351D0160DD
:10075000351D0160351D0160351D0160351D0160CD
:10076000351D0160351D0160351D0160351D0160BD
:10077000351D0160351D0160351D0160351D0160AD
:10078000351D0160351D0160351D0160351D01609D
:10079000351D0160351D0160351D0160351D01608D
:1007A000351D0160351D0160351D0160351D01607D
:1007B000351D0160351D0160351D0160351D01606D
:020000020000FC
:020000041001E9
:10FF800000FAEF7261F5EF726DF5EF725DF5EF72E9
:10FF90005DF5EF725DF5EF725DF5EF7269F5EF7289
:10FFA0000000000000000000000000005DF5EF729E
:10FFB0005DF5EF72000000005DF5EF725DF5EF7228
:02000004600199
:100000002DE9F0410446D0E902854068A8EB0507D8
:1000100097422844154408D80E463A46A5EB0805F1
:1000200001F0D0FE2A466068F11901F0CBFEBFF363
:100030005F8FE560BDE8F0812DE9F8434FF00009DE
:10004000064688461746D0E902243369151B9C42B0
:1000500003F1FF3125BF03F1FF339B180B1B1B1B63
:10006000BD4228BF3D469D4228BF1D46706841469F
:100070002A46204401F0A6FEB2682C44A24208BFE2
:100080000024A944A8447F1BBFF35F8FF460002FB6
:10009000DBD14846BDE8F883F8B5164CA82200210C
:1000A000204601F03DFF4FF480660023032110201D
:1000B000114A124F124D21616161A261E76126620E
:1000C000A3626362E36222666566A0662367E366F5
:1000D0006367BFF35F8F0B4B9C46A3F11000ACEB43
:1000E000030213F9011D8342A154F8D1BFF35F8FBE
:1000F000F8BD00BFB805116044210160B80111606E
:10010000A80111607426016038B5214B00EB400452
:1001100003EBC40EDEF82C40013000EB4000012C54
:100120008C46154603EBC00015D0022C0FD034BB13
:10013000DEF82830DEF8242093429CBFDEF8201041
:100140005B18013B9A1A95421CD9204638BDBDE880
:100150003840FFF771BFDEF82830DEF82440A342B4
:100160009CBFDEF820105B18013B1C1B944228BF8B
:10017000144661462246FFF743FF204638BD00245F
:10018000204638BD2A466146FFF73AFF2C46DCE799
:10019000B8051160F8B50B4B04461B780D46532B80
:1001A000164601D0FFF778FFEFF311874FF02001DB
:1001B00081F31188324629462046FFF7A5FF87F3D1
:1001C0001188F8BDB805116010B50446D0E90132B8
:1001D000501C984207D8236899540246E168636826
:1001E0000131C4E902019A4200D010BD21682069A2
:1001F000FFF7D0FFA368984215BF4FF0FF330023ED
:10020000E360A36010BD00BF2DE9F84F91420F4697
:10021000DDE90A94154683461E4668D30B464FF027
:100220000108B3FBF5F39D4208F10108F9D9B04587
:1002300038BFB04614F0010A02D1B9F1000F3DD128
:10024000DBF80C30002B29DB012402E005FB04F471
:10025000013E012EFAD8B7FBF4F39D4205D805FB09
:1002600004F4B7FBF4F39D42F9D9224E06E0AC4208
:10027000B4FBF5F30CD31C46B7FBF3F3F156584629
:1002800004FB1377FFF7A0FFDBF80C30002BEEDA4E
:10029000BAF1000F02D0B9F1000F09D1BDE8F88F13
:1002A00020215846FFF790FFDBF80C30002BF5DBE0
:1002B000C14509F1FF39F3D8BDE8F88FA30711D480
:1002C00020240CE021465846FFF77EFFDBF80C3077
:1002D00009F1FF39002BE1DBB9F1000FB2D0C145C4
:1002E000F0D8ADE7002E0CBF30242024F7E74FF004
:1002F00001089CE7782601602DE9F04F0023402497
:100300009BB00DF12809CDE9049480460C461746B0
:10031000CDE90633089006E004A8FFF755FF079BD8
:10032000002BC0F2AE8014F9011B002900F0A1805F
:100330002529F1D10026234613F9011BA1F123023F
:100340000D2A08D8DFE802F080070707070707072C
:100350007C0784070778A1F13002D2B2092A4FF056
:10036000000501D90EE0013305EB850501EB4505DC
:1003700093F900101C46A1F13002D2B2092AA5F16E
:100380003005F0D92E2900F080800022924694F9A1
:10039000001021F00403682B04F101045CD025292E
:1003A000BAD05839CBB2202BB9D82029B7D801A35D
:1003B00053F821F0D90401601F0301601F0301609D
:1003C0001F0301601F0301601F0301601F03016021
:1003D0001F0301601F0301601F0301601F03016011
:1003E000F50401607D0501601F0301601F030160CA
:1003F0001F0301601F0301601F0301601F030160F1
:100400001F0301601F0301601F0301601F030160E0
:100410001F0301605F0501601F0301601F0301608E
:10042000230501601F030160090501601F030160CE
:100430001F030160D90401601C4646F002067AE7FA
:100440001C4646F0040676E71C4646F0080672E7AE
:100450001C4646F001066EE714F9011B21F0040367
:10046000682B9CD114F9011B21F00403682B96D151
:10047000F2E7079B002B04DD069C002C40F0B280C5
:10048000234418461BB0BDE8F08F94F901102A29C7
:1004900009D13B684FF0010A1A1D3A6094F9021025
:1004A0001A68023475E7A1F13003DBB2092B4FF073
:1004B000000204F1010400F2E18002EB820201EB90
:1004C000420214F9011F303AA1F13003DBB2092BCB
:1004D000F3D94FF0010A5CE7134610223968081D72
:1004E000386009680DEB0200CDE90056FFF78CFE7D
:1004F000079B15E73B6804A81A1D3A6093F90010A2
:10050000FFF762FE079B0BE739681346081D38604A
:1005100009680A22CDE9005604A8FFF775FE079B7B
:10052000FEE63B68191D39601D68002D00F08D80C6
:100530000132AE1815F9011B00293FF4F0AEBAF1F3
:10054000000F02D0B5423FF4EAAE04A8FFF73CFE2C
:10055000079B002BEEDA18461BB0BDE8F08F08238E
:100560000020102239680D1D3D600968CDE900307A
:100570000DEB0200FFF748FE079BD1E63B684FF00A
:10058000010A191D3960D3F800B08BEAEB73A3EBB5
:10059000EB73092B09DD4A481946A0FB03C3632905
:1005A0000AF1010A4FEAD303F6DC924538BF9246BE
:1005B0000DBB079900250B460029FFF662AFBBF182
:1005C000000F46DB730752D406F00303022B57D00B
:1005D000134659460A22CDE9005604A8FFF714FE37
:1005E000079B9DE62246494640460393FFF7D2FD0E
:1005F000039B234445E7BBF1000F06F002031BDB1E
:10060000710719D4002B53D09AB1F3070FD510E01E
:10061000202104A80392FFF7D7FD0799039A002928
:100620000B4605F1FF35FFF62CAF002DC4D0AA45CF
:10063000EED307990B46BFE7013D0BB1002AF8D076
:10064000F107F6D4002DF2D1B3E74FF0000A1D4DAB
:100650006EE72D2104A80392FFF7B6FD039ACBF1B4
:10066000000B079900290B46FFF60BAFACE72B21D7
:1006700004A80392FFF7A8FD039AF2E7924688E6E2
:10068000002AA5D1002DA3D0554517D9302104A8A3
:100690000392FFF799FD0799013D00290B46FFF6EC
:1006A000F0AE039A002DEFD10029FFF6EAAE8FE7F6
:1006B000F007BCD5079B002B8ADAE2E60B46F3E78E
:1006C000CDCCCCCC502101600EB400B582B003ABD0
:1006D00053F8041B01AA0193FFF70EFE02B05DF868
:1006E00004EB03B0704700BF30B5002485B003A809
:1006F000039401F015FB9DF80D009DF80E30344A6F
:10070000CDE9003033499DF80F302046FFF7DCFF7C
:1007100031492046FFF7D8FF30492046FFF7D4FF84
:100720002F492046FFF7D0FF00F072F870B900F0B3
:1007300087F80446D0B900F0FDF8044638BB00F055
:100740005FF90446002833D105B030BD0546254980
:100750002046FFF7B9FF2A4620462349FFF7B4FF9A
:1007600000BE00F06DF804460028E4D01F490020C8
:10077000FFF7AAFF00F0AEF822461B490020FFF762
:10078000A3FF00BE00F0D6F804460028D7D01849D1
:100790000020FFF799FF00F09DF822461249002043
:1007A000FFF792FF00BE00F02BF904460028CBD0E3
:1007B00010490020FFF788FF00F08CF800F09CF94A
:1007C000224609490020FFF77FFF00BE05B030BD7B
:1007D000582101606021016080230160C423016011
:1007E000FC230160382401605824016078240160F2
:1007F00094240160B8240160022800D070470249A7
:10080000024801F02DB800BF402701607406116056
:1008100010B50849084801F0ABF8044608B920466D
:1008200010BD024605490020FFF74EFF00BE2046DE
:1008300010BD00BF18270160D80611605824016060
:1008400010B5074801F028F8044608B9204610BD45
:10085000024604490020FFF737FF00BE204610BDC6
:10086000D80611605824016070B5002584B0064692
:1008700069461348CDE901558DF8005001F064F93F
:1008800048B10446224628460E49FFF71DFF00BE28
:10089000204604B070BD019B0B490C4AA1FB03012B
:1008A000890906FB01F11360094B0548196001F045
:1008B00039F904460028E5D1204604B070BD00BFD8
:1008C000D806116058240160D34D62106006116093
:1008D0006406116008B5064800F0EEFF00B908BDD7
:1008E000024604490020FFF7EFFE00BE08BD00BF2E
:1008F000D80611605824016008B50A4B0A491A78D5
:10090000496882F001021A701A780988074800F0D5
:1009100035FF00B908BD024605490020FFF7D4FEA7
:1009200000BE08BD000011608427016074061160DC
:100930005824016010B50B490B4800F06FFA0446CB
:1009400008B9204610BD094B094A0A490020FFF7A3
:10095000BBFE224608490020FFF7B6FE00BE204637
:1009600010BD00BFD4260160A8061160D824016024
:10097000A8260160002501605824016070B5054675
:1009800001F096FA02460026174C29461748D2B2C3
:10099000267000F017FA0546D8B96FF00403024636
:1009A00008E0013B62F1000253EA020119D021780C
:1009B000782904D021780229F3D1284670BD4FF45C
:1009C00096750B4B0B4A0C490020FFF77DFE28461D
:1009D00070BD3046094B074A0749FFF775FE2846A8
:1009E00070BD1425E9E700BF68061160A806116014
:1009F0004825016094260160002501601C250160E6
:100A00002DE9F041012682B0324D334C8DF8036060
:100A10002B78002BFCD0002320462B70019301F093
:100A200047FAC1B298B12C4A0139C9B2531C1944D2
:100A300003E08A428DF8036009D012F8013B303B95
:100A4000092BF6D90023236023718DF8033020464B
:100A500001F062FA0190019BB3F5FA6F01D8019B96
:100A600063B94FF000081D48C4F8008084F8048082
:100A70008DF80380FFF782FF0746C8B99DF8033061
:100A8000002BC5D00198FFF7EFFE0746D0B91448F8
:100A9000276027718DF80370FFF770FF1148FFF78B
:100AA0006DFF07460028B3D0384602B0BDE8F0819C
:100AB00040460D4B0D4A0E49FFF706FE384602B080
:100AC000BDE8F0810B4B094A09490020FFF7FCFD06
:100AD000EAE700BF690611606C06116070250160CD
:100AE000E42501601C260160A0250160B826016094
:100AF00000250160C825016010B5094800F0CAF85A
:100B000000B910BD0446074B074A08490020FFF70B
:100B1000DBFD224606490020FFF7D6FD00BE10BDD2
:100B2000A806116038260160882601600025016052
:100B3000582401600F4903790F4A0B701178052979
:100B400004BF00211170042B00D0704783680A2B6A
:100B50000AD00D2B08D010B41078084C411CC9B233
:100B60001170235410BC704700200121044B1070F9
:100B700019707047680611606A0611606C06116092
:100B80006906116008B5FFF7AFFD002008BD00BF82
:100B9000037D00B503F04E0E80F814E04A78F44669
:100BA00082700B780288C3F3C10363F301020280F1
:100BB0000B789B0703D591F90230002B0BDB0B78E8
:100BC000C3F3800203F0010343EAC21343EA0C03B8
:100BD00003755DF804FB4EF0100E80F814E08B787E
:100BE0004CF0200C8370EAE7F0B5846A85B00546C6
:100BF0000F4694466E46B4B194E80F0086E80F00A5
:100C0000AB6920461B78A760236084F804C0EB6AB8
:100C1000E3606B6A9847AC6A1CB196E80F0084E801
:100C20000F0005B0F0BD3446EAE700BF38B5C36930
:100C3000DA89D1062CD004460CE0420724D4A5B9A9
:100C40000422606A18B12046FFF7CEFFE369DA8913
:100C5000D2061DD01A89997A90B212076569C9B275
:100C6000EBD5400712D41022EBE723691970D4E9C1
:100C7000043101330139C4E904310029E6D1636A42
:100C8000002BE3D00122DEE70822DAE71822D8E7BA
:100C900038BD00BF002800F08D80474B02689A42A3
:100CA00040F086800022012310B4C4690260A28053
:100CB00082694249546AB2F906204FEA521C02F096
:100CC0001F0203FA02F20CF1200C41F82C20BFF3B2
:100CD0004F8FBFF36F8F8269B2F912204FEA521C17
:100CE00002F01F0203FA02F20CF1200C41F82C2052
:100CF000BFF34F8FBFF36F8FB4F902204FEA521C3E
:100D000002F01F0203FA02F20CF1200C41F82C2031
:100D1000BFF34F8FBFF36F8F8269B2F90A204FEA9A
:100D2000521C02F01F0203FA02F20CF1200C41F8EF
:100D30002C20BFF34F8FBFF36F8F8269B2F90E2063
:100D40004FEA521C02F01F0203FA02F20CF1200CCF
:100D500041F82C20BFF34F8FBFF36F8FEFF3108458
:100D600083F310884FF6FF7C82691178144A194486
:100D700003FA01F14CEA0141C2F8681BD2F8681B82
:100D800084F31088EFF3108483F310888169097865
:100D900003FA01F10904C2F88415816909788B40CE
:100DA000D2F804071840FBD184F3108810BC7047B8
:100DB00007207047012070475546435300E100E08B
:100DC0000000014100B3F9B1F2B1034610B412487A
:100DD0001C6884421AD1D868D8B9DC69B4F804C058
:100DE00060F3C71CA4F804C0DC69B4F804C060F365
:100DF000820CA4F804C0C3E90212DC69A38843F0A2
:100E00008003A38010BC704701207047072010BCEE
:100E100070470820F6E700BF554643532DE9F041DF
:100E2000002800F00682002900F003824E6A002E9E
:100E300000F0FF81B369002B00F0FB81B268002A4B
:100E400000F0F7810546B94A0068904200F0F88149
:100E50001F240A78D44014F0010400F0EE81B1F9A7
:100E60000620002AC0F2E681B1F90A20002AC0F269
:100E7000E181B1F90E20002AC0F2DC81B1F9122023
:100E8000002AC0F2D781B6F90220002AC0F2D2812E
:100E900000220127C5E90613CB69DFF894C26B6213
:100EA0000B6AAA62EB62B1F912004C6A00F01F03F0
:100EB00042099F4020320B7C4CF82270BFF34F8FC9
:100EC000BFF36F8F1A0648BFFE224FF0010CDFF808
:100ED00060E25CBF5B00DAB2964B0EEB000787F86E
:100EE000002343F82050B1F906000A79470900F0C1
:100EF0001F0820370CFA08FC4EF827C0BFF34F8FAD
:100F0000BFF36F8F170648BFFE224FF00107DFF8CF
:100F100020C258BF52000CEB000E58BFD2B28EF860
:100F2000002343F82050B4F90200227800F01F0E8D
:100F30004409203407FA0EF74CF82470BFF34F8FA2
:100F4000BFF36F8F140648BFFE224FF00107DFF892
:100F5000E0C158BF52000CEB000458BFD2B284F875
:100F6000002343F82050B1F90A000A7A440900F03E
:100F70001F0E203407FA0EF74CF82470BFF34F8F82
:100F8000BFF36F8F170648BFFE224FF00107DFF84F
:100F9000A0C158BF52000CEB000458BFD2B284F875
:100FA000002343F82050B1F90E000A7B440900F0F9
:100FB0001F0E203407FA0EF74CF82470BFF34F8F42
:100FC000BFF36F8F14064CBFFE22520000F1604445
:100FD00058BFD2B204F5614484F8002343F820508E
:100FE000EFF31084012282F310880B78524802FA42
:100FF00003F343EA0343C0F884350B789A40D0F8F2
:1010000004371342FBD084F31088EFF310840122DD
:1010100082F310880B78134402FA03F31B04C0F820
:10102000683BD0F8683B84F31088EFF3108482F3B8
:1010300010880B7802FA03F31B04C0F884380B788D
:101040003D489A40D0F8043A1342FBD084F310880C
:10105000EFF31087012383F310880A7803FA02F272
:1010600042EA0242C0F884280A789340324AD2F811
:10107000044A1C40FBD187F31088EB699C80EA6925
:1010800093899BB243F006039381EB691A891C8113
:10109000EB695A8A5C823379002B00F0F080012BD7
:1010A0000BBF7127722701220222EB699A804B78CD
:1010B0008A78A3F10303B3FA83F35B099B012AB196
:1010C000032A14BF43F0200343F03003CA78012AF7
:1010D00008BF43F00803EA699BB21380D1F824806B
:1010E00098F804309A1E012A00F2C380A3F102038B
:1010F000B3FA83F3FF22E9695B090B75EB699A7018
:10110000EA6993899BB243F0060323F4FE6399B224
:101110009181AA69516A0A7B101F0E2800F2A280F1
:10112000120202F5FA4292B208E000BF554643535C
:1011300000E100E0F406116000000141497B06294E
:101140009CBF013143EA0123E96923F00603CA8207
:10115000EA699BB2938198F80530002B7CD0EA694C
:10116000137D43F004031375002303200122C5E916
:101170000233C5E90433A9692884B1F906104B0983
:101180009B0001F01F0103F1604302FA01F103F536
:101190006143C3F880111960AB69B3F912104B09B0
:1011A0009B0001F01F0103F1604302FA01F103F516
:1011B0006143C3F880111960B6F902104B099B0016
:1011C00001F01F0103F1604302FA01F103F56143ED
:1011D000C3F880111960AB69B3F90A104B099B0081
:1011E00001F01F0103F1604302FA01F103F56143CD
:1011F000C3F880111960AB69B3F90E104B099B005D
:1012000001F01F0103F160438A4003F56143C3F815
:1012100080211A60EB699F80F37B9BB1EA69938917
:1012200043F008039381EA69298C164B11822B60E5
:1012300000E001242046BDE8F08140F27A54F9E74D
:101240000E24F7E72A8CE96942F0C0022A848A89D1
:1012500063F3C3028A81E6E7E9690A7D63F38202E8
:101260000A7581E7501E022898BF43EA82130022C4
:1012700064E7D8F80810E869FFF78AFC40E77027B0
:10128000224612E75546435310B4EFF30383C3F3EA
:1012900008031F4A103B1BB252F8230083699B6965
:1012A000ABB1C3680BB110BC7047C2690021938811
:1012B00023F080031B041B0C43F004039380436A58
:1012C0008160002BEFD0802210BCFFF78DBCC46979
:1012D000C3682246002BE9D0E189C1F304210F291C
:1012E00010D883681B780131A371D0E9023210292C
:1012F00002F1FF3203F10103C0E90232C46901D0F7
:10130000002AEFD1238923F020032381C9E700BFFE
:10131000F406116010B5EFF30383C3F30803084A22
:10132000103B1BB252F823402046FFF77FFCE269D6
:10133000138923F002031B041B0C138110BD00BF93
:10134000F406116038B5EFF30383C3F30803154ABD
:10135000103B1BB252F82350EA691489A4B224F05E
:1013600041039BB21381E20717D4630611D5EA69E2
:10137000E96893889BB269B123F004039BB2938020
:101380006B6A33B12846BDE8384002220021FFF7DE
:101390002BBC38BD23F08403F0E72846FFF746FC5A
:1013A000E3E700BFF4061160EFF30383C3F3080320
:1013B000074A103B1BB252F82330DA6911898BB20D
:1013C000090644BF23F080039BB21381704700BF1E
:1013D000F4061160EFF30383C3F30803184A103BCC
:1013E0001BB252F82300C1690A894B8A1FFA82FC9A
:1013F000D2069BB203D4DA071DD5202210E02CF0D0
:10140000100CDA071FFA8CFC09D4A1F808C0C169D6
:1014100040224B82436A6BB10021FFF7E5BB60229B
:10142000A1F808C0C16923F001039BB24B82436A53
:10143000002BF1D17047A1F808C0C26953827047F0
:10144000F40611602DE9F04103240122C0F3072EB8
:10145000AEF10203C0F3850C264F20400CEB430C89
:101460005FFA8CFC00FA04F304FA03F057F82C40FE
:101470009A4024EA0208C1F380449C401E4E44EA8C
:10148000080447F82C4056F82C70C1F3812427EA51
:1014900000079C40194D3C4346F82C4055F82C6001
:1014A000C1F3404426EA02069C403443BEF1010FDA
:1014B00045F82C401BD1D243C043114CC1F3C04569
:1014C000A6689D4032402A43A260D4F80854C1F374
:1014D000015205409A402A43C4F80824D4F8082849
:1014E000C1F38151104099400143C4F80818BDE888
:1014F000F08100BF10180341101003411014034184
:10150000002003410122C3B29A40F0B5D5B2FF2DAD
:101510003C4EC0F30724C1F3004C08D0A55D0CFA83
:1015200003FC25EA020242EA0C025FFA82FC4FF059
:10153000070E032204F806C04FF0010C324F9E0044
:10154000C1F30265B5400EFA06FE57F824609B0809
:1015500026EA0E0E03EB44032C4E45EA0E0547F82F
:101560002450DBB200F0030056F82350C000824044
:10157000C1F3812425EA020584402C4346F8234028
:1015800006F5406656F82350C1F3011425EA02051A
:1015900084402C4346F82340A6F5006656F82350B5
:1015A0000CFA00FCC1F3404425EA0C0584402C43AE
:1015B00046F8234006F5406656F82350C1F3C04470
:1015C000844025EA0C0C44EA0C0446F82340104CF5
:1015D000C1F3015CC1F381510CFA00FC814054F865
:1015E000230020EA02004CEA000044F8230004F53E
:1015F000806454F8230020EA0202114344F82310C7
:10160000F0BD00BF100203414004034180100341BC
:10161000802403414FF0010CC3B20CFA03FC2DE906
:10162000F04F5FFA8CF6FF2E4A4FC0F30722C1F34A
:10163000004405D0D55D9C4025EA0C052C43E4B25E
:10164000D45503244FF6FF785D00AC401FFA84F9AF
:10165000C145414FC1F3810E0BD00EFA05F537F8A5
:1016600012E01FFA8EFE2EEA040E4EEA050E1FFA55
:101670008EFEFF2E27F812E001F00104374F05D04F
:10168000D55D9C4025EA0C052C43E4B24FF0030CD9
:101690004FF0010E9B08324D03EB4203D455DBB2F1
:1016A00000F0030055F823B0C0000CFA00FCC1F3B1
:1016B000812A0AFA00FA2BEA0C0BDFF8A8904AEA12
:1016C0000B0A45F823A059F82350C1F3011808FA72
:1016D00000F825EA0C05244F48EA050549F823508F
:1016E00057F823500EFA00FEC1F38034844025EAF7
:1016F0000E052C431D4E47F8234056F82340C1F3F6
:10170000C042824024EA0E042243194D46F82320A9
:1017100055F82340C1F30152824024EA0C042243CD
:10172000144C45F82320C1F38152C1F3404182405B
:10173000814054F8230020EA0C0002430E4844F88C
:10174000232050F8232022EA0E02114340F82310F0
:10175000BDE8F08F10020341200103411000034156
:1017600080100341801C0341802C034180200341F1
:1017700080240341802803418014034100B3114BAE
:101780000068984218D1012A18D80123C8B28340B2
:10179000D8B2FF2810B4C1F3072C0B4C07D0C9B244
:1017A0008A401CF8041021EA03031343DAB20CF850
:1017B0000420002010BC70470720704703207047AA
:1017C0000120704754524F501000034170B5054638
:1017D000EFF31082012383F310881F4E33681BB987
:1017E0001E490B7540230B7533680133336082F358
:1017F00010882B88D3B1002406E0FFF783FE2A88E7
:101800000134A3B29A4211D96B6803EBC402506849
:1018100053F83410B0F5803F1BD2CB03EDD4FFF763
:10182000F9FE01342A88A3B29A42EDD8EFF3108270
:10183000012383F31088336813B13368013B3360AD
:1018400033681BB9802005490B75087582F3108831
:1018500070BDFFF7F7FDD2E7740E11600030034151
:10186000A0B199B14A6808B5034652B1094A18684F
:1018700090420DD008461A609960FFF7A7FF00203C
:1018800008BD0A88002AF1D0012008BD0120704758
:101890000E2008BD54524F5050B1064B02689A4278
:1018A00004D10122836800201A7570470720704711
:1018B000012070474D54470000284ED0284B026845
:1018C0009A4248D1012210B583681A764368B3F969
:1018D000123013F1210F12D05909224C03F01F03CB
:1018E0009A4001F1200344F82320BFF34F8FBFF348
:1018F0006F8F42681C4BB2F9122043F8220000237C
:101900000360EFF3108E012383F310884FF6FF7C02
:101910004268117C154A043103FA01F14CEA014195
:10192000C2F87C1BD2F87C1B8EF31088EFF3108C6E
:1019300083F310884168097C03FA01F10904C2F8B5
:1019400034154168097C8B40D2F8B4061840FBD1AD
:101950008CF3108810BD072070470120704700BF2E
:101960004D54470000E100E0F40611600000014121
:10197000002800F0C180002900F0BE80CB69002B58
:1019800000F0BA805B68002B00F0B68070B5624A48
:1019900004460068904200F0B8804A69002A00F0CE
:1019A000AD80B1F91220002AC0F2B1804A68002A45
:1019B00000F0A9800622087CC240D20740F1A9802D
:1019C000C4E90113EFF31085012282F310880B7C28
:1019D000524802FA03F343EA0343C0F834350B7C60
:1019E0009A40D0F8B4361342FBD085F31088EFF359
:1019F0001085012282F310880B7C043302FA03F372
:101A00001B04C0F87C3BD0F87C3B85F31088EFF3D7
:101A1000108582F310880B7C02FA03F31B04C0F8D4
:101A200034380B7C3D489A40D0F8B4391342FBD08F
:101A300085F31088EFF3108C012282F310880B7C61
:101A4000364D02FA03F343EA0343C0F834380B7C03
:101A50009A40D5F8B4091040FBD18CF310880122CC
:101A6000A3681A764B68E3605A1EA3681A60CA69B5
:101A700013785278A3F10103B3FA83F3012A4FEAF2
:101A8000531308BF43F00203A268DBB282F8203090
:101A9000B1F91230002B26DB91F9112091F811C019
:101AA000002AB8BF4FF0FE0C4FF00105A8BF4FEA67
:101AB0004C0C1B4E4FEA531203F1604EA8BF5FFA65
:101AC0008CFC0EF5614E92008EF800C302F160426C
:101AD00046F8234003F01F0302F5614205FA03F3C1
:101AE000C2F88031136000234A69226189690A4A79
:101AF000A1612260636170BD012070470A78012AEC
:101B00007FF454AF4DE7012070BD0E2070BD0B2057
:101B100070BD40F27A5070BD4D5447000000014145
:101B2000F406116051B148B1064B02689A4207D1E0
:101B300083684A1EC16000201A6070470120704708
:101B4000072070474D544700C1B138B50446B8B1BD
:101B50000C4B02689A420FD1C36810208B600D466F
:101B600000F0D8F803466B60A368002093F820309B
:101B7000C3F340032B7038BD072038BD01207047E8
:101B8000012038BD4D54470030B585B0EFF30383D5
:101B9000C3F30803124A103B1BB252F82340636898
:101BA0001B78012B04BFA268137623699BB163697C
:101BB00001AD93B193E8070085E8070000221A7190
:101BC000A26918461A602369984763691BB195E8B2
:101BD000070083E8070005B030BD2B46EEE700BFE5
:101BE000F406116000BF7047024A034B52681A6046
:101BF000704700BF50011160780E116030B442F69A
:101C0000E064134B1348DC60134C144A1449C3E9D5
:101C100006009C621348144CC3E90421C3E9082060
:101C2000C3E90B04C3E91121C3E90F110F4D104C97
:101C300010481149C3E90D40C3E900520F4C0A6036
:101C40000F48104ADC6418659A6030BC704700BFCA
:101C50005001116040EFC41FA077E20F00C2EB0BF0
:101C600000E1F505005ED0B28026FE00008C8647BC
:101C700080B2E60E00B4C404780E11600084D71759
:101C800000366E010065CD1D30B442F6E064134BA2
:101C90001348DC60134C144A1449C3E906009C62E3
:101CA0001348144CC3E90421C3E90820C3E90B0419
:101CB000C3E91121C3E90F110F4D104C1048114910
:101CC000C3E90D40C3E900520F4C0A600F48104AA7
:101CD000DC6418659A6030BC704700BF5001116029
:101CE00040EFC41FA077E20F00C2EB0B00E1F50547
:101CF000005ED0B28026FE00008C864780B2E60EE1
:101D000000B4C404780E11600084D71700366E0149
:101D10000065CD1D014B53F8200070475001116044
:101D2000034618B1024A00201A607047012070472C
:101D30000000020400BE704708B500F005F8FEF789
:101D400021FFFEE700BE704770B50020FEF754FD8E
:101D5000FFF754FF0120FEF74FFD1248124A002101
:101D6000121A00F0DDF81148114A1249121A00F057
:101D700029F8114D114B5B1B002B07DD00249E1031
:101D800055F8043B01349847A642F9DCFFF72CFFD5
:101D90000220FEF731FDFFF725FFBDE8704000206F
:101DA00000F00EB8A8011160B40F116000001160BE
:101DB00050011160C828016050011160500111608C
:101DC000704700BF844641EA000313F0030349D182
:101DD000403A23D30B6803604B6843608B68836091
:101DE000CB68C3600B6903614B6943618B69836195
:101DF000CB69C3610B6A03624B6A43628B6A83627D
:101E0000CB6AC3620B6B03634B6B43638B6B836364
:101E1000CB6BC36340304031403ADBD230320BD31E
:101E20000B6803604B6843608B688360CB68C3605A
:101E300010301031103AF3D20C3205D351F8043B74
:101E400040F8043B043AF9D2043208D0D2071CBF50
:101E500011F8013B00F8013B01D30B880380604679
:101E6000704700BF082A13D38B07B1D010F00303CB
:101E7000AED0C3F10403D21ADB071CBF11F8013B3B
:101E800000F8013BA4D331F8023B20F8023B9FE766
:101E9000043AD9D3013A11F8013B00F8013BF9D2D9
:101EA0000B7803704B7843708B7883706046704773
:101EB00020F0030110F00300C0F1000051F8043BD2
:101EC00000F1040C4FEACC0C6FF000021CBF22FAA8
:101ED0000CF213434FF0010C4CEA0C2C4CEA0C4C66
:101EE000A3EB0C0222EA030212EACC1204BF51F85F
:101EF000043B0430F4D0C2F1000102EA0102B2FA5C
:101F000082F2C2F11F0200EBD2007047014B186849
:101F1000704700BF080011600A22002100F0D8B805
:101F200070B5860747D0541E002A3ED0CAB2034679
:101F300001E0013C39D303F8012B9D07F9D1032CB3
:101F40002CD9CDB20F2C05EB052505EB054535D970
:101F5000A4F1100C03F1100E1A462CF00F064FEAF4
:101F60001C1CB644C2E90055C2E902551032724544
:101F7000F8D10CF1010214F00C0F04F00F0C03EB7C
:101F8000021213D0ACF1040323F00303043313440F
:101F900042F8045B9342FBD10CF003042CB1C9B2AC
:101FA0001C4403F8011BA342FBD170BD64461346D9
:101FB000002CF4D1F9E703461446C0E71A46A446BC
:101FC000E0E700BF2DE9F04F82468E463F48754658
:101FD0001EF801BB10F80B4014F00804F7D1BBF158
:101FE0002D0F5BD0BBF12B0F6FF0004904BF9EF8A3
:101FF00000B005F1020E33F0100010D1BBF1300F2C
:1020000004D0002B5ED10A231F4609E09EF8000091
:1020100000F0DF0058284ED0002B53D108231F4674
:102020000025B9FBF7F6284607FB16980EE0ABF142
:10203000370C63451DDD002D04DB864202D321D120
:10204000E0451FDA4FF0FF351EF801BBABF1300C55
:10205000BCF1090FEDD9ABF1410CBCF1190FE6D978
:10206000ABF1610CBCF1190F03D8ABF1570C634510
:10207000E1DC6B1C0AD004B140420AB1CDB9116059
:10208000BDE8F08F07FB00C00125DDE72223CAF879
:1020900000305AB10EF1FF314846F0E79EF800B02B
:1020A0004FF0004905F1020E0124A4E74846BDE8BF
:1020B000F08F8146EEE710239EF801B00EF1020E7C
:1020C0001F46ADE710231F46AAE700BF9127016016
:1020D00010B5242A094C1346246808D8012A06D0D2
:1020E0000A4601462046BDE81040FFF76BBFFFF7E8
:1020F0000DFF16230360002010BD00BF0800116013
:102100004275696C74207769746820525A2F562082
:10211000466C657869626C6520536F66747761728E
:1021200065205061636B6167652076657273696FC6
:102130006E20342E322E3000342E322E300000002D
:10214000000002045465726D696E616C000000004D
:10215000284E554C4C290000342E302E3000000003
:102160000D0A2A2A2A2A2A2A2A2A2A2A2A2A2A2A0C
:102170002A2A2A2A2A2A2A2A2A2A2A2A2A2A2A2ABF
:102180002A2A2A2A2A2A2A2A2A2A2A2A2A2A2A2AAF
:102190002A2A2A2A2A2A2A2A2A2A2A2A2A2A2A2A9F
:1021A0002A2A2A2A2A2A2A2A2A2A2A2A2A2A2A2A8F
:1021B0002A2A0D0A2A20202052656E657361732039
:1021C000465350204578616D706C652050726F6A7F
:1021D00065637420666F7220725F736369665F75F2
:1021E000617274204D6F64756C6520202020202062
:1021F00020202020202020202020202020202020DF
:102200002020202A0D0A2A2020204578616D706C3C
:10221000652050726F6A6563742056657273696FCA
:102220006E20257320202020202020202020202008
:10223000202020202020202020202020202020209E
:10224000202020202020202020202020202020208E
:1022500020202A0D0A2A202020466C657820536F02
:10226000667477617265205061636B205665727386
:10227000696F6E2025642E25642E25642020202081
:10228000202020202020202020202020202020204E
:10229000202020202020202020202020202020203E
:1022A000202020202020202A0D0A2A2A2A2A2A2A11
:1022B0002A2A2A2A2A2A2A2A2A2A2A2A2A2A2A2A7E
:1022C0002A2A2A2A2A2A2A2A2A2A2A2A2A2A2A2A6E
:1022D0002A2A2A2A2A2A2A2A2A2A2A2A2A2A2A2A5E
:1022E0002A2A2A2A2A2A2A2A2A2A2A2A2A2A2A2A4E
:1022F0002A2A2A2A2A2A2A2A2A2A0D0A52656665A1
:102300007220746F20726561646D652E747874201C
:1023100066696C6520666F72206D6F7265206465FA
:102320007461696C73206F6E204578616D706C65A7
:102330002050726F6A65637420616E640D0A4653A3
:102340005020557365722773204D616E75616C2046
:10235000666F72206D6F726520696E666F726D6157
:1023600074696F6E2061626F757420725F73636948
:10237000665F75617274206472697665720D0A0019
:102380000D0A5468652070726F6A65637420696E07
:10239000697469616C697A65732074686520554158
:1023A0005254207769746820626175642072617488
:1023B00065206F6620313135323030206270732EE7
:1023C000000000000D0A4F70656E20536572696150
:1023D0006C205465726D696E616C20776974682039
:1023E0007468697320626175642072617465207617
:1023F000616C756520616E64000000000D0A50720A
:102400006F7669646520496E7075742072616E67BD
:10241000696E672066726F6D2031202D203230305A
:102420003020746F20736574204C454420506572D1
:10243000696F640D0A0000000D0A2A2A2067746D76
:102440005F696E697469616C697A65206661696C3F
:102450006564202A2A0D0A000D0A52657475726E91
:102460006564204572726F7220436F64653A203054
:102470007825780D0A0000000D0A2A2A2067746D5D
:102480005F7374617274206661696C6564202A2AC6
:102490000D0A00000D0A2A2A20756172745F696EA8
:1024A000697469616C697A65206661696C6564202C
:1024B0002A2A0D0A000000000D0A2A2A20756172DE
:1024C000745F65705F64656D6F206661696C6564DB
:1024D000202A2A0D0A0000000D0A2A2A2020525F15
:1024E000534349465F554152545F4F70656E2041DA
:1024F0005049206661696C656420202A2A0D0A0013
:102500005B4552525D20496E2046756E6374696F5B
:102510006E3A20257328292C202573000D0A2A2ABB
:102520002020525F534349465F554152545F5772D2
:1025300069746520415049204661696C65642020BA
:102540002A2A0D0A000000000D0A2A2A20205541DF
:102550005254204572726F72204576656E74205217
:102560006563656976656420202A2A0D0A000000EB
:102570000D0A496E76616C696420696E7075742EFF
:1025800020496E7075742072616E676520697320D2
:1025900066726F6D2031202D20323030300D0A00F0
:1025A0000D0A2A2A20756172745F7072696E745FF9
:1025B000757365725F6D7367206661696C65642011
:1025C0002A2A0D0A000000000D0A2A2A20736574C9
:1025D0005F6379636C65206661696C6564202A2A93
:1025E0000D0A00000D0A416363657074656420760E
:1025F000616C75652C20746865206C656420697356
:1026000020626C696E6B696E6720776974682074EC
:102610006861742076616C75650D0A00506C6561A7
:1026200073652073657420746865206E6578742006
:1026300076616C75650D0A000D0A2A2A2020525F0A
:10264000534349465F554152545F436C6F73652055
:10265000415049206661696C656420202A2A0D0A70
:1026600000000000000000000000545452205245B9
:102670004747455300000000303132333435363798
:1026800038394142434445466465696E69745F75F3
:1026900061727400756172745F7072696E745F75D7
:1026A0007365725F6D736700756172745F696E69DF
:1026B0007469616C697A6500756172745F65705FD9
:1026C00064656D6F00000000A4061160980611603B
:1026D00080061160020200000E0088010E008901D0
:1026E0000E008A010E0086010000000000000000BC
:1026F000350B016000000000FC2601600E00870120
:10270000000000000400116003060000000000004B
:10271000FFFF000000C0044000000000FFC1EB0B01
:10272000000000000000000001142F00F908016003
:102730000000000038270160000000000014804203
:10274000070000004C270160C82601600804020051
:1027500000290000000C0304022A00000904020002
:10276000022B0000000C030100300000000C0301EC
:1027700001300000000C030103300000000C0301D5
:1027800004300000010000008C27016000290000D7
:102790000020202020202020202028282828282031
:1027A0002020202020202020202020202020202029
:1027B0002088101010101010101010101010101091
:1027C0001004040404040404040404101010101081
:1027D000101041414141414101010101010101014B
:1027E000010101010101010101010101101010109D
:1027F000101042424242424202020202020202021D
:102800000202020202020202020202021010101070
:102810002000000000000000000000000000000098
:1028200000000000000000000000000000000000A8
:102830000000000000000000000000000000000098
:102840000000000000000000000000000000000088
:102850000000000000000000000000000000000078
:102860000000000000000000000000000000000068
:102870000000000000000000000000000000000058
:102880000000000000000000000000000000000048
:10289000000000001000000000000000017A52005B
:1028A000027C0E011B0C0D0014000000180000003B
:1028B00014F5FFFFEC00000000024D0A430B00007E
:0828C00004F5FF7F0100000098
:1028C8000100000004350000100011600000000045
:1028D800000000007C0E1160E40E11604C0F1160C6
:1028E80000000000000000000000000000000000E0
:1028F80000000000000000000000000000000000D0
:1029080000000000000000000000000000000000BF
:1029180000000000000000000000000000000000AF
:10292800000000000000000000000000000000009F
:10293800000000000000000000000000000000008F
:10294800000000000000000000000000000000007F
:10295800000000000000000000000000000000006F
:10296800000000000000000001000000000000005E
:102978000E33CDAB34126DE6ECDE05000B00000023
:10298800000000000000000000000000000000003F
:10299800000000000000000000000000000000002F
:1029A800000000000000000000000000000000001F
:1029B800000000000000000000000000000000000F
:1029C80000000000000000000000000000000000FF
:1029D80000000000000000000000000000000000EF
:1029E80000000000000000000000000000000000DF
:1029F80000000000000000000000000000000000CF
:102A080000000000000000000000000000000000BE
:0200000472EF99
:10F44000064A074953688A6023F00103054981F39E
:10F450008A88126882F388889C4770470000010000
:10F4600000ED02E0B80F1160704700BF022249F6BC
:10F47000F77108B50A4BC3F8D0201A6922F00C02C4
:10F480001A61DA680A4042F0BF6242F40832DA6078
:10F490005A6A42F400225A62FFF7E6FF08BD00BF35
:10F4A00000ED00E010B4EFF31081012383F3108826
:10F4B0004FF00313264AC2F82C35D2F8AC36980721
:10F4C000FBD081F31088EFF31080012383F31088C1
:10F4D0004FF003131E49C2F82C38D1F8AC399A0703
:10F4E000FBD180F31088EFF31080012383F31088A1
:10F4F0004FF00313164AC1F82C35D2F8AC369B07EF
:10F50000FBD080F31088EFF31080012383F3108881
:10F510004FF003130E49C2F82C38D1F8AC3913F070
:10F520000303FAD180F310884FF0FF30094C0A49E9
:10F53000D4F81C2D22F00102C4F81C2D03F1A00206
:10F5400001330F2B41F82200F8D110BC704700BFE7
:10F55000000001410000024100E100E000BE7047F0
:10F5600008B500F025F8FEE700BE704700BE704702
:10F570000B4B0C4A0C48C2F80C38C1680B4B01F419
:10F58000E0610B43C360D2F8243D9B05FBD5D2F864
:10F590001C3D43F00103C2F81C3D30BFFEE700BF35
:10F5A00080FF01100000024100ED00E00400FA05B8
:10F5B00008B5094A094B9A6000F01EF8084B83F31E
:10F5C0000888084B83F30A88FFF750FFFFF76AFFAC
:10F5D000BDE80840FFF734BF80FF011000ED00E0F8
:10F5E00000FAEF7200F8EF72024B83F30888FFF71E
:10F5F000BFBF00BF00FAEF725FF800F0891C016026
:0400000572EFF5E9B8
:00000001FF
