:020000040800F2
:101E000088D40000FFFFFFFFFFFFFFFFFFFFFFFF82
:101E1000000A0000FFFFFFFFFFFFFFFFFFFFFFFFC4
:101E200000280028FFFFFFFFFFFFFFFFFFFFFFFF6E
:101E3000FFFFFFFFFFFFFFFFFFFFFFFFFFFFFFFFB2
:101E4000FFFFFFFFFFFFFFFFFFFFFFFFFFFFFFFFA2
:101E5000FFFFFFFFFFFFFFFFFFFFFFFFFFFFFFFF92
:101E6000FFFFFFFFFFFFFFFFFFFFFFFFFFFFFFFF82
:101E7000FFFFFFFFFFFFFFFFFFFFFFFFFFFFFFFF72
:101E8000FFFFFFFFFFFFFFFFFFFFFFFFFFFFFFFF62
:101E9000FFFFFFFFFFFFFFFFFFFFFFFFFFFFFFFF52
:101EA000FFFFFFFFFFFFFFFFFFFFFFFFFFFFFFFF42
:101EB000FFFFFFFFFFFFFFFFFFFFFFFFFFFFFFFF32
:101EC000FFFFFFFFFFFFFFFFFFFFFFFFFFFFFFFF22
:101ED000FFFFFFFFFFFFFFFFFFFFFFFFFFFFFFFF12
:101EE000FFFFFFFFFFFFFFFFFFFFFFFFFFFFFFFF02
:101EF000FFFFFFFFFFFFFFFFFFFFFFFFFFFFFFFFF2
:101F0000FFFFFFFFFFFFFFFFFFFFFFFFFFFFFFFFE1
:101F1000FFFFFFFFFFFFFFFFFFFFFFFFFFFFFFFFD1
:101F2000FFFFFFFFFFFFFFFFFFFFFFFFFFFFFFFFC1
:101F3000FFFFFFFFFFFFFFFFFFFFFFFFFFFFFFFFB1
:101F4000FFFFFFFFFFFFFFFFFFFFFFFFFFFFFFFFA1
:101F5000FFFFFFFFFFFFFFFFFFFFFFFFFFFFFFFF91
:101F6000FFFFFFFFFFFFFFFFFFFFFFFFFFFFFFFF81
:101F7000FFFFFFFFFFFFFFFFFFFFFFFFFFFFFFFF71
:101F8000FFFFFFFFFFFFFFFFFFFFFFFFFFFFFFFF61
:101F9000FFFFFFFFFFFFFFFFFFFFFFFFFFFFFFFF51
:101FA000FFFFFFFFFFFFFFFFFFFFFFFFFFFFFFFF41
:101FB000FFFFFFFFFFFFFFFFFFFFFFFFFFFFFFFF31
:101FC000FFFFFFFFFFFFFFFFFFFFFFFFFFFFFFFF21
:101FD000FFFFFFFFFFFFFFFFFFFFFFFFFFFFFFFF11
:101FE000FFFFFFFFFFFFFFFFFFFFFFFFFFFFFFFF01
:101FF000FFFFFFFFFFFFFFFFFFFFFFFFFFFF55AAF0
:1028000008B503F003FBFEE7024B83F3088803F0EF
:10281000F1BA00BFD87B00080000000000000000F3
:1028200000000000000000000000000000000000A8
:102830000000000000000000000000000000000098
:102840000000000000000000000000000000000088
:102850000000000000000000000000000000000078
:10300000D87B000801280008815D0008795D000870
:10301000795D0008795D0008795D00087D5D000834
:10302000000000000000000000000000795D0008C2
:10303000795D000800000000795D0008795D0008F6
:10304000755D0008755D0008755D0008755D000818
:10305000755D0008755D0008755D0008755D000808
:10306000755D0008755D0008755D0008755D0008F8
:10307000755D0008755D0008755D0008755D0008E8
:1033B000755D0008755D000809500008B9500008E7
:1033C00091510008095200085D520008B9520008E6
:1033D000755D0008755D0008755D0008755D000885
:1033E000755D0008755D0008755D0008755D000875
:1033F000755D0008755D0008755D0008755D000865
:10340000755D0008755D0008755D0008755D000854
:10341000755D0008755D0008755D0008755D000844
:10342000755D0008755D0008755D0008755D000834
:10343000755D0008755D0008755D0008755D000824
:10344000755D0008755D0008755D0008755D000814
:10345000755D0008755D0008755D0008755D000804
:10346000755D0008755D0008755D0008755D0008F4
:10347000755D0008755D0008755D0008755D0008E4
:10348000755D0008755D0008755D0008755D0008D4
:10349000755D0008755D0008755D0008755D0008C4
:1034A000755D0008755D0008755D0008755D0008B4
:1034B000755D0008755D0008755D0008755D0008A4
:1034C000755D0008755D0008755D0008755D000894
:1034D000755D0008755D0008755D0008755D000884
:1034E000755D0008755D0008755D0008755D000874
:1034F000755D0008755D0008755D0008755D000864
:10350000755D0008755D0008755D0008755D000853
:10351000755D0008755D0008755D0008755D000843
:10352000755D0008755D0008755D0008755D000833
:10353000755D0008755D0008755D0008755D000823
:10354000755D0008755D0008755D0008755D000813
:10355000755D0008755D0008755D0008755D000803
:10356000755D0008755D0008755D0008755D0008F3
:10357000755D0008755D0008755D0008755D0008E3
:10358000755D0008755D0008755D0008755D0008D3
:10359000755D0008755D0008755D0008755D0008C3
:1035A000755D0008755D0008755D0008755D0008B3
:1035B000755D0008755D0008755D0008755D0008A3
:1035C000755D0008ED4D0008494F0008755D000865
:1035D000755D0008755D0008755D0008755D000883
:1035E000755D0008755D0008755D0008755D000873
:1035F000755D0008755D0008755D0008755D000863
:10360000755D0008755D0008755D0008755D000852
:10361000755D0008755D0008755D0008755D000842
:10362000755D0008755D0008755D0008755D000832
:10363000755D0008755D0008755D0008755D000822
:10364000755D0008755D0008755D0008755D000812
:10365000755D0008755D0008755D0008755D000802
:10366000755D0008755D0008755D0008755D0008F2
:10367000755D0008755D0008755D0008755D0008E2
:10368000755D0008755D0008755D0008755D0008D2
:10369000755D0008755D0008755D0008755D0008C2
:1036A000755D0008755D0008755D0008755D0008B2
:1036B000755D0008755D0008755D0008755D0008A2
:1036C000755D0008755D0008755D0008755D000892
:1036D000755D0008755D0008755D0008755D000882
:1036E000755D0008755D0008755D0008755D000872
:1036F000755D0008755D0008755D0008755D000862
:10370000755D0008755D0008755D0008755D000851
:10371000755D0008755D0008755D0008755D000841
:10372000755D0008755D0008755D0008755D000831
:10373000755D0008755D0008755D0008755D000821
:10374000755D0008755D0008755D0008755D000811
:10375000755D0008755D0008755D0008755D000801
:10376000755D0008755D0008755D0008755D0008F1
:10377000755D0008755D0008755D0008755D0008E1
:10378000755D0008755D0008755D0008755D0008D1
:10379000755D0008755D0008755D0008755D0008C1
:1037A000755D0008755D0008755D0008755D0008B1
:1037B000755D0008755D0008755D0008755D0008A1
:1037C000FEE700BF022800D0704708B50A490B4841
:1037D00002F06CF800F0BCF8094BD3F800335B053D
:1037E00007D500F0E1F900F0ABF9BDE8084000F0C2
:1037F0003DBA00F0D3F8F4E7FC670008887C0008C5
:103800000000434010B58C468646114A82B091684C
:1038100010688C680023022201A98DF804E08DF85D
:1038200005C0A04708B102B010BD4FF0FF331A46E3
:10383000084C2070013B62F1000253EA0201F2D011
:1038400021780029F6D023780023237002B010BD20
:1038500054670008806B000870B5204B82B09E68EA
:103860001B680246009301230D468DF8072000983F
:103870001A46B4680DF10701A04708B102B070BD47
:103880004FF0FF331A46164C2070013B62F10002E4
:1038900053EA0200F2D020780028F6D02378012BDA
:1038A0004FF0000316D02946012200987568237056
:1038B000A8470028E2D14FF0FF331A462070013BA1
:1038C00062F1000253EA0201D8D021780029F6D033
:1038D00023780023237002B070BD00BF5467000836
:1038E000806B000870B50024144B82B01E689D6880
:1038F00059682A6830468DF8074090470DF1070156
:10390000F820FFF7A9FF0DF107018D20FFF7A4FFB5
:103910000DF107016C20FFF79FFF02218D208DF82C
:103920000710FFF76FFF0DF107018D20FFF794FFE0
:103930003046EB699847204602B070BD54670008D6
:1039400010B10279014B1A70704700BF806B0008FC
:103950004FF01F12104B0020C3F80022C3F80422BE
:10396000C3F80822C3F80C22C3F81022C3F81422AB
:10397000C3F81822C3F81C22C3F82022C3F824225B
:10398000C3F82822C3F82C22C3F83022C3F834220B
:10399000C3F83822704700BF000042404FF4E020D7
:1039A0004FF47C124FF480212DE9F84F0125564C3D
:1039B000564E574BC4F80069C4F804095548C4F87A
:1039C00008095548C4F80C09C4F81029534AC4F82A
:1039D0001429534AC4F81829524AC4F81C2902F180
:1039E000C062C4F82039C4F824294F4AC4F82829F1
:1039F0004E4AC4F82C19C4F830294D494D4AC4F830
:103A00003419C4F83839C4F83C294B4AC4F8403951
:103A1000C4F84429C4F88C5CFFF764FF4FF47A7152
:103A20001E2002F039F94FF47A711420C4F8785C42
:103A300002F032F9D4F87C3C03F00603062BF9D1EE
:103A400000234FF00422C4F8783CC4F82C2DC4F8AD
:103A50008C3C00F0CDF86FF0201B4FF0FF326FF080
:103A600080216FF0041A4FF080296FF001186FF079
:103A70000F1E6FF0071C6FF0F0266FF003152F4F2D
:103A8000C4F800B64FF00F10C4F804A6C4F80896A6
:103A9000C4F80C86C4F81016C4F814E6C4F8182646
:103AA000C4F81C26C4F82016C4F82416C4F828C686
:103AB000C4F82C26C4F83026C4F83426C4F83826B6
:103AC000C4F83C26C4F84076C4F84466C4F84856A6
:103AD000C4F84C26C4F8502603220B4BC4F85406F5
:103AE000C4F84C2CD3F84C2C02F00C02082AF9D163
:103AF0000221054AC3F84C1CD2F8883CDB07FBD5F1
:103B00000020BDE8F88F00BF000042400000FF3FEA
:103B10000000FFFF0000FF1F0000BCE7000080FE68
:103B200000001F9E0000DFF9000086030000E0FF98
:103B30000000E1F1000003710000FF03010601062F
:103B40002DE9F04300204FF00F1201270F264FF010
:103B500080694FF0FF284FF03F1E4FF0030C0E4BD3
:103B60000E4D0F490F4CA860C5F81421AF60C1F885
:103B7000249DA060C4F81421A760C1F80C89C1F885
:103B800010E99860C3F81421C3F81061C3F80CC0A1
:103B90009E60BDE8F08300BF000047400000CA43BC
:103BA000000042400000CB4310B44FF040204FF0E3
:103BB000C0644FF0FF316FF0FC230C4AC2F82C4D6B
:103BC000C2F83C09C2F84019C2F84439D2F81C3A8C
:103BD000B3F5803FFAD2054BD3F8200AC0F30900B1
:103BE0000028F9D15DF8044B704700BF0000424047
:103BF0004FF00113194910B40B620B6BDB06FCD5B7
:103C00004FF00113154A0B64136DDC06FCD54FF021
:103C10000113134C134811495466906613660B6FD9
:103C2000D806FCD54FF001130C4AC1F88030D2F809
:103C30009030D906FBD543F282444FF001130A4875
:103C40000649C2F84441C2F84801C2F84031D1F8EF
:103C50005031DB06FBD55DF8044B70470000424055
:103C600043350080001E0C00011A0C004FF010229A
:103C70001F4B2049C3F80413C3F80025EFF310804D
:103C8000012181F31088A3F55043D3F8042C42F0AE
:103C90002002C3F8042C80F31088D3F8402C22F0C3
:103CA0000402C3F8402CD3F8402C22F00802C3F8D9
:103CB000402CD3F8402C22F01002C3F8402CD3F84B
:103CC000402C22F02002C3F8402CEFF3108081F347
:103CD0001088D3F8042C22F02002C3F8042C80F3BF
:103CE0001088054BD3E9011218681268104700BF0D
:103CF00000004240000100119C67000870B50C46AE
:103D0000012122690546D2F80831084623F48033A0
:103D1000C2F8083101F0C0FF2269D2F8083143F43B
:103D20008033C2F8083123681B88492B1BD0922BA3
:103D300001D0002070BD7F220C4E2B693260002123
:103D400020469847EB6801222046094998470122FE
:103D50003146EB6820469847064B204619882B6968
:103D60009847002070BDBF22E6E700BFA06B0008A7
:103D7000886B0008A86700080020704708B5FFF7A7
:103D80001FFD002008BD00BF0620704706207047B9
:103D90000620704706207047034648B1054AC168AF
:103DA000914203D100221046DA6070470720704725
:103DB000012070474950535130B50469236F23F0F7
:103DC000300323670469236FDD07FCD4CB7B8D8927
:103DD00091F810E003F0030391F811C043EA056382
:103DE000D5034FEA8E0EADB20EF01C0E4FEA4C1CFE
:103DF0002B430CF4F07C43EA0E0343EA0C0391F8E6
:103E00000EC0012A4FEA4C2C0CF4785C43EA0C03F8
:103E1000C4F8803003698C68C3F8844003D1036917
:103E20000C68C3F888400469236F43F001032367DB
:103E30000469D4F89031DB07FBD51AB9D4F888307F
:103E40000B6004690123C4F8943130BD00220123C2
:103E5000F0B587B0CDE903228DF80F308DF8113021
:103E60000368858A997B902D0446CDE900229E69DE
:103E700002920592ADF80C1005D0482D03D069468A
:103E8000FFF79AFF18E0002273782769143357F878
:103E9000230069466FF3090047F82300A2822046F9
:103EA000FFF78AFF73782269143352F8231065F301
:103EB000090142F82310A582236800989B79D84015
:103EC00000F0010007B0F0BDF8B5002800F0F18067
:103ED0000E46002900F0ED808F69002F00F0E98088
:103EE0007F4BC26805469A4200F0EE803B78002B7B
:103EF00040F0F180EFF31081012383F310884FF03D
:103F00008023784AC2F82436D2F81038002BFBDA26
:103F100081F31088EFF31081012383F310884FF0B1
:103F20000313C2F828366F4AD2F814385B07FBD067
:103F300081F31088EFF31080012383F310884FF48E
:103F40000011C2F80C1DD2F80C4D80F31088EFF36D
:103F5000108083F31088C2F8101DD2F8101D80F372
:103F60001088EFF3108183F310884FF01813C2F814
:103F700028395C4AD2F8104A14F44014FAD181F37B
:103F80001088574A584B2E602B61EA60FA6832B1AC
:103F9000294656489047002840F093802B697A784C
:103FA0003188143243F8221033882A69AB827B7837
:103FB000002B00F08180136823F0F85313607A68B7
:103FC0003088137891781B045278090501F4801128
:103FD00003F470230B43C0F30900520502F40012EE
:103FE000034313437A782969143241F822307B78ED
:103FF000F1782A69013389001B0101F00C01D150CD
:1040000079782A693379013102EB01121B04F17BC3
:1040100003F4F81343EA012353602B69327B797868
:10402000120203EB01139A617B782A69002B4DD1B0
:10403000136E43F0030313663B7A2A691B0403F4EF
:10404000803343F4786393603B7A2A691B0400262B
:1040500003F4803343F47863D3602B6979781A6F63
:1040600061F3C3021A672B692A68117C9A6E61F3A7
:1040700007029A662B692A68517C9A6E61F30F22B7
:104080009A662B692A68117CDA6E61F30702DA6698
:104090002B692A68517CDA6E61F30F22DA66AE6012
:1040A0003B693BB1294611489847044610B1EE6080
:1040B00000E001242046F8BD116863F30C21116073
:1040C0007DE7EC600446F5E70E24F3E7136E43F05A
:1040D0000C031366B0E740F27A542046F8BD00BFE7
:1040E0004950535100004240000003410869000854
:1040F000F8B1114BC2689A4217D18B1E022B16D908
:1041000040F2FF33994212D010B4036802699B69F0
:1041100081825B780020143352F8234061F3090454
:1041200042F823405DF8044B704707207047032096
:1041300070470120704700BF49505351B8B170B566
:104140000C4DC668AE420AD103699B6EC3F30045AD
:10415000DB030AD409B1CB7B1BB9012070BD07205A
:1041600070BDFFF729FE284670BD052070BD0120F7
:10417000704700BF49505351B8B1B1B110B5104AA2
:10418000C46882B094420DD103699A6ED2030ED4F2
:10419000D3F8843113F0410F0BD001230B700020B2
:1041A00002B010BD072002B010BD012070470520ED
:1041B000F6E70191FFF74AFE01990870EFE700BFAB
:1041C00049505351002871D0F0B514461F46C268BB
:1041D0003F4B06469A4287B04AD103699B6EDD0386
:1041E0004DD40D46FFF732FE002844D1002D3CD0BF
:1041F000002C3AD033689B68B4FBF3F203FB124205
:104200009B1A9F4231D8402F2FD83046FFF71EFE11
:1042100088BB0122336803905B7B6946CDE90000CF
:10422000CDE9040002903046ADF80C308DF80F2037
:10423000FFF7C2FDB90724D0FA0739D47A0843D072
:10424000023D04EB420235F8023F24F8023B94425F
:10425000F9D1BFF34F8F402F22D13269D2F8843188
:10426000DB07FBD5002007B0F0BD012007B0F0BD93
:10427000072007B0F0BD49F6424007B0F0BD052069
:10428000F4E7BA0820D0043D04EB820255F8043F5D
:1042900044F8043B9442F9D1BFF34F8F402FDCD058
:1042A0003269536E43F480735366D6E7012070473A
:1042B0006A1E013C1346023312F8011F5B1B9F422A
:1042C00004F8011FF6D8C4E7BFF34F8FE8E700BF3B
:1042D00049505351002831D01B4BC2689A4201D03B
:1042E0000720704730B482B00190019B01683BB356
:1042F000002204698DF803209DF80350A56E8B6998
:1043000062F310455978A566046901F10C03E56E66
:10431000DB0662F31045E5661B780269DBB28DF8B7
:104320000330136E31B143F00C031366002002B06A
:1043300030BC704743F003031366F7E70120704772
:10434000012002B030BC704749505351002830D092
:104350001A4BC2689A4201D00720704782B0019080
:10436000019B02683BB30021936902695B788DF879
:1043700003109DF803104FF0010C116EABB16CF3FC
:104380008301116601690C338A6EDB0642F48032C8
:104390008A6601690020CA6E42F48032CA661B78C0
:1043A000DBB28DF8033002B070476CF30101116687
:1043B000E8E701207047012002B07047495053518F
:1043C000002866D02DE9F041334B1546C2680646F9
:1043D0009A4286B04CD103699B6EDB034CD40F46E6
:1043E000FFF734FD0346002850D1002F3CD0316840
:1043F0008A7C002A38D04C6903E0934204F1080417
:1044000032D0606801338542F7D1B4F80080B8F14A
:10441000000F29D0002401224B7B304669460394CB
:10442000CDE90144CDE90444ADF80C3000948DF899
:104430000F2007F12047FFF7BFFC0135CDE90274DB
:10444000CDE90044CDE90444ADF80C8018D1012237
:10445000304669468DF810408DF80F20FFF7ACFC10
:10446000002006B0BDE8F081012006B0BDE8F08173
:10447000072006B0BDE8F081052006B0BDE8F08158
:104480003368DC78144404F00704E0E749F642405E
:10449000E7E70120704700BF4950535198B191B1EF
:1044A000844610B40948DCF80C40844207D1CCE9BA
:1044B0000E32CCF8341000205DF8044B7047072012
:1044C0005DF8044B70470120704700BF43494952D3
:1044D00048B141B1C368054A00209B1AB3FA83F37F
:1044E0005B090B7070470120704700BF4349495278
:1044F00030B5836B83B004460A466D46A3B193E89A
:10450000030085E80300E16B1A7119601846636BBC
:104510009847A36B1BB195E8030083E803000023D1
:1045200084F82B3003B030BD2B46ECE7F8B50446D9
:10453000236807209E6A01F0A3FB0546092001F0CD
:104540009FFB22699378C3F30211137C94F82C70BB
:104550009FB9C840B5FBF0F003F01F0303FB00F068
:10456000800803D10820F8BD0138FBD05378C3F38D
:10457000C011DB09F8D1D17122690023A16984F847
:104580002B30E16194F8261084F82D3084F8271040
:1045900084F82E3084F8283084F82F30236284F891
:1045A000303031787078012914BF0421052141EAA7
:1045B0004001C9B2D17021690A7942F010020A7132
:1045C00021690A7963F3C3020A7121690A7963F3E5
:1045D00004120A7121694A7942F001024A71226883
:1045E000B2F91020012102F01F0509485209A94023
:1045F00040F82210BF212269D17194F82C201AB101
:1046000084F82C300020F8BD022223695A70F9E7A3
:1046100000E100E0B8B1034610B40C48DC68844205
:104620000DD1D86938B993F82A4024B959601A7263
:104630005DF8044B704708205DF8044B7047072075
:104640005DF8044B70470120704700BF4349495251
:1046500080B380F82A3069B310B4174BC4689C4209
:1046600015D1436B7BB14FF0000C037AC0E9051202
:10467000012B80F831C00ED0002380F829305DF87E
:10468000044BFFF753BF01205DF8044B7047072030
:104690005DF8044B704780F826300023426880F8AC
:1046A00025C0520080F8242080F829305DF8044BA2
:1046B000FFF73CBF012070474349495200B10AB996
:1046C0000120704780F82A300029F9D010B4144B2B
:1046D000C4689C421FD1436BCBB14FF0000C037AEE
:1046E000C0E90512012B80F831C009D1426880F879
:1046F00025C0520042F0010280F8242080F82630C4
:10470000012380F829305DF8044BFFF70FBF01202B
:104710005DF8044B704707205DF8044B704700BFFD
:104720004349495270B5056903682A789B6A22F0AB
:1047300080022A700569BA4C2A784FF0000E42F0C8
:1047400040022A7005694FF0B30C2A7842F08002CB
:104750002A701A79056942F0E0022A74DA7805694C
:1047600042F0E0026A749A780569120102F0700260
:1047700042F00802AA701A785D78012A14BF042258
:10478000052242EA45020569D2B2EA705A79056902
:10479000013AD2B22A7102685268A24214BF77224B
:1047A000F722046962710269012482F806E0026955
:1047B00082F807C091F90D204D7B002AB8BFFE2575
:1047C000B3F90EE0A8BF6D00964A4FEA5E1C0EF1E9
:1047D0006046A8BFEDB206F561464FEA8C0C86F83C
:1047E00000530CF1604C42F82E000EF01F0E0CF539
:1047F000614C04FA0EF4CCF88041CCF8004091F9F9
:104800000D404D7B002CB8BFFE254FF00104B3F9DD
:104810000CE0A8BF6D004FEA5E1C0EF16046A8BF19
:10482000EDB206F561464FEA8C0C86F800530CF1A8
:10483000604C42F82E000EF01F0E0CF5614C04FA8D
:104840000EF4CCF88041CCF8004091F90D404D7B3E
:10485000002CB8BFFE254FF00104B3F90AE0A8BF51
:104860006D004FEA5E1C0EF16046A8BFEDB206F582
:1048700061464FEA8C0C86F800530CF1604C42F80C
:104880002E000EF01F0E0CF5614C04FA0EF4CCF85D
:104890008041CCF8004091F90D404D7B002CB8BF11
:1048A000FE254FF00104B3F908E0A8BF6D004FEA00
:1048B0005E1C0EF16046A8BFEDB206F561464FEAF8
:1048C0008C0C86F800530CF1604C42F82E000EF070
:1048D0001F0E0CF5614C04FA0EF4CCF88041CCF8B4
:1048E0000040B3F906C091F90D3091F80DE0002BAE
:1048F000B8BF4FF0FE0E4FF00104A8BF4FEA4E0EB6
:104900004FEA5C130CF16045A8BF5FFA8EFE05F517
:1049100061459B0085F800E303F1604342F82C00F9
:104920000CF01F0C03F5614304FA0CF4C3F880414A
:104930001C6091F90D3091F80DE0002BB8BF4FF0DD
:10494000FE0E4FF00104B1F910C0A8BF4FEA4E0EA1
:104950004FEA5C130CF16045A8BF5FFA8EFE05F5C7
:1049600061459B0085F800E303F1604342F82C00A9
:104970000CF01F0C03F5614304FA0CF4C3F88041FA
:104980001C6091F90D3091F80DE0002BB8BF4FF08D
:10499000FE0E4FF00104B1F912C0A8BF4FEA4E0E4F
:1049A0004FEA5C130CF16045A8BF5FFA8EFE05F577
:1049B00061459B0085F800E303F1604342F82C0059
:1049C0000CF01F0C03F5614304FA0CF4C3F88041AA
:1049D0001C604B7BB1F90E4091F90D1004F01F05DE
:1049E0000029B4BFFE235B0004F16041A8BFDBB225
:1049F00001F5614181F80033012163099B0003F156
:104A0000604303F56143A94042F82400C3F88011D4
:104A100019600269137823F04003137070BD00BF62
:104A200040420F00FC7C000810B5002800F0AD806B
:104A3000002900F0AA808B6A002B00F0A680B1F953
:104A40000E20002AC0F2A180B1F91020002AC0F285
:104A50009C80B1F91220002AC0F29780B3F9062099
:104A6000002AC0F29280B3F90A20002AC0F28D8099
:104A7000B3F90820002AC0F28880B3F90C20002A7C
:104A8000C0F28380B3F90E30002B7EDB474BC26847
:104A90009A4200F0888040F2FF130A781341DB0746
:104AA0007ED50023424C016054F8222002618A68BE
:104AB00042600A7B02720A6A42634A6A80F82930BD
:104AC000C26380F82A30836380F82B304361C0E9E9
:104AD0000633036280F82C30EFF3108C012383F34C
:104AE00010880A78334C082A0EBF4FF0081304329E
:104AF00093404FF0010218BF43EA0343C4F8243641
:104B00000B78082B03F1140302FA03F208BF4FF4E9
:104B10000022D4F810381A42FBD08CF31088EFF33F
:104B20001084012383F310880A78082A34D01A44A9
:104B30009340214A1B04136091F800C01F4A1E4B8A
:104B4000BCF1080F08BF13461B6884F31088EFF30D
:104B5000108C012383F310880A78082A18D00832B1
:104B60009340174A43EA0343136001230C78114A28
:104B70000934A340D2F8104A1C40FBD18CF31088B2
:104B8000FFF7D0FD094BC36000E00124204610BDB3
:104B90004FF001130B4AE7E74FF00053074ACAE70B
:104BA00040F27A54F2E70E24F0E700BF434949523D
:104BB0005C69000800004240000D4240080D424080
:104BC0002409424028094240002800F0DE8070B5E8
:104BD00003680446002B00F0D3809D6A002D00F08E
:104BE000CF806B4BC2689A4201D0072070BD00266F
:104BF0000369DE710168FFF795FDB320012394F886
:104C0000261084F82C6084F82810A169E6612162DE
:104C1000216984F82A60C87121695E4ACE71E66014
:104C2000B5F90E10480901F01F0103FA01F1203017
:104C300042F82010BFF34F8FBFF36F8FB5F90C1000
:104C4000480901F01F0103FA01F1203042F8201059
:104C5000BFF34F8FBFF36F8FB5F90810480901F00C
:104C60001F0103FA01F1203042F82010BFF34F8FEB
:104C7000BFF36F8FB5F90A10480901F01F0103FA5D
:104C800001F1203042F82010BFF34F8FBFF36F8F38
:104C9000B5F90610480901F01F0103FA01F12030AF
:104CA00042F82010BFF34F8FBFF36F8F2168B1F927
:104CB0000E10480901F01F0103FA01F1203042F8FB
:104CC0002010BFF34F8FBFF36F8F2168B1F912101F
:104CD000480901F01F0103FA01F1203042F82010C9
:104CE000BFF34F8FBFF36F8F2168B1F910104809E0
:104CF00001F01F0103FA01F1203042F82010BFF348
:104D00004F8FBFF36F8FEFF3108083F3108822680B
:104D10001278082A36D04FF6FF711A4493401E4A83
:104D200041EA0343136022681B4B11781B4A082990
:104D300008BF13461B6880F31088EFF3108501232A
:104D400083F3108822681278082A0FBF4FF40021DD
:104D50000432934019040123114AC2F82416216831
:104D6000097801F11400082903FA00F308BF4FF491
:104D70000023D2F810081840FBD185F3108870BDCD
:104D8000012070BD074B054ACCE70120704700BFEA
:104D90004349495200E100E0000D4240080D424005
:104DA00000004240FFFF0020E0B138B50E4BC26862
:104DB0009A4201D0072038BD00250369DD710168E2
:104DC000FFF7B0FCB322836990F8261003620369F1
:104DD00080F82C50C56180F8281080F82A50DA71CC
:104DE000284638BD012070474349495210B483B06A
:104DF000EFF30383EFF30383C3F30803504A103B3D
:104E00001BB252F8233093F82D20C2B99A69022AB6
:104E100004D819690A7942F040020A71DA69012A54
:104E200029D001211A69D27CD2B28DF807209DF8D1
:104E3000072083F82D1003B05DF8044B7047DA6942
:104E4000002AF8D0032A26D0022A5FD0012A28D0CF
:104E500019691A6AC87C59698854D3E90721013154
:104E6000013AC3E90721002AE5D119690B7962F3F8
:104E700086130B71DFE719690A7942F010020A7193
:104E800019690A7942F008020A7119690A7922F04F
:104E900010020A71C5E719690A7942F040020A71E5
:104EA000D6E793F82A10002940D01968254CB1F9AB
:104EB0001010480901F01F0102FA01F1203044F8F6
:104EC0002010BFF34F8FBFF36F8F4FF0040C1869A2
:104ED000C17941F08001C1711869017941F0100177
:104EE00001711869017921F00801017118690179CE
:104EF00021F010010171196981F801C01869417927
:104F000021F00101417183F82C20A1E719690A7988
:104F100042F010020A7119690A7942F008020A7116
:104F200019690A7922F010020A7191E708201969BB
:104F30004A7A02F0F7024A721A69507088E700BF95
:104F4000FC7C000800E100E0EFF30383EFF3038350
:104F5000C3F308032A4A103B1BB252F8233093F8DC
:104F600027207ABB93F829205ABBDA691969EAB974
:104F700010B4CA7922F08002CA711969CA79D209BB
:104F8000FCD101201A681F4CB2F91220510902F01D
:104F90001F0200FA02F2603144F821201A69D37925
:104FA00043F04003D3715DF8044B70471A6A5869A7
:104FB000825C8A74D3E907210131013AC3E90721F0
:104FC000E2B1704793F82620032A0ED093F82410FC
:104FD0001A69917493F8281093F827200131013A47
:104FE00083F8281083F82720704793F82820022A96
:104FF000ECD193F83020002AE3D0E7E71969B7E74E
:10500000FC7C000800E100E010B4EFF30383C3F37D
:105010000803274A103B1BB252F8233093F829208B
:105020001AB193F82720012A3CD0DA691ABB93F809
:105030002A1071B34FF0010C19681E4CB1F9101011
:10504000480901F01F0120300CFA01F144F820104A
:10505000BFF34F8FBFF36F8F1869C17941F08001A3
:10506000C1710420196948701869417962F300011F
:10507000417183F82CC01969CA7922F04002CA71C3
:105080001A69D3795B06FCD4EFF303835DF8044B14
:105090007047082019694A7A02F0F7024A721A69C1
:1050A0005070E8E793F83020002AE4D0BDE700BF55
:1050B000FC7C000800E100E038B5EFF30383C3F3A4
:1050C0000803324A103B1BB252F8230003695A7896
:1050D000510605D490F8312002F0FF04002A34D0A4
:1050E00090F8312002F0FF042ABB01214FF0080C98
:1050F00080F82B105A7A02F0F7025A72036983F88B
:1051000001C002680369926A12788A4214BF0222BF
:105110000322DA70026953790B43537103695A7A97
:10512000120749BF5A7A80F8311064F304125A7298
:10513000EFF3038338BD002180F831105A7A61F310
:1051400004125A72EFF3038338BD01255A7A64F3CF
:1051500004125A72036980F82B50DC710168FFF762
:10516000E1FAB32290F8263080F82C4080F82830FD
:10517000C46180F82A400369846929460462DA71AF
:10518000FFF7B6F9EFF3038338BD00BFFC7C0008DE
:1051900008B5EFF30383C3F308031A4A103B1BB2AD
:1051A00052F823000269537A23F00803537290F8EF
:1051B0002B3083B9026990F8291003F0FF0CD379E2
:1051C000C1F103016CF3C303C9B2D371FFF790F9C6
:1051D000EFF3038308BD00234FF0B30C90F82620B3
:1051E00080F82C3080F828208269C361026202694D
:1051F00080F82A30012182F807C0FFF779F9EFF330
:10520000038308BDFC7C000808B5EFF30383C3F3F8
:105210000803114A103B1BB252F823000269537A6B
:1052200023F00403537290F82C303BB190F82B30EC
:1052300003F0FF0C2BB10121FFF75AF9EFF30383C1
:1052400008BD026990F82910D379C1F103016CF30C
:105250008203C9B2D371EFE7FC7C000838B5EFF3E5
:10526000038300240125C3F30803124A103B1BB239
:1052700052F823000269537A23F002035372036940
:1052800080F82B50DC710168FFF74CFAB32290F8DC
:10529000263080F82C4080F82830C46180F82A40FD
:1052A0000369846929460462DA71FFF721F9EFF393
:1052B000038338BDFC7C000838B5EFF3038300247A
:1052C0000125C3F30803124A103B1BB252F8230016
:1052D0000269537A23F001035372036980F82B505B
:1052E000DC710168FFF71EFAB32290F8263080F8CF
:1052F0002C4080F82830C46180F82A400369846912
:1053000029460462DA71FFF7F3F8EFF3038338BD3F
:10531000FC7C000801222DE9F04F0324C0F307268E
:10532000A6F1030E0EFA02FEC0F385035FFA8EFEAD
:10533000364D0EEB030C5FFA8CFC204055F82CB078
:10534000A040AEF1040E82407344C1F3804E2BEABC
:10535000020B0EFA00FEDFF8C0A04EEA0B0E45F875
:105360002CE05AF82C50844025EA040EC1F3812524
:10537000854045EA0E05DFF8A4904AF82C5059F80C
:105380002C50DFF89C8025EA020EC1F34045854091
:1053900045EA0E0549F82C50DBB258F823501C4F53
:1053A00025EA020CC1F38015854045EA0C0548F852
:1053B000235057F82350012E25EA040CC1F30115A0
:1053C00005FA00F545EA0C0547F823501BD1D243F6
:1053D000E443104BC1F3C0459E68854032402A43E8
:1053E0009A60D3F80854C1F30152254082402A4301
:1053F000C3F80824D3F80828C1F381511440814030
:105400002143C3F80818BDE8F08F00BF18184140C9
:10541000281C4140002041401810414018144140D0
:10542000283041402DE9F04F0124C3B29C40E6B240
:10543000FF2EDFF888C1C0F30722C1F3004506D074
:1054400012F80C709D4027EA04073D43EDB24FF07F
:10545000030E4FF6FF7802F80C505D000EFA05FEC1
:105460001FFA8EF9C1454F4FC1F3810C0BD00CFAD6
:1054700005F537F812C01FFA8CFC2CEA0E0C4CEA2A
:10548000050C1FFA8CFCFF2E27F812C0464F01F0C6
:10549000010C08D0D55D0CFA03FC25EA040444EAAB
:1054A0000C045FFA84FC02F807C04FF0030C4FF0C5
:1054B000010A9B083D4E03EB4203DBB200F0030000
:1054C00056F823B0C0000CFA00FCC1F381228240E0
:1054D0002BEA0C0BDFF8E89042EA0B0246F8232097
:1054E00059F82360C1F3011808FA00F826EA0C06FF
:1054F000DFF8D0E048EA060649F823605EF823604A
:105500000AFA00F2C1F3803526EA020685403543E7
:10551000274F4EF8235057F82350C1F3C04425EAD3
:1055200002058440234E2C4347F8234056F823506D
:10553000C1F3015425EA0C0584402C4346F823406E
:1055400006F5806656F82350C1F3815425EA0C0510
:1055500084402C4346F82340A6F5A05656F8235025
:10556000C1F34044844025EA02052C4346F8234019
:10557000114CC1F3801CC90F0CFA00FC814054F897
:10558000230020EA02004CEA000044F8230004F55E
:10559000806454F8230020EA0202114344F82310E7
:1055A000BDE8F08F400141402000414000114140E2
:1055B000002141400025414000314140200241404E
:1055C000001D4140002D414001232DE9F043C5B2AB
:1055D000AB40DEB2FF2E7E4FC0F30724C1F3004282
:1055E00005D0E65DAA4026EA03031343DAB24FF082
:1055F0000F0C4FF001084FF0030E764BE25553F8B5
:1056000024704FEA8509C1F303660CFA09FC27EA06
:105610000C0706FA09F200F00300C0003A4304FA4E
:1056200008FC43F824200CEB950C08FA00F3DFF893
:10563000C8815FFA8CFC58F82C700EFA00FEC1F39A
:10564000812227EA0E0782403A4348F82C2008F5C9
:10565000406858F82C70C1F3011227EA0E07824007
:105660003A4348F82C20A8F5006858F82C70C1F38C
:10567000404227EA030782403A4348F82C2008F5C5
:10568000E05858F82C70C1F3801227EA03078240D3
:105690003A4348F82C20A4F10B025200DFF85C9149
:1056A00002EB9502D2B259F82280C1F3804728EA72
:1056B0000308874047EA0807DFF8448149F8227069
:1056C00058F82C70CA0F27EA030782403A430D2E80
:1056D00048F82C206FEA0E0E6FEA03034FEA0662C9
:1056E0002CD0B2F1706F23D03B4CC1F3C04254F8C0
:1056F0002C5082402B40134344F82C3004F5806436
:1057000054F82C20C1F301530EEA020283401343E4
:1057100044F82C30314BC1F3815153F82C20814097
:105720000EEA020E41EA0E0143F82C10BDE8F083A8
:105730002B4A02EBC402525DF02AD5D001F070630F
:10574000B3F1506FC1F3C047C1F30156C1F38151AA
:105750002CD0B3F1706F17D06FF003026FF001001F
:10576000204C214DDFF89CC0DCF8003003403B4367
:10577000CCF800302B68134033432B602368134070
:105780000B432360BDE8F08301200322144BDFF8B4
:1057900078C003EBC4035B5D144C98409A40C0434F
:1057A000D243134D9F409E409940DDE701200322E4
:1057B000104BDFF850C003EBC4035B5D094C98400D
:1057C0009A40C043D243084D9F409E409940CBE74A
:1057D00020024140800441400021414000294140D5
:1057E00080690008103C41400C3C41401C3C414059
:1057F000183C4140686A0008001141409818414037
:1058000000354140083C4140143C414070B50546DC
:10581000EFF31082012383F31088224E336833B9EB
:105820002149D1F8043C43F04003C1F8043C3368FB
:105830000133336082F310882B88D3B1002406E053
:10584000FFF7C2FE2A880134A3B29A4211D96B68CD
:1058500003EBC402506853F83410B0F5803F1ED2F9
:10586000CB03EDD4FFF7DEFD01342A88A3B29A42C0
:10587000EDD8EFF31083012282F31088326812B161
:105880003268013A3260326832B90749D1F8042CE3
:1058900022F04002C1F8042C83F3108870BDFFF79A
:1058A00039FDCFE77C84000800304140002800F03B
:1058B000EE802DE9F04F0C4683B0002900F0AE8059
:1058C0004A680346002A00F0A580724A196891428E
:1058D00000F0D98020469C601A60FFF797FFA4680B
:1058E000EFF31082012383F310886B4D2B6833B9DB
:1058F0006A49D1F8043C43F04003C1F8043C2B68EA
:1059000001332B6082F31088002143F60C070A460E
:10591000A668DFF88CC1DFF884E101EB410006EBFB
:10592000400673880CEB01084FEA132918F807A00A
:10593000B9F1060F0AF0800ADBB200F08180B9F1FC
:10594000080F08BF4AF0100A96F8019043EA0A03CC
:10595000B9F1010F66D0367943EA4613DBB208F895
:105960000730A66816F81000012802D188401043BD
:10597000C2B201310429D0D1002043F602074FF012
:10598000010B0146464E0192626800EB800902EB72
:10599000090C22689CF803C012F810E04CEA0E0CC7
:1059A00006EB000E0EF5605888F800C0D4F804C06D
:1059B0004FEA40081CF809A0CC44BAF1010F1CD1F1
:1059C0000AFA00FA41EA0A0A5FFA8AF143F6020A81
:1059D0009CF801909CF802201EF80AA09CF804C0D4
:1059E00000F6F85306EB830383F824C00AF088031B
:1059F00043EA090343EA8203DBB2226802EB080CA4
:105A00009CF801C043EA0C13DBB20EF80730D0B9A2
:105A10000120B9E70A88002A3FF457AF012003B0FC
:105A2000BDE8F08F767909FA01F943EA46139EF84A
:105A30001068DBB246EA0906F6B28EF810688EE707
:105A40004AF0080A80E7019A8900144B41EA0211E2
:105A5000C9B283F81118EFF310838BF310882A680A
:105A600012B12A68013A2A602A6832B90B49D1F882
:105A7000042C22F04002C1F8042C83F3108800208B
:105A800003B0BDE8F08F0E2003B0BDE8F08F012019
:105A9000704700BF54524F507C8400080030414092
:105AA0000000414000BF70472DE9F04340F2422C16
:105AB00040F2FF3617491848184DDFF87080184C2F
:105AC000184FDFF86CE0B1F802900A884FEA89239A
:105AD000624508BF3246E145B1F8049008BF43462D
:105AE000E14508BFB94602EA050243EA020318BFCE
:105AF0004FEA0959234043EA090340F8043B704543
:105B000001F10601DFD10022074BC3F8042CBDE8E8
:105B1000F08300BF0868000800024040FF03F0FF68
:105B2000FFFF0FC00000F03F0000424000FC0F00EC
:105B3000AC024040704700BF022249F6F77008B53A
:105B4000104B1149C3F8D0201A6922F00C021A61D7
:105B5000DA68024042F0BF6242F40832DA605A6A00
:105B600042F400225A62D3F88C2042F44062C3F817
:105B70008C204B6B23F0E05343F080534B63FFF7D3
:105B8000D9FF08BD00ED00E000EF00E0024A034B42
:105B9000D2691A60704700BFD87B00088084000873
:105BA000234B70B4234A244C24492548C3E90022DE
:105BB000C3E902221C61234A234CC3E90B21C3E938
:105BC0000904C3E90D04C3E90F21C3E913125C659D
:105BD0009A651E4C1E4A1F4DC3E91742C3E919229C
:105BE0001D4E1E4CDA665A671D4AC3E90565C3E9B6
:105BF0000710C3E911011A67C3E91E22C3E9204255
:105C0000C3E92222C3F89020164A174CC3F89C20FF
:105C1000164AC3F89440C3E92820154C1548164A83
:105C2000C3E92A40C3F89850116070BC704700BFA8
:105C3000D87B000800D2496B8074D21A00C2EB0BEB
:105C400000E1F5050084D71780F0FA0200B4C4041F
:105C5000405973070008AF2F00131A4B286BEE0052
:105C600080098D25AA02E50F20EED9085581F2079B
:105C700000366E01003E490080840008FFF790BFA7
:105C8000014B53F820007047D87B0008A0F10100B9
:105C90000028FBD1704700BFF8B50546304B01FB2B
:105CA00005F5186800F012FA02460B462AA1D1E960
:105CB000000100F0AFFB0F464FF47A710646A5FBDA
:105CC000010189B900F046FA32463B4600F0A2FBDA
:105CD0000022244B00F09EFB00F084FC013088B3CE
:105CE000BDE8F840FFF7D2BF284600F0EFF90246C2
:105CF0000B463046394616461F460022194B00F027
:105D00005FFA02460B463046394600F083FB00F04E
:105D100089FC013041F100014A0143011B1A42EAAA
:105D2000D06262EB0102920042EA93729B001B1860
:105D300041EB0201C90041EA5371DB0019B9184671
:105D40000028CDD1F8BD4FF0FF342046BDE8F84023
:105D5000FFF79CBFAFF300800000000065CDCD4190
:105D60008084000800003E4008B500F00BF8FEF704
:105D700005F8FEE700BE704700BE704700BE7047E2
:105D800000BE70474FF47002154B70B50020C3F889
:105D90008820FDF717FDFFF703FF0120FDF712FD37
:105DA0001048114A0021121A00F05AFC0F4D104BF6
:105DB0005B1B002B07DD00249E1055F8043B0134CB
:105DC0009847A642F9DCFFF7E1FE0220FDF7FAFC56
:105DD000FFF768FEBDE87040002000F033B800BF58
:105DE00000ED00E0887C000884840008D46B000883
:105DF000D46B0008034B044AC2F80030FCF700BD26
:105E0000704700BF003000080C08434008B5094A3D
:105E1000094B9A60FFF732FF084B83F30888084B61
:105E200083F30A88FFF788FEFFF73EFEBDE80840CF
:105E3000FFF79ABF0030000800ED00E0D87B0008B3
:105E4000D86B0008704700BF81F0004102E000BF3E
:105E500083F0004330B54FEA41044FEA430594EA2A
:105E6000050F08BF90EA020F1FBF54EA000C55EA65
:105E7000020C7FEA645C7FEA655C00F0E2804FEA36
:105E80005454D4EB5555B8BF6D420CDD2C4480EA18
:105E9000020281EA030382EA000083EA010180EA48
:105EA000020281EA0303362D88BF30BD11F0004F96
:105EB0004FEA01314FF4801C4CEA113102D04042CC
:105EC00061EB410113F0004F4FEA03334CEA133307
:105ED00002D0524263EB430394EA050F00F0A7801F
:105EE000A4F10104D5F1200E0DDB02FA0EFC22FA1A
:105EF00005F2801841F1000103FA0EF2801843FA0E
:105F000005F359410EE0A5F120050EF1200E012AFE
:105F100003FA0EFC28BF4CF0020C43FA05F3C0183C
:105F200051EBE37101F0004507D54FF0000EDCF1B5
:105F3000000C7EEB00006EEB0101B1F5801F1BD35E
:105F4000B1F5001F0CD349085FEA30004FEA3C0C62
:105F500004F101044FEA445212F5800F80F09A8058
:105F6000BCF1004F08BF5FEA500C50F1000041EB5C
:105F7000045141EA050130BD5FEA4C0C404141EB60
:105F80000101013C28BFB1F5801FE9D291F0000F5B
:105F900004BF01460020B1FA81F308BF2033A3F10A
:105FA0000B03B3F120020CDA0C3208DD02F1140C01
:105FB000C2F10C0201FA0CF021FA02F10CE002F13C
:105FC0001402D8BFC2F1200C01FA02F120FA0CFC35
:105FD000DCBF41EA0C019040E41AA2BF01EB04517E
:105FE000294330BD6FEA04041F3C1CDA0C340EDC7C
:105FF00004F11404C4F1200220FA04F001FA02F3BF
:1060000040EA030021FA04F345EA030130BDC4F17C
:106010000C04C4F1200220FA02F001FA04F340EA71
:106020000300294630BD21FA04F0294630BD94F022
:10603000000F83F4801306BF81F480110134013D09
:106040004EE77FEA645C18BF7FEA655C29D094EA7A
:10605000050F08BF90EA020F05D054EA000C04BFF8
:106060001946104630BD91EA030F1EBF00210020E3
:1060700030BD5FEA545C05D14000494128BF41F082
:10608000004130BD14F580043CBF01F5801130BDE6
:1060900001F0004545F0FE4141F470014FF0000071
:1060A00030BD7FEA645C1ABF194610467FEA655C22
:1060B0001CBF0B46024650EA013406BF52EA0335C4
:1060C00091EA030F41F4002130BD00BF90F0000FB2
:1060D00004BF0021704730B54FF4806404F13204EE
:1060E0004FF000054FF0000150E700BF90F0000FA7
:1060F00004BF0021704730B54FF4806404F13204CE
:1061000010F0004548BF40424FF000013EE700BF9D
:1061100042004FEAE2014FEA31014FEA02701FBF2D
:1061200012F07F4393F07F4F81F06051704732F05F
:106130007F4208BF704793F07F4F04BF41F40021B6
:10614000704730B54FF4607401F0004521F0004114
:106150001CE700BF50EA010208BF704730B54FF09E
:1061600000050AE050EA010208BF704730B511F09F
:10617000004502D5404261EB41014FF4806404F1D7
:1061800032045FEA915C3FF4D8AE4FF003025FEA5D
:10619000DC0C18BF03325FEADC0C18BF033202EBE1
:1061A000DC02C2F1200300FA03FC20FA02F001FA3B
:1061B00003FE40EA0E0021FA02F11444BDE600BFDE
:1061C00070B54FF0FF0C4CF4E06C1CEA11541DBF8D
:1061D0001CEA135594EA0C0F95EA0C0F00F0DEF858
:1061E0002C4481EA030621EA4C5123EA4C5350EA3D
:1061F000013518BF52EA033541F4801143F480138E
:1062000038D0A0FB02CE4FF00005E1FB02E506F01E
:106210000042E0FB03E54FF00006E1FB03569CF073
:10622000000F18BF4EF0010EA4F1FF04B6F5007F79
:1062300064F5407404D25FEA4E0E6D4146EB0606EB
:1062400042EAC62141EA55514FEAC52040EA5E5074
:106250004FEACE2EB4F1FD0C88BFBCF5E06F1ED81E
:10626000BEF1004F08BF5FEA500E50F1000041EB55
:10627000045170BD06F0004646EA010140EA020002
:1062800081EA0301B4EB5C04C2BFD4EB0C0541EA24
:10629000045170BD41F480114FF0000E013C00F339
:1062A000AB8014F1360FDEBF002001F0004170BD5D
:1062B000C4F10004203C35DA0C341BDC04F1140476
:1062C000C4F1200500FA05F320FA04F001FA05F202
:1062D00040EA020001F0004221F0004110EBD370CF
:1062E00021FA04F642EB06015EEA430E08BF20EAFB
:1062F000D37070BDC4F10C04C4F1200500FA04F39E
:1063000020FA05F001FA04F240EA020001F000412F
:1063100010EBD37041F100015EEA430E08BF20EAA2
:10632000D37070BDC4F1200500FA05F24EEA020EEA
:1063300020FA04F301FA05F243EA020321FA04F019
:1063400001F0004121FA04F220EA020000EBD370D0
:106350005EEA430E08BF20EAD37070BD94F0000FD0
:106360000FD101F00046400041EB010111F4801F04
:1063700008BF013CF7D041EA060195F0000F18BFB5
:10638000704703F00046520043EB030313F4801FF1
:1063900008BF013DF7D043EA0603704794EA0C0FAB
:1063A0000CEA135518BF95EA0C0F0CD050EA4106C1
:1063B00018BF52EA4306D1D181EA030101F000413E
:1063C0004FF0000070BD50EA410606BF1046194666
:1063D00052EA430619D094EA0C0F02D150EA013672
:1063E00013D195EA0C0F05D152EA03361CBF1046B3
:1063F00019460AD181EA030101F0004141F0FE4152
:1064000041F470014FF0000070BD41F0FE4141F4D5
:10641000780170BD70B54FF0FF0C4CF4E06C1CEAD5
:1064200011541DBF1CEA135594EA0C0F95EA0C0F8A
:1064300000F0A7F8A4EB050481EA030E52EA033545
:106440004FEA013100F088804FEA03334FF0805566
:1064500045EA131343EA12634FEA022245EA111593
:1064600045EA10654FEA00260EF000419D4208BF44
:10647000964244F1FD0404F5407402D25B084FEAF1
:106480003202B61A65EB03055B084FEA32024FF49D
:1064900080104FF4002CB6EB020E75EB030E22BFFA
:1064A000B61A754640EA0C005B084FEA3202B6EBBA
:1064B000020E75EB030E22BFB61A754640EA5C0069
:1064C0005B084FEA3202B6EB020E75EB030E22BFF9
:1064D000B61A754640EA9C005B084FEA3202B6EBFA
:1064E000020E75EB030E22BFB61A754640EADC00B9
:1064F00055EA060E18D04FEA051545EA16754FEA1B
:1065000006164FEAC30343EA52734FEAC2025FEA38
:106510001C1CC0D111F4801F0BD141EA00014FF0C7
:1065200000004FF0004CB6E711F4801F04BF014398
:106530000020B4F1FD0C88BFBCF5E06F3FF6AFAEB4
:10654000B5EB030C04BFB6EB020C5FEA500C50F144
:10655000000041EB045170BD0EF0004E4EEA1131C7
:1065600014EB5C04C2BFD4EB0C0541EA045170BDCE
:1065700041F480114FF0000E013C90E645EA060E12
:106580008DE60CEA135594EA0C0F08BF95EA0C0F40
:106590003FF43BAF94EA0C0F0AD150EA01347FF488
:1065A00034AF95EA0C0F7FF425AF104619462CE75F
:1065B00095EA0C0F06D152EA03353FF4FDAE1046C2
:1065C000194622E750EA410618BF52EA43067FF413
:1065D000C5AE50EA41047FF40DAF52EA43057FF4A3
:1065E000EBAE12E74A0011D212F5001211D20DD50E
:1065F0006FF47873B3EB62520ED44FEAC12343F0C9
:10660000004343EA505323FA02F070474FF0000072
:10661000704750EA013002D14FF0FF3070474FF021
:1066200000007047D0B500220B4B06460F46FFF71F
:10663000C7FDFFF7D7FF0446FFF748FD0022074BD1
:10664000FFF7BEFD02460B4630463946FFF700FC19
:10665000FFF7C8FF2146D0BD0000F03D0000F0412B
:1066600070B5860747D0541E002A3ED0CAB20346F2
:1066700001E0013C39D303F8012B9D07F9D1032C2C
:106680002CD9CDB20F2C05EB052505EB054535D9E9
:10669000A4F1100C03F1100E1A462CF00F064FEA6D
:1066A0001C1CB644C2E90055C2E9025510327245BD
:1066B000F8D10CF1010214F00C0F04F00F0C03EBF5
:1066C000021213D0ACF1040323F003030433134488
:1066D00042F8045B9342FBD10CF003042CB1C9B225
:1066E0001C4403F8011BA342FBD170BD6446134652
:1066F000002CF4D1F9E703461446C0E71A46A44635
:10670000E0E700BF4275696C7420776974682052B5
:106710005A2F5620466C657869626C6520536F6607
:106720007477617265205061636B6167652076657F
:106730007273696F6E20342E302E3000342E302E5E
:106740003000000000000004A07C0008947C0008D9
:10675000B86B0008A47C0008606700083C6900086A
:1067600008000000A086010012000000010C610179
:106770006201DE00000000000000000000000000D8
:1067800041390008000000008C6700080101041C6A
:106790001C01DF00E100E000E200E300E47C00080F
:1067A000A867000808690008900000030A000000BC
:1067B00000000000120605ECFFFF0400DC67000883
:1067C000C467000800000000D06B00080000000053
:1067D000FD3C0008793D0008000000002100000099
:1067E000001000005C00000000800000DC000000E1
:1067F00000000100C7000000FFFFFFFF00000000D5
:106800000000000048670008640063004202420282
:106810004202420242024202420242024202420258
:106820004202420242024202420242024202420248
:106830004202420242024202420242024202420238
:106840004202420242024202420242024202420228
:106850004202420242024202420242024202420218
:106860004202420242024202420242024202420208
:1068700042024202420242024202420242024202F8
:1068800042024202420242024202420242024202E8
:1068900042024202420242024202420242024202D8
:1068A00042024202420242024202420242024202C8
:1068B00042024202420242024202420242024202B8
:1068C00042024202420242024202420242024202A8
:1068D0004202420242024202420242024202420298
:1068E0004202420242024202420242024202420288
:1068F0004202420242024202420242024202420278
:106900004202420242020000C93E00088D3D0008DA
:10691000913D00083D410008F1400008C5410008D4
:10692000C1430008794100084D430008D5420008E2
:10693000953D0008893D0008993D0008294A000856
:10694000BD46000851460008A94D0008154600083C
:106950009D440008D1440008C94B0008000440448D
:1069600000084044000C40440010404400144044DF
:1069700000184044001C4044002040440010C04126
:10698000F0F00000F0F0F0F0F0F0F0F0F000F0F0D7
:106990000204000000000000F0F0F0F0F0F0F0F071
:1069A0000608F0F002040608F0F0F0F0F0F0F0F065
:1069B000F0F0F0F0F0F0F0F0F0F0F0F00204060883
:1069C000F0F0F0F0F0F0F0F0F0F0F0F0F0F0F0F0C7
:1069D000F0F0F0F0F0F0F0F0F0F004020608000043
:1069E000F0F0F00000000000F0F0F0F0F0F0F0F057
:1069F000F0F0F0F0F0F0F0F0F0F0F0000000000047
:106A0000F0F0F0F0F0F0F0F0F0F0F0F0F0F0000066
:106A10000000000000000000F0F0F0F0F0000000C6
:106A2000F0F0F0F000000000F0F0F0F0F0F0F0F026
:106A3000F0F0F0F0F0F0F0F00000000000000000D6
:106A40000000000000000000000000000000000046
:106A50000000000000000000000000000000000036
:106A6000F0F0F0F000000000000204061012181A06
:106A7000080A0C0E141600001C1E00000000000086
:106A800000020406080A0C0E10121416181A1C1E16
:106A90000002080A1012181A04060C0E14161C1E06
:106AA0000002080A1012181A04060C1214161C1EF2
:106AB00000020406080A0C0E10121416181A1C1EE6
:106AC00000020406080A00000000000000000000A8
:106AD00000000000000000000000000000000000B6
:106AE00000000000000000000000000000000000A6
:106AF0000000000000000000000000000000000096
:106B00000000000000000000000000000000000085
:106B10000000000000000000000000000000000075
:106B20000000000000000000000000000000000065
:106B30000000000000000000000000000000000055
:106B40000000000000000000000000000000000045
:106B50001000000000000000017A5200027C0E01CB
:106B60001B0C0D00140000001800000000000000C5
:0C6B7000EC00000000024D0A430B000086
:046B7C000000000015
:106B80000100000000000000000000000000000004
:106B900000000000060000010000000000000000EE
:106BA000FF00000000000000000000006100000184
:106BB00000010000000000000000000600000000CE
:106BC00000060000000000060000000000060000B3
:046BD00006000000BB
:0400000508002809BE
:00000001FF
