:020000021000EC
:10000000B0151160DD280160E9280160D928016080
:10001000D9280160D9280160D928016000000000BA
:10002000000000000000000000000000D92801606E
:10003000D928016000000000D9280160D92801609A
:10004000D9280160D9280160D9280160D928016028
:10005000D9280160D9280160D9280160D928016018
:10006000D9280160D9280160D9280160D928016008
:10007000D9280160D9280160D9280160D9280160F8
:10008000D9280160D9280160D9280160D9280160E8
:10009000D9280160D9280160D9280160D9280160D8
:1000A000D9280160D9280160D9280160D9280160C8
:1000B000D9280160D9280160D9280160D9280160B8
:1000C000D9280160D9280160D9280160D9280160A8
:1000D000D9280160D9280160D9280160D928016098
:1000E000D9280160D9280160D9280160D928016088
:1000F000D9280160D9280160D9280160D928016078
:10010000D9280160D9280160D9280160D928016067
:10011000D9280160D9280160D9280160D928016057
:10012000D9280160D9280160D9280160D928016047
:10013000D9280160D9280160D9280160D928016037
:10014000D9280160D9280160D9280160D928016027
:10015000D9280160D9280160D9280160D928016017
:10016000D9280160D9280160D9280160D928016007
:10017000D9280160D9280160D9280160D9280160F7
:10018000D9280160D9280160D9280160D9280160E7
:10019000D9280160D9280160D9280160D9280160D7
:1001A000D9280160D9280160D9280160D9280160C7
:1001B000D9280160D9280160D9280160D9280160B7
:1001C000D9280160D9280160D9280160D9280160A7
:1001D000D9280160D9280160D9280160D928016097
:1001E000D9280160D9280160D9280160D928016087
:1001F000D9280160D9280160D9280160D928016077
:10020000D9280160D9280160D9280160D928016066
:10021000D9280160D9280160D9280160D928016056
:10022000D9280160D9280160D9280160D928016046
:10023000D9280160CD250160CD250160CD25016063
:10024000CD250160D9280160D9280160D928016035
:10025000D9280160D9280160D9280160D928016016
:10026000D9280160D9280160D9280160D928016006
:10027000D9280160D9280160D9280160D9280160F6
:10028000D9280160D9280160D9280160D9280160E6
:1006B000D9280160D9280160D9280160311A016068
:1006C000D9280160D9280160311A0160D928016058
:1006D000D9280160D9280160D9280160D928016092
:1006E000D9280160D9280160D9280160D928016082
:1006F000D9280160D9280160D9280160D928016072
:10070000D9280160D9280160D9280160D928016061
:10071000D9280160D9280160D9280160D928016051
:10072000D9280160D9280160D9280160D928016041
:10073000D9280160D9280160D9280160D928016031
:10074000D9280160D9280160D9280160D928016021
:10075000D9280160D9280160D9280160D928016011
:10076000D9280160D9280160D9280160D928016001
:10077000D9280160D9280160D9280160D9280160F1
:10078000D9280160D9280160D9280160D9280160E1
:10079000D9280160D9280160D9280160D9280160D1
:1007A000D9280160D9280160D9280160D9280160C1
:1007B000D9280160D9280160D9280160D9280160B1
:020000020000FC
:020000041001E9
:10FF800000FAEF7261F5EF726DF5EF725DF5EF72E9
:10FF90005DF5EF725DF5EF725DF5EF7269F5EF7289
:10FFA0000000000000000000000000005DF5EF729E
:10FFB0005DF5EF72000000005DF5EF725DF5EF7228
:02000004600199
:100000002DE9F0410446D0E902854068A8EB0507D8
:1000100097422844154408D80E463A46A5EB0805F1
:1000200003F0AEF82A466068F11903F0A9F8BFF3AF
:100030005F8FE560BDE8F0812DE9F8434FF00009DE
:10004000064688461746D0E902243369151B9C42B0
:1000500003F1FF3125BF03F1FF339B180B1B1B1B63
:10006000BD4228BF3D469D4228BF1D46706841469F
:100070002A46204403F084F8B2682C44A24208BF08
:100080000024A944A8447F1BBFF35F8FF460002FB6
:10009000DBD14846BDE8F883F8B5164CA82200210C
:1000A000204603F01BF94FF4806600230321102043
:1000B000114A124F124D21616161A261E76126620E
:1000C000A3626362E36222666566A0662367E366F5
:1000D0006367BFF35F8F0B4B9C46A3F11000ACEB43
:1000E000030213F9011D8342A154F8D1BFF35F8FBE
:1000F000F8BD00BFB806116000350160B80211609C
:10010000A8021160CC3E01602DE9F04FDFF8A89005
:10011000054699F800300F46532B144683B001D0A2
:10012000FFF7BAFF05EB450309EBC303D3F86CB047
:100130001E6F4FEA45085E451FD8ABEB060B5C45CA
:1001400028BF5C461CB9204603B0BDE8F08FA2462C
:1001500008EB050309EBC303596E384631442246C8
:1001600003F00EF82644BAF1000F04D0A84409EBBE
:10017000C808C8F870605446E5E79A6E596EA2EB5D
:10018000060AA24528BFA24631443846524601938A
:1001900002F0F6FF019B56449B6EA4EB0A04B342A7
:1001A00014BFABEB060B00265C4528BF5C46002C59
:1001B000D9D05744A244CBE7B806116010B50B461E
:1001C000EFF311844FF0200181F311881946FFF7F6
:1001D0009BFF84F3118810BD38B5214B00EB400420
:1001E00003EBC40EDEF82C40013000EB4000012C84
:1001F0008C46154603EBC00015D0022C0FD034BB43
:10020000DEF82830DEF8242093429CBFDEF8201070
:100210005B18013B9A1A95421CD9204638BDBDE8AF
:100220003840FFF709BFDEF82830DEF82440A3424B
:100230009CBFDEF820105B18013B1C1B944228BFBA
:10024000144661462246FFF7DBFE204638BD0024F7
:10025000204638BD2A466146FFF7D2FE2C46DCE731
:10026000B8061160F8B50B4B04461B780D46532BAE
:10027000164601D0FFF710FFEFF311874FF0200172
:1002800081F31188324629462046FFF7A5FF87F300
:100290001188F8BDB806116010B5064C2378532BB1
:1002A00001D0FFF7F9FEE36E206FC01A18BF0120DE
:1002B00010BD00BFB806116010B50446D0E9013288
:1002C000501C984207D8236899540246E168636835
:1002D0000131C4E902019A4200D010BD21682069B1
:1002E000FFF7C0FFA368984215BF4FF0FF3300230C
:1002F000E360A36010BD00BF2DE9F84F91420F46A7
:10030000DDE90A94154683461E4668D30B464FF036
:100310000108B3FBF5F39D4208F10108F9D9B04596
:1003200038BFB04614F0010A02D1B9F1000F3DD137
:10033000DBF80C30002B29DB012402E005FB04F480
:10034000013E012EFAD8B7FBF4F39D4205D805FB18
:1003500004F4B7FBF4F39D42F9D9224E06E0AC4217
:10036000B4FBF5F30CD31C46B7FBF3F3F156584638
:1003700004FB1377FFF7A0FFDBF80C30002BEEDA5D
:10038000BAF1000F02D0B9F1000F09D1BDE8F88F22
:1003900020215846FFF790FFDBF80C30002BF5DBEF
:1003A000C14509F1FF39F3D8BDE8F88FA30711D48F
:1003B00020240CE021465846FFF77EFFDBF80C3086
:1003C00009F1FF39002BE1DBB9F1000FB2D0C145D3
:1003D000F0D8ADE7002E0CBF30242024F7E74FF013
:1003E00001089CE7D03E01602DE9F04F0023402436
:1003F0009BB00DF12809CDE9049480460C461746C0
:10040000CDE90633089006E004A8FFF755FF079BE7
:10041000002BC0F2AE8014F9011B002900F0A1806E
:100420002529F1D10026234613F9011BA1F123024E
:100430000D2A08D8DFE802F080070707070707073B
:100440007C0784070778A1F13002D2B2092A4FF065
:10045000000501D90EE0013305EB850501EB4505EB
:1004600093F900101C46A1F13002D2B2092AA5F17D
:100470003005F0D92E2900F080800022924694F9B0
:10048000001021F00403682B04F101045CD025293D
:10049000BAD05839CBB2202BB9D82029B7D801A36C
:1004A00053F821F0C90501600F0401600F040160D9
:1004B0000F0401600F0401600F0401600F0401606C
:1004C0000F0401600F0401600F0401600F0401605C
:1004D000E50501606D0601600F0401600F04016015
:1004E0000F0401600F0401600F0401600F0401603C
:1004F0000F0401600F0401600F0401600F0401602C
:100500000F0401604F0601600F0401600F040160D9
:10051000130601600F040160F90501600F0401601A
:100520000F040160C90501601C4646F002067AE727
:100530001C4646F0040676E71C4646F0080672E7BD
:100540001C4646F001066EE714F9011B21F0040376
:10055000682B9CD114F9011B21F00403682B96D160
:10056000F2E7079B002B04DD069C002C40F0B280D4
:10057000234418461BB0BDE8F08F94F901102A29D6
:1005800009D13B684FF0010A1A1D3A6094F9021034
:100590001A68023475E7A1F13003DBB2092B4FF082
:1005A000000204F1010400F2E18002EB820201EB9F
:1005B000420214F9011F303AA1F13003DBB2092BDA
:1005C000F3D94FF0010A5CE7134610223968081D81
:1005D000386009680DEB0200CDE90056FFF78CFE8C
:1005E000079B15E73B6804A81A1D3A6093F90010B1
:1005F000FFF762FE079B0BE739681346081D38605A
:1006000009680A22CDE9005604A8FFF775FE079B8A
:10061000FEE63B68191D39601D68002D00F08D80D5
:100620000132AE1815F9011B00293FF4F0AEBAF102
:10063000000F02D0B5423FF4EAAE04A8FFF73CFE3B
:10064000079B002BEEDA18461BB0BDE8F08F08239D
:100650000020102239680D1D3D600968CDE9003089
:100660000DEB0200FFF748FE079BD1E63B684FF019
:10067000010A191D3960D3F800B08BEAEB73A3EBC4
:10068000EB73092B09DD4A481946A0FB03C3632914
:100690000AF1010A4FEAD303F6DC924538BF9246CD
:1006A0000DBB079900250B460029FFF662AFBBF191
:1006B000000F46DB730752D406F00303022B57D01A
:1006C000134659460A22CDE9005604A8FFF714FE46
:1006D000079B9DE62246494640460393FFF7C2FD2D
:1006E000039B234445E7BBF1000F06F002031BDB2D
:1006F000710719D4002B53D09AB1F3070FD510E02E
:10070000202104A80392FFF7D7FD0799039A002937
:100710000B4605F1FF35FFF62CAF002DC4D0AA45DE
:10072000EED307990B46BFE7013D0BB1002AF8D085
:10073000F107F6D4002DF2D1B3E74FF0000A1D4DBA
:100740006EE72D2104A80392FFF7B6FD039ACBF1C3
:10075000000B079900290B46FFF60BAFACE72B21E6
:1007600004A80392FFF7A8FD039AF2E7924688E6F1
:10077000002AA5D1002DA3D0554517D9302104A8B2
:100780000392FFF799FD0799013D00290B46FFF6FB
:10079000F0AE039A002DEFD10029FFF6EAAE8FE705
:1007A000F007BCD5079B002B8ADAE2E60B46F3E79D
:1007B000CDCCCCCC0C3501600EB400B582B003AB0F
:1007C00053F8041B01AA0193FFF70EFE02B05DF877
:1007D00004EB03B0704700BF30B5002489B003A814
:1007E000CDE90344CDE90544079401F0FBFF9DF8F2
:1007F0000D304C4A01939DF80E304B490093204632
:100800009DF80F30FFF7D8FF48492046FFF7D4FF87
:1008100000F0B8F800284ED0054645492046FFF7BD
:10082000CBFF2A4620464349FFF7C6FF00BE424998
:100830000020FFF7C1FF41490020FFF7BDFF4049FD
:100840000020FFF7B9FF00203E49FFF7B5FF002465
:10085000032C2AD0FFF720FD0028FBD01022002017
:100860000DEB0201FFF7AAFC04A802F005FDC4B2DB
:10087000022C24D0032C09D0012C31D100F0B6F881
:100880000546002849D000202F491EE000F000FB5B
:10089000044600283DD02D490020FFF78DFF224659
:1008A00024490020FFF788FF00BE29490020FFF7F8
:1008B00083FF09B030BD2749FFF77EFFB7E700F09F
:1008C000BFF90546E8B100202349FFF775FF00F0A6
:1008D00017FB2A4617490020FFF76EFF00BE13E002
:1008E00015490020FFF768FF14490020FFF764FF57
:1008F00013490020FFF760FF12490020FFF75CFF5B
:10090000A6E71649FFF758FF15490020FFF754FFE7
:100910009EE71449FFF750FFC7E71349FFF74CFF65
:10092000F2E700BF143501601C3501603837016003
:10093000603801607C380160BC380160E4380160D7
:10094000083901602439016038390160C839016013
:100950000C3A01609C38016084390160A43901605F
:10096000343A0160E83901605C390160022800D046
:1009700070470249024801F06DBA00BF844001602F
:100980006409116010B51149114800F053FE98B97F
:100990001049114800F04EFE044608B9204610BD2B
:1009A0000B4800F03FFC48B90C4B0D4A0D490020A4
:1009B000FFF702FF204610BD0446F5E70A4B084A40
:1009C00008490020FFF7F8FEEEE700BF3C3F01605A
:1009D00098091160E03F0160000A1160683A016007
:1009E000243F0160883A0160A43A01602DE9F04794
:1009F000802200217A4802F071FC8022002179488F
:100A000002F06CFC80220021774802F067FC002095
:100A10007649FFF7D1FE724D754CFFF73DFC00287B
:100A2000FBD0802200202946FFF7C8FB034618B9F7
:100A30002146FFF7C1FEF0E75C1E0020684A6D49C1
:100A4000FFF7BAFEA60814F003047FD001361F2377
:100A500032466549684800F0B3FF8046002878D1E7
:100A60001F2332465E49654800F0C6FF80460028D5
:100A700040F08B80624C634D634F0CE02368013B78
:100A800023602368002B00F089802B78022B69D02B
:100A90003B78022B66D02B78012BEFD13B78012BD2
:100AA000ECD16FF07F434FF000094F4A57490020C7
:100AB0002360FFF781FE5649484685F8009087F885
:100AC0000090FFF779FE1F23324647494A4800F05D
:100AD00093FF8046002858D11F233246414947489A
:100AE00000F06EFF804660B133E02368013B236075
:100AF0002368002B52D02B78022B33D03B78022B6B
:100B000030D02B78012BF0D13B78012B5FFA83FAA0
:100B1000EBD14FF000096FF07F433E494846236018
:100B200085F8009087F80090FFF746FE32462D4981
:100B30002B4802F0A5FB002843D12A4A3649FFF78B
:100B40003BFE5046354901F05FFE08E045F826407F
:100B50007DE70020324B334A3349FFF72DFE4046F4
:100B6000BDE8F0874FF49678304B2E4A2E4900208E
:100B7000FFF722FE2E490020FFF71EFE2D49002020
:100B8000FFF71AFE4046BDE8F0872B4B254A264961
:100B90000020FFF711FE4046BDE8F0874FF0140833
:100BA000224B204A20490020FFF706FE2049002062
:100BB000FFF702FE1F490020FFF7FEFD4046BDE89B
:100BC000F0871E494846FFF7F7FD19494846FFF7E9
:100BD000F3FD48461749FFF7EFFD40F22F18BEE737
:100BE000E00811606008116060071160C43A01609C
:100BF000283B0160143B0160000A116098091160F4
:100C0000000011606109116060091160E43B01603E
:100C1000F83B01602C3C01605C3C016040420F00ED
:100C2000383B0160103F0160883A0160703B016011
:100C3000A03B0160CC3B0160543B0160883C0160FB
:100C40002DE9F041802282B00021784802F046FB75
:100C500080220021764802F041FB80220021754865
:100C600002F03CFB80220021734802F037FB002099
:100C70007249FFF7A1FD6D4D714CFFF70DFB002888
:100C8000FBD0802200202946FFF798FA18B92146A8
:100C9000FFF792FDF1E7431E9C0813F0030371D0A8
:100CA000013400206749FFF787FD624D644EFFF76E
:100CB000F3FA0028FBD0802200202946FFF77EFAB5
:100CC00018B93146FFF778FDF1E7431E13F0030230
:100CD00002D19B0845F823201F252346564A554933
:100CE0005948009500F08EFC064600284DD1234659
:100CF0004F4A4E495548009500F084FC06460028AE
:100D000043D1534A534954480BE01368013B1360E5
:100D10001568002D57D00B78022B40D00378022B9A
:100D20003DD00B78012BF0D10378012BDDB2ECD153
:100D300000276FF07F4313600F70484907703846F3
:100D4000FFF73AFD46493846FFF736FD2246384957
:100D5000384802F095FA8046002847D1344A414984
:100D6000FFF72AFD22463449304802F089FA00286C
:100D70004DD1314A3C49FFF71FFD28463B4901F060
:100D800043FD08E045F824308BE70020384B394A12
:100D90003949FFF711FD304602B0BDE8F0814FF44C
:100DA0009676364B334A34490020FFF705FD344927
:100DB0000020FFF701FD33490020FFF7FDFC30461E
:100DC00002B0BDE8F08114262C4B2A4A28462A4955
:100DD000FFF7F2FC28462A49FFF7EEFC284629498E
:100DE000FFF7EAFC304602B0BDE8F081264B214A0D
:100DF00021493846FFF7E0FC21493846FFF7DCFC83
:100E000038462049FFF7D8FC40F22F16C3E71F4BA6
:100E1000184A40461849FFF7CFFC40461849FFF7EB
:100E2000CBFC40461749FFF7C7FCEDE7E00811602F
:100E300060081160E007116060071160C43A01604A
:100E4000283B0160C03C0160000A116098091160F4
:100E5000000011606109116060091160603D01606E
:100E6000903D0160C03D0160303E016040420F0096
:100E7000103D0160003F0160883A0160303D016033
:100E8000A03B0160CC3B0160E83D0160583E016041
:100E900010B50A4800F0C6F930B9094800F0C2F9A7
:100EA000044610B9204610BD0446064B064A0749C1
:100EB0000020FFF781FC204610BD00BF980911609B
:100EC000000A1160A03E0160F03E0160883A0160B6
:100ED0000379012B03D00222024B1A707047014A9A
:100EE00013707047610911600379012B03D002224E
:100EF000024B1A707047014A137070476009116005
:100F000010B50E4800F08EF920B90D4800F08AF9AE
:100F100058B910BD00200B4B0B4A0C49FFF74CFC95
:100F2000074800F07FF90028F3D0BDE8104000200A
:100F3000044B054A0549FFF73FBC00BF9809116003
:100F4000000A1160A43A0160E03E0160883A016045
:100F5000014800F095BD00BF000A1160014800F093
:100F60008FBD00BF98091160014800F08BBD00BF24
:100F7000000A1160014800F085BD00BF98091160AA
:100F800008B5FFF729FC002008BD00BF90F820102D
:100F9000C369026B01FB0333B2EBD30F4FEAD301FA
:100FA00016D91729C26814D9416892F82030896986
:100FB00003F0F803002914BF002105210B4382F838
:100FC0002030704792F8203003F0F80382F8203088
:100FD00070470F290FD807291BD9416892F8203094
:100FE000896903F0F803002914BF002103210B4392
:100FF00082F820307047416892F82030896903F008
:10100000F803B1FA81F1490943EA810382F82030FB
:10101000704704290FD81CD00129D3D9416892F810
:101020002030896903F0F803002908BF43F0010369
:1010300082F820307047416892F82030896903F0C7
:10104000F803002914BF002107210B4382F8203048
:101050007047416892F82030896903F0F803B1FACB
:1010600081F1490943EA410382F82030704700BF0B
:1010700030B4C16890F820C04D8CBCF1070FC5F3A7
:10108000032583690269C5F1080435D0BCF10F0F4F
:1010900018D0A40843D04BB31C1B4AB152F8045BD0
:1010A000013BA3424D6008D0EBB1C168002AF5D1E5
:1010B0001546013BA3424D60F6D102618461A4B1A3
:1010C00030BC704764082AD083B11C1B4AB132F887
:1010D000025B013BA3428D80EFD023B1C168002A9F
:1010E000F5D11546F5E702618361C1680B7803F01D
:1010F000DF030B7030BC70478CB1002BF6D0083D7D
:10110000EC1852B112F8015B013B9C420D71D4D036
:10111000002BE8D0C168002AF4D11546F4E71C463C
:10112000CBE700BF30B5836A85B004468C4601AD7D
:10113000ABB193E8070085E80700626818461278AB
:1011400083F804C01A60E26A9A60636A9847A36AE7
:101150001BB195E8070083E8070005B030BD2B46BA
:10116000EBE700BF10B5C16890F820C04C8CBCF113
:10117000070FC369426904F03F0427D0BCF10F0F89
:1011800014D0A4084BD0002B34D01C1B01E07BB33F
:10119000C1684968013B0AB142F8041B9C42F6D180
:1011A0004261C461FFF7F2FE34B310BD640836D06B
:1011B00003B31C1B01E0DBB1C1688988013B89B224
:1011C0000AB122F8021BA342F5D1E9E73CB38BB187
:1011D0001C1B013B02E0591C1BD0C1680979C9B234
:1011E0000AB102F8011BA34203F1FF33F3D1D7E7A1
:1011F0004261C361FFF7CAFE0024C268012113786F
:1012000003F07F03137080F83440BDE81040FFF70F
:1012100089BF00234261C361FFF7B8FEECE71C46BB
:10122000BEE700BF002800F08E8038B5474B02684B
:1012300004469A4240F085800022436802609A6921
:1012400022B1936810681B6A984763685A6922B193
:10125000936810681B6A98476368B3F90420002AF2
:101260000EDB01213A48530902F01F02203301FA34
:1012700002F240F82320BFF34F8FBFF36F8F6368F4
:10128000B3F90220002A0EDB01213148530902F094
:101290001F02203301FA02F240F82320BFF34F8FE0
:1012A000BFF36F8F63680122B3F9083028485909EA
:1012B00003F01F03203102FA03F340F82130BFF39B
:1012C0004F8FBFF36F8F0020E1680B7823F040034E
:1012D0000B70E368D978D870EFF3108082F3108830
:1012E00063681B78934224D91A4A1B4D2A606268AE
:1012F000194B1178194A012998BF13461B6880F3CE
:101300001088EFF3108C012383F310886168A2F634
:101310006432097803FA01F10904C2F89015616892
:1013200009788B40D2F810071840FBD18CF3108855
:1013300038BD4FF6FF710E339A40084D41EA024224
:10134000D4E7072038BD0120704700BF49505352F1
:1013500000E100E0FFFF0100680B0141640B014167
:1013600070B59DF810C0BCF11F0F00F2EB801D4658
:101370009F4B23FA0CF3DB0740F1E48090F8343004
:101380000E46044603F0FF01002B40F00481C0E943
:101390000462C0E90655436880F820C098690028B7
:1013A00035D0E1619B695B681B68DD6094F8203093
:1013B0000F2B40F2C98063689B695B681968022340
:1013C00005FA03F0C86061688969496809680B74A7
:1013D00061688969496809684B74002163689B6981
:1013E0005B681B68197063689B695B681B689A601F
:1013F000002A00F0D28063689B695A6818681168F7
:101400009A6853689847002840F0868063685A6954
:10141000002A34D00022A2615B695B681B68DD6032
:1014200094F820300F2B00F29C806168072B4969EB
:101430004968096800F2D0800A7463685B695B6878
:101440001B685A74002263685B695B681B685A708A
:1014500063685B695B681B685E60002E00F0AA80B1
:10146000E268137823F02003137063685B69D3E9A3
:101470000112186809685268904700284CD1E16849
:1014800094F82000CA7A0B8A07289BB202F09F02C8
:1014900023F4706300F09B800F2807BF42F04002E6
:1014A00043F4706342F0600243F44073D2B2CA72F4
:1014B000E2689BB2138294F82030A268072B127A5C
:1014C0002DD00F2B29D0012A29D8042102226368AC
:1014D00021639B69E168002B18BF002291F820303E
:1014E000204603F0F8031343DBB281F82030FFF706
:1014F0004DFDFFF7BDFDE268A1691378DBB211B9BC
:101500006168496909B143F020030121002043F0DB
:10151000C00384F83410137070BD002A38D0062A36
:101520006ED801A353F822F0E51501609115016012
:10153000CB140160E1150160FD150160E915016042
:10154000ED150160032070BD6068072B806940685D
:10155000006818D8017463689B695B681B685974DC
:101560003BE7022362689D40526952681268D56069
:1015700062685269526812681374626852695268EC
:10158000126853745EE7012305FA03F1C1601AE79C
:10159000022101229BE7082070BD01216368154AE2
:1015A0009B695B681B68197063689B695B681B6853
:1015B0009A6020E7012163680F4A5B695B681B68DA
:1015C000597063685B695B681B685A6048E742F062
:1015D000200243F4E06369E701239D40CD60C7E743
:1015E000082174E7012172E7182170E720216EE7D6
:1015F000808000806C0A1160680A1160102166E723
:10160000052164E7F0B49DF8107051B14AB140B1C2
:101610000568074CA54207D11BB10497F0BCFFF742
:101620009FBE0120F0BC70470720F0BC704700BF90
:10163000495053522DE9F04F83B0002800F05B81F0
:10164000B94B026804469A4200F080810E46002998
:1016500000F051814B6A002B00F04D8107230A787E
:101660001341DB0740F16C81B1F90830002BC0F267
:10167000428100224160C969AC4B4162316AC1625A
:10168000716A82628160317880F8342003EB8123B3
:10169000C360EFF31080012282F310886368A449CD
:1016A0001B7802FA03F343EA0343C1F890356368F9
:1016B0001B789A40D1F810371342FBD080F3108882
:1016C000EFF31081012383F31088626812789A4245
:1016D00040F216814FF48033964A13606268954B4E
:1016E0001078954A012898BF13461B6881F310882B
:1016F000EFF31080012383F310886268127803FAF5
:1017000002F242EA02418A4AC2F8901861680978F6
:101710008B40D2F8105A1D40FBD180F31088E3684B
:101720001D706268917B012900F03A81B1FA81F75E
:101730007F09FB000193D07BD2F82480A0F1010047
:10174000B0FA80F098F800A0137CAAF1010ABAFA66
:101750008AFA012B937C4FEA501008BF40F0020038
:10176000012B98F8073098F8019003EA070308BFA7
:1017700040F48050DB014FEA5A1AB9F1000F06D04D
:10178000B9F1020F0CBF4FF030094FF0200998F863
:10179000037007F0030743EA87030343002900F0BF
:1017A000BA8000218C468E4643F4E0635269002AD9
:1017B00000F0FA804FF0F00B30229FB20023E06877
:1017C00080F820B0E06890F803B0C370E06880F85B
:1017D00001A0E06880F80290E06898F8028080F844
:1017E0000A80E068C372E06880F80CE0E06880F886
:1017F0000DC0E0688173E1680F82E1680B72E368F5
:1018000083F82020E368019A1A706368B3F9042012
:10181000002A80F2A080494FB3F90220002A22DB7F
:1018200093F90A10987A0029B8BFFE204FF0010101
:10183000A8BF40004FEA521302F1604CA8BFC0B2EB
:101840000CF5614C9B008CF8000303F1604347F8F2
:10185000224002F01F0203F5614301FA02F2C3F8CD
:1018600080211A60636893F90D10587B0029B8BF76
:10187000FE204FF00101B3F90820A8BF40004FEA55
:10188000521302F1604CA8BFC0B20CF5614C9B0032
:101890008CF8000303F1604347F8224002F01F0276
:1018A00003F5614301FA02F2C3F880211A60E3688C
:1018B000776903F1040857B17B681B68C3F8088097
:1018C000BB68D7E900011B689847002873D1B3694A
:1018D000DBB15A681268C2F804809A68D3E9000143
:1018E00012689047064680B11FB1BB6838681B6A12
:1018F0009847354600E00125284603B0BDE8F08F43
:101900000E3293401B040C4AE7E62846064B236040
:1019100003B0BDE8F08F98F804E098F805C098F897
:10192000061043F4674341E74950535200AC04406A
:1019300000000141680B0141640B0141F00A116094
:1019400040F27A55284603B0BDE8F08F0E252846B0
:1019500003B0BDE8F08F93F90B10D87A0029B8BF17
:10196000FE204FF00101A8BF4000144F4FEA521370
:1019700002F1604CA8BFC0B20CF5614C9B008CF822
:10198000000303F1604347F8224002F01F0203F511
:10199000614301FA02F2C3F880211A6063683BE7F1
:1019A00010232F460193C6E698F809201201D2B2FF
:1019B00042F0C00B01E705469EE700BFF00A116048
:1019C00099B130B583B068B11D460468094B9C429B
:1019D0000DD13AB1134600950A460021FFF7C0FC2D
:1019E00003B030BD012003B030BD01207047072097
:1019F00003B030BD4950535291B130B583B060B19E
:101A00001D460468094B9C420CD132B11346009527
:101A10000022FFF7A5FC03B030BD012003B030BDAC
:101A200001207047072003B030BD00BF495053521A
:101A300038B5EFF303830021C3F308030F4A103BCB
:101A40001BB252F82340E268137823F0400313706E
:101A5000E268D378D170DA07DDB202D46B0706D41E
:101A600038BD04212046FFF75DFB6B07F8D5204603
:101A7000BDE838400321FFF755BB00BFF00A1160F5
:101A8000FFF7F6BAFFF76EBB2DE9F0410324012200
:101A9000C0F3072EAEF10203C0F3850C264F2040A1
:101AA0000CEB430C5FFA8CFC00FA04F304FA03F02D
:101AB00057F82C409A4024EA0208C1F380449C4025
:101AC0001E4E44EA080447F82C4056F82C70C1F327
:101AD000812427EA00079C40194D3C4346F82C40DE
:101AE00055F82C60C1F3404426EA02069C4034437A
:101AF000BEF1010F45F82C401BD1D243C043114C1D
:101B0000C1F3C045A6689D4032402A43A260D4F884
:101B10000854C1F3015205409A402A43C4F80824EE
:101B2000D4F80828C1F38151104099400143C4F80A
:101B30000818BDE8F08100BF1018034110100341E0
:101B400010140341002003410122C3B29A40F0B5B2
:101B5000D5B2FF2D3C4EC0F30724C1F3004C08D092
:101B6000A55D0CFA03FC25EA020242EA0C025FFAC8
:101B700082FC4FF0070E032204F806C04FF0010C60
:101B8000324F9E00C1F30265B5400EFA06FE57F8CB
:101B900024609B0826EA0E0E03EB44032C4E45EA14
:101BA0000E0547F82450DBB200F0030056F823502E
:101BB000C0008240C1F3812425EA020584402C4301
:101BC00046F8234006F5406656F82350C1F3011449
:101BD00025EA020584402C4346F82340A6F500661A
:101BE00056F823500CFA00FCC1F3404425EA0C05DA
:101BF00084402C4346F8234006F5406656F82350AF
:101C0000C1F3C044844025EA0C0C44EA0C0446F8B5
:101C10002340104CC1F3015CC1F381510CFA00FC6C
:101C2000814054F8230020EA02004CEA000044F806
:101C3000230004F5806454F8230020EA02021143D3
:101C400044F82310F0BD00BF1002034140040341DB
:101C500080100341802403414FF0010CC3B20CFA01
:101C600003FC2DE9F04F5FFA8CF6FF2E4A4FC0F3CC
:101C70000722C1F3004405D0D55D9C4025EA0C0540
:101C80002C43E4B2D45503244FF6FF785D00AC40FA
:101C90001FFA84F9C145414FC1F3810E0BD00EFAF2
:101CA00005F537F812E01FFA8EFE2EEA040E4EEA12
:101CB000050E1FFA8EFEFF2E27F812E001F0010438
:101CC000374F05D0D55D9C4025EA0C052C43E4B286
:101CD0004FF0030C4FF0010E9B08324D03EB420313
:101CE000D455DBB200F0030055F823B0C0000CFA65
:101CF00000FCC1F3812A0AFA00FA2BEA0C0BDFF888
:101D0000A8904AEA0B0A45F823A059F82350C1F3DA
:101D1000011808FA00F825EA0C05244F48EA0505E1
:101D200049F8235057F823500EFA00FEC1F38034CF
:101D3000844025EA0E052C431D4E47F8234056F8F3
:101D40002340C1F3C042824024EA0E042243194DCD
:101D500046F8232055F82340C1F30152824024EA7B
:101D60000C042243144C45F82320C1F38152C1F3E3
:101D700040418240814054F8230020EA0C00024395
:101D80000E4844F8232050F8232022EA0E02114383
:101D900040F82310BDE8F08F1002034120010341F9
:101DA0001000034180100341801C0341802C03413B
:101DB0008020034180240341802803418014034193
:101DC00070B50546EFF31082012383F310881F4E90
:101DD00033681BB91E490B7540230B7533680133FB
:101DE000336082F310882B88D3B1002406E0FFF71C
:101DF000ABFE2A880134A3B29A4211D96B6803EB77
:101E0000C402506853F83410B0F5803F1BD2CB03A6
:101E1000EDD4FFF721FF01342A88A3B29A42EDD80E
:101E2000EFF31082012383F31088336813B1336812
:101E3000013B336033681BB9802005490B75087579
:101E400082F3108870BDFFF71FFED2E77012116099
:101E500000300341A0B199B14A6808B5034652B1B8
:101E6000094A186890420DD008461A609960FFF739
:101E7000A7FF002008BD0A88002AF1D0012008BD74
:101E8000012070470E2008BD54524F50062082B0EA
:101E900001910092019B009B02B070478446002094
:101EA000CCE90432CCF80C10704700BF0221D0E915
:101EB000013230B45C686378DD0803F0070303EB9C
:101EC000051302EB831291628268990102EB83127F
:101ED000536A5B07FCD4082340F2FF3C93622278EC
:101EE0006378134DD20002EB530255F8225003F0F1
:101EF00001031B010CFA03F22B6823EA02032B6097
:101F000063788268DC0803F0070303EB041302EB39
:101F10008312D36A23F4EE6343F00403D36283682D
:101F20000B44DA6A42F08072DA6230BC704700BF5C
:101F3000D040016050B108B5054A0368934201D012
:101F4000072008BDFFF7B2FF002008BD0120704741
:101F500043414D4430B5036983B004460A466D469B
:101F60008BB193E8030085E803001A706269184694
:101F70005A60E368984723691BB195E8030083E83A
:101F8000030003B030BD2B46EFE700BF2DE9F84357
:101F90000F4643688046D3F8049099F80150FFF744
:101FA00085FF3C7C7B7C24031B0403F47023A4B2D8
:101FB0001C437B7899F818201B0503F480131C43FD
:101FC0003B78EE085B0503F400131C43BB7805F077
:101FD00007059B0503F480031C4399F8013002F0C8
:101FE000010203F007031C4399F81230DB0003F0F1
:101FF00008031C4399F811301B0103F070031C43C4
:1020000099F80C301B0203F4E0631C4399F8143078
:102010002BB15B0703F0C043234343F08074D8F82F
:10202000083005EB061503EB8623C3F80023786818
:1020300000F02CFBD8F80830AD015851B86800F01A
:1020400025FBD8F808302B445860D8F80830FA68D7
:102050002B449A60D8F808302B44DC62D8F808305A
:10206000B9F816202B441A6399F814300BB9BDE85F
:10207000F883786900F00AFBD8F808302B44D86060
:10208000B86900F003FBD8F808302B441861D8F881
:102090000830FA692B445A61BDE8F8832DE9F04114
:1020A00084B00391029200283ED02A4A0168044677
:1020B000914213D1D0E9011249684978C80801F06A
:1020C000070707EB001102EB81128D01516A06012F
:1020D000C90702F1200005D4002000E0072004B069
:1020E000BDE8F081D26A5200F6D44268019313062B
:1020F0000398DDF808801BD500F0C8FA0246A168F5
:1021000040464A5100F0C2FAA268019B2A4450603E
:10211000A2682A449360A368F01903EB8013DA6A7B
:1021200042F08042DA62D7E7012004B0BDE8F081D6
:1021300000F0ACFA0146A26840462A44D16000F0A3
:10214000A5FAA268019B2A441061A2682A4453613F
:10215000E1E700BF43414D44A0B10B4B02689A42F6
:102160000ED1D0E9013204215B685B78D80803F016
:10217000070303EB001302EB8313002099627047FF
:10218000072070470120704743414D44002832D05A
:102190001A4B02689A4228D110B54FF48074D0E9E6
:1021A00001315B685A78D30802F0070C0CEB031E70
:1021B00001EB8E1294628268190102EB8E12536A4F
:1021C000DB0714D5536A1C07FCD50224946282688D
:1021D00001EB0C0302EB8312536A5B07FCD4936A96
:1021E000002043F00803936210BD072070470823C6
:1021F0009362002010BD0120704700BF43414D4451
:10220000E0B103460F4A0068904219D1B1B110B451
:102210004FF0FF345A68002052685278C1E90044F8
:102220008C609B684FEAD20C02F0070202EB0C12A2
:1022300003EB82131B6A10BCCB6070470120704710
:102240000720704743414D4400285CD02F4B016864
:102250000246994255D170B443682D485C68022506
:1022600023786178DB0003EB510350F8236040F2E0
:10227000FF3001F0010C33684FEA0C1C00FA0CF03F
:1022800023EA000333606378C80801F0070101EB1B
:102290000010D90803F0070303EB0113916801EB69
:1022A0008311CB6A23F4EE6343F00403CB6293689B
:1022B00003EB80139D62916801EB80114B6AC3F3BD
:1022C00080005B07FAD408238B62B4F90230002B3C
:1022D00012DB0125590903F01F0305FA03F30D4D25
:1022E000203145F82130BFF34F8FBFF36F8F0A4B7A
:1022F000B4F9021043F8210000231360184670BCA3
:102300007047072070470120704700BF43414D448C
:10231000D040016000E100E0F00A116070B5436850
:102320005B6893F801C0EFF3108E012282F31088EE
:1023300040F2FF3419785A783B4DC90001EB520145
:1023400055F8215002F00102198912019140944080
:102350002A6822EA04020A432A605A789968D40853
:1023600002F0070202EB0412846804EB8214E56AAF
:102370000A0A090D01F0700102F4E06225F4EE652D
:102380000A432A43E2628EF31088B3F902204FEA2F
:10239000DC01002A0CF0070C15DA83680A010CEB4B
:1023A000011103EB8113D96A41F08071D9620824CD
:1023B00001218368944403EB8C139C62836803EBD4
:1023C0008C13996270BD84680CEB011204EB8214CB
:1023D0000A01E16A154E21F08071E16293F904402F
:1023E0001D79002CB8BFFE254FF00104B3F902108F
:1023F000A8BF6D004FEA511301F1604EA8BFEDB2C6
:102400000EF5614E9B008EF8005303F1604346F8D1
:10241000210001F01F0103F5614304FA01F1C3F843
:1024200080111960C3E700BFD0400160F00A11605D
:1024300070B5002868D03A4B026805469A426AD0C7
:10244000002961D04E68002E5ED073780F2B5ED8C5
:10245000F3691BB1B6F90230002B5FDB0B68002B70
:1024600052D0327D42B15A69002A4DD09A69002A71
:102470004AD0DB69002B47D0002369603078294AB5
:1024800052F82020AA60F269EA60326AC5E9043293
:10249000EFF31080012383F310884FF00313224AD7
:1024A000C2F82C35D2F8AC369B07FBD080F31088ED
:1024B000EFF31080012383F310884FF44024C2F817
:1024C000804BD2F8804B80F31088EFF3108083F3B9
:1024D00010884FF00313C2F82C38134AD2F8AC49D5
:1024E00014F00304FAD180F3108828460968FFF736
:1024F0004DFD0B4B0D4A2B6031787378204603EB72
:10250000011342F8235070BD0124204670BD40F2F3
:102510007A54204670BD0E24204670BD0B24F4E78B
:1025200043414D443C41016000000141700A11608B
:1025300048B310B5154B026804469A4221D1F1B157
:1025400043685B68DBB11B7D2BB14B69BBB18B6909
:10255000ABB1CB699BB12046FFF718FDD4E901323E
:102560005B6820465B78D90803F0070303EB01138F
:1025700002EB8312D36AFFF7D1FE002010BD0120C9
:1025800010BD072010BD0120704700BF43414D44DE
:10259000B8B108B50C4A0168914201D0072008BDC6
:1025A000D0E901124B685B78D90803F0070303EB0D
:1025B000011302EB831328335B68FFF7AFFE0020A3
:1025C00008BD0120704700BF43414D4430B583B082
:1025D000EFF30383C3F30803294A103B1BB252F8FD
:1025E000230043685C68A2686178B2F5802F4FEAE7
:1025F000D103826801F0070C40D00CEB031E02EB04
:102600008E1EDEF824501B01ED0712D520216344F5
:1026100002EB83129162D0E9022102EB8312936AEA
:102620000193019B41B3002103B0BDE83040FFF7A7
:1026300091BC40F2FF3E2278124DD20002EB5102D3
:1026400055F8225001F001012A6809010EFA01F142
:1026500022EA01022A6062788168D40802F0070247
:1026600002EB041201EB8211CA6A22F4EE6242F01C
:102670000402CA628268C9E703B030BD1B01C5E726
:10268000F00A1160D040016000BF7047094A13682A
:10269000591C09D0984203D391680B44834204D853
:1026A00052F80C3F591CF5D1704753680139084066
:1026B0001843704784001160024A034B52681A6045
:1026C000704700BF500211607412116030B442F6BE
:1026D000E064134B1348DC60134C144A1449C3E9FB
:1026E00006009C621348144CC3E90421C3E9082086
:1026F000C3E90B04C3E91121C3E90F110F4D104CBD
:1027000010481149C3E90D40C3E900520F4C0A605B
:102710000F48104ADC6418659A6030BC704700BFEF
:102720005002116040EFC41FA077E20F00C2EB0B14
:1027300000E1F505005ED0B28026FE00008C8647E1
:1027400080B2E60E00B4C404741211600084D7177E
:1027500000366E010065CD1D30B442F6E064134BC7
:102760001348DC60134C144A1449C3E906009C6208
:102770001348144CC3E90421C3E90820C3E90B043E
:10278000C3E91121C3E90F110F4D104C1048114935
:10279000C3E90D40C3E900520F4C0A600F48104ACC
:1027A000DC6418659A6030BC704700BF500211604D
:1027B00040EFC41FA077E20F00C2EB0B00E1F5056C
:1027C000005ED0B28026FE00008C864780B2E60E06
:1027D00000B4C404741211600084D71700366E016F
:1027E0000065CD1D034620B14FF0806200201A60C5
:1027F00070470120704700BFA0F101000028FBD105
:10280000704700BF00000000F8B50546304B01FBE3
:1028100005F5186800F0EAF902460B462AA1D1E94D
:10282000000100F087FB0F464FF47A710646A5FBC6
:10283000010189B900F01EFA32463B4600F07AFBEE
:102840000022244B00F076FB00F05CFC013088B3E2
:10285000BDE8F840FFF7D0BF284600F0C7F90246B0
:102860000B463046394616461F460022194B00F0EB
:1028700037FA02460B463046394600F05BFB00F063
:1028800061FC013041F100014A0143011B1A42EA97
:10289000D06262EB0102920042EA93729B001B1825
:1028A00041EB0201C90041EA5371DB0019B9184636
:1028B0000028CDD1F8BD4FF0FF342046BDE8F840E8
:1028C000FFF79ABFAFF300800000000065CDCD4157
:1028D000741211600000594000BE704708B500F046
:1028E00005F8FEF74DFBFEE700BE704770B500200F
:1028F000FEF73CF8FFF7EAFE0120FEF737F8124832
:10290000124A0021121A00F0E9FC1148114A12493A
:10291000121A00F035FC114D114B5B1B002B07DD2B
:1029200000249E1055F8043B01349847A642F9DC78
:10293000FFF7C2FE0220FEF719F8FFF7A5FEBDE87B
:102940007040002000F00EB8A8021160B0131160B2
:1029500000001160500211607C4201605002116061
:1029600050021160704700BF81F0004102E000BFDB
:1029700083F0004330B54FEA41044FEA430594EA3F
:10298000050F08BF90EA020F1FBF54EA000C55EA7A
:10299000020C7FEA645C7FEA655C00F0E2804FEA4B
:1029A0005454D4EB5555B8BF6D420CDD2C4480EA2D
:1029B000020281EA030382EA000083EA010180EA5D
:1029C000020281EA0303362D88BF30BD11F0004FAB
:1029D0004FEA01314FF4801C4CEA113102D04042E1
:1029E00061EB410113F0004F4FEA03334CEA13331C
:1029F00002D0524263EB430394EA050F00F0A78034
:102A0000A4F10104D5F1200E0DDB02FA0EFC22FA2E
:102A100005F2801841F1000103FA0EF2801843FA22
:102A200005F359410EE0A5F120050EF1200E012A13
:102A300003FA0EFC28BF4CF0020C43FA05F3C01851
:102A400051EBE37101F0004507D54FF0000EDCF1CA
:102A5000000C7EEB00006EEB0101B1F5801F1BD373
:102A6000B1F5001F0CD349085FEA30004FEA3C0C77
:102A700004F101044FEA445212F5800F80F09A806D
:102A8000BCF1004F08BF5FEA500C50F1000041EB71
:102A9000045141EA050130BD5FEA4C0C404141EB75
:102AA0000101013C28BFB1F5801FE9D291F0000F70
:102AB00004BF01460020B1FA81F308BF2033A3F11F
:102AC0000B03B3F120020CDA0C3208DD02F1140C16
:102AD000C2F10C0201FA0CF021FA02F10CE002F151
:102AE0001402D8BFC2F1200C01FA02F120FA0CFC4A
:102AF000DCBF41EA0C019040E41AA2BF01EB045193
:102B0000294330BD6FEA04041F3C1CDA0C340EDC90
:102B100004F11404C4F1200220FA04F001FA02F3D3
:102B200040EA030021FA04F345EA030130BDC4F191
:102B30000C04C4F1200220FA02F001FA04F340EA86
:102B40000300294630BD21FA04F0294630BD94F037
:102B5000000F83F4801306BF81F480110134013D1E
:102B60004EE77FEA645C18BF7FEA655C29D094EA8F
:102B7000050F08BF90EA020F05D054EA000C04BF0D
:102B80001946104630BD91EA030F1EBF00210020F8
:102B900030BD5FEA545C05D14000494128BF41F097
:102BA000004130BD14F580043CBF01F5801130BDFB
:102BB00001F0004545F0FE4141F470014FF0000086
:102BC00030BD7FEA645C1ABF194610467FEA655C37
:102BD0001CBF0B46024650EA013406BF52EA0335D9
:102BE00091EA030F41F4002130BD00BF90F0000FC7
:102BF00004BF0021704730B54FF4806404F1320403
:102C00004FF000054FF0000150E700BF90F0000FBB
:102C100004BF0021704730B54FF4806404F13204E2
:102C200010F0004548BF40424FF000013EE700BFB2
:102C300042004FEAE2014FEA31014FEA02701FBF42
:102C400012F07F4393F07F4F81F06051704732F074
:102C50007F4208BF704793F07F4F04BF41F40021CB
:102C6000704730B54FF4607401F0004521F0004129
:102C70001CE700BF50EA010208BF704730B54FF0B3
:102C800000050AE050EA010208BF704730B511F0B4
:102C9000004502D5404261EB41014FF4806404F1EC
:102CA00032045FEA915C3FF4D8AE4FF003025FEA72
:102CB000DC0C18BF03325FEADC0C18BF033202EBF6
:102CC000DC02C2F1200300FA03FC20FA02F001FA50
:102CD00003FE40EA0E0021FA02F11444BDE600BFF3
:102CE00070B54FF0FF0C4CF4E06C1CEA11541DBFA2
:102CF0001CEA135594EA0C0F95EA0C0F00F0DEF86D
:102D00002C4481EA030621EA4C5123EA4C5350EA51
:102D1000013518BF52EA033541F4801143F48013A2
:102D200038D0A0FB02CE4FF00005E1FB02E506F033
:102D30000042E0FB03E54FF00006E1FB03569CF088
:102D4000000F18BF4EF0010EA4F1FF04B6F5007F8E
:102D500064F5407404D25FEA4E0E6D4146EB060600
:102D600042EAC62141EA55514FEAC52040EA5E5089
:102D70004FEACE2EB4F1FD0C88BFBCF5E06F1ED833
:102D8000BEF1004F08BF5FEA500E50F1000041EB6A
:102D9000045170BD06F0004646EA010140EA020017
:102DA00081EA0301B4EB5C04C2BFD4EB0C0541EA39
:102DB000045170BD41F480114FF0000E013C00F34E
:102DC000AB8014F1360FDEBF002001F0004170BD72
:102DD000C4F10004203C35DA0C341BDC04F114048B
:102DE000C4F1200500FA05F320FA04F001FA05F217
:102DF00040EA020001F0004221F0004110EBD370E4
:102E000021FA04F642EB06015EEA430E08BF20EA0F
:102E1000D37070BDC4F10C04C4F1200500FA04F3B2
:102E200020FA05F001FA04F240EA020001F0004144
:102E300010EBD37041F100015EEA430E08BF20EAB7
:102E4000D37070BDC4F1200500FA05F24EEA020EFF
:102E500020FA04F301FA05F243EA020321FA04F02E
:102E600001F0004121FA04F220EA020000EBD370E5
:102E70005EEA430E08BF20EAD37070BD94F0000FE5
:102E80000FD101F00046400041EB010111F4801F19
:102E900008BF013CF7D041EA060195F0000F18BFCA
:102EA000704703F00046520043EB030313F4801F06
:102EB00008BF013DF7D043EA0603704794EA0C0FC0
:102EC0000CEA135518BF95EA0C0F0CD050EA4106D6
:102ED00018BF52EA4306D1D181EA030101F0004153
:102EE0004FF0000070BD50EA410606BF104619467B
:102EF00052EA430619D094EA0C0F02D150EA013687
:102F000013D195EA0C0F05D152EA03361CBF1046C7
:102F100019460AD181EA030101F0004141F0FE4166
:102F200041F470014FF0000070BD41F0FE4141F4EA
:102F3000780170BD70B54FF0FF0C4CF4E06C1CEAEA
:102F400011541DBF1CEA135594EA0C0F95EA0C0F9F
:102F500000F0A7F8A4EB050481EA030E52EA03355A
:102F60004FEA013100F088804FEA03334FF080557B
:102F700045EA131343EA12634FEA022245EA1115A8
:102F800045EA10654FEA00260EF000419D4208BF59
:102F9000964244F1FD0404F5407402D25B084FEA06
:102FA0003202B61A65EB03055B084FEA32024FF4B2
:102FB00080104FF4002CB6EB020E75EB030E22BF0F
:102FC000B61A754640EA0C005B084FEA3202B6EBCF
:102FD000020E75EB030E22BFB61A754640EA5C007E
:102FE0005B084FEA3202B6EB020E75EB030E22BF0E
:102FF000B61A754640EA9C005B084FEA3202B6EB0F
:10300000020E75EB030E22BFB61A754640EADC00CD
:1030100055EA060E18D04FEA051545EA16754FEA2F
:1030200006164FEAC30343EA52734FEAC2025FEA4D
:103030001C1CC0D111F4801F0BD141EA00014FF0DC
:1030400000004FF0004CB6E711F4801F04BF0143AD
:103050000020B4F1FD0C88BFBCF5E06F3FF6AFAEC9
:10306000B5EB030C04BFB6EB020C5FEA500C50F159
:10307000000041EB045170BD0EF0004E4EEA1131DC
:1030800014EB5C04C2BFD4EB0C0541EA045170BDE3
:1030900041F480114FF0000E013C90E645EA060E27
:1030A0008DE60CEA135594EA0C0F08BF95EA0C0F55
:1030B0003FF43BAF94EA0C0F0AD150EA01347FF49D
:1030C00034AF95EA0C0F7FF425AF104619462CE774
:1030D00095EA0C0F06D152EA03353FF4FDAE1046D7
:1030E000194622E750EA410618BF52EA43067FF428
:1030F000C5AE50EA41047FF40DAF52EA43057FF4B8
:10310000EBAE12E74A0011D212F5001211D20DD522
:103110006FF47873B3EB62520ED44FEAC12343F0DD
:10312000004343EA505323FA02F070474FF0000087
:10313000704750EA013002D14FF0FF3070474FF036
:1031400000007047D0B500220B4B06460F46FFF734
:10315000C7FDFFF7D7FF0446FFF748FD0022074BE6
:10316000FFF7BEFD02460B4630463946FFF700FC2E
:10317000FFF7C8FF2146D0BD0000F03D0000F04140
:10318000844641EA000313F0030349D1403A23D3B4
:103190000B6803604B6843608B688360CB68C360D7
:1031A0000B6903614B6943618B698361CB69C361BF
:1031B0000B6A03624B6A43628B6A8362CB6AC362A7
:1031C0000B6B03634B6B43638B6B8363CB6BC3638F
:1031D00040304031403ADBD230320BD30B680360D1
:1031E0004B6843608B688360CB68C36010301031DC
:1031F000103AF3D20C3205D351F8043B40F8043BAB
:10320000043AF9D2043208D0D2071CBF11F8013BAE
:1032100000F8013B01D30B8803806046704700BF74
:10322000082A13D38B07B1D010F00303AED0C3F13B
:103230000403D21ADB071CBF11F8013B00F8013B65
:10324000A4D331F8023B20F8023B9FE7043AD9D3DC
:10325000013A11F8013B00F8013BF9D20B780370F9
:103260004B7843708B78837060467047014B1868C9
:10327000704700BF080111600A22002100F006B962
:10328000032A30B415D941EA000484460B46A4074A
:1032900004D0541E0FE0043A032A08D919466046A8
:1032A00053F8044B5CF8045BA542F4D0F1E76046A8
:1032B0001946541E7AB1431E0139021901E09A429F
:1032C00009D013F8010F11F801CF6045F7D0A0EB3A
:1032D0000C0030BC7047002030BC704770B58607CA
:1032E00047D0541E002A3ED0CAB2034601E0013C3A
:1032F00039D303F8012B9D07F9D1032C2CD9CDB27A
:103300000F2C05EB052505EB054535D9A4F1100C6F
:1033100003F1100E1A462CF00F064FEA1C1CB6449F
:10332000C2E90055C2E9025510327245F8D10CF1DC
:10333000010214F00C0F04F00F0C03EB021213D077
:10334000ACF1040323F003030433134442F8045B99
:103350009342FBD10CF003042CB1C9B21C4403F816
:10336000011BA342FBD170BD64461346002CF4D16F
:10337000F9E703461446C0E71A46A446E0E700BF53
:103380002DE9F04F82468E463F4875461EF801BB38
:1033900010F80B4014F00804F7D1BBF12D0F5BD0EF
:1033A000BBF12B0F6FF0004904BF9EF800B005F190
:1033B000020E33F0100010D1BBF1300F04D0002BFF
:1033C0005ED10A231F4609E09EF8000000F0DF00EE
:1033D00058284ED0002B53D108231F460025B9FB97
:1033E000F7F6284607FB16980EE0ABF1370C63455D
:1033F0001DDD002D04DB864202D321D1E0451FDA1A
:103400004FF0FF351EF801BBABF1300CBCF1090FDA
:10341000EDD9ABF1410CBCF1190FE6D9ABF1610C60
:10342000BCF1190F03D8ABF1570C6345E1DC6B1C01
:103430000AD004B140420AB1CDB91160BDE8F08FA5
:1034400007FB00C00125DDE72223CAF800305AB18E
:103450000EF1FF314846F0E79EF800B04FF000490A
:1034600005F1020E0124A4E74846BDE8F08F81462D
:10347000EEE710239EF801B00EF1020E1F46ADE7F5
:1034800010231F46AAE700BF4541016010B5242A5A
:10349000094C1346246808D8012A06D00A4601467A
:1034A0002046BDE81040FFF76BBFFFF7DFFE162395
:1034B0000360002010BD00BF080111604275696CF7
:1034C00074207769746820525A2F5620466C6578AC
:1034D00069626C6520536F66747761726520506114
:1034E000636B6167652076657273696F6E20342E39
:1034F000302E3000342E302E30000000000000044A
:103500005465726D696E616C00000000284E554C68
:103510004C290000342E302E300000000D0A2A2ADB
:103520002A2A2A2A2A2A2A2A2A2A2A2A2A2A2A2AFB
:103530002A2A2A2A2A2A2A2A2A2A2A2A2A2A2A2AEB
:103540002A2A2A2A2A2A2A2A2A2A2A2A2A2A2A2ADB
:103550002A2A2A2A2A2A2A2A2A2A2A2A2A2A2A2ACB
:103560002A2A2A2A2A2A2A2A2A2A2A2A2A2A0D0AF8
:103570002A20202052656E657361732046535020C7
:103580004578616D706C652050726F6A6563742058
:10359000666F7220725F72737069204D6F64756C14
:1035A00065202020202020202020202020202020D6
:1035B0002020202020202020202020202020202A01
:1035C0000D0A2A2020204578616D706C65205072AC
:1035D0006F6A6563742056657273696F6E20257318
:1035E00020202020202020202020202020202020DB
:1035F00020202020202020202020202020202020CB
:1036000020202020202020202020202020202A0DC3
:103610000A2A202020466C657820536F66747761F3
:103620007265205061636B2056657273696F6E20FE
:1036300025642E25642E2564202020202020202093
:10364000202020202020202020202020202020207A
:10365000202020202020202020202020202020206A
:103660002020202A0D0A2A2A2A2A2A2A2A2A2A2A15
:103670002A2A2A2A2A2A2A2A2A2A2A2A2A2A2A2AAA
:103680002A2A2A2A2A2A2A2A2A2A2A2A2A2A2A2A9A
:103690002A2A2A2A2A2A2A2A2A2A2A2A2A2A2A2A8A
:1036A0002A2A2A2A2A2A2A2A2A2A2A2A2A2A2A2A7A
:1036B0002A2A2A2A2A2A0D0A526566657220746F00
:1036C00020726561646D652E7478742066696C651E
:1036D00020666F72206D6F72652064657461696C1D
:1036E00073206F6E204578616D706C652050726F2D
:1036F0006A65637420616E640D0A465350205573E9
:1037000065722773204D616E75616C20666F722043
:103710006D6F726520696E666F726D6174696F6E30
:103720002061626F757420725F72737069206472B9
:10373000697665720D0A00000D0A54686520657887
:10374000616D706C652070726F6A65637420696E5C
:10375000697469616C697A657320525350492064B9
:10376000726976657220616E6420636F6E66696748
:10377000757265732052535049206368616E6E659F
:103780006C73200D0A696E204D617374657220613F
:103790006E6420536C617665206D6F64652E2041E8
:1037A0006674657220696E697469616C697A6174A6
:1037B000696F6E2C204D617374657220616E642098
:1037C000536C6176650D0A63616E207472616E736D
:1037D0006D697420616E6420726563656976652029
:1037E00064617461206261736564206F6E20746827
:1037F0006520636F6D6D616E64732066726F6D20FE
:10380000757365722E0D0A526566657220746F209D
:10381000746865204D50552055736572204D616E5A
:1038200075616C20666F722076616C6964206269D4
:103830007420726174657320616E6420636F7272AC
:103840006573706F6E64696E670D0A636C6F636B8E
:103850002073657474696E67732E0D0A0000000092
:103860000D0A2A2A207370695F696E697420666187
:10387000696C6564202A2A0D0A0000000D0A526551
:103880007475726E6564204572726F7220436F6446
:10389000653A20307825780D0A0000000D0A2A2AA2
:1038A000207370695F696E697420737563636573F3
:1038B0007366756C202A2A0D0A0000000D0A5365F4
:1038C0006C6563742066726F6D2074686520626534
:1038D0006C6F77204D656E75206F7074696F6E73B5
:1038E0000D0A00000D0A5072657373203120666F57
:1038F00072205772697465282920616E64205265B0
:1039000061642829000000000D0A5072657373205D
:103910003220666F7220577269746552656164283F
:10392000290000000D0A5072657373203320746FF4
:1039300020457869740D0A002A2A207370695F7720
:10394000726974655F616E645F726561642066614F
:10395000696C6564202A2A0D0A0000000D0A2A2AD3
:10396000207370695F77726974655F616E645F72FE
:10397000656164207375636365737366756C202A73
:103980002A0D0A000D0A2A2A207370695F7772696E
:1039900074655F72656164206661696C6564202A84
:1039A0002A0D0A002A2A207370695F77726974658C
:1039B0005F72656164207375636365737366756CAC
:1039C000202A2A0D0A0000002A2A207370695F65E8
:1039D0007869745F64656D6F206661696C656420E9
:1039E0002A2A0D0A000000002A2A207370695F65E8
:1039F0007869745F64656D6F207375636365737355
:103A000066756C202A2A0D0A000000001B5B313B02
:103A100033366D0D0A45786974696E6720525350CC
:103A2000492064656D6F2E2E2E2E0D0A1B5B306DA6
:103A3000000000000D0A456E74657220616E7920E9
:103A40006F74686572206B657920746F20676F20D2
:103A50006261636B20746F20746865206D61696EAC
:103A6000206D656E750D0A002A2A20525F52535050
:103A7000495F4F70656E20415049206661696C65F1
:103A800064202A2A0D0A00005B4552525D20496ECF
:103A90002046756E6374696F6E3A20257328292C51
:103AA000202573002A2A20525F525350495F436CED
:103AB0006F736520415049206661696C6564202AF6
:103AC0002A0D0A000D0A456E7465722074657874BB
:103AD00020696E70757420666F72204D6173746515
:103AE00072206275666665722E204461746120736F
:103AF000697A652073686F756C64206E6F742065D9
:103B000078636565642036342062797465732E0DA0
:103B10000A0000000D0A4D41535445522053454EB2
:103B2000443A2025730000000D0A4E6F20496E7044
:103B300075740D0A000000000D0A525F525350497F
:103B40005F5265616420415049206661696C65641B
:103B5000000000000D0A525F525350495F577269CE
:103B6000746520415049206661696C6564000000FD
:103B70000D0A535049206D6F64756C6520626C6F3F
:103B8000636B656420696E2057726974652F526596
:103B90006164206F7065726174696F6E2E0D0A002A
:103BA0000D0A4572726F7220696E20636F6E6669CE
:103BB0006775726174696F6E206F7220636F6E6ECD
:103BC000656374696F6E2E0D0A0000000D0A526560
:103BD00073657420746865204D50552E2E2E0D0A85
:103BE000000000000D0A534C415645205245434504
:103BF0004956453A202573000D0A4D61737465726C
:103C0000207472616E736D69747465642075736578
:103C10007220696E707574206461746120746F2005
:103C2000536C617665200D0A000000000D0A536C8C
:103C3000617665207472616E736D69747465642059
:103C40007468652064617461206261636B20746FC5
:103C5000204D6173746572200D0A00000D0A4D61DC
:103C6000737465722072656365697665642064614A
:103C700074613A1B5B313B33326D202573200D0A92
:103C80001B5B306D000000000D0A526563656976AC
:103C90006564206461746120646F6573206E6F7465
:103CA000206D617463682077697468207472616E36
:103CB000736D697474656420446174612E0D0A002B
:103CC0000D0A456E746572207465787420696E7093
:103CD000757420666F7220536C617665206275661C
:103CE0006665722E20446174612073697A65207361
:103CF000686F756C64206E6F7420657863656564A9
:103D00002036342062797465732E0D0A000000009D
:103D10000D0A525F525350495F577269746552657C
:103D2000616420415049206661696C65640000004F
:103D30000D0A52535049206D6F64756C65206661A1
:103D4000696C656420696E2057726974652F5265CD
:103D50006164206F7065726174696F6E2E0D0A0068
:103D60000D0A4D6173746572206275666665722016
:103D700064617461207472616E736D6974746564DA
:103D800020746F20536C617665200D0A00000000DE
:103D90000D0A536C617665206275666665722064F3
:103DA000617461207472616E736D697474656420EE
:103DB000746F204D6173746572200D0A000000005D
:103DC0000D0A4D617374657220726563656976656D
:103DD0006420646174613A1B5B313B33326D202592
:103DE000730D0A1B5B306D000D0A4D6173746572B3
:103DF000207265636569766564206461746120641E
:103E00006F6573206E6F74206D61746368207769CD
:103E1000746820536C617665207472616E736D698D
:103E20007474656420446174612E0D0A0000000002
:103E30000D0A536C61766520726563656976656409
:103E400020646174613A1B5B313B33326D20257312
:103E50000D0A1B5B306D00000D0A536C6176652006
:103E60007265636569766564206461746120646F5E
:103E70006573206E6F74206D617463682077697458
:103E800068204D6173746572207472616E736D6920
:103E90007474656420446174612E0D0A0000000092
:103EA0000D0A525F525350495F436C6F7365204156
:103EB0005049206661696C656400000000000000E4
:103EC000000054545220524547474553000000001B
:103ED0003031323334353637383941424344454640
:103EE0007370695F636C65616E5F757000000000E0
:103EF0007370695F657869745F64656D6F00000059
:103F00007370695F77726974655F726561640000E0
:103F10007370695F77726974655F616E645F726503
:103F2000616400007370695F696E6974000000006D
:103F30009409116088091160700911600000DFFFA9
:103F4000DFFF00009F0108080008000101010000D8
:103F5000703F0160A83F0160D10E016000000000C9
:103F6000643F016000003100000000000603000013
:103F7000D00911607C3F01601041016004001160B4
:103F8000843F016001007D000C00000095020206E4
:103F9000047F7F7F000000000000000000000000A0
:103FA0005D0F016000000000E8091160B43F01608E
:103FB0001041016024001160BC3F016001017E00DE
:103FC0000C00000096020206047F7F7F00000000C4
:103FD0000000000000000000750F016000000000FC
:103FE0000100DFFFDFFF0000A20108080008010157
:103FF00001010000144001604C400160E90E0160C5
:104000000000000008400160000004000000000003
:1040100006030000380A1160204001601041016071
:10402000440011602840016001027F000C00000084
:1040300099020206047F7F7F00000000000000005C
:1040400000000000510F016000000000500A1160E4
:1040500058400160104101606400116060400160DF
:10406000010380000C0000009A020206047F7F7F9B
:10407000000000000000000000000000690F016067
:10408000000000000800000090400160303F016027
:10409000000C0301002B0000000C0301012B0000A9
:1040A000000C0301022B0000000C0301032B000095
:1040B000000C0301002C0000000C0301012C000087
:1040C000000C0301022C0000000C0301032C000073
:1040D0000000814104008141080081410C008141C0
:1040E0001000814114008141180081411C00814170
:1040F0000000834104008341080083410C00834198
:104100001000834114008341180083411C00834147
:1041100031240160312501608D1E0160912501600F
:10412000351F0160592101608D210160012201606C
:10413000492201609D2001609D1E016000008041B8
:10414000000082410020202020202020202028283C
:104150002828282020202020202020202020202047
:104160002020202020881010101010101010101087
:1041700010101010100404040404040404040410B7
:104180001010101010104141414141410101010145
:10419000010101010101010101010101010101010F
:1041A000101010101010424242424242020202021B
:1041B00002020202020202020202020202020202DF
:1041C000101010102000000000000000000000008F
:1041D00000000000000000000000000000000000DF
:1041E00000000000000000000000000000000000CF
:1041F00000000000000000000000000000000000BF
:1042000000000000000000000000000000000000AE
:10421000000000000000000000000000000000009E
:10422000000000000000000000000000000000008E
:10423000000000000000000000000000000000007E
:10424000000000000000000010000000000000005E
:10425000017A5200027C0E011B0C0D0014000000BC
:10426000180000001CEFFFFFEC00000000024D0AE8
:04427000430B0000FC
:084274000CEFFF7F01000000C8
:10427C00FFFFFF0001000000000000000000000034
:10428C000000000001010000000000000000000020
:10429C000100000000010000000000000000000010
:1042AC000000000001010000000000000000000000
:1042BC0001000000010000000000000000000000F0
:1042CC0000000000010100000000000000000000E0
:1042DC0001000000000100000000000000000000D0
:1042EC0000000000010100000000000000000000C0
:1042FC0001000000000000000000000000000010A1
:10430C000000001000000000000000100000002061
:10431C000000000000000010000000300000000051
:10432C000000001000000040000000100000001011
:10433C0000000050000000100000001000000060A1
:10434C000000004000000010000000700000004061
:10435C000000001000000080000000200000001091
:10436C00000000900000002000000010FFFFFFFF85
:10437C00FFFFFFFFFFFFFFFF1001116000000000B7
:10438C000000000078121160E012116048131160F7
:10439C000000000000000000000000000000000011
:1043AC000000000000000000000000000000000001
:1043BC0000000000000000000000000000000000F1
:1043CC0000000000000000000000000000000000E1
:1043DC0000000000000000000000000000000000D1
:1043EC0000000000000000000000000000000000C1
:1043FC0000000000000000000000000000000000B1
:10440C0000000000000000000000000000000000A0
:10441C00000000000000000001000000000000008F
:10442C000E33CDAB34126DE6ECDE05000B00000054
:10443C000000000000000000000000000000000070
:10444C000000000000000000000000000000000060
:10445C000000000000000000000000000000000050
:10446C000000000000000000000000000000000040
:10447C000000000000000000000000000000000030
:10448C000000000000000000000000000000000020
:10449C000000000000000000000000000000000010
:1044AC000000000000000000000000000000000000
:1044BC0000000000000000000000000000000000F0
:0200000472EF99
:10F44000064A074953688A6023F00103054981F39E
:10F450008A88126882F388889C4770470000010000
:10F4600000ED02E0B0131160704700BF022249F6C0
:10F47000F77108B50A4BC3F8D0201A6922F00C02C4
:10F480001A61DA680A4042F0BF6242F40832DA6078
:10F490005A6A42F400225A62FFF7E6FF08BD00BF35
:10F4A00000ED00E010B4EFF31081012383F3108826
:10F4B0004FF00313264AC2F82C35D2F8AC36980721
:10F4C000FBD081F31088EFF31080012383F31088C1
:10F4D0004FF003131E49C2F82C38D1F8AC399A0703
:10F4E000FBD180F31088EFF31080012383F31088A1
:10F4F0004FF00313164AC1F82C35D2F8AC369B07EF
:10F50000FBD080F31088EFF31080012383F3108881
:10F510004FF003130E49C2F82C38D1F8AC3913F070
:10F520000303FAD180F310884FF0FF30094C0A49E9
:10F53000D4F81C2D22F00102C4F81C2D03F1A00206
:10F5400001330F2B41F82200F8D110BC704700BFE7
:10F55000000001410000024100E100E000BE7047F0
:10F5600008B500F025F8FEE700BE704700BE704702
:10F570000B4B0C4A0C48C2F80C38C1680B4B01F419
:10F58000E0610B43C360D2F8243D9B05FBD5D2F864
:10F590001C3D43F00103C2F81C3D30BFFEE700BF35
:10F5A00080FF01100000024100ED00E00400FA05B8
:10F5B00008B5094A094B9A6000F01EF8084B83F31E
:10F5C0000888084B83F30A88FFF750FFFFF76AFFAC
:10F5D000BDE80840FFF734BF80FF011000ED00E0F8
:10F5E00000FAEF7200F8EF72024B83F30888FFF71E
:10F5F000BFBF00BF00FAEF725FF800F0592701604B
:0400000572EFF5E9B8
:00000001FF
