:020000022000DC
:102D000080510000FFFFFFFFFFFFFFFFFFFFFFFFFE
:102D100000020000FFFFFFFFFFFFFFFFFFFFFFFFBD
:102D2000002F0220FFFFFFFFFFFFFFFFFFFFFFFF5E
:102D3000FFFFFFFFFFFFFFFFFFFFFFFFFFFFFFFFA3
:102D4000FFFFFFFFFFFFFFFFFFFFFFFFFFFFFFFF93
:102D5000FFFFFFFFFFFFFFFFFFFFFFFFFFFFFFFF83
:102D6000FFFFFFFFFFFFFFFFFFFFFFFFFFFFFFFF73
:102D7000FFFFFFFFFFFFFFFFFFFFFFFFFFFFFFFF63
:102D8000FFFFFFFFFFFFFFFFFFFFFFFFFFFFFFFF53
:102D9000FFFFFFFFFFFFFFFFFFFFFFFFFFFFFFFF43
:102DA000FFFFFFFFFFFFFFFFFFFFFFFFFFFFFFFF33
:102DB000FFFFFFFFFFFFFFFFFFFFFFFFFFFFFFFF23
:102DC000FFFFFFFFFFFFFFFFFFFFFFFFFFFFFFFF13
:102DD000FFFFFFFFFFFFFFFFFFFFFFFFFFFFFFFF03
:102DE000FFFFFFFFFFFFFFFFFFFFFFFFFFFFFFFFF3
:102DF000FFFFFFFFFFFFFFFFFFFFFFFFFFFFFFFFE3
:102E0000FFFFFFFFFFFFFFFFFFFFFFFFFFFFFFFFD2
:102E1000FFFFFFFFFFFFFFFFFFFFFFFFFFFFFFFFC2
:102E2000FFFFFFFFFFFFFFFFFFFFFFFFFFFFFFFFB2
:102E3000FFFFFFFFFFFFFFFFFFFFFFFFFFFFFFFFA2
:102E4000FFFFFFFFFFFFFFFFFFFFFFFFFFFFFFFF92
:102E5000FFFFFFFFFFFFFFFFFFFFFFFFFFFFFFFF82
:102E6000FFFFFFFFFFFFFFFFFFFFFFFFFFFFFFFF72
:102E7000FFFFFFFFFFFFFFFFFFFFFFFFFFFFFFFF62
:102E8000FFFFFFFFFFFFFFFFFFFFFFFFFFFFFFFF52
:102E9000FFFFFFFFFFFFFFFFFFFFFFFFFFFFFFFF42
:102EA000FFFFFFFFFFFFFFFFFFFFFFFFFFFFFFFF32
:102EB000FFFFFFFFFFFFFFFFFFFFFFFFFFFFFFFF22
:102EC000FFFFFFFFFFFFFFFFFFFFFFFFFFFFFFFF12
:102ED000FFFFFFFFFFFFFFFFFFFFFFFFFFFFFFFF02
:102EE000FFFFFFFFFFFFFFFFFFFFFFFFFFFFFFFFF2
:102EF000FFFFFFFFFFFFFFFFFFFFFFFFFFFF55AAE1
:102F0000024B83F3088800F037BD00BFF86D020064
:10300000F86D020069390200753902006539020065
:103010006539020065390200653902007139020024
:103020000000000000000000000000006539020000
:1030300065390200000000006539020065390200B0
:10304000A55E0200A55E0200A55E0200A55E02006C
:10305000A55E0200A55E0200A55E0200A55E02005C
:10306000A55E0200A55E0200A55E0200A55E02004C
:10307000A55E0200A55E0200A55E0200A55E02003C
:10308000A55E0200A55E0200A55E0200A55E02002C
:10309000A55E0200A55E0200A55E0200A55E02001C
:1030A000A55E0200A55E0200A55E0200A55E02000C
:1030B000A55E0200A55E0200A55E0200A55E0200FC
:1030C000A55E0200A55E0200A55E0200A55E0200EC
:1030D000A55E0200A55E0200A55E0200A55E0200DC
:1030E000A55E0200A55E0200A55E0200A55E0200CC
:1030F000A55E0200F15C0200A55E0200A55E020072
:10310000A55E0200A55E0200A55E0200A55E0200AB
:10311000A55E0200A55E0200A55E0200A55E02009B
:10312000A55E0200A55E0200A55E0200A55E02008B
:10313000A55E0200A55E0200A55E0200A55E02007B
:10355000A55E0200615502008D550200CD540200A7
:1035600041540200FD540200A55E0200A55E020067
:10357000A55E0200A55E0200A55E0200A55E020037
:10358000A55E0200A55E0200A55E0200A55E020027
:10359000A55E0200A55E0200A55E0200A55E020017
:1035A000A55E0200A55E0200A55E0200A55E020007
:103800008080020061380210955E0200413802108B
:1038100045380210493802104D38021000000000EF
:1038200000000000000000000000000051380210FD
:103830005538021000000000593802105D3802109F
:10384000FEE700BFFEE700BFFEE700BFFEE700BFE8
:10385000FEE700BFFEE700BFFEE700BFFEE700BFD8
:04386000FEE700BFC0
:10389000704700BF022249F6F77108B50A4BC3F81A
:1038A000D0201A6922F00C021A61DA680A4042F04C
:1038B000BF6242F40832DA605A6A42F400225A6265
:1038C000FFF7E6FF08BD00BF00ED00E0EFF3108159
:1038D000012383F310884FF00313204AC2F82C35DC
:1038E000D2F8AC369807FBD081F31088EFF3108044
:1038F000012383F310884FF003131849C2F82C38C2
:10390000D1F8AC399B07FBD180F31088EFF310801E
:10391000012383F310884FF00313104AC1F82C35AC
:10392000D2F8AC369907FBD080F31088EFF3108003
:10393000012383F310884FF003130849C2F82C3891
:10394000D1F8AC399B07FBD180F31088044AD2F838
:103950001C3D23F00103C2F81C3D704700000141EB
:103960000000024100BE704708B500F011F8FEE704
:1039700000BE704700BE7047034A044BC3F84C2892
:10398000FFF7F2BF704700BF0030020000000241A5
:1039900008B5094A094B9A6002F026FA084B83F3EE
:1039A0000888084B83F30A88FFF774FFFFF78EFF40
:1039B000BDE8084002F070BA0030020000ED00E0FF
:1039C000F86D0200F86B0200024B83F30888FFF7E2
:0839D000D3BF00BFF86D020037
:1039D8002DE9F0410446D0E902854068A8EB0507C7
:1039E80097422844154408D80E463A46A5EB0805E0
:1039F80002F088FA2A466068F11902F083FABFF3E8
:103A08005F8FE560BDE8F0812DE9F8434FF00009CC
:103A1800064688461746D0E902243369151B9C429E
:103A280003F1FF3125BF03F1FF339B180B1B1B1B51
:103A3800BD4228BF3D469D4228BF1D46706841468D
:103A48002A46204402F05EFAB2682C44A24208BF1B
:103A58000024A944A8447F1BBFF35F8FF460002FA4
:103A6800DBD14846BDE8F883F8B5164CA8220021FA
:103A7800204602F0F5FA4FF4806600230321102057
:103A8800114A124F124D21616161A261E7612662FC
:103A9800A3626362E36222666566A0662367E366E3
:103AA8006367BFF35F8F0B4B9C46A3F11000ACEB31
:103AB800030213F9011D8342A154F8D1BFF35F8FAC
:103AC800F8BD00BF687202008C620200686E0200D6
:103AD800586E0200A067020038B5214B00EB400485
:103AE80003EBC40EDEF82C40013000EB4000012C43
:103AF8008C46154603EBC00015D0022C0FD034BB02
:103B0800DEF82830DEF8242093429CBFDEF820102F
:103B18005B18013B9A1A95421CD9204638BDBDE86E
:103B28003840FFF771BFDEF82830DEF82440A342A2
:103B38009CBFDEF820105B18013B1C1B944228BF79
:103B4800144661462246FFF743FF204638BD00244D
:103B5800204638BD2A466146FFF73AFF2C46DCE787
:103B680068720200F8B50B4B04461B780D46532BC0
:103B7800164601D0FFF778FFEFF311874FF02001C9
:103B880081F31188324629462046FFF7A5FF87F3BF
:103B98001188F8BD6872020010B50446D0E90132F8
:103BA800501C984207D8236899540246E168636814
:103BB8000131C4E902019A4200D010BD2168206990
:103BC800FFF7D0FFA368984215BF4FF0FF330023DB
:103BD800E360A36010BD00BF2DE9F84F91420F4686
:103BE800DDE90A94154683461E4668D30B464FF016
:103BF8000108B3FBF5F39D4208F10108F9D9B04576
:103C080038BFB04614F0010A02D1B9F1000F3DD116
:103C1800DBF80C30002B29DB012402E005FB04F45F
:103C2800013E012EFAD8B7FBF4F39D4205D805FBF7
:103C380004F4B7FBF4F39D42F9D9224E06E0AC42F6
:103C4800B4FBF5F30CD31C46B7FBF3F3F156584617
:103C580004FB1377FFF7A0FFDBF80C30002BEEDA3C
:103C6800BAF1000F02D0B9F1000F09D1BDE8F88F01
:103C780020215846FFF790FFDBF80C30002BF5DBCE
:103C8800C14509F1FF39F3D8BDE8F88FA30711D46E
:103C980020240CE021465846FFF77EFFDBF80C3065
:103CA80009F1FF39002BE1DBB9F1000FB2D0C145B2
:103CB800F0D8ADE7002E0CBF30242024F7E74FF0F2
:103CC80001089CE7A46702002DE9F04F0023402477
:103CD8009BB00DF12809CDE9049480460C4617469F
:103CE800CDE90633089006E004A8FFF755FF079BC7
:103CF800002BC0F2AE8014F9011B002900F0A1804E
:103D08002529F1D10026234613F9011BA1F123022D
:103D18000D2A08D8DFE802F080070707070707071A
:103D28007C0784070778A1F13002D2B2092A4FF044
:103D3800000501D90EE0013305EB850501EB4505CA
:103D480093F900101C46A1F13002D2B2092AA5F15C
:103D58003005F0D92E2900F080800022924694F98F
:103D6800001021F00403682B04F101045CD025291C
:103D7800BAD05839CBB2202BB9D82029B7D801A34B
:103D880053F821F0B13E0200F73C0200F73C020074
:103D9800F73C0200F73C0200F73C0200F73C020047
:103DA800F73C0200F73C0200F73C0200F73C020037
:103DB800CD3E0200553F0200F73C0200F73C0200EE
:103DC800F73C0200F73C0200F73C0200F73C020017
:103DD800F73C0200F73C0200F73C0200F73C020007
:103DE800F73C0200373F0200F73C0200F73C0200B4
:103DF800FB3E0200F73C0200E13E0200F73C0200F5
:103E0800F73C0200B13E02001C4646F002067AE783
:103E18001C4646F0040676E71C4646F0080672E79C
:103E28001C4646F001066EE714F9011B21F0040355
:103E3800682B9CD114F9011B21F00403682B96D13F
:103E4800F2E7079B002B04DD069C002C40F0B280B3
:103E5800234418461BB0BDE8F08F94F901102A29B5
:103E680009D13B684FF0010A1A1D3A6094F9021013
:103E78001A68023475E7A1F13003DBB2092B4FF061
:103E8800000204F1010400F2E18002EB820201EB7E
:103E9800420214F9011F303AA1F13003DBB2092BB9
:103EA800F3D94FF0010A5CE7134610223968081D60
:103EB800386009680DEB0200CDE90056FFF78CFE6B
:103EC800079B15E73B6804A81A1D3A6093F9001090
:103ED800FFF762FE079B0BE739681346081D386039
:103EE80009680A22CDE9005604A8FFF775FE079B6A
:103EF800FEE63B68191D39601D68002D00F08D80B5
:103F08000132AE1815F9011B00293FF4F0AEBAF1E1
:103F1800000F02D0B5423FF4EAAE04A8FFF73CFE1A
:103F2800079B002BEEDA18461BB0BDE8F08F08237C
:103F38000020102239680D1D3D600968CDE9003068
:103F48000DEB0200FFF748FE079BD1E63B684FF0F8
:103F5800010A191D3960D3F800B08BEAEB73A3EBA3
:103F6800EB73092B09DD4A481946A0FB03C36329F3
:103F78000AF1010A4FEAD303F6DC924538BF9246AC
:103F88000DBB079900250B460029FFF662AFBBF170
:103F9800000F46DB730752D406F00303022B57D0F9
:103FA800134659460A22CDE9005604A8FFF714FE25
:103FB800079B9DE62246494640460393FFF7D2FDFC
:103FC800039B234445E7BBF1000F06F002031BDB0C
:103FD800710719D4002B53D09AB1F3070FD510E00D
:103FE800202104A80392FFF7D7FD0799039A002917
:103FF8000B4605F1FF35FFF62CAF002DC4D0AA45BE
:10400800EED307990B46BFE7013D0BB1002AF8D064
:10401800F107F6D4002DF2D1B3E74FF0000A1D4D99
:104028006EE72D2104A80392FFF7B6FD039ACBF1A2
:10403800000B079900290B46FFF60BAFACE72B21C5
:1040480004A80392FFF7A8FD039AF2E7924688E6D0
:10405800002AA5D1002DA3D0554517D9302104A891
:104068000392FFF799FD0799013D00290B46FFF6DA
:10407800F0AE039A002DEFD10029FFF6EAAE8FE7E4
:10408800F007BCD5079B002B8ADAE2E60B46F3E77C
:10409800CDCCCCCC986202000EB400B582B003AB94
:1040A80053F8041B01AA0193FFF70EFE02B05DF856
:1040B80004EB03B0704700BF30B5002485B003A8F7
:1040C800039401F0D7FE9DF80D009DF80E30294AA3
:1040D800CDE9003028499DF80F302046FFF7DCFF76
:1040E80026492046FFF7D8FF00F06CF8002835D1A4
:1040F80000F080F8044620BB00F0F6F8044698B9B2
:1041080000F058F9044600B9FEE71D490020FFF702
:10411800C3FF00F0B9F800F0C9F922461949002098
:10412800FFF7BAFF00BEEFE717490020FFF7B4FF1B
:1041380000F0AAF8224613490020FFF7ADFF00BEA1
:10414800DEE712490020FFF7A7FF00F09DF822469E
:104158000C490020FFF7A0FF00BECDE705460C493B
:104168002046FFF799FF2A4620460649FFF794FFA5
:1041780000BEBDE7A0620200A8620200C864020097
:10418800F465020098650200D4650200B865020073
:1041980078650200022800D0704708B5064907482C
:1041A80001F00EFC064BD3F8003ADB0700D508BD3A
:1041B800BDE8084000F0C0B9D068020024730200CE
:1041C8000000024110B50849084801F081FC044686
:1041D80008B9204610BD024605490020FFF75CFFDC
:1041E80000BE204610BD00BFA8680200A0730200F0
:1041F8009865020010B5074801F0FEFB044608B9AF
:10420800204610BD024604490020FFF745FF00BEC6
:10421800204610BDA07302009865020070B5002505
:1042280084B0064669461348CDE901558DF800501B
:1042380001F03AFD48B10446224628460E49FFF7E8
:104248002BFF00BE204604B070BD019B0B490C4AF1
:10425800A1FB0301890906FB01F11360094B05481D
:10426800196001F00FFD04460028E5D1204604B08E
:1042780070BD00BFA073020098650200D34D6210A4
:10428800107302001473020008B5064801F0C4FB5D
:1042980000B908BD024604490020FFF7FDFE00BE34
:1042A80008BD00BFA07302009865020008B50A4B5C
:1042B8000A491A78496882F001021A701A7809883E
:1042C800074801F00BFB00B908BD0246054900206C
:1042D800FFF7E2FE00BE08BDA86A0200606902009E
:1042E800247302009865020010B50B490B4800F0D2
:1042F8006DFE044608B9204610BD094B094A0A4913
:104308000020FFF7C9FE224608490020FFF7C4FE37
:1043180000BE204610BD00BF646802007073020032
:1043280010660200D4670200386602009865020031
:1043380070B5054601F05CFE02460026174C29467A
:104348001748D2B2267000F015FE0546D8B96FF0AE
:104358000403024608E0013B62F1000253EA02014D
:1043680019D02178782904D021780229F3D1284658
:1043780070BD4FF496750B4B0B4A0C490020FFF7A4
:104388008BFE284670BD3046094B074A0749FFF7A0
:1043980083FE284670BD1425E9E700BF18730200A4
:1043A800707302007C660200C06702003866020073
:1043B800546602002DE9F041012682B0324D334C9B
:1043C8008DF803602B78002BFCD0002320462B703F
:1043D800019301F00DFEC1B298B12C4A0139C9B25E
:1043E800531C194403E08A428DF8036009D012F87F
:1043F800013B303B092BF6D90023236023718DF84C
:104408000330204601F028FE0190019BB3F5FA6FB6
:1044180001D8019B63B94FF000081D48C4F800801B
:1044280084F804808DF80380FFF782FF0746C8B937
:104438009DF80330002BC5D00198FFF7EFFE074623
:10444800D0B91448276027718DF80370FFF770FF03
:104458001148FFF76DFF07460028B3D0384602B071
:10446800BDE8F08140460D4B0D4A0E49FFF714FE9A
:10447800384602B0BDE8F0810B4B094A09490020D3
:10448800FFF70AFEEAE700BF197302001C73020077
:10449800A0660200146702004C670200D0660200A2
:1044A800E467020038660200F866020010B50948A1
:1044B80000F0B8FC00B910BD0446074B074A08498C
:1044C8000020FFF7E9FD224606490020FFF7E4FD3A
:1044D80000BE10BD7073020068670200B467020076
:1044E80038660200986502000F4903790F4A0B707D
:1044F8001178052904BF00211170042B00D07047E2
:1045080083680A2B0AD00D2B08D010B41078084CF9
:10451800411CC9B21170235410BC704700200121FE
:10452800044B107019707047187302001A73020058
:104538001C730200197302000F224FF00F100321A1
:104548002DE9F04F4FF4803A01254FF000094FF064
:10455800023440F202284FF0005E4FF020576FF00F
:1045680050466FF0584C194BC3F81021C3F814018A
:104578009A60D9601649174AD1F804B41648D1F898
:1045880020B2C1F804A40AF1020AC1F820A2A3F5D6
:104598000C1302F5805102F54052D560C3F8209EF5
:1045A800156282680C62C1F824808C62CC62C3F800
:1045B80048E3C3F84CC3C3F85073C3F85463136893
:1045C800D0E90001BDE8F04F184700BF00002541C1
:1045D800000001410000034100680200002070470C
:1045E8000020704708B5FFF767FD002008BD00BF31
:1045F800062070470620704706207047062070473F
:1046080030B50469236F23F0300323670469236FEF
:10461800DD07FCD4CB7B8D8991F810E003F0030310
:1046280091F811C043EA0563D5034FEA8E0EADB287
:104638000EF01C0E4FEA4C1C2B430CF4F07C43EAA2
:104648000E0343EA0C0391F80EC0012A4FEA4C2CE2
:104658000CF4785C43EA0C03C4F8803003698C6876
:10466800C3F8844003D103690C68C3F8884004691F
:10467800236F43F0010323670469D4F89031DB0703
:10468800FBD51AB9D4F888300B6004690123C4F843
:10469800943130BD00220123F0B587B0CDE9032263
:1046A8008DF80F308DF811300368858A997B902D2D
:1046B8000446CDE900229E6902920592ADF80C10DD
:1046C80005D0482D03D06946FFF79AFF18E000226D
:1046D80073782769143357F8230069466FF3090084
:1046E80047F82300A2822046FFF78AFF73782269E1
:1046F800143352F8231065F3090142F82310A582F8
:10470800236800989B79D84000F0010007B0F0BDFD
:10471800F8B5002800F0C3800E46002900F0BF80DD
:104728008F69002F00F0BB80684BC26805469A422B
:1047380000F0C0803B78002B40F0C380BB69002BA1
:1047480000F0AD80EFF31081012383F310884FF060
:104758000F135F4AC2F85035D2F8D0361B07FBD08A
:1047680081F31088EFF31081012383F310884FF44D
:104778000030C2F8640BD2F8640B81F31088EFF3B1
:10478800108183F310884FF00313C2F85038504A51
:10479800D2F8D04914F00304FAD181F310884B4AB7
:1047A800BB692E602B61EA60FA682AB1294649483C
:1047B800904700287BD12B697A783188143243F8E6
:1047C800221033882A69AB827B78002B6AD0136861
:1047D80023F0F85313607A683088137891781B04B3
:1047E8005278090501F4801103F470230B43C0F3D8
:1047F8000900520502F40012034313437A78296929
:10480800143241F822307B78F1782A690133890023
:104818001B0101F00C01D15079782A6933790131F3
:1048280002EB01121B04F17B03F4F81343EA0123A2
:1048380053602B69327B7978120203EB01139A617A
:104848007B782A69002B37D1136E43F00303136674
:1048580000263B7A2A691B0403F4803343F4786307
:1048680093602B6979781A6F61F3C3021A672B6911
:104878002A68117C9A6E61F307029A662B692A6886
:10488800517C9A6E61F30F229A66AE603B693BB128
:10489800294610489847044610B1EE6000E001240C
:1048A8002046F8BD116863F30C21116093E7EC60B2
:1048B8000446F5E70E24F3E7136E43F00C03136682
:1048C800C6E740F27A542046F8BD00BF495053511C
:1048D800000001412C690200F0B1104BC2689A42F5
:1048E80016D18B1E022B15D940F2FF33994211D0F5
:1048F80010B4036802699B6981825B7800201433D5
:1049080052F8234061F3090442F8234010BC704771
:1049180007207047032070470120704749505351C2
:1049280040B3154BC2689A4222D1002203689B69A2
:10493800C2601B7DD3B1EFF31081012383F310888C
:104948000E4A0F48C2F8640BD2F8640B81F3108842
:10495800EFF3108183F310884FF47023C2F85035B9
:10496800D2F8D0361B07FBD181F31088002070479E
:1049780007207047012070474950535100000141FA
:10498800FFFF0200C0B138B50C4DD0F80CC0AC45E3
:104998000AD103699B6EC3F30045DB030AD409B14E
:1049A800CB7B1BB9012038BD072038BDFFF728FE97
:1049B800284638BD052038BD01207047495053515D
:1049C800B8B1B1B110B5104AC46882B094420DD1E3
:1049D80003699A6ED2030ED4D3F8843113F0410FD1
:1049E8000BD001230B70002002B010BD072002B0CD
:1049F80010BD012070470520F6E70191FFF74AFE38
:104A080001990870EFE700BF495053512DE9F04173
:104A1800DFF838C11F46C36886B0634556D10369BD
:104A280006469B6EDC035AD403680D461446D3F839
:104A38001880FFF72FFE00284CD1002D42D0002C03
:104A480040D033689B68B4FBF3F203FB12429B1A15
:104A58009F4237D8402F35D83046FFF71BFE002835
:104A680038D10122336803905B7BCDE90000CDE9A2
:104A78000400029069463046ADF80C308DF80F20DE
:104A8800FFF7BEFDBB072ED0F80750D47A085AD0DE
:104A9800023D04EB420235F8023F24F8023B9442FF
:104AA800F9D1BFF34F8F402F2CD13269D2F884311E
:104AB800D907FBD598F80830012B2FD0002006B075
:104AC800BDE8F081012006B0BDE8F081072006B0FE
:104AD800BDE8F08149F6424006B0BDE8F081052006
:104AE80006B0BDE8F081BA082DD0043D04EB82027F
:104AF80055F8043F44F8043BA242F9D1BFF34F8F65
:104B0800402FD2D0052331694A68013B0092009AB0
:104B1800FAD14B6E43F480734B66C6E7D2F8843102
:104B2800DB07FBD4536E43F480635366C6E7013C4E
:104B38006A1E1346023312F8011F5B1B9F4204F8DA
:104B4800011FF6D8ADE7BFF34F8FDBE7495053514C
:104B580000282FD01A4BC2689A4201D0072070470C
:104B680010B483B00190019B02682BB34FF0000C86
:104B7800936901698DF803C09DF803405A788C6EDB
:104B8800D3066CF310448C6603F100431B78DBB248
:104B98008DF8033042B10269136E43F00C031366BB
:104BA800002003B010BC70470269136E43F0030382
:104BB8001366F5E701207047012003B010BC704769
:104BC8004950535100282CD0184BC2689A4201D042
:104BD8000720704782B00190019B02681BB3002137
:104BE800936902695B788DF803109DF803104FF004
:104BF800010C116E8BB16CF3830111660169002001
:104C08008A6EDB0642F480328A6603F100431B7821
:104C1800DBB28DF8033002B070476CF30101116606
:104C2800ECE701207047012002B07047495053510A
:104C38002DE9F043394B1546C26887B09A4258D1DE
:104C4800036906469B6EDA0357D4036888469F6952
:104C5800FFF720FD034600285DD1B8F1000F44D0CE
:104C680031688A7C002A40D04C6903E09A4204F1FA
:104C780008043AD060680133A842F7D1B4F800902C
:104C8800B9F1000F31D0002401224B7B3046694630
:104C98000394CDE90144ADF80C30CDE90444009407
:104CA8008DF80F20FFF7ACFC08F100430135CDE982
:104CB8000234CDE90044CDE90444ADF80C9004D0A9
:104CC8003368DC78144404F007040122694630464E
:104CD8008DF810408DF80F20FFF792FC3B7A934235
:104CE8000FD0002007B0BDE8F083012007B0BDE871
:104CF800F083072007B0BDE8F083052007B0BDE8C2
:104D0800F0833269D2F88431DB07FBD4536E43F465
:104D180080635366E5E749F64240E7E74950535157
:104D2800037D00B503F04E0E80F814E04A78F4468F
:104D380082700B780288C3F3C10363F30102028017
:104D48000B789B0703D591F90230002B0BDB0B780E
:104D5800C3F3800203F0010343EAC21343EA0C03DE
:104D680003755DF804FB4EF0100E80F814E08B78A4
:104D78004CF0200C8370EAE7F0B5846A85B00546EC
:104D88000F4694466E46B4B194E80F0086E80F00CB
:104D9800AB6920461B78A760236084F804C0EB6ADF
:104DA800E3606B6A9847AC6A1CB196E80F0084E828
:104DB8000F0005B0F0BD3446EAE700BF38B5C36957
:104DC800DA89D1062CD004460CE0420724D4A5B9D0
:104DD8000422606A18B12046FFF7CEFFE369DA893A
:104DE800D2061DD01A89997A90B212076569C9B29C
:104DF800EBD5400712D41022EBE723691970D4E9E8
:104E0800043101330139C4E904310029E6D1636A68
:104E1800002BE3D00122DEE70822DAE71822D8E7E0
:104E280038BD00BF002800F099804D4B02689A42B7
:104E380040F092800022012310B4C4690260A2806D
:104E480082694849546AB2F906204FEA521C02F0B6
:104E58001F0203FA02F20CF1200C41F82C20BFF3D8
:104E68004F8FBFF36F8F8269B2F912204FEA521C3D
:104E780002F01F0203FA02F20CF1200C41F82C2078
:104E8800BFF34F8FBFF36F8FB4F902204FEA521C64
:104E980002F01F0203FA02F20CF1200C41F82C2058
:104EA800BFF34F8FBFF36F8F8269B2F90A204FEAC1
:104EB800521C02F01F0203FA02F20CF1200C41F816
:104EC8002C20BFF34F8FBFF36F8F8269B2F90E208A
:104ED8004FEA521C02F01F0203FA02F20CF1200CF6
:104EE80041F82C20BFF34F8FBFF36F8FEFF310847F
:104EF80083F3108882691278042A25D91A4B1B4A31
:104F080013608269194B1178194A042998BF13460E
:104F18001B6884F31088EFF31084012383F310884F
:104F28008169A2F66832097803FA01F10904C2F826
:104F38008415816909788B40D2F804071840FBD1A1
:104F480084F3108810BC70474FF6FF711A449340E1
:104F580041EA0343064AD3E7072070470120704718
:104F68005546435300E100E0FFFF1000900B01415C
:104F7800680B014100B3F9B1F2B1034610B412480D
:104F88001C6884421AD1D868D8B9DC69B4F804C05E
:104F980060F3C71CA4F804C0DC69B4F804C060F36B
:104FA800820CA4F804C0C3E90212DC69A38843F0A8
:104FB8008003A38010BC704701207047072010BCF5
:104FC80070470820F6E700BF554643532DE9F041E6
:104FD800002800F0FF81002900F0FC814E6A002EB5
:104FE80000F0F881B368002B00F0F481B54B02683B
:104FF80005469A4200F0F5813F240B78DC4014F016
:10500800010400F0EB81B1F90630002BC0F2E38116
:10501800B1F90A30002BC0F2DE81B1F90E30002B55
:10502800C0F2D981B1F91230002BC0F2D481B6F99F
:105038000230002BC0F2CF81B369002B00F0CB8186
:1050480000220127C0E90613CB69DFF87CC243625E
:105058000B6A8262C362B1F912004C6A00F01F0346
:1050680042099F4020320B7C4CF82270BFF34F8FCF
:10507800BFF36F8F1A0648BFFE224FF0010CDFF80E
:1050880048E25CBF5B00DAB2904B0EEB000787F892
:10509800002343F82050B1F906000A79470900F0C7
:1050A8001F0820370CFA08FC4EF827C0BFF34F8FB3
:1050B800BFF36F8F170648BFFE224FF00107DFF8D6
:1050C80008C258BF52000CEB000E58BFD2B28EF87F
:1050D800002343F82050B4F90200227800F01F0E94
:1050E8004409203407FA0EF74CF82470BFF34F8FA9
:1050F800BFF36F8F140648BFFE224FF00107DFF899
:10510800C8C158BF52000CEB000458BFD2B284F893
:10511800002343F82050B1F90A000A7A440900F044
:105128001F0E203407FA0EF74CF82470BFF34F8F88
:10513800BFF36F8F170648BFFE224FF00107DFF855
:1051480088C158BF52000CEB000458BFD2B284F893
:10515800002343F82050B1F90E000A7B440900F0FF
:105168001F0E203407FA0EF74CF82470BFF34F8F48
:10517800BFF36F8F14064CBFFE22520000F160444B
:1051880058BFD2B204F5614484F8002343F8205094
:10519800EFF31084012282F310880B784C4802FA4E
:1051A80003F343EA0343C0F884350B789A40D0F8F8
:1051B80004371342FBD084F31088EFF310800123E7
:1051C80083F310880A78042A00F20D811A44934068
:1051D800404A1B0413600C783E4A3F4B042C98BF8E
:1051E80013461B6880F31088EFF31087012383F3BD
:1051F80010880A7803FA02F242EA0240344AC2F8F6
:10520800840808788340D2F8044A1C40FBD187F30D
:105218001088EB699C80EA6993899BB243F0060386
:105228009381EB691A891C81EB695A8A5C8233790C
:10523800002B00F0F980012B0BBF71277227012288
:105248000222EB699A804B788A78A3F10303B3FAB8
:1052580083F35B099B012AB1032A14BF43F020039F
:1052680043F03003CA78012A08BF43F00803EA690B
:105278009BB21380D1F8248098F804309A1E012A32
:1052880000F2CC80A3F10203B3FA83F3FF22E969A9
:105298005B090B75EB699A70EA6993899BB243F0D5
:1052A800060323F4FE6399B29181AA69516A0A7BC5
:1052B800101F0E2800F2AB80120202F5FA4292B2D9
:1052C8000CE000BF5546435300E100E0C073020004
:1052D80000000141680B0141900B0141497B0629FF
:1052E8009CBF013143EA0123E96923F00603CA821E
:1052F800EA699BB2938198F80520002A00F0818022
:10530800EA69137D43F00403137500230320012287
:10531800C5E90233C5E90433A9692884B1F906103F
:105328004B099B0001F01F0103F1604302FA01F1F0
:1053380003F56143C3F880111960AB69B3F9121022
:105348004B099B0001F01F0103F1604302FA01F1D0
:1053580003F56143C3F880111960B6F902104B09CF
:105368009B0001F01F0103F1604302FA01F103F50C
:105378006143C3F880111960AB69B3F90A104B098E
:105388009B0001F01F0103F1604302FA01F103F5EC
:105398006143C3F880111960AB69B3F90E104B096A
:1053A8009B0001F01F0103F160438A4003F561434C
:1053B800C3F880211A60EB699F80F37BBBB1EA696F
:1053C800938943F008039381EA69298C184B118269
:1053D8002B6000E001242046BDE8F08140F27A54B9
:1053E800F9E70E24F7E74FF48013124AF2E62A8C05
:1053F800E96942F0C0022A848A8963F3C3028A8178
:10540800E2E7E9690B7D62F382030B757DE7501EC5
:10541800022898BF43EA821300225FE7D8F80810F1
:10542800E869FFF77DFC37E77027224609E700BFE8
:1054380055464353900B014110B4EFF30383C3F374
:1054480008031F4A103B1BB252F8230083699B696B
:10545800ABB1C3680BB110BC7047C2690021938817
:1054680023F080031B041B0C43F004039380436A5E
:105478008160002BEFD0802210BCFFF77DBCC4698F
:10548800C3682246002BE9D0E189C1F304210F2922
:1054980010D883681B780131A371D0E90232102932
:1054A80002F1FF3203F10103C0E90232C46901D0FD
:1054B800002AEFD1238923F020032381C9E700BF05
:1054C800C073020010B5EFF30383C3F30803084A5F
:1054D800103B1BB252F823402046FFF76FFCE269ED
:1054E800138923F002031B041B0C138110BD00BF9A
:1054F800C073020038B5EFF30383C3F30803154AFA
:10550800103B1BB252F82350EA691489A4B224F064
:1055180041039BB21381E20717D4630611D5EA69E8
:10552800E96893889BB269B123F004039BB2938026
:105538006B6A33B12846BDE8384002220021FFF7E4
:105548001BBC38BD23F08403F0E72846FFF736FC80
:10555800E3E700BFC0730200EFF30383C3F308035C
:10556800074A103B1BB252F82330DA6911898BB213
:10557800090644BF23F080039BB21381704700BF24
:10558800C0730200EFF30383C3F30803184A103B08
:105598001BB252F82300C1690A894B8A1FFA82FCA0
:1055A800D2069BB203D4DA071DD5202210E02CF0D6
:1055B800100CDA071FFA8CFC09D4A1F808C0C169DD
:1055C80040224B82436A6BB10021FFF7D5BB6022B2
:1055D800A1F808C0C16923F001039BB24B82436A5A
:1055E800002BF1D17047A1F808C0C26953827047F7
:1055F800C07302000322F0B54FF0010EC0F3072577
:105608006B1EC0F3850C214E0CEB430C5FFA8CFC2F
:10561800104056F82C7000FA02F30EFA03F027EA4D
:1056280000076FEA000EC1F380409840184C3843D9
:1056380046F82C0054F82C609A40C1F3812026EAE1
:1056480002069840304344F82C00F5B9D243C1F320
:10565800C04000FA03F5D4F8F80F04F6F8740EEA1F
:10566800000028432060D4F80054C1F301501540CD
:1056780098402843C4F80004D4F80008C1F38151C5
:10568800024099401143C4F80018F0BD08180341BE
:10569800081003410122C3B29A40F0B5D5B2FF2DDC
:1056A800364EC0F30724C1F3004C08D0A55D0CFAB0
:1056B80003FC25EA020242EA0C025FFA82FC04F8C3
:1056C80006C04FF0070C03224FF0010E2C4F9E002E
:1056D800C1F30265B5400CFA06FC57F824609B0834
:1056E80026EA0C0C45EA0C05264E03EB440347F862
:1056F8002450DBB200F0030056F82350C00082406B
:10570800C1F3812425EA020584402C4346F823404E
:1057180006F5406656F82350C1F3011425EA020540
:1057280084402C4346F8234006F5806656F82350FB
:105738000EFA00FEC1F3C044844025EA0E0C44EA88
:105748000C0446F82340104CC1F3015CC1F38151AD
:105758000CFA00FC814054F8230020EA02004CEACD
:10576800000044F8230004F5806454F8230020EA7C
:105778000202114344F82310F0BD00BF2002034188
:105788008004034100110341002503414FF0010C3F
:10579800C3B20CFA03FC2DE9F04F5FFA8CF6FF2E2A
:1057A800454FC0F30722C1F3004405D0D55D9C40A6
:1057B80025EA0C052C43E4B2D45503244FF6FF78B0
:1057C8005D00AC401FFA84F9C1453C4FC1F3810E1E
:1057D8000BD00EFA05F537F812E01FFA8EFE2EEA06
:1057E800040E4EEA050E1FFA8EFEFF2E27F812E071
:1057F80001F00104324F05D0D55D9C4025EA0C0527
:105808002C43E4B24FF0030C4FF0010E9B082D4DD2
:1058180003EB4203D455DBB200F0030055F823B084
:10582800C0000CFA00FCC1F3812A0AFA00FA2BEA3C
:105838000C0BDFF894904AEA0B0A45F823A059F8B4
:105848002350C1F3011808FA00F825EA0C051F4F88
:1058580048EA050549F8235057F823500EFA00FE88
:10586800C1F38034844025EA0E05194E2C4347F8CD
:10587800234056F82340C1F3C042824024EA0E0474
:105888002243144C46F82320C1F30152C1F381513D
:105898008240814054F8230020EA0C0002430E485D
:1058A80044F8232050F8232022EA0C02114340F840
:1058B8002310BDE8F08F00BF2002034140010341DF
:1058C8002000034100110341001D0341002D034145
:1058D80000210341002503410029034100B3114B76
:1058E8000068984218D1012A18D80123C8B2834009
:1058F800D8B2FF2810B4C1F3072C0B4C07D0C9B29B
:105908008A401CF8041021EA03031343DAB20CF8A6
:105918000420002010BC7047072070470320704700
:105928000120704754524F502000034170B505467E
:10593800EFF31082012383F310881F4E33681BB9DD
:105948001E490B6040230B6033680133336082F3D8
:1059580010882B88D3B1002406E0FFF79BFE2A8825
:105968000134A3B29A4211D96B6803EBC4025068A0
:1059780053F83410B0F5803F1BD2CB03EDD4FFF7BA
:1059880005FF01342A88A3B29A42EDD8EFF31082BA
:10599800012383F31088336813B13368013B336004
:1059A80033681BB9802005490B60086082F31088B2
:1059B80070BDFFF71FFED2E7BC7302000030034141
:1059C800A0B199B14A6808B5034652B1094A1868A6
:1059D80090420DD008461A609960FFF7A7FF002093
:1059E80008BD0A88002AF1D0012008BD01207047AF
:1059F8000E2008BD54524F5050B1064B02689A42CF
:105A080004D10122836800201A7570470720704767
:105A1800012070474D54470000284ED0284B02689B
:105A28009A4248D1012210B583681A764368B3F9BF
:105A3800123013F1210F12D05909224C03F01F0321
:105A48009A4001F1200344F82320BFF34F8FBFF39E
:105A58006F8F42681C4BB2F9122043F822000023D2
:105A68000360EFF3108E012383F310884FF6FF7C59
:105A78004268117C154A043103FA01F14CEA0141EC
:105A8800C2F87C1BD2F87C1B8EF31088EFF3108CC5
:105A980083F310884168097C03FA01F10904C2F80C
:105AA80034154168097C8B40D2F8B4061840FBD104
:105AB8008CF3108810BD072070470120704700BF85
:105AC8004D54470000E100E0C073020000000141AE
:105AD800002800F0C080002900F0BD80CB69002BB1
:105AE80000F0B9805B68002B00F0B58070B5624AA1
:105AF80004460068904200F0B7804A69002A00F026
:105B0800AC80B1F91220002AC0F2B0804A68002A9D
:105B180000F0A880FF22087CC240D20740F1A8808C
:105B2800C4E90113EFF31085012282F310880B7C7E
:105B3800524802FA03F343EA0343C0F834350B7CB6
:105B48009A40D0F8B4361342FBD085F31088EFF3AF
:105B58001085012282F310880B7C043302FA03F3C8
:105B68001B04C0F87C3BD0F87C3B85F31088EFF32E
:105B7800108582F310880B7C02FA03F31B04C0F82B
:105B880034380B7C3D489A40D0F8B4391342FBD0E6
:105B980085F31088EFF3108C012282F310880B7CB8
:105BA800364D02FA03F343EA0343C0F834380B7C5A
:105BB8009A40D5F8B4091040FBD18CF31088012223
:105BC800A3681A764B68A268E3601360CA69137801
:105BD8005278A3F10103B3FA83F3012A4FEA53136E
:105BE80008BF43F00203A268DBB282F82030B1F9A3
:105BF8001230002B26DB91F9112091F811C0002AF0
:105C0800B8BF4FF0FE0C4FF00105A8BF4FEA4C0C8F
:105C18001B4E4FEA531203F1604EA8BF5FFA8CFC8B
:105C28000EF5614E92008EF800C302F1604246F80C
:105C3800234003F01F0302F5614205FA03F3C2F89B
:105C48008031136000234A69226189690A4AA16187
:105C58002260636170BD012070470A78012A7FF4D1
:105C680055AF4EE7012070BD0E2070BD0B2070BDF2
:105C780040F27A5070BD00BF4D544700000001410A
:105C8800C073020049B140B1064B02689A4206D17E
:105C98008368C160002019607047012070470720A1
:105CA800704700BF4D544700C1B138B50446B8B17C
:105CB8000C4B02689A420FD1C3680F208B600D46C7
:105CC80000F0D2F803466B60A368002093F82030F8
:105CD800C3F340032B7038BD072038BD012070473F
:105CE800012038BD4D54470030B585B0EFF303832C
:105CF800C3F30803124A103B1BB252F823406368EF
:105D08001B78012B04BFA268137623699BB16369D2
:105D180001AD93B193E8070085E8070000221A71E6
:105D2800A26918461A602369984763691BB195E808
:105D3800070083E8070005B030BD2B46EEE700BF3B
:105D4800C0730200024A034B52681A60704700BFD2
:105D5800F86D0200407B020070B442F6E065134B18
:105D6800134A1448C3E90D22C3E90F20C3E91120DF
:105D78009A61114A1149C3E91402114C114E124A91
:105D8800C3E90B011160C3E90061C3E909449960E3
:105D98001C620E490E4C0F4ADC64C3E904120E4C17
:105DA8000E48DD609C65D86170BC7047F86D0200D4
:105DB80000E1F50500C2EB0B0084D71780B2E60EB0
:105DC8005581F20700AB9041407B020055A0FC01D1
:105DD800006889092A50FE0000366E0180F0FA0238
:105DE80070B442F6E065134B134A1448C3E90D2218
:105DF800C3E90F20C3E911209A61114A1149C3E987
:105E08001402114C114E124AC3E90B011160C3E987
:105E18000061C3E9094499601C620E490E4C0F4A9F
:105E2800DC64C3E904120E4C0E48DD609C65D86141
:105E380070BC7047F86D020000E1F50500C2EB0B7D
:105E48000084D71780B2E60E5581F20700AB904167
:105E5800407B020055A0FC01006889092A50FE0019
:105E680000366E0180F0FA02014B53F820007047AB
:105E7800F86D0200034620B14FF0806200201A60DE
:105E880070470120704700BF00BF704700BE7047D1
:105E980008B500F005F8FEF7A5FBFEE700BE704761
:105EA80070B50020FEF776F9FFF756FF0120FEF7E0
:105EB80071F90F480F4A0021121A00F0D1F80E4D5F
:105EC8000E4B5B1B002B07DD00249E1055F8043B8E
:105ED80001349847A642F9DCFFF734FF0220FEF7A9
:105EE80059F9FFF7D1FFBDE87040002000F008B86D
:105EF800586E02007C7C0200F86B0200F86B02000E
:105F0800704700BF844641EA000313F0030349D1F8
:105F1800403A23D30B6803604B6843608B68836007
:105F2800CB68C3600B6903614B6943618B6983610B
:105F3800CB69C3610B6A03624B6A43628B6A8362F3
:105F4800CB6AC3620B6B03634B6B43638B6B8363DB
:105F5800CB6BC36340304031403ADBD230320BD395
:105F68000B6803604B6843608B688360CB68C360D1
:105F780010301031103AF3D20C3205D351F8043BEB
:105F880040F8043B043AF9D2043208D0D2071CBFC7
:105F980011F8013B00F8013B01D30B8803806046F0
:105FA800704700BF082A13D38B07B1D010F0030342
:105FB800AED0C3F10403D21ADB071CBF11F8013BB2
:105FC80000F8013BA4D331F8023B20F8023B9FE7DD
:105FD800043AD9D3013A11F8013B00F8013BF9D250
:105FE8000B7803704B7843708B78837060467047EA
:105FF80020F0030110F00300C0F1000051F8043B49
:1060080000F1040C4FEACC0C6FF000021CBF22FA1E
:106018000CF213434FF0010C4CEA0C2C4CEA0C4CDC
:10602800A3EB0C0222EA030212EACC1204BF51F8D5
:10603800043B0430F4D0C2F1000102EA0102B2FAD2
:1060480082F2C2F11F0200EBD2007047014B1868C0
:10605800704700BFB46A02000A22002100F0D8B8D5
:1060680070B5860747D0541E002A3ED0CAB20346F0
:1060780001E0013C39D303F8012B9D07F9D1032C2A
:106088002CD9CDB20F2C05EB052505EB054535D9E7
:10609800A4F1100C03F1100E1A462CF00F064FEA6B
:1060A8001C1CB644C2E90055C2E9025510327245BB
:1060B800F8D10CF1010214F00C0F04F00F0C03EBF3
:1060C800021213D0ACF1040323F003030433134486
:1060D80042F8045B9342FBD10CF003042CB1C9B223
:1060E8001C4403F8011BA342FBD170BD6446134650
:1060F800002CF4D1F9E703461446C0E71A46A44633
:10610800E0E700BF2DE9F04F82468E463F487546CE
:106118001EF801BB10F80B4014F00804F7D1BBF1CE
:106128002D0F5BD0BBF12B0F6FF0004904BF9EF819
:1061380000B005F1020E33F0100010D1BBF1300FA2
:1061480004D0002B5ED10A231F4609E09EF8000008
:1061580000F0DF0058284ED0002B53D108231F46EB
:106168000025B9FBF7F6284607FB16980EE0ABF1B9
:10617800370C63451DDD002D04DB864202D321D197
:10618800E0451FDA4FF0FF351EF801BBABF1300CCC
:10619800BCF1090FEDD9ABF1410CBCF1190FE6D9EF
:1061A800ABF1610CBCF1190F03D8ABF1570C634587
:1061B800E1DC6B1C0AD004B140420AB1CDB91160D0
:1061C800BDE8F08F07FB00C00125DDE72223CAF8F0
:1061D80000305AB10EF1FF314846F0E79EF800B0A2
:1061E8004FF0004905F1020E0124A4E74846BDE836
:1061F800F08F8146EEE710239EF801B00EF1020EF3
:106208001F46ADE710231F46AAE700BF6D690200CD
:1062180010B5242A094C1346246808D8012A06D048
:106228000A4601462046BDE81040FFF76BBFFFF75E
:106238000DFF16230360002010BD00BFB46A0200E2
:106248004275696C74207769746820525A2F472008
:10625800466C657869626C6520536F667477617205
:1062680065205061636B6167652076657273696F3D
:106278006E20342E302E3000342E302E30000000A8
:10628800000000045465726D696E616C00000000C6
:10629800284E554C4C290000342E302E300000007A
:1062A8000D0A2A2A2A2A2A2A2A2A2A2A2A2A2A2A83
:1062B8002A2A2A2A2A2A2A2A2A2A2A2A2A2A2A2A36
:1062C8002A2A2A2A2A2A2A2A2A2A2A2A2A2A2A2A26
:1062D8002A2A2A2A2A2A2A2A2A2A2A2A2A2A2A2A16
:1062E8002A2A2A2A2A2A2A2A2A2A2A2A2A2A2A2A06
:1062F8002A2A0D0A2A20202052656E6573617320B0
:10630800465350204578616D706C652050726F6AF5
:1063180065637420666F7220725F736369665F7568
:10632800617274204D6F64756C65202020202020D8
:106338002020202020202020202020202020202055
:106348002020202A0D0A2A2020204578616D706CB3
:10635800652050726F6A6563742056657273696F41
:106368006E2025732020202020202020202020207F
:106378002020202020202020202020202020202015
:106388002020202020202020202020202020202005
:1063980020202A0D0A2A202020466C657820536F79
:1063A800667477617265205061636B2056657273FD
:1063B800696F6E2025642E25642E256420202020F8
:1063C80020202020202020202020202020202020C5
:1063D80020202020202020202020202020202020B5
:1063E800202020202020202A0D0A2A2A2A2A2A2A88
:1063F8002A2A2A2A2A2A2A2A2A2A2A2A2A2A2A2AF5
:106408002A2A2A2A2A2A2A2A2A2A2A2A2A2A2A2AE4
:106418002A2A2A2A2A2A2A2A2A2A2A2A2A2A2A2AD4
:106428002A2A2A2A2A2A2A2A2A2A2A2A2A2A2A2AC4
:106438002A2A2A2A2A2A2A2A2A2A0D0A5265666517
:106448007220746F20726561646D652E7478742093
:1064580066696C6520666F72206D6F726520646571
:106468007461696C73206F6E204578616D706C651E
:106478002050726F6A65637420616E640D0A46531A
:106488005020557365722773204D616E75616C20BD
:10649800666F72206D6F726520696E666F726D61CE
:1064A80074696F6E2061626F757420725F736369BF
:1064B800665F75617274206472697665720D0A0090
:1064C8000D0A5468652070726F6A65637420696E7E
:1064D800697469616C697A657320746865205541CF
:1064E80052542077697468206261756420726174FF
:1064F80065206F6620313135323030206270732E5E
:106508000D0A4F70656E2053657269616C20546581
:10651800726D696E616C207769746820746869733C
:10652800206261756420726174652076616C75659E
:1065380020616E640D0A50726F7669646520496E39
:106548007075742072616E67696E672066726F6D10
:106558002031202D203230303020746F2073657444
:10656800204C454420506572696F640D0A00000094
:106578002A2A2067746D5F696E697469616C697A2B
:1065880065206661696C6564202A2A0D0A0000008E
:106598000D0A52657475726E6564204572726F7269
:1065A80020436F64653A203078257820200D0A0052
:1065B8002A2A2067746D5F7374617274206661693A
:1065C8006C6564202A2A0D0A000000002A2A20751A
:1065D8006172745F696E697469616C697A65206655
:1065E80061696C6564202A2A0D0A00002A2A207530
:1065F8006172745F65705F64656D6F206661696C58
:106608006564202A2A0D0A002A2A2020525F534353
:1066180049465F554152545F4F70656E204150495D
:10662800206661696C656420202A2A0D0A00000032
:106638005B4552525D20496E2046756E6374696FE2
:106648006E3A20257328292C202573002A2A202019
:10665800525F534349465F554152545F57726974BC
:106668006520415049206661696C656420202A2AAA
:106678000D0A00002A2A20205541525420457272E2
:106688006F72204576656E7420526563656976651C
:106698006420202A2A0D0A000D0A496E76616C6969
:1066A8006420696E7075742E20496E70757420723E
:1066B800616E67652069732066726F6D2031202DC9
:1066C80020323030300D0A002A2A20207561727479
:1066D8005F7072696E745F757365725F6D73672042
:1066E8006661696C656420202A2A0D0A0000000092
:1066F8002A2A207365745F6379636C652066616913
:106708006C6564202A2A0D0A000000000D0A416306
:106718006365707465642076616C75652C20746897
:1067280065206C656420697320626C696E6B696EA4
:1067380067207769746820746861742076616C7565
:10674800650D0A00506C656173652073657420746B
:106758006865206E6578742076616C75650D0A0031
:106768002A2A2020525F534349465F554152545FBD
:10677800436C6F736520415049206661696C65649C
:1067880020202A2A0D0A00000000000000005454AE
:1067980052205245474745530000000030313233FC
:1067A8003435363738394142434445466465696E65
:1067B80069745F7561727400756172745F70726973
:1067C8006E745F757365725F6D736700756172745F
:1067D8005F696E697469616C697A65007561727464
:1067E8005F65705F64656D6F0000000054730200A0
:1067F8004873020030730200587302000C680200EC
:106808002C690200000000020000000000000000E7
:1068180002060503AA55040044680200286802001D
:1068280000000000AC6A020000000000E54502001C
:10683800E9450200000000000000064020000000BA
:10684800001000005200000000800000D800000086
:1068580000000100C7000000FFFFFFFF0102000069
:106868000E0047010E0048010E0049010E004501C7
:106878000000000000000000F144020000000000D9
:106888008C6802000E00460100000000B06A020099
:106898000306000000000000FFFF000000BC0440E9
:1068A80000000000FFC1EB0B00000000000000002A
:1068B80001142D00B542020000000000C868020063
:1068C80000000000001480420A000000DC6802009A
:1068D800F46702000C04000002150000000C01001F
:1068E80000060000000C010001060000000800007E
:1068F8000404FFFF000800000005FFFF0008000077
:106908000105FFFF000800000205FFFF0008000066
:106918000305FFFF000800000104FFFF0008000056
:106928000004FFFF19470200FD450200014602006E
:106938008D490200E1480200154A0200394C020064
:10694800C9490200CD4B0200594B0200054602001E
:10695800F9450200294902000100000068690200A7
:106968000215000000202020202020202020282898
:1069780028282820202020202020202020202020F7
:106988002020202020881010101010101010101037
:106998001010101010040404040404040404041067
:1069A80010101010101041414141414101010101F5
:1069B80001010101010101010101010101010101BF
:1069C80010101010101042424242424202020202CB
:1069D800020202020202020202020202020202028F
:1069E800101010102000000000000000000000003F
:1069F800000000000000000000000000000000008F
:106A0800000000000000000000000000000000007E
:106A1800000000000000000000000000000000006E
:106A2800000000000000000000000000000000005E
:106A3800000000000000000000000000000000004E
:106A4800000000000000000000000000000000003E
:106A5800000000000000000000000000000000002E
:106A6800000000000000000010000000000000000E
:106A7800017A5200027C0E011B0C0D00140000006C
:106A88001800000080F4FFFFEC00000000024D0A2F
:046A9800430B0000AC
:086A9C0070F4FF7F010000000F
:046AA40000000000EE
:106AA800010000000600000004350000B86A02007A
:106AB80000000000447B0200AC7B0200147C020052
:106AC80000000000000000000000000000000000BE
:106AD80000000000000000000000000000000000AE
:106AE800000000000000000000000000000000009E
:106AF800000000000000000000000000000000008E
:106B0800000000000000000000000000000000007D
:106B1800000000000000000000000000000000006D
:106B2800000000000000000000000000000000005D
:106B3800000000000000000000000000000000004D
:106B4800000000000000000001000000000000003C
:106B58000E33CDAB34126DE6ECDE05000B00000001
:106B6800000000000000000000000000000000001D
:106B7800000000000000000000000000000000000D
:106B880000000000000000000000000000000000FD
:106B980000000000000000000000000000000000ED
:106BA80000000000000000000000000000000000DD
:106BB80000000000000000000000000000000000CD
:106BC80000000000000000000000000000000000BD
:106BD80000000000000000000000000000000000AD
:106BE800000000000000000000000000000000009D
:04000003200039C9D7
:00000001FF
